{
  "address": "0xbeD147bfD1cD36F5BE577ad2002aE8Da303D2935",
  "abi": [
    {
      "inputs": [
        {
          "internalType": "address",
          "name": "_implementation",
          "type": "address"
        }
      ],
      "stateMutability": "nonpayable",
      "type": "constructor"
    },
    {
      "anonymous": false,
      "inputs": [
        {
          "indexed": true,
          "internalType": "uint256",
          "name": "editionId",
          "type": "uint256"
        },
        {
          "indexed": true,
          "internalType": "address",
          "name": "creator",
          "type": "address"
        },
        {
          "indexed": false,
          "internalType": "uint256",
          "name": "editionSize",
          "type": "uint256"
        },
        {
          "indexed": true,
          "internalType": "address",
          "name": "editionContractAddress",
          "type": "address"
        }
      ],
      "name": "CreatedEdition",
      "type": "event"
    },
    {
      "inputs": [
        {
          "internalType": "uint256",
          "name": "",
          "type": "uint256"
        }
      ],
      "name": "collection",
      "outputs": [
        {
          "internalType": "string",
          "name": "_name",
          "type": "string"
        },
        {
          "internalType": "address",
          "name": "editionContractAddress",
          "type": "address"
        }
      ],
      "stateMutability": "view",
      "type": "function"
    },
    {
      "inputs": [],
      "name": "collectionCount",
      "outputs": [
        {
          "internalType": "uint256",
          "name": "",
          "type": "uint256"
        }
      ],
      "stateMutability": "view",
      "type": "function"
    },
    {
      "inputs": [
        {
          "internalType": "string",
          "name": "_baseURI",
          "type": "string"
        },
        {
          "internalType": "string",
          "name": "_name",
          "type": "string"
        },
        {
          "internalType": "string",
          "name": "_symbol",
          "type": "string"
        },
        {
          "internalType": "string",
          "name": "_description",
          "type": "string"
        },
        {
          "internalType": "uint256",
          "name": "_editionSize",
          "type": "uint256"
        },
        {
          "internalType": "uint256",
          "name": "_royaltyBPS",
          "type": "uint256"
        }
      ],
      "name": "createEdition",
      "outputs": [
        {
          "internalType": "uint256",
          "name": "",
          "type": "uint256"
        }
      ],
      "stateMutability": "nonpayable",
      "type": "function"
    },
    {
      "inputs": [
        {
          "internalType": "uint256",
          "name": "editionId",
          "type": "uint256"
        }
      ],
      "name": "getEditionAtId",
      "outputs": [
        {
          "internalType": "contract erc721Dynamic",
          "name": "",
          "type": "address"
        }
      ],
      "stateMutability": "view",
      "type": "function"
    },
    {
      "inputs": [],
      "name": "implementation",
      "outputs": [
        {
          "internalType": "address",
          "name": "",
          "type": "address"
        }
      ],
      "stateMutability": "view",
      "type": "function"
    },
    {
      "inputs": [],
      "name": "readAllCollections",
      "outputs": [
        {
          "components": [
            {
              "internalType": "string",
              "name": "_name",
              "type": "string"
            },
            {
              "internalType": "address",
              "name": "editionContractAddress",
              "type": "address"
            }
          ],
          "internalType": "struct dFactory.Collection[]",
          "name": "",
          "type": "tuple[]"
        }
      ],
      "stateMutability": "view",
      "type": "function"
    }
  ],
  "transactionHash": "0xfdc5f9283226bf82e051313e22df9cbadace2703d02d99533737392b704ad75e",
  "args": [
    "0xB9C1A2210775bD63ad9631042766f6e9F7cB73E6"
  ],
  "numDeployments": 1,
  "solcInputHash": "5c4241960233aaff37ee0790ed7b3b56",
  "bytecode": "0x6080604052600060025534801561001557600080fd5b50604051610ba7380380610ba783398101604081905261003491610059565b600180546001600160a01b0319166001600160a01b0392909216919091179055610089565b60006020828403121561006b57600080fd5b81516001600160a01b038116811461008257600080fd5b9392505050565b610b0f806100986000396000f3fe608060405234801561001057600080fd5b50600436106100625760003560e01c80635c60da1b14610067578063ac52edfd14610097578063adee9cc4146100aa578063d57f966b146100bf578063eda1f09b146100d6578063f0772377146100e9575b600080fd5b60015461007a906001600160a01b031681565b6040516001600160a01b0390911681526020015b60405180910390f35b61007a6100a5366004610656565b61010a565b6100b26101a9565b60405161008e91906106b5565b6100c860025481565b60405190815260200161008e565b6100c86100e43660046107d7565b610329565b6100fc6100f7366004610656565b6104ed565b60405161008e929190610896565b60015460408051602081018490526000926101a3926001600160a01b039091169101604051602081830303815290604052610144906108c0565b30604051733d602d80600a3d3981f3363d3d373d3d3d363d7360601b8152606093841b60148201526f5af43d82803e903d91602b57fd5bf3ff60801b6028820152921b6038830152604c8201526037808220606c830152605591012090565b92915050565b6060600060025467ffffffffffffffff8111156101c8576101c8610734565b60405190808252806020026020018201604052801561020e57816020015b6040805180820190915260608152600060208201528152602001906001900390816101e65790505b50905060005b6002548110156103235760038181548110610231576102316108e4565b906000526020600020906002020160405180604001604052908160008201805461025a906108fa565b80601f0160208091040260200160405190810160405280929190818152602001828054610286906108fa565b80156102d35780601f106102a8576101008083540402835291602001916102d3565b820191906000526020600020905b8154815290600101906020018083116102b657829003601f168201915b5050509183525050600191909101546001600160a01b03166020909101528251839083908110610305576103056108e4565b6020026020010181905250808061031b9061092e565b915050610214565b50919050565b60008061033560005490565b6001546040805160208101849052929350600092610375926001600160a01b03169101604051602081830303815290604052610370906108c0565b6105b2565b604051635b5cfe0d60e01b81529091506001600160a01b03821690635b5cfe0d906103b09033908d908d908d908d908d908d90600401610955565b600060405180830381600087803b1580156103ca57600080fd5b505af11580156103de573d6000803e3d6000fd5b50505050806001600160a01b0316336001600160a01b0316837f152014b245a12a32e125b8a4227ff155636ca7ca6ba15d04c5d07966e55c5cc78860405161042891815260200190565b60405180910390a461043e600080546001019055565b604080518082019091528881526001600160a01b038216602082015260038054600181018255600091909152815182916002027fc2575a0e9e593c00f959f8c92f12db2869c3395a3b0502d05e2516446f71f85b019081906104a09082610a19565b5060209190910151600190910180546001600160a01b0319166001600160a01b03909216919091179055600280549060006104da8361092e565b90915550929a9950505050505050505050565b600381815481106104fd57600080fd5b9060005260206000209060020201600091509050806000018054610520906108fa565b80601f016020809104026020016040519081016040528092919081815260200182805461054c906108fa565b80156105995780601f1061056e57610100808354040283529160200191610599565b820191906000526020600020905b81548152906001019060200180831161057c57829003601f168201915b505050600190930154919250506001600160a01b031682565b6000604051733d602d80600a3d3981f3363d3d373d3d3d363d7360601b81528360601b60148201526e5af43d82803e903d91602b57fd5bf360881b6028820152826037826000f59150506001600160a01b0381166101a35760405162461bcd60e51b815260206004820152601760248201527f455243313136373a2063726561746532206661696c6564000000000000000000604482015260640160405180910390fd5b60006020828403121561066857600080fd5b5035919050565b6000815180845260005b8181101561069557602081850181015186830182015201610679565b506000602082860101526020601f19601f83011685010191505092915050565b60006020808301818452808551808352604092508286019150828160051b87010184880160005b8381101561072657888303603f19018552815180518785526107008886018261066f565b918901516001600160a01b031694890194909452948701949250908601906001016106dc565b509098975050505050505050565b634e487b7160e01b600052604160045260246000fd5b600082601f83011261075b57600080fd5b813567ffffffffffffffff8082111561077657610776610734565b604051601f8301601f19908116603f0116810190828211818310171561079e5761079e610734565b816040528381528660208588010111156107b757600080fd5b836020870160208301376000602085830101528094505050505092915050565b60008060008060008060c087890312156107f057600080fd5b863567ffffffffffffffff8082111561080857600080fd5b6108148a838b0161074a565b9750602089013591508082111561082a57600080fd5b6108368a838b0161074a565b9650604089013591508082111561084c57600080fd5b6108588a838b0161074a565b9550606089013591508082111561086e57600080fd5b5061087b89828a0161074a565b9350506080870135915060a087013590509295509295509295565b6040815260006108a9604083018561066f565b905060018060a01b03831660208301529392505050565b805160208083015191908110156103235760001960209190910360031b1b16919050565b634e487b7160e01b600052603260045260246000fd5b600181811c9082168061090e57607f821691505b60208210810361032357634e487b7160e01b600052602260045260246000fd5b60006001820161094e57634e487b7160e01b600052601160045260246000fd5b5060010190565b6001600160a01b038816815260e0602082018190526000906109799083018961066f565b828103604084015261098b818961066f565b9050828103606084015261099f818861066f565b905082810360808401526109b3818761066f565b60a0840195909552505060c0015295945050505050565b601f821115610a1457600081815260208120601f850160051c810160208610156109f15750805b601f850160051c820191505b81811015610a10578281556001016109fd565b5050505b505050565b815167ffffffffffffffff811115610a3357610a33610734565b610a4781610a4184546108fa565b846109ca565b602080601f831160018114610a7c5760008415610a645750858301515b600019600386901b1c1916600185901b178555610a10565b600085815260208120601f198616915b82811015610aab57888601518255948401946001909101908401610a8c565b5085821015610ac95787850151600019600388901b60f8161c191681555b5050505050600190811b0190555056fea264697066735822122072387667e42e727c7571c085842260c014271b861fb3d3b8da3cb60f7421ae6d64736f6c63430008100033",
  "devdoc": {
    "kind": "dev",
    "methods": {},
    "version": 1
  },
  "userdoc": {
    "kind": "user",
    "methods": {},
    "version": 1
  },
  "storageLayout": {
    "storage": [
      {
        "astId": 4562,
        "contract": "contracts/dFactory.sol:dFactory",
        "label": "atContract",
        "offset": 0,
        "slot": "0",
        "type": "t_struct(Counter)3172_storage"
      },
      {
        "astId": 4564,
        "contract": "contracts/dFactory.sol:dFactory",
        "label": "implementation",
        "offset": 0,
        "slot": "1",
        "type": "t_address"
      },
      {
        "astId": 4567,
        "contract": "contracts/dFactory.sol:dFactory",
        "label": "collectionCount",
        "offset": 0,
        "slot": "2",
        "type": "t_uint256"
      },
      {
        "astId": 4581,
        "contract": "contracts/dFactory.sol:dFactory",
        "label": "collection",
        "offset": 0,
        "slot": "3",
        "type": "t_array(t_struct(Collection)4586_storage)dyn_storage"
      }
    ],
    "types": {
      "t_address": {
        "encoding": "inplace",
        "label": "address",
        "numberOfBytes": "20"
      },
      "t_array(t_struct(Collection)4586_storage)dyn_storage": {
        "base": "t_struct(Collection)4586_storage",
        "encoding": "dynamic_array",
        "label": "struct dFactory.Collection[]",
        "numberOfBytes": "32"
      },
      "t_string_storage": {
        "encoding": "bytes",
        "label": "string",
        "numberOfBytes": "32"
      },
      "t_struct(Collection)4586_storage": {
        "encoding": "inplace",
        "label": "struct dFactory.Collection",
        "members": [
          {
            "astId": 4583,
            "contract": "contracts/dFactory.sol:dFactory",
            "label": "_name",
            "offset": 0,
            "slot": "0",
            "type": "t_string_storage"
          },
          {
            "astId": 4585,
            "contract": "contracts/dFactory.sol:dFactory",
            "label": "editionContractAddress",
            "offset": 0,
            "slot": "1",
            "type": "t_address"
          }
        ],
        "numberOfBytes": "64"
      },
      "t_struct(Counter)3172_storage": {
        "encoding": "inplace",
        "label": "struct CountersUpgradeable.Counter",
        "members": [
          {
            "astId": 3171,
            "contract": "contracts/dFactory.sol:dFactory",
            "label": "_value",
            "offset": 0,
            "slot": "0",
            "type": "t_uint256"
          }
        ],
        "numberOfBytes": "32"
      },
      "t_uint256": {
        "encoding": "inplace",
        "label": "uint256",
        "numberOfBytes": "32"
      }
    }
  }
}