{
  "address": "0xccAfE370Ba9F5b57b877c8282CC5973095721a1A",
  "abi": [
    {
      "anonymous": false,
      "inputs": [
        {
          "indexed": false,
          "internalType": "address",
          "name": "dutchAuction",
          "type": "address"
        },
        {
          "indexed": false,
          "internalType": "uint256",
          "name": "index",
          "type": "uint256"
        }
      ],
      "name": "AuctionRemoved",
      "type": "event"
    },
    {
      "anonymous": false,
      "inputs": [
        {
          "indexed": false,
          "internalType": "address",
          "name": "oldDutchAuction",
          "type": "address"
        },
        {
          "indexed": false,
          "internalType": "address",
          "name": "newDutchAuction",
          "type": "address"
        }
      ],
      "name": "AuctionTemplateUpdated",
      "type": "event"
    },
    {
      "anonymous": false,
      "inputs": [
        {
          "indexed": true,
          "internalType": "address",
          "name": "owner",
          "type": "address"
        },
        {
          "indexed": true,
          "internalType": "address",
          "name": "addr",
          "type": "address"
        }
      ],
      "name": "CustomAuctionDeployed",
      "type": "event"
    },
    {
      "anonymous": false,
      "inputs": [
        {
          "indexed": true,
          "internalType": "address",
          "name": "owner",
          "type": "address"
        },
        {
          "indexed": true,
          "internalType": "address",
          "name": "addr",
          "type": "address"
        },
        {
          "indexed": false,
          "internalType": "address",
          "name": "dutchAuction",
          "type": "address"
        },
        {
          "indexed": false,
          "internalType": "uint256",
          "name": "fee",
          "type": "uint256"
        }
      ],
      "name": "DutchAuctionDeployed",
      "type": "event"
    },
    {
      "anonymous": false,
      "inputs": [
        {
          "indexed": false,
          "internalType": "address",
          "name": "newAddress",
          "type": "address"
        }
      ],
      "name": "FactoryDeprecated",
      "type": "event"
    },
    {
      "anonymous": false,
      "inputs": [
        {
          "indexed": false,
          "internalType": "uint256",
          "name": "oldFee",
          "type": "uint256"
        },
        {
          "indexed": false,
          "internalType": "uint256",
          "name": "newFee",
          "type": "uint256"
        }
      ],
      "name": "MinimumFeeUpdated",
      "type": "event"
    },
    {
      "anonymous": false,
      "inputs": [
        {
          "indexed": true,
          "internalType": "address",
          "name": "previousOwner",
          "type": "address"
        },
        {
          "indexed": true,
          "internalType": "address",
          "name": "newOwner",
          "type": "address"
        }
      ],
      "name": "OwnershipTransferred",
      "type": "event"
    },
    {
      "inputs": [],
      "name": "acceptOwnership",
      "outputs": [],
      "stateMutability": "nonpayable",
      "type": "function"
    },
    {
      "inputs": [
        {
          "internalType": "address",
          "name": "_auction",
          "type": "address"
        }
      ],
      "name": "addCustomAuction",
      "outputs": [],
      "stateMutability": "nonpayable",
      "type": "function"
    },
    {
      "inputs": [
        {
          "internalType": "uint256",
          "name": "",
          "type": "uint256"
        }
      ],
      "name": "auctions",
      "outputs": [
        {
          "internalType": "address",
          "name": "",
          "type": "address"
        }
      ],
      "stateMutability": "view",
      "type": "function"
    },
    {
      "inputs": [
        {
          "internalType": "address",
          "name": "_token",
          "type": "address"
        },
        {
          "internalType": "uint256",
          "name": "_tokenSupply",
          "type": "uint256"
        },
        {
          "internalType": "uint256",
          "name": "_startDate",
          "type": "uint256"
        },
        {
          "internalType": "uint256",
          "name": "_endDate",
          "type": "uint256"
        },
        {
          "internalType": "address",
          "name": "_paymentCurrency",
          "type": "address"
        },
        {
          "internalType": "uint256",
          "name": "_startPrice",
          "type": "uint256"
        },
        {
          "internalType": "uint256",
          "name": "_minimumPrice",
          "type": "uint256"
        },
        {
          "internalType": "address payable",
          "name": "_wallet",
          "type": "address"
        }
      ],
      "name": "deployDutchAuction",
      "outputs": [
        {
          "internalType": "address",
          "name": "dutchAuction",
          "type": "address"
        }
      ],
      "stateMutability": "payable",
      "type": "function"
    },
    {
      "inputs": [
        {
          "internalType": "address",
          "name": "_newAddress",
          "type": "address"
        }
      ],
      "name": "deprecateFactory",
      "outputs": [],
      "stateMutability": "nonpayable",
      "type": "function"
    },
    {
      "inputs": [],
      "name": "dutchAuctionTemplate",
      "outputs": [
        {
          "internalType": "address",
          "name": "",
          "type": "address"
        }
      ],
      "stateMutability": "view",
      "type": "function"
    },
    {
      "inputs": [
        {
          "internalType": "address",
          "name": "_dutchAuctionTemplate",
          "type": "address"
        },
        {
          "internalType": "uint256",
          "name": "_minimumFee",
          "type": "uint256"
        }
      ],
      "name": "initDutchSwapFactory",
      "outputs": [],
      "stateMutability": "nonpayable",
      "type": "function"
    },
    {
      "inputs": [
        {
          "internalType": "address",
          "name": "",
          "type": "address"
        }
      ],
      "name": "isChildAuction",
      "outputs": [
        {
          "internalType": "bool",
          "name": "exists",
          "type": "bool"
        },
        {
          "internalType": "uint256",
          "name": "index",
          "type": "uint256"
        }
      ],
      "stateMutability": "view",
      "type": "function"
    },
    {
      "inputs": [],
      "name": "isOwner",
      "outputs": [
        {
          "internalType": "bool",
          "name": "",
          "type": "bool"
        }
      ],
      "stateMutability": "view",
      "type": "function"
    },
    {
      "inputs": [],
      "name": "minimumFee",
      "outputs": [
        {
          "internalType": "uint256",
          "name": "",
          "type": "uint256"
        }
      ],
      "stateMutability": "view",
      "type": "function"
    },
    {
      "inputs": [],
      "name": "newAddress",
      "outputs": [
        {
          "internalType": "address",
          "name": "",
          "type": "address"
        }
      ],
      "stateMutability": "view",
      "type": "function"
    },
    {
      "inputs": [],
      "name": "newOwner",
      "outputs": [
        {
          "internalType": "address",
          "name": "",
          "type": "address"
        }
      ],
      "stateMutability": "view",
      "type": "function"
    },
    {
      "inputs": [],
      "name": "numberOfAuctions",
      "outputs": [
        {
          "internalType": "uint256",
          "name": "",
          "type": "uint256"
        }
      ],
      "stateMutability": "view",
      "type": "function"
    },
    {
      "inputs": [],
      "name": "owner",
      "outputs": [
        {
          "internalType": "address",
          "name": "",
          "type": "address"
        }
      ],
      "stateMutability": "view",
      "type": "function"
    },
    {
      "inputs": [
        {
          "internalType": "address",
          "name": "token",
          "type": "address"
        },
        {
          "internalType": "uint256",
          "name": "tokens",
          "type": "uint256"
        }
      ],
      "name": "recoverTokens",
      "outputs": [],
      "stateMutability": "nonpayable",
      "type": "function"
    },
    {
      "inputs": [
        {
          "internalType": "address",
          "name": "_auction",
          "type": "address"
        }
      ],
      "name": "removeFinalisedAuction",
      "outputs": [],
      "stateMutability": "nonpayable",
      "type": "function"
    },
    {
      "inputs": [
        {
          "internalType": "address",
          "name": "_dutchAuctionTemplate",
          "type": "address"
        }
      ],
      "name": "setDutchAuctionTemplate",
      "outputs": [],
      "stateMutability": "nonpayable",
      "type": "function"
    },
    {
      "inputs": [
        {
          "internalType": "uint256",
          "name": "_minimumFee",
          "type": "uint256"
        }
      ],
      "name": "setMinimumFee",
      "outputs": [],
      "stateMutability": "nonpayable",
      "type": "function"
    },
    {
      "inputs": [
        {
          "internalType": "address",
          "name": "tokenAddress",
          "type": "address"
        },
        {
          "internalType": "uint256",
          "name": "tokens",
          "type": "uint256"
        }
      ],
      "name": "transferAnyERC20Token",
      "outputs": [
        {
          "internalType": "bool",
          "name": "success",
          "type": "bool"
        }
      ],
      "stateMutability": "nonpayable",
      "type": "function"
    },
    {
      "inputs": [
        {
          "internalType": "address",
          "name": "_newOwner",
          "type": "address"
        }
      ],
      "name": "transferOwnership",
      "outputs": [],
      "stateMutability": "nonpayable",
      "type": "function"
    },
    {
      "stateMutability": "payable",
      "type": "receive"
    }
  ],
  "transactionHash": "0x00ad5c80d42df0e4942af6794e5c019552657aa03625c3dc9fe457fdff6f465a",
  "args": [],
  "numDeployments": 1,
  "solcInputHash": "d9c02394b2d9331cad4460e650831b12",
  "bytecode": "0x6080604052600060045534801561001557600080fd5b50611077806100256000396000f3fe6080604052600436106101235760003560e01c80638da5cb5b116100a0578063d4ee1d9011610064578063d4ee1d90146103b6578063dc39d06d146103cb578063de0946af14610404578063f2fde38b14610437578063f952cc001461046a5761012d565b80638da5cb5b1461031b5780638f32d59b14610330578063a7227b0014610359578063c58097801461038c578063ccdb3f45146103a15761012d565b806350d9d472116100e757806350d9d47214610224578063571a26a0146102395780635b422fcd1461027f5780636183e76d146102cd57806379ba5097146103065761012d565b8063069c9fae14610132578063182a75061461016d5780631a7626e714610197578063417279ca146101be57806344e64077146101f15761012d565b3661012d57600080fd5b600080fd5b34801561013e57600080fd5b5061016b6004803603604081101561015557600080fd5b506001600160a01b0381351690602001356104bf565b005b34801561017957600080fd5b5061016b6004803603602081101561019057600080fd5b503561063e565b3480156101a357600080fd5b506101ac610691565b60408051918252519081900360200190f35b3480156101ca57600080fd5b5061016b600480360360208110156101e157600080fd5b50356001600160a01b0316610697565b3480156101fd57600080fd5b5061016b6004803603602081101561021457600080fd5b50356001600160a01b0316610848565b34801561023057600080fd5b506101ac6108c3565b34801561024557600080fd5b506102636004803603602081101561025c57600080fd5b50356108c9565b604080516001600160a01b039092168252519081900360200190f35b34801561028b57600080fd5b506102b2600480360360208110156102a257600080fd5b50356001600160a01b03166108f0565b60408051921515835260208301919091528051918290030190f35b3480156102d957600080fd5b5061016b600480360360408110156102f057600080fd5b506001600160a01b03813516906020013561090f565b34801561031257600080fd5b5061016b61093e565b34801561032757600080fd5b506102636109b9565b34801561033c57600080fd5b506103456109c8565b604080519115158252519081900360200190f35b34801561036557600080fd5b5061016b6004803603602081101561037c57600080fd5b50356001600160a01b03166109d9565b34801561039857600080fd5b50610263610b39565b3480156103ad57600080fd5b50610263610b48565b3480156103c257600080fd5b50610263610b57565b3480156103d757600080fd5b50610345600480360360408110156103ee57600080fd5b506001600160a01b038135169060200135610b66565b34801561041057600080fd5b5061016b6004803603602081101561042757600080fd5b50356001600160a01b0316610c13565b34801561044357600080fd5b5061016b6004803603602081101561045a57600080fd5b50356001600160a01b0316610c98565b610263600480360361010081101561048157600080fd5b506001600160a01b038135811691602081013591604082013591606081013591608082013581169160a08101359160c08201359160e0013516610ccb565b6104c76109c8565b6104d057600080fd5b6001600160a01b038216610529576000546001600160a01b03166108fc82156104f957826104fb565b475b6040518115909202916000818181858888f19350505050158015610523573d6000803e3d6000fd5b5061063a565b6000546001600160a01b038084169163a9059cbb9116831561054b57836105be565b604080516370a0823160e01b815230600482015290516001600160a01b038716916370a08231916024808301926020929190829003018186803b15801561059157600080fd5b505afa1580156105a5573d6000803e3d6000fd5b505050506040513d60208110156105bb57600080fd5b50515b6040518363ffffffff1660e01b815260040180836001600160a01b03166001600160a01b0316815260200182815260200192505050602060405180830381600087803b15801561060d57600080fd5b505af1158015610621573d6000803e3d6000fd5b505050506040513d602081101561063757600080fd5b50505b5050565b6106466109c8565b61064f57600080fd5b600454604080519182526020820183905280517fcc2f49c6214278ae5862935eff953448e8e69118d10abfafaf63ea6aa35255cb9281900390910190a1600455565b60045481565b6001600160a01b03811660009081526005602052604090205460ff166106bc57600080fd5b6000816001600160a01b031663864333746040518163ffffffff1660e01b815260040160206040518083038186803b1580156106f757600080fd5b505afa15801561070b573d6000803e3d6000fd5b505050506040513d602081101561072157600080fd5b505190508061072f57600080fd5b6001600160a01b0382166000818152600560209081526040918290206001015460065483519485526000190191840191909152815190927fc528cccad9c639c86a5e3fa29584f873df29a52b27c5c018865d597427a52b7092908290030190a160068054600019810191600091839081106107a657fe5b600091825260209091200154600680546001600160a01b0390921692508291859081106107cf57fe5b600091825260208083209190910180546001600160a01b0319166001600160a01b0394851617905591831681526005909152604090206001018390556006541561084157600680548061081e57fe5b600082815260209020810160001990810180546001600160a01b03191690550190555b5050505050565b6108506109c8565b61085957600080fd5b600254604080516001600160a01b039283168152918316602083015280517fcc56e57028002b9711486efce1fb8c1df287479e8dda2b895cbd8c4089abf7fc9281900390910190a1600280546001600160a01b0319166001600160a01b0392909216919091179055565b60065490565b600681815481106108d657fe5b6000918252602090912001546001600160a01b0316905081565b6005602052600090815260409020805460019091015460ff9091169082565b61091833610f7a565b600280546001600160a01b0319166001600160a01b039390931692909217909155600455565b6001546001600160a01b0316331461095557600080fd5b600154600080546040516001600160a01b0393841693909116917f8be0079c531659141344cd1fd0a4f28419497f9722a3daafe3b4186f6b6457e091a360018054600080546001600160a01b03199081166001600160a01b03841617909155169055565b6000546001600160a01b031690565b6000546001600160a01b0316331490565b6109e16109c8565b6109ea57600080fd5b6001600160a01b03811660009081526005602052604090205460ff1615610a1057600080fd5b6000816001600160a01b031663864333746040518163ffffffff1660e01b815260040160206040518083038186803b158015610a4b57600080fd5b505afa158015610a5f573d6000803e3d6000fd5b505050506040513d6020811015610a7557600080fd5b505190508015610a8457600080fd5b6040805180820182526001808252600680546000190160208085019182526001600160a01b038816600081815260059092528682209551865460ff1916901515178655915194840194909455815492830182559083527ff652222313e28459528d920b65115c16c04f3efc82aaedc97be59f3f377c0d3f90910180546001600160a01b03191682179055915133917ff702a7cb5f31ef81d6905c26d4d92e5ad9faf2dcf26effee3868537f39cf492b91a35050565b6002546001600160a01b031681565b6003546001600160a01b031681565b6001546001600160a01b031681565b6000610b706109c8565b610b7957600080fd5b826001600160a01b031663a9059cbb610b906109b9565b846040518363ffffffff1660e01b815260040180836001600160a01b03166001600160a01b0316815260200182815260200192505050602060405180830381600087803b158015610be057600080fd5b505af1158015610bf4573d6000803e3d6000fd5b505050506040513d6020811015610c0a57600080fd5b50519392505050565b610c1b6109c8565b610c2457600080fd5b6003546001600160a01b031615610c3a57600080fd5b604080516001600160a01b038316815290517f0ac885cfcac9d1450e80f787dbf9546001fb50414106435b10b1d27b448b86689181900360200190a1600380546001600160a01b0319166001600160a01b0392909216919091179055565b610ca06109c8565b610ca957600080fd5b600180546001600160a01b0319166001600160a01b0392909216919091179055565b600254600090610ce3906001600160a01b0316610fef565b6040805180820182526001808252600680546000190160208085019182526001600160a01b038781166000818152600584528881209751885460ff1916901515178855935196860196909655835494850184559282527ff652222313e28459528d920b65115c16c04f3efc82aaedc97be59f3f377c0d3f90930180546001600160a01b03191690941790935583516323b872dd60e01b8152336004820152306024820152604481018e905293519495508d16936323b872dd93606480820194918390030190829087803b158015610db957600080fd5b505af1158015610dcd573d6000803e3d6000fd5b505050506040513d6020811015610de357600080fd5b5051610dee57600080fd5b886001600160a01b031663095ea7b3828a6040518363ffffffff1660e01b815260040180836001600160a01b03166001600160a01b0316815260200182815260200192505050602060405180830381600087803b158015610e4e57600080fd5b505af1158015610e62573d6000803e3d6000fd5b505050506040513d6020811015610e7857600080fd5b5051610e8357600080fd5b604080516355b603e360e11b81523060048201526001600160a01b038b81166024830152604482018b9052606482018a90526084820189905287811660a483015260c4820187905260e4820186905284811661010483015291519183169163ab6c07c6916101248082019260009290919082900301818387803b158015610f0957600080fd5b505af1158015610f1d573d6000803e3d6000fd5b5050600254604080516001600160a01b039283168152346020820152815192861694503393507f3f18a7c9a87dcc800ca9d07e304371e1b140781acb5ab26b89080e1b96c3d167929081900390910190a398975050505050505050565b600054600160a01b900460ff1615610f9157600080fd5b6000805460ff60a01b196001600160a01b038085166001600160a01b03199093169290921716600160a01b17808355604051911691907f8be0079c531659141344cd1fd0a4f28419497f9722a3daafe3b4186f6b6457e0908290a350565b6000808260601b9050604051733d602d80600a3d3981f3363d3d373d3d3d363d7360601b81528160148201526e5af43d82803e903d91602b57fd5bf360881b60288201526037816000f094935050505056fea2646970667358221220035639ee2fc5d43eab40ec3a14d8af9ae857a15056db5688f8c1fe9176afd46664736f6c63430006090033",
  "devdoc": {
    "methods": {}
  },
  "userdoc": {
    "methods": {}
  },
  "storageLayout": {
    "storage": [
      {
        "astId": 2832,
        "contract": "contracts/Dutch/contracts/DutchSwapFactory.sol:DutchSwapFactory",
        "label": "mOwner",
        "offset": 0,
        "slot": "0",
        "type": "t_address"
      },
      {
        "astId": 2834,
        "contract": "contracts/Dutch/contracts/DutchSwapFactory.sol:DutchSwapFactory",
        "label": "initialised",
        "offset": 20,
        "slot": "0",
        "type": "t_bool"
      },
      {
        "astId": 2836,
        "contract": "contracts/Dutch/contracts/DutchSwapFactory.sol:DutchSwapFactory",
        "label": "newOwner",
        "offset": 0,
        "slot": "1",
        "type": "t_address"
      },
      {
        "astId": 873,
        "contract": "contracts/Dutch/contracts/DutchSwapFactory.sol:DutchSwapFactory",
        "label": "dutchAuctionTemplate",
        "offset": 0,
        "slot": "2",
        "type": "t_address"
      },
      {
        "astId": 880,
        "contract": "contracts/Dutch/contracts/DutchSwapFactory.sol:DutchSwapFactory",
        "label": "newAddress",
        "offset": 0,
        "slot": "3",
        "type": "t_address"
      },
      {
        "astId": 883,
        "contract": "contracts/Dutch/contracts/DutchSwapFactory.sol:DutchSwapFactory",
        "label": "minimumFee",
        "offset": 0,
        "slot": "4",
        "type": "t_uint256"
      },
      {
        "astId": 887,
        "contract": "contracts/Dutch/contracts/DutchSwapFactory.sol:DutchSwapFactory",
        "label": "isChildAuction",
        "offset": 0,
        "slot": "5",
        "type": "t_mapping(t_address,t_struct(Auction)878_storage)"
      },
      {
        "astId": 890,
        "contract": "contracts/Dutch/contracts/DutchSwapFactory.sol:DutchSwapFactory",
        "label": "auctions",
        "offset": 0,
        "slot": "6",
        "type": "t_array(t_address)dyn_storage"
      }
    ],
    "types": {
      "t_address": {
        "encoding": "inplace",
        "label": "address",
        "numberOfBytes": "20"
      },
      "t_array(t_address)dyn_storage": {
        "base": "t_address",
        "encoding": "dynamic_array",
        "label": "address[]",
        "numberOfBytes": "32"
      },
      "t_bool": {
        "encoding": "inplace",
        "label": "bool",
        "numberOfBytes": "1"
      },
      "t_mapping(t_address,t_struct(Auction)878_storage)": {
        "encoding": "mapping",
        "key": "t_address",
        "label": "mapping(address => struct DutchSwapFactory.Auction)",
        "numberOfBytes": "32",
        "value": "t_struct(Auction)878_storage"
      },
      "t_struct(Auction)878_storage": {
        "encoding": "inplace",
        "label": "struct DutchSwapFactory.Auction",
        "members": [
          {
            "astId": 875,
            "contract": "contracts/Dutch/contracts/DutchSwapFactory.sol:DutchSwapFactory",
            "label": "exists",
            "offset": 0,
            "slot": "0",
            "type": "t_bool"
          },
          {
            "astId": 877,
            "contract": "contracts/Dutch/contracts/DutchSwapFactory.sol:DutchSwapFactory",
            "label": "index",
            "offset": 0,
            "slot": "1",
            "type": "t_uint256"
          }
        ],
        "numberOfBytes": "64"
      },
      "t_uint256": {
        "encoding": "inplace",
        "label": "uint256",
        "numberOfBytes": "32"
      }
    }
  }
}