{
  "address": "0xB9C1A2210775bD63ad9631042766f6e9F7cB73E6",
  "abi": [
    {
      "inputs": [
        {
          "internalType": "contract SharedNFTLogic",
          "name": "_sharedNFTLogic",
          "type": "address"
        }
      ],
      "stateMutability": "nonpayable",
      "type": "constructor"
    },
    {
      "anonymous": false,
      "inputs": [
        {
          "indexed": true,
          "internalType": "address",
          "name": "owner",
          "type": "address"
        },
        {
          "indexed": true,
          "internalType": "address",
          "name": "approved",
          "type": "address"
        },
        {
          "indexed": true,
          "internalType": "uint256",
          "name": "tokenId",
          "type": "uint256"
        }
      ],
      "name": "Approval",
      "type": "event"
    },
    {
      "anonymous": false,
      "inputs": [
        {
          "indexed": true,
          "internalType": "address",
          "name": "owner",
          "type": "address"
        },
        {
          "indexed": true,
          "internalType": "address",
          "name": "operator",
          "type": "address"
        },
        {
          "indexed": false,
          "internalType": "bool",
          "name": "approved",
          "type": "bool"
        }
      ],
      "name": "ApprovalForAll",
      "type": "event"
    },
    {
      "anonymous": false,
      "inputs": [
        {
          "indexed": true,
          "internalType": "uint256",
          "name": "tokenId",
          "type": "uint256"
        }
      ],
      "name": "BunyMint",
      "type": "event"
    },
    {
      "anonymous": false,
      "inputs": [
        {
          "indexed": false,
          "internalType": "uint256",
          "name": "price",
          "type": "uint256"
        },
        {
          "indexed": false,
          "internalType": "address",
          "name": "owner",
          "type": "address"
        }
      ],
      "name": "EditionSold",
      "type": "event"
    },
    {
      "anonymous": false,
      "inputs": [
        {
          "indexed": false,
          "internalType": "uint8",
          "name": "version",
          "type": "uint8"
        }
      ],
      "name": "Initialized",
      "type": "event"
    },
    {
      "anonymous": false,
      "inputs": [
        {
          "indexed": false,
          "internalType": "uint256",
          "name": "maxMint",
          "type": "uint256"
        }
      ],
      "name": "MaxMintChanged",
      "type": "event"
    },
    {
      "anonymous": false,
      "inputs": [
        {
          "indexed": true,
          "internalType": "address",
          "name": "previousOwner",
          "type": "address"
        },
        {
          "indexed": true,
          "internalType": "address",
          "name": "newOwner",
          "type": "address"
        }
      ],
      "name": "OwnershipTransferred",
      "type": "event"
    },
    {
      "anonymous": false,
      "inputs": [
        {
          "indexed": false,
          "internalType": "uint256",
          "name": "amount",
          "type": "uint256"
        }
      ],
      "name": "PriceChanged",
      "type": "event"
    },
    {
      "anonymous": false,
      "inputs": [
        {
          "indexed": false,
          "internalType": "bool",
          "name": "paused",
          "type": "bool"
        },
        {
          "indexed": false,
          "internalType": "uint256",
          "name": "time",
          "type": "uint256"
        }
      ],
      "name": "PublicMint",
      "type": "event"
    },
    {
      "anonymous": false,
      "inputs": [
        {
          "indexed": false,
          "internalType": "bool",
          "name": "paused",
          "type": "bool"
        },
        {
          "indexed": false,
          "internalType": "uint256",
          "name": "time",
          "type": "uint256"
        }
      ],
      "name": "TimeOut",
      "type": "event"
    },
    {
      "anonymous": false,
      "inputs": [
        {
          "indexed": true,
          "internalType": "address",
          "name": "from",
          "type": "address"
        },
        {
          "indexed": true,
          "internalType": "address",
          "name": "to",
          "type": "address"
        },
        {
          "indexed": true,
          "internalType": "uint256",
          "name": "tokenId",
          "type": "uint256"
        }
      ],
      "name": "Transfer",
      "type": "event"
    },
    {
      "inputs": [
        {
          "internalType": "address",
          "name": "_owner",
          "type": "address"
        }
      ],
      "name": "OwnerOfToken",
      "outputs": [
        {
          "internalType": "uint256[]",
          "name": "",
          "type": "uint256[]"
        }
      ],
      "stateMutability": "view",
      "type": "function"
    },
    {
      "inputs": [
        {
          "internalType": "address[]",
          "name": "_beneficiaries",
          "type": "address[]"
        }
      ],
      "name": "addManyToWhitelist",
      "outputs": [],
      "stateMutability": "nonpayable",
      "type": "function"
    },
    {
      "inputs": [
        {
          "internalType": "address",
          "name": "_addressToWhitelist",
          "type": "address"
        }
      ],
      "name": "addUser",
      "outputs": [],
      "stateMutability": "nonpayable",
      "type": "function"
    },
    {
      "inputs": [
        {
          "internalType": "address",
          "name": "to",
          "type": "address"
        },
        {
          "internalType": "uint256",
          "name": "tokenId",
          "type": "uint256"
        }
      ],
      "name": "approve",
      "outputs": [],
      "stateMutability": "nonpayable",
      "type": "function"
    },
    {
      "inputs": [
        {
          "internalType": "address",
          "name": "owner",
          "type": "address"
        }
      ],
      "name": "balanceOf",
      "outputs": [
        {
          "internalType": "uint256",
          "name": "",
          "type": "uint256"
        }
      ],
      "stateMutability": "view",
      "type": "function"
    },
    {
      "inputs": [],
      "name": "baseURI",
      "outputs": [
        {
          "internalType": "string",
          "name": "",
          "type": "string"
        }
      ],
      "stateMutability": "view",
      "type": "function"
    },
    {
      "inputs": [],
      "name": "currentSupply",
      "outputs": [
        {
          "internalType": "uint256",
          "name": "",
          "type": "uint256"
        }
      ],
      "stateMutability": "view",
      "type": "function"
    },
    {
      "inputs": [],
      "name": "description",
      "outputs": [
        {
          "internalType": "string",
          "name": "",
          "type": "string"
        }
      ],
      "stateMutability": "view",
      "type": "function"
    },
    {
      "inputs": [],
      "name": "editionSize",
      "outputs": [
        {
          "internalType": "uint256",
          "name": "",
          "type": "uint256"
        }
      ],
      "stateMutability": "view",
      "type": "function"
    },
    {
      "inputs": [
        {
          "internalType": "uint256",
          "name": "tokenId",
          "type": "uint256"
        }
      ],
      "name": "getApproved",
      "outputs": [
        {
          "internalType": "address",
          "name": "",
          "type": "address"
        }
      ],
      "stateMutability": "view",
      "type": "function"
    },
    {
      "inputs": [],
      "name": "getHolders",
      "outputs": [
        {
          "internalType": "address payable[]",
          "name": "",
          "type": "address[]"
        }
      ],
      "stateMutability": "view",
      "type": "function"
    },
    {
      "inputs": [],
      "name": "getURIs",
      "outputs": [
        {
          "internalType": "string",
          "name": "",
          "type": "string"
        }
      ],
      "stateMutability": "view",
      "type": "function"
    },
    {
      "inputs": [],
      "name": "getWhitelistWallets",
      "outputs": [
        {
          "internalType": "address payable[]",
          "name": "",
          "type": "address[]"
        }
      ],
      "stateMutability": "view",
      "type": "function"
    },
    {
      "inputs": [
        {
          "internalType": "uint256",
          "name": "",
          "type": "uint256"
        }
      ],
      "name": "holders",
      "outputs": [
        {
          "internalType": "address payable",
          "name": "",
          "type": "address"
        }
      ],
      "stateMutability": "view",
      "type": "function"
    },
    {
      "inputs": [
        {
          "internalType": "address",
          "name": "_owner",
          "type": "address"
        },
        {
          "internalType": "string",
          "name": "_baseURI",
          "type": "string"
        },
        {
          "internalType": "string",
          "name": "_name",
          "type": "string"
        },
        {
          "internalType": "string",
          "name": "_symbol",
          "type": "string"
        },
        {
          "internalType": "string",
          "name": "_description",
          "type": "string"
        },
        {
          "internalType": "uint256",
          "name": "_editionSize",
          "type": "uint256"
        },
        {
          "internalType": "uint256",
          "name": "_royaltyBPS",
          "type": "uint256"
        }
      ],
      "name": "initialize",
      "outputs": [],
      "stateMutability": "nonpayable",
      "type": "function"
    },
    {
      "inputs": [
        {
          "internalType": "address",
          "name": "owner",
          "type": "address"
        },
        {
          "internalType": "address",
          "name": "operator",
          "type": "address"
        }
      ],
      "name": "isApprovedForAll",
      "outputs": [
        {
          "internalType": "bool",
          "name": "",
          "type": "bool"
        }
      ],
      "stateMutability": "view",
      "type": "function"
    },
    {
      "inputs": [],
      "name": "maxMint",
      "outputs": [
        {
          "internalType": "uint256",
          "name": "",
          "type": "uint256"
        }
      ],
      "stateMutability": "view",
      "type": "function"
    },
    {
      "inputs": [
        {
          "internalType": "address",
          "name": "to",
          "type": "address"
        }
      ],
      "name": "mintEdition",
      "outputs": [
        {
          "internalType": "uint256",
          "name": "",
          "type": "uint256"
        }
      ],
      "stateMutability": "nonpayable",
      "type": "function"
    },
    {
      "inputs": [
        {
          "internalType": "address[]",
          "name": "recipients",
          "type": "address[]"
        }
      ],
      "name": "mintEditions",
      "outputs": [
        {
          "internalType": "uint256",
          "name": "",
          "type": "uint256"
        }
      ],
      "stateMutability": "nonpayable",
      "type": "function"
    },
    {
      "inputs": [],
      "name": "name",
      "outputs": [
        {
          "internalType": "string",
          "name": "",
          "type": "string"
        }
      ],
      "stateMutability": "view",
      "type": "function"
    },
    {
      "inputs": [],
      "name": "numberCanMint",
      "outputs": [
        {
          "internalType": "uint256",
          "name": "",
          "type": "uint256"
        }
      ],
      "stateMutability": "view",
      "type": "function"
    },
    {
      "inputs": [],
      "name": "owner",
      "outputs": [
        {
          "internalType": "address",
          "name": "",
          "type": "address"
        }
      ],
      "stateMutability": "view",
      "type": "function"
    },
    {
      "inputs": [
        {
          "internalType": "uint256",
          "name": "tokenId",
          "type": "uint256"
        }
      ],
      "name": "ownerOf",
      "outputs": [
        {
          "internalType": "address",
          "name": "",
          "type": "address"
        }
      ],
      "stateMutability": "view",
      "type": "function"
    },
    {
      "inputs": [],
      "name": "paused",
      "outputs": [
        {
          "internalType": "bool",
          "name": "",
          "type": "bool"
        }
      ],
      "stateMutability": "view",
      "type": "function"
    },
    {
      "inputs": [],
      "name": "preSalePrice",
      "outputs": [
        {
          "internalType": "uint256",
          "name": "",
          "type": "uint256"
        }
      ],
      "stateMutability": "view",
      "type": "function"
    },
    {
      "inputs": [],
      "name": "presale",
      "outputs": [
        {
          "internalType": "uint256",
          "name": "",
          "type": "uint256"
        }
      ],
      "stateMutability": "payable",
      "type": "function"
    },
    {
      "inputs": [],
      "name": "publicMint",
      "outputs": [
        {
          "internalType": "bool",
          "name": "",
          "type": "bool"
        }
      ],
      "stateMutability": "view",
      "type": "function"
    },
    {
      "inputs": [
        {
          "internalType": "bool",
          "name": "_publicMint",
          "type": "bool"
        }
      ],
      "name": "publicMintActive",
      "outputs": [],
      "stateMutability": "nonpayable",
      "type": "function"
    },
    {
      "inputs": [],
      "name": "purchase",
      "outputs": [
        {
          "internalType": "uint256",
          "name": "",
          "type": "uint256"
        }
      ],
      "stateMutability": "payable",
      "type": "function"
    },
    {
      "inputs": [],
      "name": "renounceOwnership",
      "outputs": [],
      "stateMutability": "nonpayable",
      "type": "function"
    },
    {
      "inputs": [
        {
          "internalType": "uint256",
          "name": "",
          "type": "uint256"
        },
        {
          "internalType": "uint256",
          "name": "_salePrice",
          "type": "uint256"
        }
      ],
      "name": "royaltyInfo",
      "outputs": [
        {
          "internalType": "address",
          "name": "receiver",
          "type": "address"
        },
        {
          "internalType": "uint256",
          "name": "royaltyAmount",
          "type": "uint256"
        }
      ],
      "stateMutability": "view",
      "type": "function"
    },
    {
      "inputs": [
        {
          "internalType": "address",
          "name": "from",
          "type": "address"
        },
        {
          "internalType": "address",
          "name": "to",
          "type": "address"
        },
        {
          "internalType": "uint256",
          "name": "tokenId",
          "type": "uint256"
        }
      ],
      "name": "safeTransferFrom",
      "outputs": [],
      "stateMutability": "nonpayable",
      "type": "function"
    },
    {
      "inputs": [
        {
          "internalType": "address",
          "name": "from",
          "type": "address"
        },
        {
          "internalType": "address",
          "name": "to",
          "type": "address"
        },
        {
          "internalType": "uint256",
          "name": "tokenId",
          "type": "uint256"
        },
        {
          "internalType": "bytes",
          "name": "data",
          "type": "bytes"
        }
      ],
      "name": "safeTransferFrom",
      "outputs": [],
      "stateMutability": "nonpayable",
      "type": "function"
    },
    {
      "inputs": [],
      "name": "salePrice",
      "outputs": [
        {
          "internalType": "uint256",
          "name": "",
          "type": "uint256"
        }
      ],
      "stateMutability": "view",
      "type": "function"
    },
    {
      "inputs": [
        {
          "internalType": "address",
          "name": "operator",
          "type": "address"
        },
        {
          "internalType": "bool",
          "name": "approved",
          "type": "bool"
        }
      ],
      "name": "setApprovalForAll",
      "outputs": [],
      "stateMutability": "nonpayable",
      "type": "function"
    },
    {
      "inputs": [
        {
          "internalType": "address",
          "name": "minter",
          "type": "address"
        },
        {
          "internalType": "bool",
          "name": "allowed",
          "type": "bool"
        }
      ],
      "name": "setApprovedMinter",
      "outputs": [],
      "stateMutability": "nonpayable",
      "type": "function"
    },
    {
      "inputs": [
        {
          "internalType": "string",
          "name": "_newBaseURI",
          "type": "string"
        }
      ],
      "name": "setBaseURI",
      "outputs": [],
      "stateMutability": "nonpayable",
      "type": "function"
    },
    {
      "inputs": [
        {
          "internalType": "uint256",
          "name": "_maxMint",
          "type": "uint256"
        }
      ],
      "name": "setMaxMint",
      "outputs": [],
      "stateMutability": "nonpayable",
      "type": "function"
    },
    {
      "inputs": [
        {
          "internalType": "bool",
          "name": "_state",
          "type": "bool"
        }
      ],
      "name": "setPaused",
      "outputs": [],
      "stateMutability": "nonpayable",
      "type": "function"
    },
    {
      "inputs": [
        {
          "internalType": "uint256",
          "name": "_preSalePrice",
          "type": "uint256"
        }
      ],
      "name": "setPreSalePrice",
      "outputs": [],
      "stateMutability": "nonpayable",
      "type": "function"
    },
    {
      "inputs": [
        {
          "internalType": "uint256",
          "name": "_salePrice",
          "type": "uint256"
        }
      ],
      "name": "setSalePrice",
      "outputs": [],
      "stateMutability": "nonpayable",
      "type": "function"
    },
    {
      "inputs": [
        {
          "internalType": "bytes4",
          "name": "interfaceId",
          "type": "bytes4"
        }
      ],
      "name": "supportsInterface",
      "outputs": [
        {
          "internalType": "bool",
          "name": "",
          "type": "bool"
        }
      ],
      "stateMutability": "view",
      "type": "function"
    },
    {
      "inputs": [],
      "name": "symbol",
      "outputs": [
        {
          "internalType": "string",
          "name": "",
          "type": "string"
        }
      ],
      "stateMutability": "view",
      "type": "function"
    },
    {
      "inputs": [
        {
          "internalType": "uint256",
          "name": "tokenId",
          "type": "uint256"
        }
      ],
      "name": "tokenURI",
      "outputs": [
        {
          "internalType": "string",
          "name": "",
          "type": "string"
        }
      ],
      "stateMutability": "view",
      "type": "function"
    },
    {
      "inputs": [],
      "name": "totalSupply",
      "outputs": [
        {
          "internalType": "uint256",
          "name": "",
          "type": "uint256"
        }
      ],
      "stateMutability": "view",
      "type": "function"
    },
    {
      "inputs": [
        {
          "internalType": "address",
          "name": "from",
          "type": "address"
        },
        {
          "internalType": "address",
          "name": "to",
          "type": "address"
        },
        {
          "internalType": "uint256",
          "name": "tokenId",
          "type": "uint256"
        }
      ],
      "name": "transferFrom",
      "outputs": [],
      "stateMutability": "nonpayable",
      "type": "function"
    },
    {
      "inputs": [
        {
          "internalType": "address",
          "name": "newOwner",
          "type": "address"
        }
      ],
      "name": "transferOwnership",
      "outputs": [],
      "stateMutability": "nonpayable",
      "type": "function"
    },
    {
      "inputs": [
        {
          "internalType": "string",
          "name": "_baseURI",
          "type": "string"
        }
      ],
      "name": "updateEditionURLs",
      "outputs": [],
      "stateMutability": "nonpayable",
      "type": "function"
    },
    {
      "inputs": [
        {
          "internalType": "address",
          "name": "_whitelistedAddress",
          "type": "address"
        }
      ],
      "name": "verifyUser",
      "outputs": [
        {
          "internalType": "bool",
          "name": "",
          "type": "bool"
        }
      ],
      "stateMutability": "view",
      "type": "function"
    },
    {
      "inputs": [
        {
          "internalType": "address",
          "name": "",
          "type": "address"
        }
      ],
      "name": "whitelist",
      "outputs": [
        {
          "internalType": "bool",
          "name": "",
          "type": "bool"
        }
      ],
      "stateMutability": "view",
      "type": "function"
    },
    {
      "inputs": [
        {
          "internalType": "uint256",
          "name": "",
          "type": "uint256"
        }
      ],
      "name": "whitelistWallets",
      "outputs": [
        {
          "internalType": "address payable",
          "name": "",
          "type": "address"
        }
      ],
      "stateMutability": "view",
      "type": "function"
    },
    {
      "inputs": [],
      "name": "withdraw",
      "outputs": [],
      "stateMutability": "nonpayable",
      "type": "function"
    }
  ],
  "transactionHash": "0xa0f3163d9aabb20bb834f050d39d0adfb0b7ac44a75bdc7831762b0251712d5c",
  "args": [
    "0x10cA9E76Fb9d40B8Bc388A6986377669B46284f7"
  ],
  "numDeployments": 1,
  "solcInputHash": "5c4241960233aaff37ee0790ed7b3b56",
  "bytecode": "0x60a060405260ce805461ffff191690553480156200001c57600080fd5b50604051620031a2380380620031a28339810160408190526200003f9162000051565b6001600160a01b031660805262000083565b6000602082840312156200006457600080fd5b81516001600160a01b03811681146200007c57600080fd5b9392505050565b6080516131066200009c600039600050506131066000f3fe6080604052600436106102ff5760003560e01c80636352211e1161019057806395d89b41116100dc578063e757c17d11610095578063f4ed0f461161006f578063f4ed0f46146108cf578063f51f96dd146108e5578063fdea8e0b146108fb578063ff86b46c1461090357600080fd5b8063e757c17d14610879578063e985e9c51461088f578063f2fde38b146108af57600080fd5b806395d89b41146107b45780639b19251a146107c9578063a22cb465146107f9578063a66ff0af14610819578063b88d4fde14610839578063c87b56dd1461085957600080fd5b80637501f741116101495780637ea05b55116101235780637ea05b55146107325780638c10671c146107525780638da5cb5b1461077257806394a06ecf1461078757600080fd5b80637501f741146106e6578063771282f6146106fc5780637d7eee421461071257600080fd5b80636352211e1461065f57806364edfbf01461067f5780636c0360eb1461068757806370a082311461069c578063715018a6146106bc5780637284e416146106d157600080fd5b806329ec16dd1161024f5780634d8131201161020857806355f804b3116101e257806355f804b3146105f05780635b5cfe0d146106105780635c975abb146106305780635fe8e7cc1461064a57600080fd5b80634d81312014610597578063547520fe146105d057806354e04e06146105f057600080fd5b806329ec16dd146104c35780632a11ced0146104e35780632a55205a146105035780633ccfd60b14610542578063421b2d8b1461055757806342842e0e1461057757600080fd5b806316c38b3c116102bc5780631919fed7116102965780631919fed71461044f57806323b872dd1461046f57806326092b831461048f57806328c5440f146104ae57600080fd5b806316c38b3c146103f857806316fac04f1461041857806318160ddd1461043a57600080fd5b806301ffc9a71461030457806306fdde0314610339578063081812fc1461035b578063095ea7b3146103935780630b65b6e7146103b55780630f6a9349146103d8575b600080fd5b34801561031057600080fd5b5061032461031f366004612788565b610923565b60405190151581526020015b60405180910390f35b34801561034557600080fd5b5061034e61094e565b60405161033091906127eb565b34801561036757600080fd5b5061037b6103763660046127fe565b6109e0565b6040516001600160a01b039091168152602001610330565b34801561039f57600080fd5b506103b36103ae366004612833565b610a07565b005b3480156103c157600080fd5b506103ca610b21565b604051908152602001610330565b3480156103e457600080fd5b506103ca6103f33660046128a4565b610b54565b34801561040457600080fd5b506103b3610413366004612961565b610bd7565b34801561042457600080fd5b5061042d610c32565b604051610330919061297c565b34801561044657600080fd5b506103ca610c93565b34801561045b57600080fd5b506103b361046a3660046127fe565b610ca0565b34801561047b57600080fd5b506103b361048a3660046129c9565b610cdd565b34801561049b57600080fd5b5060ce5461032490610100900460ff1681565b3480156104ba57600080fd5b5061034e610d0e565b3480156104cf57600080fd5b506103b36104de366004612a05565b610d1d565b3480156104ef57600080fd5b5061037b6104fe3660046127fe565b610d50565b34801561050f57600080fd5b5061052361051e366004612a38565b610d7a565b604080516001600160a01b039093168352602083019190915201610330565b34801561054e57600080fd5b506103b3610dd6565b34801561056357600080fd5b506103b3610572366004612a5a565b610df1565b34801561058357600080fd5b506103b36105923660046129c9565b610e5f565b3480156105a357600080fd5b506103246105b2366004612a5a565b6001600160a01b0316600090815260d6602052604090205460ff1690565b3480156105dc57600080fd5b506103b36105eb3660046127fe565b610e7a565b3480156105fc57600080fd5b506103b361060b366004612aed565b610eb7565b34801561061c57600080fd5b506103b361062b366004612b22565b610ecf565b34801561063c57600080fd5b5060ce546103249060ff1681565b34801561065657600080fd5b5061042d61102c565b34801561066b57600080fd5b5061037b61067a3660046127fe565b61108c565b6103ca6110ec565b34801561069357600080fd5b5061034e611306565b3480156106a857600080fd5b506103ca6106b7366004612a5a565b611394565b3480156106c857600080fd5b506103b361141a565b3480156106dd57600080fd5b5061034e61142c565b3480156106f257600080fd5b506103ca60d25481565b34801561070857600080fd5b506103ca60cd5481565b34801561071e57600080fd5b506103b361072d3660046127fe565b611439565b34801561073e57600080fd5b5061037b61074d3660046127fe565b611479565b34801561075e57600080fd5b506103b361076d3660046128a4565b611489565b34801561077e57600080fd5b5061037b611555565b34801561079357600080fd5b506107a76107a2366004612a5a565b611569565b6040516103309190612bf3565b3480156107c057600080fd5b5061034e611649565b3480156107d557600080fd5b506103246107e4366004612a5a565b60d66020526000908152604090205460ff1681565b34801561080557600080fd5b506103b3610814366004612a05565b611658565b34801561082557600080fd5b506103ca610834366004612a5a565b611663565b34801561084557600080fd5b506103b3610854366004612c2b565b611743565b34801561086557600080fd5b5061034e6108743660046127fe565b61177b565b34801561088557600080fd5b506103ca60d15481565b34801561089b57600080fd5b506103246108aa366004612ca7565b6119c9565b3480156108bb57600080fd5b506103b36108ca366004612a5a565b6119f7565b3480156108db57600080fd5b506103ca60cc5481565b3480156108f157600080fd5b506103ca60d05481565b6103ca611a70565b34801561090f57600080fd5b506103b361091e366004612961565b611c7b565b600063152a902d60e11b6001600160e01b031983161480610948575061094882611cdc565b92915050565b60606065805461095d90612cd1565b80601f016020809104026020016040519081016040528092919081815260200182805461098990612cd1565b80156109d65780601f106109ab576101008083540402835291602001916109d6565b820191906000526020600020905b8154815290600101906020018083116109b957829003601f168201915b5050505050905090565b60006109eb82611d2c565b506000908152606960205260409020546001600160a01b031690565b6000610a128261108c565b9050806001600160a01b0316836001600160a01b031603610a845760405162461bcd60e51b815260206004820152602160248201527f4552433732313a20617070726f76616c20746f2063757272656e74206f776e656044820152603960f91b60648201526084015b60405180910390fd5b336001600160a01b0382161480610aa05750610aa081336119c9565b610b125760405162461bcd60e51b815260206004820152603e60248201527f4552433732313a20617070726f76652063616c6c6572206973206e6f7420746f60448201527f6b656e206f776e6572206e6f7220617070726f76656420666f7220616c6c00006064820152608401610a7b565b610b1c8383611d8b565b505050565b600060cc54600003610b34575060001990565b60c95460cc54610b45906001612d21565b610b4f9190612d34565b905090565b60ce5460009060ff1615610b7a5760405162461bcd60e51b8152600401610a7b90612d47565b610b82611df9565b610bce5760405162461bcd60e51b815260206004820152601d60248201527f4e6565647320746f20626520616e20616c6c6f776564206d696e7465720000006044820152606401610a7b565b61094882611e68565b610bdf611f9a565b60ce805460ff19168215159081179091556040805160ff909216151582524260208301527f3272d62a23daf80fd6bd57724dede51ccb18d9acc4488dece1774ee01053b60091015b60405180910390a150565b606060d48054806020026020016040519081016040528092919081815260200182805480156109d657602002820191906000526020600020905b81546001600160a01b03168152600190910190602001808311610c6c575050505050905090565b60006001610b4560c95490565b610ca8611f9a565b60d08190556040518181527fa6dc15bdb68da224c66db4b3838d9a2b205138e8cff6774e57d0af91e196d62290602001610c27565b610ce73382611ff9565b610d035760405162461bcd60e51b8152600401610a7b90612d90565b610b1c838383612057565b606060ca805461095d90612cd1565b610d25611f9a565b6001600160a01b0391909116600090815260d560205260409020805460ff1916911515919091179055565b60d38181548110610d6057600080fd5b6000918252602090912001546001600160a01b0316905081565b60008080610d86611555565b6001600160a01b031603610da757610d9c611555565b600091509150610dcf565b610daf611555565b61271060cf5485610dc09190612dde565b610dca9190612e13565b915091505b9250929050565b610dde611f9a565b610def610de9611555565b476121f3565b565b610df9611f9a565b6001600160a01b0316600081815260d660205260408120805460ff1916600190811790915560d4805491820181559091527f9780e26d96b1f2a9a18ef8fc72d589dbf03ef788137b64f43897e83a91e7feec0180546001600160a01b0319169091179055565b610b1c83838360405180602001604052806000815250611743565b610e82611f9a565b60d28190556040518181527f86488a54e7d3d2f1cdba191297f9b3bb42f3a969befcef6e102fa9c3f576819c90602001610c27565b610ebf611f9a565b60ca610ecb8282612e75565b5050565b600054610100900460ff1615808015610eef5750600054600160ff909116105b80610f095750303b158015610f09575060005460ff166001145b610f6c5760405162461bcd60e51b815260206004820152602e60248201527f496e697469616c697a61626c653a20636f6e747261637420697320616c72656160448201526d191e481a5b9a5d1a585b1a5e995960921b6064820152608401610a7b565b6000805460ff191660011790558015610f8f576000805461ff0019166101001790555b610f99868661230c565b610fa161233d565b610faa886119f7565b60ca610fb68882612e75565b5060cb610fc38582612e75565b5060cc83905560cf829055610fdc60c980546001019055565b8015611022576000805461ff0019169055604051600181527f7f26b83ff96e1f2b6a682f133852f6798a09c465da95921460cefb38474024989060200160405180910390a15b5050505050505050565b606060d38054806020026020016040519081016040528092919081815260200182805480156109d6576020028201919060005260206000209081546001600160a01b03168152600190910190602001808311610c6c575050505050905090565b6000818152606760205260408120546001600160a01b0316806109485760405162461bcd60e51b8152602060048201526018602482015277115490cdcc8c4e881a5b9d985b1a59081d1bdad95b88125160421b6044820152606401610a7b565b60ce5460009060ff16156111125760405162461bcd60e51b8152600401610a7b90612d47565b60ce54610100900460ff166111695760405162461bcd60e51b815260206004820152601760248201527f5075626c6963206d696e74206e6f7420656e61626c65640000000000000000006044820152606401610a7b565b60d25460cc546111799190612d34565b60c954111561119a5760405162461bcd60e51b8152600401610a7b90612f35565b600060d054116111db5760405162461bcd60e51b815260206004820152600c60248201526b4e6f7420666f722073616c6560a01b6044820152606401610a7b565b60d054341461121a5760405162461bcd60e51b815260206004820152600b60248201526a57726f6e6720707269636560a81b6044820152606401610a7b565b60408051600180825281830190925260009160208083019080368337019050509050338160008151811061125057611250612f77565b6001600160a01b039092166020928302919091019091015260d380546001810182556000919091527f915c3eb987b20e1af620c1403197bf687fb7f18513b3a73fde6e78c7072c41a60180546001600160a01b0319163390811790915560d0546040517f60a6c75698fadb72223808131f9f9bb9db3afa32122db6d94fb8fc985a504baa926112ef9282526001600160a01b0316602082015260400190565b60405180910390a161130081611e68565b91505090565b60ca805461131390612cd1565b80601f016020809104026020016040519081016040528092919081815260200182805461133f90612cd1565b801561138c5780601f106113615761010080835404028352916020019161138c565b820191906000526020600020905b81548152906001019060200180831161136f57829003601f168201915b505050505081565b60006001600160a01b0382166113fe5760405162461bcd60e51b815260206004820152602960248201527f4552433732313a2061646472657373207a65726f206973206e6f7420612076616044820152683634b21037bbb732b960b91b6064820152608401610a7b565b506001600160a01b031660009081526068602052604090205490565b611422611f9a565b610def600061236c565b60cb805461131390612cd1565b611441611f9a565b60d181905560d0546040519081527fa6dc15bdb68da224c66db4b3838d9a2b205138e8cff6774e57d0af91e196d62290602001610c27565b60d48181548110610d6057600080fd5b611491611f9a565b60005b8151811015610ecb57600160d660008484815181106114b5576114b5612f77565b60200260200101516001600160a01b03166001600160a01b0316815260200190815260200160002060006101000a81548160ff02191690831515021790555060d482828151811061150857611508612f77565b60209081029190910181015182546001810184556000938452919092200180546001600160a01b0319166001600160a01b039092169190911790558061154d81612f8d565b915050611494565b6000610b4f6097546001600160a01b031690565b6060600061157683611394565b905060008167ffffffffffffffff8111156115935761159361285d565b6040519080825280602002602001820160405280156115bc578160200160208202803683370190505b509050600160005b83811080156115d5575060cc548211155b1561163f5760006115e58361108c565b9050866001600160a01b0316816001600160a01b03160361162c578284838151811061161357611613612f77565b60209081029190910101528161162881612f8d565b9250505b8261163681612f8d565b935050506115c4565b5090949350505050565b60606066805461095d90612cd1565b610ecb3383836123be565b60ce5460009060ff16156116895760405162461bcd60e51b8152600401610a7b90612d47565b611691611df9565b6116dd5760405162461bcd60e51b815260206004820152601d60248201527f4e6565647320746f20626520616e20616c6c6f776564206d696e7465720000006044820152606401610a7b565b60408051600180825281830190925260009160208083019080368337019050509050828160008151811061171357611713612f77565b60200260200101906001600160a01b031690816001600160a01b03168152505061173c81611e68565b9392505050565b61174d3383611ff9565b6117695760405162461bcd60e51b8152600401610a7b90612d90565b6117758484848461248c565b50505050565b60606000826000036117925750600360fc1b6117e5565b825b80156117e3576117a661010083612e13565b91506117b3600a82612fa6565b6117be906030612d21565b6117cc90600160f81b612dde565b91909117906117dc600a82612e13565b9050611794565b505b600060ca80546117f490612cd1565b80601f016020809104026020016040519081016040528092919081815260200182805461182090612cd1565b801561186d5780601f106118425761010080835404028352916020019161186d565b820191906000526020600020905b81548152906001019060200180831161185057829003601f168201915b505050505090506000602060ff1682516118879190612d21565b67ffffffffffffffff81111561189f5761189f61285d565b6040519080825280601f01601f1916602001820160405280156118c9576020820181803683370190505b5090506000805b83518260ff16101561194857838260ff16815181106118f1576118f1612f77565b602001015160f81c60f81b838260ff168151811061191157611911612f77565b60200101906001600160f81b031916908160001a9053508061193281612fba565b915050818061194090612fba565b9250506118d0565b600091505b602060ff831610156119be57848260ff166020811061196e5761196e612f77565b1a60f81b838260ff168151811061198757611987612f77565b60200101906001600160f81b031916908160001a905350806119a881612fba565b91505081806119b690612fba565b92505061194d565b509095945050505050565b6001600160a01b039182166000908152606a6020908152604080832093909416825291909152205460ff1690565b6119ff611f9a565b6001600160a01b038116611a645760405162461bcd60e51b815260206004820152602660248201527f4f776e61626c653a206e6577206f776e657220697320746865207a65726f206160448201526564647265737360d01b6064820152608401610a7b565b611a6d8161236c565b50565b60ce5460009060ff1615611a965760405162461bcd60e51b8152600401610a7b90612d47565b33600090815260d6602052604090205460ff16611af55760405162461bcd60e51b815260206004820152601c60248201527f526571756972657320757365722069732077686974656c6973746564000000006044820152606401610a7b565b60d25460cc54611b059190612d34565b60c9541115611b265760405162461bcd60e51b8152600401610a7b90612f35565b600060d15411611b675760405162461bcd60e51b815260206004820152600c60248201526b4e6f7420666f722073616c6560a01b6044820152606401610a7b565b60d1543414611ba65760405162461bcd60e51b815260206004820152600b60248201526a57726f6e6720707269636560a81b6044820152606401610a7b565b604080516001808252818301909252600091602080830190803683370190505090503381600081518110611bdc57611bdc612f77565b6001600160a01b039092166020928302919091019091015260d380546001810182556000919091527f915c3eb987b20e1af620c1403197bf687fb7f18513b3a73fde6e78c7072c41a60180546001600160a01b0319163390811790915560d1546040517f60a6c75698fadb72223808131f9f9bb9db3afa32122db6d94fb8fc985a504baa926112ef9282526001600160a01b0316602082015260400190565b611c83611f9a565b60ce805461ff001916610100831515810291909117918290556040805160ff9290930491909116151582524260208301527faf1f116b59489b40b6e64c9244dafd0aeb4d949f325a57bfe373531b6c54abf29101610c27565b60006001600160e01b031982166380ac58cd60e01b1480611d0d57506001600160e01b03198216635b5e139f60e01b145b8061094857506301ffc9a760e01b6001600160e01b0319831614610948565b6000818152606760205260409020546001600160a01b0316611a6d5760405162461bcd60e51b8152602060048201526018602482015277115490cdcc8c4e881a5b9d985b1a59081d1bdad95b88125160421b6044820152606401610a7b565b600081815260696020526040902080546001600160a01b0319166001600160a01b0384169081179091558190611dc08261108c565b6001600160a01b03167f8c5be1e5ebec7d5bd14f71427d1e84f3dd0314c0f7b2291e5b200ac8c7c3b92560405160405180910390a45050565b600033611e04611555565b6001600160a01b031603611e185750600190565b6000805260d56020527ff5cbbbf491ecca09b3146460212af7a9a122ceb752655fe793fa94eb0eeed0a65460ff1615611e515750600190565b5033600090815260d5602052604090205460ff1690565b60ce5460009060ff1615611e8e5760405162461bcd60e51b8152600401610a7b90612d47565b6000611e9960c95490565b905060006001845183611eac9190612d21565b611eb69190612d34565b905060cc5460001480611ecb575060cc548111155b611f025760405162461bcd60e51b815260206004820152600860248201526714dbdb19081bdd5d60c21b6044820152606401610a7b565b80611f0c60c95490565b11611f8e57611f4f8483611f1f60c95490565b611f299190612d34565b81518110611f3957611f39612f77565b6020026020010151611f4a60c95490565b6124bf565b611f5d60c980546001019055565b60c9546040517f0c5b96e9838a52f77adcc6de088be79c9d46232f97f0d32018f1dd4314110bc490600090a2611f02565b60c9545b949350505050565b33611fa3611555565b6001600160a01b031614610def5760405162461bcd60e51b815260206004820181905260248201527f4f776e61626c653a2063616c6c6572206973206e6f7420746865206f776e65726044820152606401610a7b565b6000806120058361108c565b9050806001600160a01b0316846001600160a01b0316148061202c575061202c81856119c9565b80611f925750836001600160a01b0316612045846109e0565b6001600160a01b031614949350505050565b826001600160a01b031661206a8261108c565b6001600160a01b0316146120ce5760405162461bcd60e51b815260206004820152602560248201527f4552433732313a207472616e736665722066726f6d20696e636f72726563742060448201526437bbb732b960d91b6064820152608401610a7b565b6001600160a01b0382166121305760405162461bcd60e51b8152602060048201526024808201527f4552433732313a207472616e7366657220746f20746865207a65726f206164646044820152637265737360e01b6064820152608401610a7b565b61213b600082611d8b565b6001600160a01b0383166000908152606860205260408120805460019290612164908490612d34565b90915550506001600160a01b0382166000908152606860205260408120805460019290612192908490612d21565b909155505060008181526067602052604080822080546001600160a01b0319166001600160a01b0386811691821790925591518493918716917fddf252ad1be2c89b69c2b068fc378daa952ba7f163c4a11628f55a4df523b3ef91a4505050565b804710156122435760405162461bcd60e51b815260206004820152601d60248201527f416464726573733a20696e73756666696369656e742062616c616e63650000006044820152606401610a7b565b6000826001600160a01b03168260405160006040518083038185875af1925050503d8060008114612290576040519150601f19603f3d011682016040523d82523d6000602084013e612295565b606091505b5050905080610b1c5760405162461bcd60e51b815260206004820152603a60248201527f416464726573733a20756e61626c6520746f2073656e642076616c75652c207260448201527f6563697069656e74206d617920686176652072657665727465640000000000006064820152608401610a7b565b600054610100900460ff166123335760405162461bcd60e51b8152600401610a7b90612fd9565b610ecb8282612601565b600054610100900460ff166123645760405162461bcd60e51b8152600401610a7b90612fd9565b610def612641565b609780546001600160a01b038381166001600160a01b0319831681179093556040519116919082907f8be0079c531659141344cd1fd0a4f28419497f9722a3daafe3b4186f6b6457e090600090a35050565b816001600160a01b0316836001600160a01b03160361241f5760405162461bcd60e51b815260206004820152601960248201527f4552433732313a20617070726f766520746f2063616c6c6572000000000000006044820152606401610a7b565b6001600160a01b038381166000818152606a6020908152604080832094871680845294825291829020805460ff191686151590811790915591519182527f17307eab39ab6107e8899845ad3d59bd9653f200f220920489ca2b5937696c31910160405180910390a3505050565b612497848484612057565b6124a384848484612671565b6117755760405162461bcd60e51b8152600401610a7b90613024565b6001600160a01b0382166125155760405162461bcd60e51b815260206004820181905260248201527f4552433732313a206d696e7420746f20746865207a65726f20616464726573736044820152606401610a7b565b6000818152606760205260409020546001600160a01b03161561257a5760405162461bcd60e51b815260206004820152601c60248201527f4552433732313a20746f6b656e20616c7265616479206d696e746564000000006044820152606401610a7b565b6001600160a01b03821660009081526068602052604081208054600192906125a3908490612d21565b909155505060008181526067602052604080822080546001600160a01b0319166001600160a01b03861690811790915590518392907fddf252ad1be2c89b69c2b068fc378daa952ba7f163c4a11628f55a4df523b3ef908290a45050565b600054610100900460ff166126285760405162461bcd60e51b8152600401610a7b90612fd9565b60656126348382612e75565b506066610b1c8282612e75565b600054610100900460ff166126685760405162461bcd60e51b8152600401610a7b90612fd9565b610def3361236c565b60006001600160a01b0384163b1561276757604051630a85bd0160e11b81526001600160a01b0385169063150b7a02906126b5903390899088908890600401613076565b6020604051808303816000875af19250505080156126f0575060408051601f3d908101601f191682019092526126ed918101906130b3565b60015b61274d573d80801561271e576040519150601f19603f3d011682016040523d82523d6000602084013e612723565b606091505b5080516000036127455760405162461bcd60e51b8152600401610a7b90613024565b805181602001fd5b6001600160e01b031916630a85bd0160e11b149050611f92565b506001949350505050565b6001600160e01b031981168114611a6d57600080fd5b60006020828403121561279a57600080fd5b813561173c81612772565b6000815180845260005b818110156127cb576020818501810151868301820152016127af565b506000602082860101526020601f19601f83011685010191505092915050565b60208152600061173c60208301846127a5565b60006020828403121561281057600080fd5b5035919050565b80356001600160a01b038116811461282e57600080fd5b919050565b6000806040838503121561284657600080fd5b61284f83612817565b946020939093013593505050565b634e487b7160e01b600052604160045260246000fd5b604051601f8201601f1916810167ffffffffffffffff8111828210171561289c5761289c61285d565b604052919050565b600060208083850312156128b757600080fd5b823567ffffffffffffffff808211156128cf57600080fd5b818501915085601f8301126128e357600080fd5b8135818111156128f5576128f561285d565b8060051b9150612906848301612873565b818152918301840191848101908884111561292057600080fd5b938501935b838510156129455761293685612817565b82529385019390850190612925565b98975050505050505050565b8035801515811461282e57600080fd5b60006020828403121561297357600080fd5b61173c82612951565b6020808252825182820181905260009190848201906040850190845b818110156129bd5783516001600160a01b031683529284019291840191600101612998565b50909695505050505050565b6000806000606084860312156129de57600080fd5b6129e784612817565b92506129f560208501612817565b9150604084013590509250925092565b60008060408385031215612a1857600080fd5b612a2183612817565b9150612a2f60208401612951565b90509250929050565b60008060408385031215612a4b57600080fd5b50508035926020909101359150565b600060208284031215612a6c57600080fd5b61173c82612817565b600067ffffffffffffffff831115612a8f57612a8f61285d565b612aa2601f8401601f1916602001612873565b9050828152838383011115612ab657600080fd5b828260208301376000602084830101529392505050565b600082601f830112612ade57600080fd5b61173c83833560208501612a75565b600060208284031215612aff57600080fd5b813567ffffffffffffffff811115612b1657600080fd5b611f9284828501612acd565b600080600080600080600060e0888a031215612b3d57600080fd5b612b4688612817565b9650602088013567ffffffffffffffff80821115612b6357600080fd5b612b6f8b838c01612acd565b975060408a0135915080821115612b8557600080fd5b612b918b838c01612acd565b965060608a0135915080821115612ba757600080fd5b612bb38b838c01612acd565b955060808a0135915080821115612bc957600080fd5b50612bd68a828b01612acd565b93505060a0880135915060c0880135905092959891949750929550565b6020808252825182820181905260009190848201906040850190845b818110156129bd57835183529284019291840191600101612c0f565b60008060008060808587031215612c4157600080fd5b612c4a85612817565b9350612c5860208601612817565b925060408501359150606085013567ffffffffffffffff811115612c7b57600080fd5b8501601f81018713612c8c57600080fd5b612c9b87823560208401612a75565b91505092959194509250565b60008060408385031215612cba57600080fd5b612cc383612817565b9150612a2f60208401612817565b600181811c90821680612ce557607f821691505b602082108103612d0557634e487b7160e01b600052602260045260246000fd5b50919050565b634e487b7160e01b600052601160045260246000fd5b8082018082111561094857610948612d0b565b8181038181111561094857610948612d0b565b60208082526029908201527f446f776e207468652072616262697420686f6c652e20436f6e7472616374206960408201526873207061757365642160b81b606082015260800190565b6020808252602e908201527f4552433732313a2063616c6c6572206973206e6f7420746f6b656e206f776e6560408201526d1c881b9bdc88185c1c1c9bdd995960921b606082015260800190565b6000816000190483118215151615612df857612df8612d0b565b500290565b634e487b7160e01b600052601260045260246000fd5b600082612e2257612e22612dfd565b500490565b601f821115610b1c57600081815260208120601f850160051c81016020861015612e4e5750805b601f850160051c820191505b81811015612e6d57828155600101612e5a565b505050505050565b815167ffffffffffffffff811115612e8f57612e8f61285d565b612ea381612e9d8454612cd1565b84612e27565b602080601f831160018114612ed85760008415612ec05750858301515b600019600386901b1c1916600185901b178555612e6d565b600085815260208120601f198616915b82811015612f0757888601518255948401946001909101908401612ee8565b5085821015612f255787850151600019600388901b60f8161c191681555b5050505050600190811b01905550565b60208082526022908201527f4d6178206d696e74206c696d6974207065722077616c6c657420726561636865604082015261642160f01b606082015260800190565b634e487b7160e01b600052603260045260246000fd5b600060018201612f9f57612f9f612d0b565b5060010190565b600082612fb557612fb5612dfd565b500690565b600060ff821660ff8103612fd057612fd0612d0b565b60010192915050565b6020808252602b908201527f496e697469616c697a61626c653a20636f6e7472616374206973206e6f74206960408201526a6e697469616c697a696e6760a81b606082015260800190565b60208082526032908201527f4552433732313a207472616e7366657220746f206e6f6e20455243373231526560408201527131b2b4bb32b91034b6b83632b6b2b73a32b960711b606082015260800190565b6001600160a01b03858116825284166020820152604081018390526080606082018190526000906130a9908301846127a5565b9695505050505050565b6000602082840312156130c557600080fd5b815161173c8161277256fea2646970667358221220146338e61cfd36a3b765d966607fb33fd4dffe65210611d89ae2f5236a1404f764736f6c63430008100033",
  "devdoc": {
    "kind": "dev",
    "methods": {
      "approve(address,uint256)": {
        "details": "See {IERC721-approve}."
      },
      "balanceOf(address)": {
        "details": "See {IERC721-balanceOf}."
      },
      "getApproved(uint256)": {
        "details": "See {IERC721-getApproved}."
      },
      "isApprovedForAll(address,address)": {
        "details": "See {IERC721-isApprovedForAll}."
      },
      "name()": {
        "details": "See {IERC721Metadata-name}."
      },
      "ownerOf(uint256)": {
        "details": "See {IERC721-ownerOf}."
      },
      "renounceOwnership()": {
        "details": "Leaves the contract without owner. It will not be possible to call `onlyOwner` functions anymore. Can only be called by the current owner. NOTE: Renouncing ownership will leave the contract without an owner, thereby removing any functionality that is only available to the owner."
      },
      "safeTransferFrom(address,address,uint256)": {
        "details": "See {IERC721-safeTransferFrom}."
      },
      "safeTransferFrom(address,address,uint256,bytes)": {
        "details": "See {IERC721-safeTransferFrom}."
      },
      "setApprovalForAll(address,bool)": {
        "details": "See {IERC721-setApprovalForAll}."
      },
      "symbol()": {
        "details": "See {IERC721Metadata-symbol}."
      },
      "tokenURI(uint256)": {
        "details": "See {IERC721Metadata-tokenURI}."
      },
      "transferFrom(address,address,uint256)": {
        "details": "See {IERC721-transferFrom}."
      },
      "transferOwnership(address)": {
        "details": "Transfers ownership of the contract to a new account (`newOwner`). Can only be called by the current owner."
      }
    },
    "version": 1
  },
  "userdoc": {
    "kind": "user",
    "methods": {},
    "version": 1
  },
  "storageLayout": {
    "storage": [
      {
        "astId": 820,
        "contract": "contracts/erc721Dynamic.sol:erc721Dynamic",
        "label": "_initialized",
        "offset": 0,
        "slot": "0",
        "type": "t_uint8"
      },
      {
        "astId": 823,
        "contract": "contracts/erc721Dynamic.sol:erc721Dynamic",
        "label": "_initializing",
        "offset": 1,
        "slot": "0",
        "type": "t_bool"
      },
      {
        "astId": 3165,
        "contract": "contracts/erc721Dynamic.sol:erc721Dynamic",
        "label": "__gap",
        "offset": 0,
        "slot": "1",
        "type": "t_array(t_uint256)50_storage"
      },
      {
        "astId": 3509,
        "contract": "contracts/erc721Dynamic.sol:erc721Dynamic",
        "label": "__gap",
        "offset": 0,
        "slot": "51",
        "type": "t_array(t_uint256)50_storage"
      },
      {
        "astId": 1120,
        "contract": "contracts/erc721Dynamic.sol:erc721Dynamic",
        "label": "_name",
        "offset": 0,
        "slot": "101",
        "type": "t_string_storage"
      },
      {
        "astId": 1122,
        "contract": "contracts/erc721Dynamic.sol:erc721Dynamic",
        "label": "_symbol",
        "offset": 0,
        "slot": "102",
        "type": "t_string_storage"
      },
      {
        "astId": 1126,
        "contract": "contracts/erc721Dynamic.sol:erc721Dynamic",
        "label": "_owners",
        "offset": 0,
        "slot": "103",
        "type": "t_mapping(t_uint256,t_address)"
      },
      {
        "astId": 1130,
        "contract": "contracts/erc721Dynamic.sol:erc721Dynamic",
        "label": "_balances",
        "offset": 0,
        "slot": "104",
        "type": "t_mapping(t_address,t_uint256)"
      },
      {
        "astId": 1134,
        "contract": "contracts/erc721Dynamic.sol:erc721Dynamic",
        "label": "_tokenApprovals",
        "offset": 0,
        "slot": "105",
        "type": "t_mapping(t_uint256,t_address)"
      },
      {
        "astId": 1140,
        "contract": "contracts/erc721Dynamic.sol:erc721Dynamic",
        "label": "_operatorApprovals",
        "offset": 0,
        "slot": "106",
        "type": "t_mapping(t_address,t_mapping(t_address,t_bool))"
      },
      {
        "astId": 1982,
        "contract": "contracts/erc721Dynamic.sol:erc721Dynamic",
        "label": "__gap",
        "offset": 0,
        "slot": "107",
        "type": "t_array(t_uint256)44_storage"
      },
      {
        "astId": 593,
        "contract": "contracts/erc721Dynamic.sol:erc721Dynamic",
        "label": "_owner",
        "offset": 0,
        "slot": "151",
        "type": "t_address"
      },
      {
        "astId": 713,
        "contract": "contracts/erc721Dynamic.sol:erc721Dynamic",
        "label": "__gap",
        "offset": 0,
        "slot": "152",
        "type": "t_array(t_uint256)49_storage"
      },
      {
        "astId": 4812,
        "contract": "contracts/erc721Dynamic.sol:erc721Dynamic",
        "label": "atTokenId",
        "offset": 0,
        "slot": "201",
        "type": "t_struct(Counter)3172_storage"
      },
      {
        "astId": 4814,
        "contract": "contracts/erc721Dynamic.sol:erc721Dynamic",
        "label": "baseURI",
        "offset": 0,
        "slot": "202",
        "type": "t_string_storage"
      },
      {
        "astId": 4816,
        "contract": "contracts/erc721Dynamic.sol:erc721Dynamic",
        "label": "description",
        "offset": 0,
        "slot": "203",
        "type": "t_string_storage"
      },
      {
        "astId": 4818,
        "contract": "contracts/erc721Dynamic.sol:erc721Dynamic",
        "label": "editionSize",
        "offset": 0,
        "slot": "204",
        "type": "t_uint256"
      },
      {
        "astId": 4820,
        "contract": "contracts/erc721Dynamic.sol:erc721Dynamic",
        "label": "currentSupply",
        "offset": 0,
        "slot": "205",
        "type": "t_uint256"
      },
      {
        "astId": 4823,
        "contract": "contracts/erc721Dynamic.sol:erc721Dynamic",
        "label": "paused",
        "offset": 0,
        "slot": "206",
        "type": "t_bool"
      },
      {
        "astId": 4826,
        "contract": "contracts/erc721Dynamic.sol:erc721Dynamic",
        "label": "publicMint",
        "offset": 1,
        "slot": "206",
        "type": "t_bool"
      },
      {
        "astId": 4828,
        "contract": "contracts/erc721Dynamic.sol:erc721Dynamic",
        "label": "royaltyBPS",
        "offset": 0,
        "slot": "207",
        "type": "t_uint256"
      },
      {
        "astId": 4830,
        "contract": "contracts/erc721Dynamic.sol:erc721Dynamic",
        "label": "salePrice",
        "offset": 0,
        "slot": "208",
        "type": "t_uint256"
      },
      {
        "astId": 4832,
        "contract": "contracts/erc721Dynamic.sol:erc721Dynamic",
        "label": "preSalePrice",
        "offset": 0,
        "slot": "209",
        "type": "t_uint256"
      },
      {
        "astId": 4834,
        "contract": "contracts/erc721Dynamic.sol:erc721Dynamic",
        "label": "maxMint",
        "offset": 0,
        "slot": "210",
        "type": "t_uint256"
      },
      {
        "astId": 4837,
        "contract": "contracts/erc721Dynamic.sol:erc721Dynamic",
        "label": "holders",
        "offset": 0,
        "slot": "211",
        "type": "t_array(t_address_payable)dyn_storage"
      },
      {
        "astId": 4840,
        "contract": "contracts/erc721Dynamic.sol:erc721Dynamic",
        "label": "whitelistWallets",
        "offset": 0,
        "slot": "212",
        "type": "t_array(t_address_payable)dyn_storage"
      },
      {
        "astId": 4844,
        "contract": "contracts/erc721Dynamic.sol:erc721Dynamic",
        "label": "allowedMinters",
        "offset": 0,
        "slot": "213",
        "type": "t_mapping(t_address,t_bool)"
      },
      {
        "astId": 4848,
        "contract": "contracts/erc721Dynamic.sol:erc721Dynamic",
        "label": "whitelist",
        "offset": 0,
        "slot": "214",
        "type": "t_mapping(t_address,t_bool)"
      }
    ],
    "types": {
      "t_address": {
        "encoding": "inplace",
        "label": "address",
        "numberOfBytes": "20"
      },
      "t_address_payable": {
        "encoding": "inplace",
        "label": "address payable",
        "numberOfBytes": "20"
      },
      "t_array(t_address_payable)dyn_storage": {
        "base": "t_address_payable",
        "encoding": "dynamic_array",
        "label": "address payable[]",
        "numberOfBytes": "32"
      },
      "t_array(t_uint256)44_storage": {
        "base": "t_uint256",
        "encoding": "inplace",
        "label": "uint256[44]",
        "numberOfBytes": "1408"
      },
      "t_array(t_uint256)49_storage": {
        "base": "t_uint256",
        "encoding": "inplace",
        "label": "uint256[49]",
        "numberOfBytes": "1568"
      },
      "t_array(t_uint256)50_storage": {
        "base": "t_uint256",
        "encoding": "inplace",
        "label": "uint256[50]",
        "numberOfBytes": "1600"
      },
      "t_bool": {
        "encoding": "inplace",
        "label": "bool",
        "numberOfBytes": "1"
      },
      "t_mapping(t_address,t_bool)": {
        "encoding": "mapping",
        "key": "t_address",
        "label": "mapping(address => bool)",
        "numberOfBytes": "32",
        "value": "t_bool"
      },
      "t_mapping(t_address,t_mapping(t_address,t_bool))": {
        "encoding": "mapping",
        "key": "t_address",
        "label": "mapping(address => mapping(address => bool))",
        "numberOfBytes": "32",
        "value": "t_mapping(t_address,t_bool)"
      },
      "t_mapping(t_address,t_uint256)": {
        "encoding": "mapping",
        "key": "t_address",
        "label": "mapping(address => uint256)",
        "numberOfBytes": "32",
        "value": "t_uint256"
      },
      "t_mapping(t_uint256,t_address)": {
        "encoding": "mapping",
        "key": "t_uint256",
        "label": "mapping(uint256 => address)",
        "numberOfBytes": "32",
        "value": "t_address"
      },
      "t_string_storage": {
        "encoding": "bytes",
        "label": "string",
        "numberOfBytes": "32"
      },
      "t_struct(Counter)3172_storage": {
        "encoding": "inplace",
        "label": "struct CountersUpgradeable.Counter",
        "members": [
          {
            "astId": 3171,
            "contract": "contracts/erc721Dynamic.sol:erc721Dynamic",
            "label": "_value",
            "offset": 0,
            "slot": "0",
            "type": "t_uint256"
          }
        ],
        "numberOfBytes": "32"
      },
      "t_uint256": {
        "encoding": "inplace",
        "label": "uint256",
        "numberOfBytes": "32"
      },
      "t_uint8": {
        "encoding": "inplace",
        "label": "uint8",
        "numberOfBytes": "1"
      }
    }
  }
}