{
  "address": "0x4bA4CF75E58152183337Ab1FC2C0a8B4f219095B",
  "abi": [
    {
      "inputs": [],
      "stateMutability": "nonpayable",
      "type": "constructor"
    },
    {
      "anonymous": false,
      "inputs": [
        {
          "indexed": true,
          "internalType": "uint256",
          "name": "itemId",
          "type": "uint256"
        },
        {
          "indexed": true,
          "internalType": "address",
          "name": "nftContract",
          "type": "address"
        },
        {
          "indexed": true,
          "internalType": "uint256",
          "name": "tokenId",
          "type": "uint256"
        },
        {
          "indexed": false,
          "internalType": "address",
          "name": "seller",
          "type": "address"
        },
        {
          "indexed": false,
          "internalType": "address",
          "name": "owner",
          "type": "address"
        },
        {
          "indexed": false,
          "internalType": "uint256",
          "name": "price",
          "type": "uint256"
        },
        {
          "indexed": false,
          "internalType": "bool",
          "name": "sold",
          "type": "bool"
        }
      ],
      "name": "MarketItemCreated",
      "type": "event"
    },
    {
      "anonymous": false,
      "inputs": [
        {
          "indexed": true,
          "internalType": "uint256",
          "name": "itemId",
          "type": "uint256"
        },
        {
          "indexed": false,
          "internalType": "address",
          "name": "owner",
          "type": "address"
        }
      ],
      "name": "MarketItemSold",
      "type": "event"
    },
    {
      "inputs": [
        {
          "internalType": "address",
          "name": "nftContract",
          "type": "address"
        },
        {
          "internalType": "uint256",
          "name": "tokenId",
          "type": "uint256"
        },
        {
          "internalType": "uint256",
          "name": "price",
          "type": "uint256"
        }
      ],
      "name": "createMarketItem",
      "outputs": [],
      "stateMutability": "payable",
      "type": "function"
    },
    {
      "inputs": [
        {
          "internalType": "address",
          "name": "nftContract",
          "type": "address"
        },
        {
          "internalType": "uint256",
          "name": "itemId",
          "type": "uint256"
        }
      ],
      "name": "createMarketSale",
      "outputs": [],
      "stateMutability": "payable",
      "type": "function"
    },
    {
      "inputs": [],
      "name": "fetchMarketItems",
      "outputs": [
        {
          "components": [
            {
              "internalType": "uint256",
              "name": "itemId",
              "type": "uint256"
            },
            {
              "internalType": "address",
              "name": "nftContract",
              "type": "address"
            },
            {
              "internalType": "uint256",
              "name": "tokenId",
              "type": "uint256"
            },
            {
              "internalType": "address payable",
              "name": "seller",
              "type": "address"
            },
            {
              "internalType": "address payable",
              "name": "owner",
              "type": "address"
            },
            {
              "internalType": "uint256",
              "name": "price",
              "type": "uint256"
            },
            {
              "internalType": "bool",
              "name": "sold",
              "type": "bool"
            }
          ],
          "internalType": "struct NFTMarket.MarketItem[]",
          "name": "",
          "type": "tuple[]"
        }
      ],
      "stateMutability": "view",
      "type": "function"
    },
    {
      "inputs": [],
      "name": "owner",
      "outputs": [
        {
          "internalType": "address",
          "name": "",
          "type": "address"
        }
      ],
      "stateMutability": "view",
      "type": "function"
    }
  ],
  "transactionHash": "0xbad22f4685d609c8033599313641866ae70a36d2ccc96af986c34029ebf7a212",
  "args": [],
  "numDeployments": 1,
  "solcInputHash": "747889205a706a0ad11210b3adf9054d",
  "bytecode": "0x608060405234801561001057600080fd5b506001600055600380546001600160a01b03191633179055610909806100376000396000f3fe60806040526004361061003f5760003560e01c80630f08efe01461004457806358eb2df51461006f5780638da5cb5b14610084578063c23b139e146100bc575b600080fd5b34801561005057600080fd5b506100596100cf565b604051610066919061073f565b60405180910390f35b61008261007d3660046107ef565b610286565b005b34801561009057600080fd5b506003546100a4906001600160a01b031681565b6040516001600160a01b039091168152602001610066565b6100826100ca366004610822565b6104c4565b606060006100dc60015490565b905060006100e960025490565b6001546100f69190610862565b90506000808267ffffffffffffffff8111156101145761011461087b565b60405190808252806020026020018201604052801561017b57816020015b6040805160e08101825260008082526020808301829052928201819052606082018190526080820181905260a0820181905260c082015282526000199092019101816101325790505b50905060005b8481101561027d576000600481610199846001610891565b81526020810191909152604001600020600401546001600160a01b03160361026b5760006101c8826001610891565b600081815260046020818152604092839020835160e0810185528154815260018201546001600160a01b039081169382019390935260028201549481019490945260038101548216606085015291820154166080830152600581015460a0830152600681015460ff16151560c0830152855192935091859087908110610250576102506108a4565b6020908102919091010152610266600186610891565b945050505b80610275816108ba565b915050610181565b50949350505050565b6002600054036102dd5760405162461bcd60e51b815260206004820152601f60248201527f5265656e7472616e637947756172643a207265656e7472616e742063616c6c0060448201526064015b60405180910390fd5b60026000558061032f5760405162461bcd60e51b815260206004820152601c60248201527f5072696365206d7573742062652067726561746572207468616e20300000000060448201526064016102d4565b61033d600180546001019055565b600061034860015490565b6040805160e0810182528281526001600160a01b0387811660208084018281528486018a8152336060870181815260006080890181815260a08a018e815260c08b018381528d8452600498899052928c90209a518b55955160018b0180546001600160a01b0319908116928c16929092179055945160028b0155915160038a0180548616918a16919091179055905188860180549094169716969096179091559051600586015592516006909401805460ff19169415159490941790935592516323b872dd60e01b81529182015230602482015260448101869052919250906323b872dd90606401600060405180830381600087803b15801561044a57600080fd5b505af115801561045e573d6000803e3d6000fd5b505060408051338152600060208201819052818301879052606082015290518693506001600160a01b038816925084917f045dfa01dcba2b36aba1d3dc4a874f4b0c5d2fbeb8d2c4b34a7d88c8d8f929d1919081900360800190a4505060016000555050565b6002600054036105165760405162461bcd60e51b815260206004820152601f60248201527f5265656e7472616e637947756172643a207265656e7472616e742063616c6c0060448201526064016102d4565b6002600081815582815260046020526040902060058101549181015460069091015460ff163483146105b2576040805162461bcd60e51b81526020600482015260248101919091527f506c65617365207375626d6974207468652061736b696e67207072696365206960448201527f6e206f7264657220746f20636f6d706c6574652074686520707572636861736560648201526084016102d4565b8015156001036106045760405162461bcd60e51b815260206004820152601e60248201527f546869732053616c652068617320616c726564792066696e6e6973686564000060448201526064016102d4565b60405133815284907f2073b2706c235effb1e3840575370a51749afd8181b4018f93bff955d50792cb9060200160405180910390a26000848152600460205260408082206003015490516001600160a01b03909116913480156108fc02929091818181858888f19350505050158015610681573d6000803e3d6000fd5b506040516323b872dd60e01b8152306004820152336024820152604481018390526001600160a01b038616906323b872dd90606401600060405180830381600087803b1580156106d057600080fd5b505af11580156106e4573d6000803e3d6000fd5b50505060008581526004602081905260409091200180546001600160a01b0319163317905550610718600280546001019055565b5050506000908152600460205260408120600601805460ff19166001908117909155905550565b602080825282518282018190526000919060409081850190868401855b828110156107c657815180518552868101516001600160a01b039081168887015286820151878701526060808301518216908701526080808301519091169086015260a0808201519086015260c09081015115159085015260e0909301929085019060010161075c565b5091979650505050505050565b80356001600160a01b03811681146107ea57600080fd5b919050565b60008060006060848603121561080457600080fd5b61080d846107d3565b95602085013595506040909401359392505050565b6000806040838503121561083557600080fd5b61083e836107d3565b946020939093013593505050565b634e487b7160e01b600052601160045260246000fd5b818103818111156108755761087561084c565b92915050565b634e487b7160e01b600052604160045260246000fd5b808201808211156108755761087561084c565b634e487b7160e01b600052603260045260246000fd5b6000600182016108cc576108cc61084c565b506001019056fea2646970667358221220904b0e5107e23f8338b3f782c3b63ece8dd7537e076b7843c98a2c00caf2dcb464736f6c63430008100033",
  "devdoc": {
    "kind": "dev",
    "methods": {},
    "version": 1
  },
  "userdoc": {
    "kind": "user",
    "methods": {},
    "version": 1
  },
  "storageLayout": {
    "storage": [
      {
        "astId": 231,
        "contract": "contracts/NFTMarket.sol:NFTMarket",
        "label": "_status",
        "offset": 0,
        "slot": "0",
        "type": "t_uint256"
      },
      {
        "astId": 4427,
        "contract": "contracts/NFTMarket.sol:NFTMarket",
        "label": "_itemIds",
        "offset": 0,
        "slot": "1",
        "type": "t_struct(Counter)1736_storage"
      },
      {
        "astId": 4430,
        "contract": "contracts/NFTMarket.sol:NFTMarket",
        "label": "_itemsSold",
        "offset": 0,
        "slot": "2",
        "type": "t_struct(Counter)1736_storage"
      },
      {
        "astId": 4432,
        "contract": "contracts/NFTMarket.sol:NFTMarket",
        "label": "owner",
        "offset": 0,
        "slot": "3",
        "type": "t_address"
      },
      {
        "astId": 4461,
        "contract": "contracts/NFTMarket.sol:NFTMarket",
        "label": "idToMarketItem",
        "offset": 0,
        "slot": "4",
        "type": "t_mapping(t_uint256,t_struct(MarketItem)4456_storage)"
      }
    ],
    "types": {
      "t_address": {
        "encoding": "inplace",
        "label": "address",
        "numberOfBytes": "20"
      },
      "t_address_payable": {
        "encoding": "inplace",
        "label": "address payable",
        "numberOfBytes": "20"
      },
      "t_bool": {
        "encoding": "inplace",
        "label": "bool",
        "numberOfBytes": "1"
      },
      "t_mapping(t_uint256,t_struct(MarketItem)4456_storage)": {
        "encoding": "mapping",
        "key": "t_uint256",
        "label": "mapping(uint256 => struct NFTMarket.MarketItem)",
        "numberOfBytes": "32",
        "value": "t_struct(MarketItem)4456_storage"
      },
      "t_struct(Counter)1736_storage": {
        "encoding": "inplace",
        "label": "struct Counters.Counter",
        "members": [
          {
            "astId": 1735,
            "contract": "contracts/NFTMarket.sol:NFTMarket",
            "label": "_value",
            "offset": 0,
            "slot": "0",
            "type": "t_uint256"
          }
        ],
        "numberOfBytes": "32"
      },
      "t_struct(MarketItem)4456_storage": {
        "encoding": "inplace",
        "label": "struct NFTMarket.MarketItem",
        "members": [
          {
            "astId": 4443,
            "contract": "contracts/NFTMarket.sol:NFTMarket",
            "label": "itemId",
            "offset": 0,
            "slot": "0",
            "type": "t_uint256"
          },
          {
            "astId": 4445,
            "contract": "contracts/NFTMarket.sol:NFTMarket",
            "label": "nftContract",
            "offset": 0,
            "slot": "1",
            "type": "t_address"
          },
          {
            "astId": 4447,
            "contract": "contracts/NFTMarket.sol:NFTMarket",
            "label": "tokenId",
            "offset": 0,
            "slot": "2",
            "type": "t_uint256"
          },
          {
            "astId": 4449,
            "contract": "contracts/NFTMarket.sol:NFTMarket",
            "label": "seller",
            "offset": 0,
            "slot": "3",
            "type": "t_address_payable"
          },
          {
            "astId": 4451,
            "contract": "contracts/NFTMarket.sol:NFTMarket",
            "label": "owner",
            "offset": 0,
            "slot": "4",
            "type": "t_address_payable"
          },
          {
            "astId": 4453,
            "contract": "contracts/NFTMarket.sol:NFTMarket",
            "label": "price",
            "offset": 0,
            "slot": "5",
            "type": "t_uint256"
          },
          {
            "astId": 4455,
            "contract": "contracts/NFTMarket.sol:NFTMarket",
            "label": "sold",
            "offset": 0,
            "slot": "6",
            "type": "t_bool"
          }
        ],
        "numberOfBytes": "224"
      },
      "t_uint256": {
        "encoding": "inplace",
        "label": "uint256",
        "numberOfBytes": "32"
      }
    }
  }
}