{
  "address": "0x7a9E8c1aC540EE5b0e94a85D6d1619226d8c57fE",
  "abi": [
    {
      "inputs": [
        {
          "internalType": "address",
          "name": "_implementation",
          "type": "address"
        },
        {
          "internalType": "address payable",
          "name": "bunyBank",
          "type": "address"
        }
      ],
      "stateMutability": "nonpayable",
      "type": "constructor"
    },
    {
      "anonymous": false,
      "inputs": [
        {
          "indexed": true,
          "internalType": "uint256",
          "name": "editionId",
          "type": "uint256"
        },
        {
          "indexed": true,
          "internalType": "address",
          "name": "creator",
          "type": "address"
        },
        {
          "indexed": false,
          "internalType": "uint256",
          "name": "editionSize",
          "type": "uint256"
        },
        {
          "indexed": true,
          "internalType": "address",
          "name": "editionContractAddress",
          "type": "address"
        },
        {
          "indexed": false,
          "internalType": "uint256",
          "name": "minPlayers",
          "type": "uint256"
        },
        {
          "indexed": false,
          "internalType": "uint256",
          "name": "maxTokens",
          "type": "uint256"
        },
        {
          "indexed": false,
          "internalType": "uint256",
          "name": "salePrice",
          "type": "uint256"
        }
      ],
      "name": "CreatedEdition",
      "type": "event"
    },
    {
      "anonymous": false,
      "inputs": [
        {
          "indexed": false,
          "internalType": "uint8",
          "name": "version",
          "type": "uint8"
        }
      ],
      "name": "Initialized",
      "type": "event"
    },
    {
      "anonymous": false,
      "inputs": [
        {
          "indexed": true,
          "internalType": "address",
          "name": "previousOwner",
          "type": "address"
        },
        {
          "indexed": true,
          "internalType": "address",
          "name": "newOwner",
          "type": "address"
        }
      ],
      "name": "OwnershipTransferred",
      "type": "event"
    },
    {
      "inputs": [],
      "name": "_bunyBank",
      "outputs": [
        {
          "internalType": "address payable",
          "name": "",
          "type": "address"
        }
      ],
      "stateMutability": "view",
      "type": "function"
    },
    {
      "inputs": [
        {
          "internalType": "uint256",
          "name": "",
          "type": "uint256"
        }
      ],
      "name": "collection",
      "outputs": [
        {
          "internalType": "string",
          "name": "_name",
          "type": "string"
        },
        {
          "internalType": "address",
          "name": "editionContractAddress",
          "type": "address"
        },
        {
          "internalType": "uint256",
          "name": "_editionSize",
          "type": "uint256"
        },
        {
          "internalType": "uint256",
          "name": "newId",
          "type": "uint256"
        },
        {
          "internalType": "uint256",
          "name": "_minPlayers",
          "type": "uint256"
        },
        {
          "internalType": "uint256",
          "name": "_maxTokens",
          "type": "uint256"
        },
        {
          "internalType": "uint256",
          "name": "_salePrice",
          "type": "uint256"
        },
        {
          "internalType": "string",
          "name": "_imageUrl",
          "type": "string"
        }
      ],
      "stateMutability": "view",
      "type": "function"
    },
    {
      "inputs": [],
      "name": "collectionCount",
      "outputs": [
        {
          "internalType": "uint256",
          "name": "",
          "type": "uint256"
        }
      ],
      "stateMutability": "view",
      "type": "function"
    },
    {
      "inputs": [
        {
          "internalType": "string",
          "name": "_description",
          "type": "string"
        },
        {
          "internalType": "string",
          "name": "_imageUrl",
          "type": "string"
        },
        {
          "internalType": "uint256",
          "name": "_editionSize",
          "type": "uint256"
        },
        {
          "internalType": "uint256",
          "name": "_salePrice",
          "type": "uint256"
        },
        {
          "internalType": "uint256",
          "name": "_minPlayers",
          "type": "uint256"
        },
        {
          "internalType": "uint256",
          "name": "_maxTokens",
          "type": "uint256"
        }
      ],
      "name": "createEdition",
      "outputs": [
        {
          "internalType": "uint256",
          "name": "",
          "type": "uint256"
        }
      ],
      "stateMutability": "nonpayable",
      "type": "function"
    },
    {
      "inputs": [
        {
          "internalType": "uint256",
          "name": "raffleId",
          "type": "uint256"
        }
      ],
      "name": "getRaffleAtId",
      "outputs": [
        {
          "internalType": "contract BunyRaffleNft",
          "name": "",
          "type": "address"
        }
      ],
      "stateMutability": "view",
      "type": "function"
    },
    {
      "inputs": [],
      "name": "implementation",
      "outputs": [
        {
          "internalType": "address",
          "name": "",
          "type": "address"
        }
      ],
      "stateMutability": "view",
      "type": "function"
    },
    {
      "inputs": [],
      "name": "owner",
      "outputs": [
        {
          "internalType": "address",
          "name": "",
          "type": "address"
        }
      ],
      "stateMutability": "view",
      "type": "function"
    },
    {
      "inputs": [],
      "name": "readAllCollections",
      "outputs": [
        {
          "components": [
            {
              "internalType": "string",
              "name": "_name",
              "type": "string"
            },
            {
              "internalType": "address",
              "name": "editionContractAddress",
              "type": "address"
            },
            {
              "internalType": "uint256",
              "name": "_editionSize",
              "type": "uint256"
            },
            {
              "internalType": "uint256",
              "name": "newId",
              "type": "uint256"
            },
            {
              "internalType": "uint256",
              "name": "_minPlayers",
              "type": "uint256"
            },
            {
              "internalType": "uint256",
              "name": "_maxTokens",
              "type": "uint256"
            },
            {
              "internalType": "uint256",
              "name": "_salePrice",
              "type": "uint256"
            },
            {
              "internalType": "string",
              "name": "_imageUrl",
              "type": "string"
            }
          ],
          "internalType": "struct BunyRaffleFactory.Collection[]",
          "name": "",
          "type": "tuple[]"
        }
      ],
      "stateMutability": "view",
      "type": "function"
    },
    {
      "inputs": [],
      "name": "renounceOwnership",
      "outputs": [],
      "stateMutability": "nonpayable",
      "type": "function"
    },
    {
      "inputs": [
        {
          "internalType": "address payable",
          "name": "bunyBank",
          "type": "address"
        }
      ],
      "name": "setBunyBankAddress",
      "outputs": [],
      "stateMutability": "nonpayable",
      "type": "function"
    },
    {
      "inputs": [
        {
          "internalType": "address",
          "name": "newOwner",
          "type": "address"
        }
      ],
      "name": "transferOwnership",
      "outputs": [],
      "stateMutability": "nonpayable",
      "type": "function"
    }
  ],
  "transactionHash": "0x4633ea8edb2018b41648d35ad04f096867677537957ed5035a63863febab60f2",
  "args": [
    "0xECA137CEa757DC499430eEAD875041D9F62A464d",
    "0x1f83b42aA2b03F01EEC063aFd4b3E674F97fe9e8"
  ],
  "numDeployments": 1,
  "solcInputHash": "8c770a2d7c2d2a48820e157543d4f641",
  "bytecode": "0x60c0604052601060809081526f42756e7920526166666c65203230323360801b60a05260679062000031908262000186565b506040805180820190915260058152647242554e5960d81b60208201526068906200005d908262000186565b507104f627b3bbd341d240517fe3db99ad3b2c27606955610539606b556000606c553480156200008c57600080fd5b506040516200144638038062001446833981016040819052620000af916200026b565b606680546001600160a01b039384166001600160a01b031991821617909155606a8054929093169116179055620002aa565b634e487b7160e01b600052604160045260246000fd5b600181811c908216806200010c57607f821691505b6020821081036200012d57634e487b7160e01b600052602260045260246000fd5b50919050565b601f8211156200018157600081815260208120601f850160051c810160208610156200015c5750805b601f850160051c820191505b818110156200017d5782815560010162000168565b5050505b505050565b81516001600160401b03811115620001a257620001a2620000e1565b620001ba81620001b38454620000f7565b8462000133565b602080601f831160018114620001f25760008415620001d95750858301515b600019600386901b1c1916600185901b1785556200017d565b600085815260208120601f198616915b82811015620002235788860151825594840194600190910190840162000202565b5085821015620002425787850151600019600388901b60f8161c191681555b5050505050600190811b01905550565b6001600160a01b03811681146200026857600080fd5b50565b600080604083850312156200027f57600080fd5b82516200028c8162000252565b60208401519092506200029f8162000252565b809150509250929050565b61118c80620002ba6000396000f3fe608060405234801561001057600080fd5b50600436106100a95760003560e01c8063adee9cc411610071578063adee9cc414610116578063d57f966b1461012b578063df18d1fd14610142578063ef5c18bf14610155578063f077237714610168578063f2fde38b1461018f57600080fd5b80630dcd5f2b146100ae5780635c60da1b146100de578063715018a6146100f15780637427fd32146100fb5780638da5cb5b1461010e575b600080fd5b6100c16100bc366004610ba2565b6101a2565b6040516001600160a01b0390911681526020015b60405180910390f35b6066546100c1906001600160a01b031681565b6100f9610241565b005b606a546100c1906001600160a01b031681565b6100c1610255565b61011e61026e565b6040516100d59190610c01565b610134606c5481565b6040519081526020016100d5565b6100f9610150366004610ce5565b6104ef565b610134610163366004610dac565b610569565b61017b610176366004610ba2565b61085d565b6040516100d5989796959493929190610e33565b6100f961019d366004610ce5565b6109d8565b606654604080516020810184905260009261023b926001600160a01b0390911691016040516020818303038152906040526101dc90610e96565b30604051733d602d80600a3d3981f3363d3d373d3d3d363d7360601b8152606093841b60148201526f5af43d82803e903d91602b57fd5bf3ff60801b6028820152921b6038830152604c8201526037808220606c830152605591012090565b92915050565b610249610a51565b6102536000610ab0565b565b60006102696033546001600160a01b031690565b905090565b60606000606c5467ffffffffffffffff81111561028d5761028d610d09565b60405190808252806020026020018201604052801561030f57816020015b6102fc6040518061010001604052806060815260200160006001600160a01b031681526020016000815260200160008152602001600081526020016000815260200160008152602001606081525090565b8152602001906001900390816102ab5790505b50905060005b606c548110156104e957606d818154811061033257610332610eba565b90600052602060002090600802016040518061010001604052908160008201805461035c90610ed0565b80601f016020809104026020016040519081016040528092919081815260200182805461038890610ed0565b80156103d55780601f106103aa576101008083540402835291602001916103d5565b820191906000526020600020905b8154815290600101906020018083116103b857829003601f168201915b505050918352505060018201546001600160a01b03166020820152600282015460408201526003820154606082015260048201546080820152600582015460a0820152600682015460c082015260078201805460e09092019161043790610ed0565b80601f016020809104026020016040519081016040528092919081815260200182805461046390610ed0565b80156104b05780601f10610485576101008083540402835291602001916104b0565b820191906000526020600020905b81548152906001019060200180831161049357829003601f168201915b5050505050815250508282815181106104cb576104cb610eba565b602002602001018190525080806104e190610f04565b915050610315565b50919050565b6104f7610a51565b6001600160a01b0381166105475760405162461bcd60e51b8152602060048201526012602482015271496e76616c6964204242206164647265737360701b60448201526064015b60405180910390fd5b606a80546001600160a01b0319166001600160a01b0392909216919091179055565b60008061057560655490565b60665460408051602081018490529293506000926105b5926001600160a01b031691016040516020818303038152906040526105b090610e96565b610b02565b9050806001600160a01b0316630e2cbc3d33606760688d8d8d8d8d606a60009054906101000a90046001600160a01b03168e606954606b546040518d63ffffffff1660e01b81526004016106149c9b9a99989796959493929190610fa8565b600060405180830381600087803b15801561062e57600080fd5b505af1158015610642573d6000803e3d6000fd5b5050604080518a815260208101899052908101879052606081018990526001600160a01b038416925033915084907f226927875e8fc1b20c8057e25b363b96220e510f97e084791642716d186327d59060800160405180910390a46106ab606580546001019055565b6000604051806101000160405280606780546106c690610ed0565b80601f01602080910402602001604051908101604052809291908181526020018280546106f290610ed0565b801561073f5780601f106107145761010080835404028352916020019161073f565b820191906000526020600020905b81548152906001019060200180831161072257829003601f168201915b50505091835250506001600160a01b0384166020820152604081018a9052606081018590526080810188905260a0810187905260c0810189905260e0018a9052606d80546001810182556000919091528151919250829160089091027f5006b838207c6a9ae9b84d68f467dd4bb5c305fbfb6b04eab8faaabeec1e18d8019081906107ca9082611096565b5060208201516001820180546001600160a01b0319166001600160a01b0390921691909117905560408201516002820155606082015160038201556080820151600482015560a0820151600582015560c0820151600682015560e082015160078201906108379082611096565b5050606c80549150600061084a83610f04565b90915550929a9950505050505050505050565b606d818154811061086d57600080fd5b906000526020600020906008020160009150905080600001805461089090610ed0565b80601f01602080910402602001604051908101604052809291908181526020018280546108bc90610ed0565b80156109095780601f106108de57610100808354040283529160200191610909565b820191906000526020600020905b8154815290600101906020018083116108ec57829003601f168201915b5050505050908060010160009054906101000a90046001600160a01b03169080600201549080600301549080600401549080600501549080600601549080600701805461095590610ed0565b80601f016020809104026020016040519081016040528092919081815260200182805461098190610ed0565b80156109ce5780601f106109a3576101008083540402835291602001916109ce565b820191906000526020600020905b8154815290600101906020018083116109b157829003601f168201915b5050505050905088565b6109e0610a51565b6001600160a01b038116610a455760405162461bcd60e51b815260206004820152602660248201527f4f776e61626c653a206e6577206f776e657220697320746865207a65726f206160448201526564647265737360d01b606482015260840161053e565b610a4e81610ab0565b50565b33610a5a610255565b6001600160a01b0316146102535760405162461bcd60e51b815260206004820181905260248201527f4f776e61626c653a2063616c6c6572206973206e6f7420746865206f776e6572604482015260640161053e565b603380546001600160a01b038381166001600160a01b0319831681179093556040519116919082907f8be0079c531659141344cd1fd0a4f28419497f9722a3daafe3b4186f6b6457e090600090a35050565b6000604051733d602d80600a3d3981f3363d3d373d3d3d363d7360601b81528360601b60148201526e5af43d82803e903d91602b57fd5bf360881b6028820152826037826000f59150506001600160a01b03811661023b5760405162461bcd60e51b815260206004820152601760248201527f455243313136373a2063726561746532206661696c6564000000000000000000604482015260640161053e565b600060208284031215610bb457600080fd5b5035919050565b6000815180845260005b81811015610be157602081850181015186830182015201610bc5565b506000602082860101526020601f19601f83011685010191505092915050565b60006020808301818452808551808352604092508286019150828160051b87010184880160005b83811015610cc257603f1989840301855281516101008151818652610c4f82870182610bbb565b838b01516001600160a01b0316878c0152898401518a880152606080850151908801526080808501519088015260a0848101519088015260c0808501519088015260e093840151878203948801949094529150610cae90508183610bbb565b968901969450505090860190600101610c28565b509098975050505050505050565b6001600160a01b0381168114610a4e57600080fd5b600060208284031215610cf757600080fd5b8135610d0281610cd0565b9392505050565b634e487b7160e01b600052604160045260246000fd5b600082601f830112610d3057600080fd5b813567ffffffffffffffff80821115610d4b57610d4b610d09565b604051601f8301601f19908116603f01168101908282118183101715610d7357610d73610d09565b81604052838152866020858801011115610d8c57600080fd5b836020870160208301376000602085830101528094505050505092915050565b60008060008060008060c08789031215610dc557600080fd5b863567ffffffffffffffff80821115610ddd57600080fd5b610de98a838b01610d1f565b97506020890135915080821115610dff57600080fd5b50610e0c89828a01610d1f565b96999698505050506040850135946060810135946080820135945060a09091013592509050565b6000610100808352610e478184018c610bbb565b905060018060a01b038a1660208401528860408401528760608401528660808401528560a08401528460c084015282810360e0840152610e878185610bbb565b9b9a5050505050505050505050565b805160208083015191908110156104e95760001960209190910360031b1b16919050565b634e487b7160e01b600052603260045260246000fd5b600181811c90821680610ee457607f821691505b6020821081036104e957634e487b7160e01b600052602260045260246000fd5b600060018201610f2457634e487b7160e01b600052601160045260246000fd5b5060010190565b60008154610f3881610ed0565b808552602060018381168015610f555760018114610f6f57610f9d565b60ff1985168884015283151560051b880183019550610f9d565b866000528260002060005b85811015610f955781548a8201860152908301908401610f7a565b890184019650505b505050505092915050565b600060018060a01b03808f1683526101806020840152610fcc61018084018f610f2b565b8381036040850152610fde818f610f2b565b90508381036060850152610ff2818e610bbb565b90508381036080850152611006818d610bbb565b60a085019b909b525060c08301989098525060e081019590955292909416610100840152610120830152610140820192909252610160015295945050505050565b601f82111561109157600081815260208120601f850160051c8101602086101561106e5750805b601f850160051c820191505b8181101561108d5782815560010161107a565b5050505b505050565b815167ffffffffffffffff8111156110b0576110b0610d09565b6110c4816110be8454610ed0565b84611047565b602080601f8311600181146110f957600084156110e15750858301515b600019600386901b1c1916600185901b17855561108d565b600085815260208120601f198616915b8281101561112857888601518255948401946001909101908401611109565b50858210156111465787850151600019600388901b60f8161c191681555b5050505050600190811b0190555056fea2646970667358221220c3c3b529419531a6bf11a8320de9e00692d7f01cf9c06412829ed90f696825d164736f6c63430008100033",
  "devdoc": {
    "kind": "dev",
    "methods": {
      "owner()": {
        "details": "Returns the address of the current owner."
      },
      "renounceOwnership()": {
        "details": "Leaves the contract without owner. It will not be possible to call `onlyOwner` functions anymore. Can only be called by the current owner. NOTE: Renouncing ownership will leave the contract without an owner, thereby removing any functionality that is only available to the owner."
      },
      "transferOwnership(address)": {
        "details": "Transfers ownership of the contract to a new account (`newOwner`). Can only be called by the current owner."
      }
    },
    "version": 1
  },
  "userdoc": {
    "kind": "user",
    "methods": {
      "constructor": {
        "notice": "Initializes factory with address of implementation logic"
      }
    },
    "version": 1
  },
  "storageLayout": {
    "storage": [
      {
        "astId": 823,
        "contract": "contracts/BunyRaffleFactory.sol:BunyRaffleFactory",
        "label": "_initialized",
        "offset": 0,
        "slot": "0",
        "type": "t_uint8"
      },
      {
        "astId": 826,
        "contract": "contracts/BunyRaffleFactory.sol:BunyRaffleFactory",
        "label": "_initializing",
        "offset": 1,
        "slot": "0",
        "type": "t_bool"
      },
      {
        "astId": 3168,
        "contract": "contracts/BunyRaffleFactory.sol:BunyRaffleFactory",
        "label": "__gap",
        "offset": 0,
        "slot": "1",
        "type": "t_array(t_uint256)50_storage"
      },
      {
        "astId": 593,
        "contract": "contracts/BunyRaffleFactory.sol:BunyRaffleFactory",
        "label": "_owner",
        "offset": 0,
        "slot": "51",
        "type": "t_address"
      },
      {
        "astId": 713,
        "contract": "contracts/BunyRaffleFactory.sol:BunyRaffleFactory",
        "label": "__gap",
        "offset": 0,
        "slot": "52",
        "type": "t_array(t_uint256)49_storage"
      },
      {
        "astId": 8741,
        "contract": "contracts/BunyRaffleFactory.sol:BunyRaffleFactory",
        "label": "atContract",
        "offset": 0,
        "slot": "101",
        "type": "t_struct(Counter)3175_storage"
      },
      {
        "astId": 8743,
        "contract": "contracts/BunyRaffleFactory.sol:BunyRaffleFactory",
        "label": "implementation",
        "offset": 0,
        "slot": "102",
        "type": "t_address"
      },
      {
        "astId": 8746,
        "contract": "contracts/BunyRaffleFactory.sol:BunyRaffleFactory",
        "label": "_name",
        "offset": 0,
        "slot": "103",
        "type": "t_string_storage"
      },
      {
        "astId": 8749,
        "contract": "contracts/BunyRaffleFactory.sol:BunyRaffleFactory",
        "label": "_symbol",
        "offset": 0,
        "slot": "104",
        "type": "t_string_storage"
      },
      {
        "astId": 8752,
        "contract": "contracts/BunyRaffleFactory.sol:BunyRaffleFactory",
        "label": "_prime",
        "offset": 0,
        "slot": "105",
        "type": "t_uint256"
      },
      {
        "astId": 8754,
        "contract": "contracts/BunyRaffleFactory.sol:BunyRaffleFactory",
        "label": "_bunyBank",
        "offset": 0,
        "slot": "106",
        "type": "t_address_payable"
      },
      {
        "astId": 8757,
        "contract": "contracts/BunyRaffleFactory.sol:BunyRaffleFactory",
        "label": "_iterations",
        "offset": 0,
        "slot": "107",
        "type": "t_uint256"
      },
      {
        "astId": 8760,
        "contract": "contracts/BunyRaffleFactory.sol:BunyRaffleFactory",
        "label": "collectionCount",
        "offset": 0,
        "slot": "108",
        "type": "t_uint256"
      },
      {
        "astId": 8780,
        "contract": "contracts/BunyRaffleFactory.sol:BunyRaffleFactory",
        "label": "collection",
        "offset": 0,
        "slot": "109",
        "type": "t_array(t_struct(Collection)8797_storage)dyn_storage"
      }
    ],
    "types": {
      "t_address": {
        "encoding": "inplace",
        "label": "address",
        "numberOfBytes": "20"
      },
      "t_address_payable": {
        "encoding": "inplace",
        "label": "address payable",
        "numberOfBytes": "20"
      },
      "t_array(t_struct(Collection)8797_storage)dyn_storage": {
        "base": "t_struct(Collection)8797_storage",
        "encoding": "dynamic_array",
        "label": "struct BunyRaffleFactory.Collection[]",
        "numberOfBytes": "32"
      },
      "t_array(t_uint256)49_storage": {
        "base": "t_uint256",
        "encoding": "inplace",
        "label": "uint256[49]",
        "numberOfBytes": "1568"
      },
      "t_array(t_uint256)50_storage": {
        "base": "t_uint256",
        "encoding": "inplace",
        "label": "uint256[50]",
        "numberOfBytes": "1600"
      },
      "t_bool": {
        "encoding": "inplace",
        "label": "bool",
        "numberOfBytes": "1"
      },
      "t_string_storage": {
        "encoding": "bytes",
        "label": "string",
        "numberOfBytes": "32"
      },
      "t_struct(Collection)8797_storage": {
        "encoding": "inplace",
        "label": "struct BunyRaffleFactory.Collection",
        "members": [
          {
            "astId": 8782,
            "contract": "contracts/BunyRaffleFactory.sol:BunyRaffleFactory",
            "label": "_name",
            "offset": 0,
            "slot": "0",
            "type": "t_string_storage"
          },
          {
            "astId": 8784,
            "contract": "contracts/BunyRaffleFactory.sol:BunyRaffleFactory",
            "label": "editionContractAddress",
            "offset": 0,
            "slot": "1",
            "type": "t_address"
          },
          {
            "astId": 8786,
            "contract": "contracts/BunyRaffleFactory.sol:BunyRaffleFactory",
            "label": "_editionSize",
            "offset": 0,
            "slot": "2",
            "type": "t_uint256"
          },
          {
            "astId": 8788,
            "contract": "contracts/BunyRaffleFactory.sol:BunyRaffleFactory",
            "label": "newId",
            "offset": 0,
            "slot": "3",
            "type": "t_uint256"
          },
          {
            "astId": 8790,
            "contract": "contracts/BunyRaffleFactory.sol:BunyRaffleFactory",
            "label": "_minPlayers",
            "offset": 0,
            "slot": "4",
            "type": "t_uint256"
          },
          {
            "astId": 8792,
            "contract": "contracts/BunyRaffleFactory.sol:BunyRaffleFactory",
            "label": "_maxTokens",
            "offset": 0,
            "slot": "5",
            "type": "t_uint256"
          },
          {
            "astId": 8794,
            "contract": "contracts/BunyRaffleFactory.sol:BunyRaffleFactory",
            "label": "_salePrice",
            "offset": 0,
            "slot": "6",
            "type": "t_uint256"
          },
          {
            "astId": 8796,
            "contract": "contracts/BunyRaffleFactory.sol:BunyRaffleFactory",
            "label": "_imageUrl",
            "offset": 0,
            "slot": "7",
            "type": "t_string_storage"
          }
        ],
        "numberOfBytes": "256"
      },
      "t_struct(Counter)3175_storage": {
        "encoding": "inplace",
        "label": "struct CountersUpgradeable.Counter",
        "members": [
          {
            "astId": 3174,
            "contract": "contracts/BunyRaffleFactory.sol:BunyRaffleFactory",
            "label": "_value",
            "offset": 0,
            "slot": "0",
            "type": "t_uint256"
          }
        ],
        "numberOfBytes": "32"
      },
      "t_uint256": {
        "encoding": "inplace",
        "label": "uint256",
        "numberOfBytes": "32"
      },
      "t_uint8": {
        "encoding": "inplace",
        "label": "uint8",
        "numberOfBytes": "1"
      }
    }
  }
}