{
  "address": "0x5c85eF1BC78d72F7B956F6caEA8Ecae2390Db7Df",
  "abi": [
    {
      "inputs": [],
      "stateMutability": "nonpayable",
      "type": "constructor"
    },
    {
      "inputs": [],
      "name": "AuctionAlreadyEnded",
      "type": "error"
    },
    {
      "inputs": [],
      "name": "AuctionEndAlreadyCalled",
      "type": "error"
    },
    {
      "inputs": [],
      "name": "AuctionNotYetEnded",
      "type": "error"
    },
    {
      "inputs": [
        {
          "internalType": "uint256",
          "name": "highestBid",
          "type": "uint256"
        }
      ],
      "name": "BidNotHighEnough",
      "type": "error"
    },
    {
      "inputs": [],
      "name": "NotYours",
      "type": "error"
    },
    {
      "inputs": [],
      "name": "Poor",
      "type": "error"
    },
    {
      "inputs": [],
      "name": "Wrong",
      "type": "error"
    },
    {
      "anonymous": false,
      "inputs": [
        {
          "indexed": true,
          "internalType": "address",
          "name": "owner",
          "type": "address"
        },
        {
          "indexed": true,
          "internalType": "address",
          "name": "approved",
          "type": "address"
        },
        {
          "indexed": true,
          "internalType": "uint256",
          "name": "tokenId",
          "type": "uint256"
        }
      ],
      "name": "Approval",
      "type": "event"
    },
    {
      "anonymous": false,
      "inputs": [
        {
          "indexed": true,
          "internalType": "address",
          "name": "owner",
          "type": "address"
        },
        {
          "indexed": true,
          "internalType": "address",
          "name": "operator",
          "type": "address"
        },
        {
          "indexed": false,
          "internalType": "bool",
          "name": "approved",
          "type": "bool"
        }
      ],
      "name": "ApprovalForAll",
      "type": "event"
    },
    {
      "anonymous": false,
      "inputs": [
        {
          "indexed": false,
          "internalType": "address",
          "name": "from",
          "type": "address"
        },
        {
          "indexed": false,
          "internalType": "address",
          "name": "to",
          "type": "address"
        }
      ],
      "name": "AuctionComplete",
      "type": "event"
    },
    {
      "anonymous": false,
      "inputs": [
        {
          "indexed": false,
          "internalType": "uint256",
          "name": "_uid",
          "type": "uint256"
        },
        {
          "indexed": false,
          "internalType": "uint256",
          "name": "_time",
          "type": "uint256"
        },
        {
          "indexed": false,
          "internalType": "uint256",
          "name": "_value",
          "type": "uint256"
        }
      ],
      "name": "AuctionCreated",
      "type": "event"
    },
    {
      "anonymous": false,
      "inputs": [
        {
          "indexed": false,
          "internalType": "address",
          "name": "winner",
          "type": "address"
        },
        {
          "indexed": false,
          "internalType": "uint256",
          "name": "amount",
          "type": "uint256"
        }
      ],
      "name": "AuctionEnded",
      "type": "event"
    },
    {
      "anonymous": false,
      "inputs": [
        {
          "indexed": false,
          "internalType": "address",
          "name": "bidder",
          "type": "address"
        },
        {
          "indexed": false,
          "internalType": "uint256",
          "name": "_auction",
          "type": "uint256"
        },
        {
          "indexed": false,
          "internalType": "uint256",
          "name": "amount",
          "type": "uint256"
        }
      ],
      "name": "HighestBidIncreased",
      "type": "event"
    },
    {
      "anonymous": false,
      "inputs": [
        {
          "indexed": false,
          "internalType": "address",
          "name": "owner",
          "type": "address"
        },
        {
          "indexed": false,
          "internalType": "uint256",
          "name": "itemUid",
          "type": "uint256"
        }
      ],
      "name": "NftMinted",
      "type": "event"
    },
    {
      "anonymous": false,
      "inputs": [
        {
          "indexed": true,
          "internalType": "address",
          "name": "from",
          "type": "address"
        },
        {
          "indexed": true,
          "internalType": "address",
          "name": "to",
          "type": "address"
        },
        {
          "indexed": true,
          "internalType": "uint256",
          "name": "tokenId",
          "type": "uint256"
        }
      ],
      "name": "Transfer",
      "type": "event"
    },
    {
      "inputs": [
        {
          "internalType": "uint256",
          "name": "_id",
          "type": "uint256"
        },
        {
          "internalType": "uint256",
          "name": "price",
          "type": "uint256"
        }
      ],
      "name": "Bid",
      "outputs": [],
      "stateMutability": "nonpayable",
      "type": "function"
    },
    {
      "inputs": [
        {
          "internalType": "uint256",
          "name": "",
          "type": "uint256"
        },
        {
          "internalType": "uint256",
          "name": "",
          "type": "uint256"
        }
      ],
      "name": "Historys",
      "outputs": [
        {
          "internalType": "address",
          "name": "",
          "type": "address"
        }
      ],
      "stateMutability": "view",
      "type": "function"
    },
    {
      "inputs": [],
      "name": "Name",
      "outputs": [
        {
          "internalType": "string",
          "name": "",
          "type": "string"
        }
      ],
      "stateMutability": "view",
      "type": "function"
    },
    {
      "inputs": [],
      "name": "Symbol",
      "outputs": [
        {
          "internalType": "string",
          "name": "",
          "type": "string"
        }
      ],
      "stateMutability": "view",
      "type": "function"
    },
    {
      "inputs": [
        {
          "internalType": "address",
          "name": "to",
          "type": "address"
        },
        {
          "internalType": "uint256",
          "name": "tokenId",
          "type": "uint256"
        }
      ],
      "name": "approve",
      "outputs": [],
      "stateMutability": "nonpayable",
      "type": "function"
    },
    {
      "inputs": [],
      "name": "auctionUid",
      "outputs": [
        {
          "internalType": "uint256",
          "name": "",
          "type": "uint256"
        }
      ],
      "stateMutability": "view",
      "type": "function"
    },
    {
      "inputs": [
        {
          "internalType": "uint256",
          "name": "",
          "type": "uint256"
        }
      ],
      "name": "auctions",
      "outputs": [
        {
          "internalType": "uint256",
          "name": "initivalue",
          "type": "uint256"
        },
        {
          "internalType": "uint256",
          "name": "finalvalue",
          "type": "uint256"
        },
        {
          "internalType": "uint256",
          "name": "endtime",
          "type": "uint256"
        },
        {
          "internalType": "uint256",
          "name": "nid",
          "type": "uint256"
        },
        {
          "internalType": "address payable",
          "name": "provider",
          "type": "address"
        },
        {
          "internalType": "address payable",
          "name": "receiver",
          "type": "address"
        },
        {
          "internalType": "bool",
          "name": "on",
          "type": "bool"
        },
        {
          "internalType": "bool",
          "name": "mark",
          "type": "bool"
        }
      ],
      "stateMutability": "view",
      "type": "function"
    },
    {
      "inputs": [
        {
          "internalType": "address",
          "name": "owner",
          "type": "address"
        }
      ],
      "name": "balanceOf",
      "outputs": [
        {
          "internalType": "uint256",
          "name": "",
          "type": "uint256"
        }
      ],
      "stateMutability": "view",
      "type": "function"
    },
    {
      "inputs": [
        {
          "internalType": "uint256",
          "name": "_id",
          "type": "uint256"
        }
      ],
      "name": "claim",
      "outputs": [],
      "stateMutability": "payable",
      "type": "function"
    },
    {
      "inputs": [
        {
          "internalType": "uint256",
          "name": "_uid",
          "type": "uint256"
        },
        {
          "internalType": "uint256",
          "name": "_value",
          "type": "uint256"
        },
        {
          "internalType": "uint256",
          "name": "_time",
          "type": "uint256"
        }
      ],
      "name": "createAuction",
      "outputs": [],
      "stateMutability": "nonpayable",
      "type": "function"
    },
    {
      "inputs": [
        {
          "internalType": "string",
          "name": "_name",
          "type": "string"
        },
        {
          "internalType": "string",
          "name": "_tokenURI",
          "type": "string"
        },
        {
          "internalType": "string",
          "name": "_des",
          "type": "string"
        },
        {
          "internalType": "uint256",
          "name": "_price",
          "type": "uint256"
        }
      ],
      "name": "createNFT",
      "outputs": [],
      "stateMutability": "nonpayable",
      "type": "function"
    },
    {
      "inputs": [
        {
          "internalType": "uint256",
          "name": "tokenId",
          "type": "uint256"
        }
      ],
      "name": "getApproved",
      "outputs": [
        {
          "internalType": "address",
          "name": "",
          "type": "address"
        }
      ],
      "stateMutability": "view",
      "type": "function"
    },
    {
      "inputs": [
        {
          "internalType": "uint256",
          "name": "_id",
          "type": "uint256"
        }
      ],
      "name": "getHislen",
      "outputs": [
        {
          "internalType": "uint256",
          "name": "",
          "type": "uint256"
        }
      ],
      "stateMutability": "view",
      "type": "function"
    },
    {
      "inputs": [
        {
          "internalType": "uint256",
          "name": "_id",
          "type": "uint256"
        }
      ],
      "name": "getOwner",
      "outputs": [
        {
          "internalType": "address",
          "name": "",
          "type": "address"
        }
      ],
      "stateMutability": "view",
      "type": "function"
    },
    {
      "inputs": [
        {
          "internalType": "uint256",
          "name": "_id",
          "type": "uint256"
        }
      ],
      "name": "getURI",
      "outputs": [
        {
          "internalType": "string",
          "name": "",
          "type": "string"
        }
      ],
      "stateMutability": "view",
      "type": "function"
    },
    {
      "inputs": [
        {
          "internalType": "uint256",
          "name": "",
          "type": "uint256"
        }
      ],
      "name": "hislen",
      "outputs": [
        {
          "internalType": "uint256",
          "name": "num",
          "type": "uint256"
        }
      ],
      "stateMutability": "view",
      "type": "function"
    },
    {
      "inputs": [
        {
          "internalType": "address",
          "name": "owner",
          "type": "address"
        },
        {
          "internalType": "address",
          "name": "operator",
          "type": "address"
        }
      ],
      "name": "isApprovedForAll",
      "outputs": [
        {
          "internalType": "bool",
          "name": "",
          "type": "bool"
        }
      ],
      "stateMutability": "view",
      "type": "function"
    },
    {
      "inputs": [],
      "name": "itemUid",
      "outputs": [
        {
          "internalType": "uint256",
          "name": "",
          "type": "uint256"
        }
      ],
      "stateMutability": "view",
      "type": "function"
    },
    {
      "inputs": [
        {
          "internalType": "uint256",
          "name": "",
          "type": "uint256"
        }
      ],
      "name": "marketBoard",
      "outputs": [
        {
          "internalType": "string",
          "name": "name",
          "type": "string"
        },
        {
          "internalType": "string",
          "name": "tokenURI",
          "type": "string"
        },
        {
          "internalType": "string",
          "name": "des",
          "type": "string"
        },
        {
          "internalType": "uint256",
          "name": "uid",
          "type": "uint256"
        },
        {
          "internalType": "uint256",
          "name": "price",
          "type": "uint256"
        },
        {
          "internalType": "address payable",
          "name": "creator",
          "type": "address"
        },
        {
          "internalType": "address payable",
          "name": "owner",
          "type": "address"
        },
        {
          "internalType": "bool",
          "name": "onauction",
          "type": "bool"
        }
      ],
      "stateMutability": "view",
      "type": "function"
    },
    {
      "inputs": [],
      "name": "name",
      "outputs": [
        {
          "internalType": "string",
          "name": "",
          "type": "string"
        }
      ],
      "stateMutability": "view",
      "type": "function"
    },
    {
      "inputs": [
        {
          "internalType": "uint256",
          "name": "tokenId",
          "type": "uint256"
        }
      ],
      "name": "ownerOf",
      "outputs": [
        {
          "internalType": "address",
          "name": "",
          "type": "address"
        }
      ],
      "stateMutability": "view",
      "type": "function"
    },
    {
      "inputs": [
        {
          "internalType": "address",
          "name": "from",
          "type": "address"
        },
        {
          "internalType": "address",
          "name": "to",
          "type": "address"
        },
        {
          "internalType": "uint256",
          "name": "tokenId",
          "type": "uint256"
        }
      ],
      "name": "safeTransferFrom",
      "outputs": [],
      "stateMutability": "nonpayable",
      "type": "function"
    },
    {
      "inputs": [
        {
          "internalType": "address",
          "name": "from",
          "type": "address"
        },
        {
          "internalType": "address",
          "name": "to",
          "type": "address"
        },
        {
          "internalType": "uint256",
          "name": "tokenId",
          "type": "uint256"
        },
        {
          "internalType": "bytes",
          "name": "data",
          "type": "bytes"
        }
      ],
      "name": "safeTransferFrom",
      "outputs": [],
      "stateMutability": "nonpayable",
      "type": "function"
    },
    {
      "inputs": [
        {
          "internalType": "address",
          "name": "operator",
          "type": "address"
        },
        {
          "internalType": "bool",
          "name": "approved",
          "type": "bool"
        }
      ],
      "name": "setApprovalForAll",
      "outputs": [],
      "stateMutability": "nonpayable",
      "type": "function"
    },
    {
      "inputs": [
        {
          "internalType": "bytes4",
          "name": "interfaceId",
          "type": "bytes4"
        }
      ],
      "name": "supportsInterface",
      "outputs": [
        {
          "internalType": "bool",
          "name": "",
          "type": "bool"
        }
      ],
      "stateMutability": "view",
      "type": "function"
    },
    {
      "inputs": [],
      "name": "symbol",
      "outputs": [
        {
          "internalType": "string",
          "name": "",
          "type": "string"
        }
      ],
      "stateMutability": "view",
      "type": "function"
    },
    {
      "inputs": [
        {
          "internalType": "uint256",
          "name": "tokenId",
          "type": "uint256"
        }
      ],
      "name": "tokenURI",
      "outputs": [
        {
          "internalType": "string",
          "name": "",
          "type": "string"
        }
      ],
      "stateMutability": "view",
      "type": "function"
    },
    {
      "inputs": [
        {
          "internalType": "address",
          "name": "from",
          "type": "address"
        },
        {
          "internalType": "address",
          "name": "to",
          "type": "address"
        },
        {
          "internalType": "uint256",
          "name": "tokenId",
          "type": "uint256"
        }
      ],
      "name": "transferFrom",
      "outputs": [],
      "stateMutability": "nonpayable",
      "type": "function"
    }
  ],
  "transactionHash": "0xc836071068308ff6d94d9798d633c7ce4a5cc391efbeca11d3950799e63fcd89",
  "args": [],
  "numDeployments": 3,
  "solcInputHash": "ed61a8514cdaa67891e78094af80eb28",
  "bytecode": "0x60806040523480156200001157600080fd5b506040518060400160405280601081526020016f5468652041756374696f6e2042554e5960801b8152506040518060400160405280600481526020016342554e5960e01b815250816000908162000069919062000206565b50600162000078828262000206565b5062000086915050620000b6565b60079062000095908262000206565b50620000a062000150565b600890620000af908262000206565b50620002d2565b606060008054620000c79062000177565b80601f0160208091040260200160405190810160405280929190818152602001828054620000f59062000177565b8015620001465780601f106200011a5761010080835404028352916020019162000146565b820191906000526020600020905b8154815290600101906020018083116200012857829003601f168201915b5050505050905090565b606060018054620000c79062000177565b634e487b7160e01b600052604160045260246000fd5b600181811c908216806200018c57607f821691505b602082108103620001ad57634e487b7160e01b600052602260045260246000fd5b50919050565b601f8211156200020157600081815260208120601f850160051c81016020861015620001dc5750805b601f850160051c820191505b81811015620001fd57828155600101620001e8565b5050505b505050565b81516001600160401b0381111562000222576200022262000161565b6200023a8162000233845462000177565b84620001b3565b602080601f831160018114620002725760008415620002595750858301515b600019600386901b1c1916600185901b178555620001fd565b600085815260208120601f198616915b82811015620002a35788860151825594840194600190910190840162000282565b5085821015620002c25787850151600019600388901b60f8161c191681555b5050505050600190811b01905550565b61245880620002e26000396000f3fe6080604052600436106101b75760003560e01c806370a08231116100ec578063b88d4fde1161008a578063ca1e217f11610064578063ca1e217f14610578578063cda4beef14610598578063e249aa85146105b8578063e985e9c5146105e557600080fd5b8063b88d4fde14610518578063c41a360a14610538578063c87b56dd1461055857600080fd5b80638f65960b116100c65780638f65960b146104b757806395d89b41146104cd5780639a76e1a6146104e2578063a22cb465146104f857600080fd5b806370a082311461044e57806376dc60d21461046e5780638052474d146104a257600080fd5b806330c773ed1161015957806347a0375b1161013357806347a0375b14610330578063519c02a014610350578063571a26a0146103705780636352211e1461042e57600080fd5b806330c773ed146102c2578063379607f5146102fd57806342842e0e1461031057600080fd5b8063095ea7b311610195578063095ea7b31461024b5780631aa347dc1461026d57806323b872dd1461028d5780633045aaf3146102ad57600080fd5b806301ffc9a7146101bc57806306fdde03146101f1578063081812fc14610213575b600080fd5b3480156101c857600080fd5b506101dc6101d7366004611ce9565b610605565b60405190151581526020015b60405180910390f35b3480156101fd57600080fd5b50610206610657565b6040516101e89190611d56565b34801561021f57600080fd5b5061023361022e366004611d69565b6106e9565b6040516001600160a01b0390911681526020016101e8565b34801561025757600080fd5b5061026b610266366004611d9e565b610710565b005b34801561027957600080fd5b50610206610288366004611d69565b61082a565b34801561029957600080fd5b5061026b6102a8366004611dc8565b61083e565b3480156102b957600080fd5b5061020661086f565b3480156102ce57600080fd5b506102ef6102dd366004611d69565b6000908152600b602052604090205490565b6040519081526020016101e8565b61026b61030b366004611d69565b6108fd565b34801561031c57600080fd5b5061026b61032b366004611dc8565b610a9e565b34801561033c57600080fd5b5061026b61034b366004611e04565b610ab9565b34801561035c57600080fd5b5061023361036b366004611e04565b610c1b565b34801561037c57600080fd5b506103e361038b366004611d69565b600d6020526000908152604090208054600182015460028301546003840154600485015460059095015493949293919290916001600160a01b039182169181169060ff600160a01b8204811691600160a81b90041688565b6040805198895260208901979097529587019490945260608601929092526001600160a01b0390811660808601521660a0840152151560c0830152151560e0820152610100016101e8565b34801561043a57600080fd5b50610233610449366004611d69565b610c53565b34801561045a57600080fd5b506102ef610469366004611e26565b610cb3565b34801561047a57600080fd5b5061048e610489366004611d69565b610d39565b6040516101e8989796959493929190611e41565b3480156104ae57600080fd5b50610206610f25565b3480156104c357600080fd5b506102ef60095481565b3480156104d957600080fd5b50610206610f32565b3480156104ee57600080fd5b506102ef600a5481565b34801561050457600080fd5b5061026b610513366004611eb5565b610f41565b34801561052457600080fd5b5061026b610533366004611f7d565b610f50565b34801561054457600080fd5b50610233610553366004611d69565b610f88565b34801561056457600080fd5b50610206610573366004611d69565b610f93565b34801561058457600080fd5b5061026b610593366004612019565b6110a3565b3480156105a457600080fd5b5061026b6105b33660046120a9565b61126c565b3480156105c457600080fd5b506102ef6105d3366004611d69565b600b6020526000908152604090205481565b3480156105f157600080fd5b506101dc6106003660046120d5565b611443565b60006001600160e01b031982166380ac58cd60e01b148061063657506001600160e01b03198216635b5e139f60e01b145b8061065157506301ffc9a760e01b6001600160e01b03198316145b92915050565b60606000805461066690612108565b80601f016020809104026020016040519081016040528092919081815260200182805461069290612108565b80156106df5780601f106106b4576101008083540402835291602001916106df565b820191906000526020600020905b8154815290600101906020018083116106c257829003601f168201915b5050505050905090565b60006106f482611471565b506000908152600460205260409020546001600160a01b031690565b600061071b82610c53565b9050806001600160a01b0316836001600160a01b03160361078d5760405162461bcd60e51b815260206004820152602160248201527f4552433732313a20617070726f76616c20746f2063757272656e74206f776e656044820152603960f91b60648201526084015b60405180910390fd5b336001600160a01b03821614806107a957506107a98133611443565b61081b5760405162461bcd60e51b815260206004820152603e60248201527f4552433732313a20617070726f76652063616c6c6572206973206e6f7420746f60448201527f6b656e206f776e6572206e6f7220617070726f76656420666f7220616c6c00006064820152608401610784565b61082583836114d3565b505050565b6060600061083783610f93565b9392505050565b6108483382611541565b6108645760405162461bcd60e51b815260040161078490612142565b61082583838361159f565b6008805461087c90612108565b80601f01602080910402602001604051908101604052809291908181526020018280546108a890612108565b80156108f55780601f106108ca576101008083540402835291602001916108f5565b820191906000526020600020905b8154815290600101906020018083116108d857829003601f168201915b505050505081565b6000818152600d602052604090206002015442101561092f5760405163044cee2960e41b815260040160405180910390fd5b6000818152600d60205260409020600501546001600160a01b03163314610969576040516304a636d360e41b815260040160405180910390fd5b6000818152600e6020908152604080832080546001810182559084528284200180546001600160a01b03191633908117909155848452600b9092528220805491926109b3836121a6565b90915550506000828152600c602081815260408084206006810180546001600160a01b038881166001600160a81b0319831617909255600d855292909520600101549390925260049091019190915516610a0c83610c53565b6001600160a01b03166108fc349081150290604051600060405180830381858888f19350505050158015610a44573d6000803e3d6000fd5b50610a58610a5184610c53565b338561159f565b604080516001600160a01b03831681523360208201527f98806d17e86a94da421446b960ce5e9b591c50818795160571d9eeb4832bb839910160405180910390a1505050565b61082583838360405180602001604052806000815250610f50565b6000828152600d6020526040812060050154600160a01b900460ff1615159003610af65760405163d02e774d60e01b815260040160405180910390fd5b6000828152600d6020526040902060020154421115610b285760405163d02e774d60e01b815260040160405180910390fd5b3331811115610b4a576040516303c3a03960e21b815260040160405180910390fd5b6000828152600d60205260409020600101548111610b92576000828152600d602052604090819020600101549051634e12c1bb60e01b81526004810191909152602401610784565b6000828152600d602090815260409182902060018101849055600581018054600490920180546001600160a01b0384166001600160a01b0319918216179091553392168217905582519081529081018490529081018290527fdafc4a123c6bb3b49dd38a0cba299808581a0126a37248a5f1102d5e5fa063379060600160405180910390a15050565b600e6020528160005260406000208181548110610c3757600080fd5b6000918252602090912001546001600160a01b03169150829050565b6000818152600260205260408120546001600160a01b0316806106515760405162461bcd60e51b8152602060048201526018602482015277115490cdcc8c4e881a5b9d985b1a59081d1bdad95b88125160421b6044820152606401610784565b60006001600160a01b038216610d1d5760405162461bcd60e51b815260206004820152602960248201527f4552433732313a2061646472657373207a65726f206973206e6f7420612076616044820152683634b21037bbb732b960b91b6064820152608401610784565b506001600160a01b031660009081526003602052604090205490565b600c60205260009081526040902080548190610d5490612108565b80601f0160208091040260200160405190810160405280929190818152602001828054610d8090612108565b8015610dcd5780601f10610da257610100808354040283529160200191610dcd565b820191906000526020600020905b815481529060010190602001808311610db057829003601f168201915b505050505090806001018054610de290612108565b80601f0160208091040260200160405190810160405280929190818152602001828054610e0e90612108565b8015610e5b5780601f10610e3057610100808354040283529160200191610e5b565b820191906000526020600020905b815481529060010190602001808311610e3e57829003601f168201915b505050505090806002018054610e7090612108565b80601f0160208091040260200160405190810160405280929190818152602001828054610e9c90612108565b8015610ee95780601f10610ebe57610100808354040283529160200191610ee9565b820191906000526020600020905b815481529060010190602001808311610ecc57829003601f168201915b50505050600383015460048401546005850154600690950154939491939092506001600160a01b0391821691811690600160a01b900460ff1688565b6007805461087c90612108565b60606001805461066690612108565b610f4c33838361173b565b5050565b610f5a3383611541565b610f765760405162461bcd60e51b815260040161078490612142565b610f8284848484611809565b50505050565b600061065182610c53565b6060610f9e82611471565b60008281526006602052604081208054610fb790612108565b80601f0160208091040260200160405190810160405280929190818152602001828054610fe390612108565b80156110305780601f1061100557610100808354040283529160200191611030565b820191906000526020600020905b81548152906001019060200180831161101357829003601f168201915b50505050509050600061104e60408051602081019091526000815290565b90508051600003611060575092915050565b81511561109257808260405160200161107a9291906121bf565b60405160208183030381529060405292505050919050565b61109b8461183c565b949350505050565b60003390506110b4336009546118af565b6110c0600954856118c9565b6040805161010081018252868152602080820187905281830186905260095460608301819052608083018690526001600160a01b03851660a0840181905260c0840152600060e08401819052908152600c9091529190912081518291908190611129908261223c565b506020820151600182019061113e908261223c565b5060408201516002820190611153908261223c565b50606082015160038201556080820151600482015560a08201516005820180546001600160a01b039283166001600160a01b03199182161790915560c08401516006909301805460e0909501511515600160a01b026001600160a81b03199095169383169390931793909317909155600980546000908152600e602090815260408083208054600181018255908452828420018054958916959096169490941790945590548152600b909252812080549161120d836121a6565b909155505060098054906000611222836121a6565b90915550506009546040805133815260208101929092527ff2b290a76feb54be358b555507421d765609171aefa0646f109a653228ff81b8910160405180910390a1505050505050565b6000838152600260205260409020546001600160a01b03166112a15760405163d64ba91d60e01b815260040160405180910390fd5b6112aa83610c53565b6001600160a01b0316336001600160a01b0316146112db576040516304a636d360e41b815260040160405180910390fd5b6000838152600c60209081526040808320600601805460ff60a01b1916600160a01b17905580516101008101825285815291820185905233929190810161132285426122fc565b815260208082018890526001600160a01b03858116604080850182905260608086019290925260016080808701829052600060a09788018190528d8152600d87528390208851815595880151918601919091559086015160028501559085015160038401558401516004830180546001600160a01b031916918316919091179055918301516005909101805460c085015160e0860151939094166001600160a81b031990911617600160a01b931515939093029290921760ff60a81b1916600160a81b9115159190910217905590507fd6eddd1118d71820909c1197aa966dbc15ed6f508554252169cc3d5ccac756ca8561141d85426122fc565b604080519283526020830191909152810186905260600160405180910390a15050505050565b6001600160a01b03918216600090815260056020908152604080832093909416825291909152205460ff1690565b6000818152600260205260409020546001600160a01b03166114d05760405162461bcd60e51b8152602060048201526018602482015277115490cdcc8c4e881a5b9d985b1a59081d1bdad95b88125160421b6044820152606401610784565b50565b600081815260046020526040902080546001600160a01b0319166001600160a01b038416908117909155819061150882610c53565b6001600160a01b03167f8c5be1e5ebec7d5bd14f71427d1e84f3dd0314c0f7b2291e5b200ac8c7c3b92560405160405180910390a45050565b60008061154d83610c53565b9050806001600160a01b0316846001600160a01b0316148061157457506115748185611443565b8061109b5750836001600160a01b031661158d846106e9565b6001600160a01b031614949350505050565b826001600160a01b03166115b282610c53565b6001600160a01b0316146116165760405162461bcd60e51b815260206004820152602560248201527f4552433732313a207472616e736665722066726f6d20696e636f72726563742060448201526437bbb732b960d91b6064820152608401610784565b6001600160a01b0382166116785760405162461bcd60e51b8152602060048201526024808201527f4552433732313a207472616e7366657220746f20746865207a65726f206164646044820152637265737360e01b6064820152608401610784565b6116836000826114d3565b6001600160a01b03831660009081526003602052604081208054600192906116ac90849061230f565b90915550506001600160a01b03821660009081526003602052604081208054600192906116da9084906122fc565b909155505060008181526002602052604080822080546001600160a01b0319166001600160a01b0386811691821790925591518493918716917fddf252ad1be2c89b69c2b068fc378daa952ba7f163c4a11628f55a4df523b3ef91a4505050565b816001600160a01b0316836001600160a01b03160361179c5760405162461bcd60e51b815260206004820152601960248201527f4552433732313a20617070726f766520746f2063616c6c6572000000000000006044820152606401610784565b6001600160a01b03838116600081815260056020908152604080832094871680845294825291829020805460ff191686151590811790915591519182527f17307eab39ab6107e8899845ad3d59bd9653f200f220920489ca2b5937696c31910160405180910390a3505050565b61181484848461159f565b6118208484848461195c565b610f825760405162461bcd60e51b815260040161078490612322565b606061184782611471565b600061185e60408051602081019091526000815290565b9050600081511161187e5760405180602001604052806000815250610837565b8061188884611a5d565b6040516020016118999291906121bf565b6040516020818303038152906040529392505050565b610f4c828260405180602001604052806000815250611b5e565b6000828152600260205260409020546001600160a01b03166119445760405162461bcd60e51b815260206004820152602e60248201527f45524337323155524953746f726167653a2055524920736574206f66206e6f6e60448201526d32bc34b9ba32b73a103a37b5b2b760911b6064820152608401610784565b6000828152600660205260409020610825828261223c565b60006001600160a01b0384163b15611a5257604051630a85bd0160e11b81526001600160a01b0385169063150b7a02906119a0903390899088908890600401612374565b6020604051808303816000875af19250505080156119db575060408051601f3d908101601f191682019092526119d8918101906123b1565b60015b611a38573d808015611a09576040519150601f19603f3d011682016040523d82523d6000602084013e611a0e565b606091505b508051600003611a305760405162461bcd60e51b815260040161078490612322565b805181602001fd5b6001600160e01b031916630a85bd0160e11b14905061109b565b506001949350505050565b606081600003611a845750506040805180820190915260018152600360fc1b602082015290565b8160005b8115611aae5780611a98816121a6565b9150611aa79050600a836123e4565b9150611a88565b60008167ffffffffffffffff811115611ac957611ac9611ef1565b6040519080825280601f01601f191660200182016040528015611af3576020820181803683370190505b5090505b841561109b57611b0860018361230f565b9150611b15600a866123f8565b611b209060306122fc565b60f81b818381518110611b3557611b3561240c565b60200101906001600160f81b031916908160001a905350611b57600a866123e4565b9450611af7565b611b688383611b91565b611b75600084848461195c565b6108255760405162461bcd60e51b815260040161078490612322565b6001600160a01b038216611be75760405162461bcd60e51b815260206004820181905260248201527f4552433732313a206d696e7420746f20746865207a65726f20616464726573736044820152606401610784565b6000818152600260205260409020546001600160a01b031615611c4c5760405162461bcd60e51b815260206004820152601c60248201527f4552433732313a20746f6b656e20616c7265616479206d696e746564000000006044820152606401610784565b6001600160a01b0382166000908152600360205260408120805460019290611c759084906122fc565b909155505060008181526002602052604080822080546001600160a01b0319166001600160a01b03861690811790915590518392907fddf252ad1be2c89b69c2b068fc378daa952ba7f163c4a11628f55a4df523b3ef908290a45050565b6001600160e01b0319811681146114d057600080fd5b600060208284031215611cfb57600080fd5b813561083781611cd3565b60005b83811015611d21578181015183820152602001611d09565b50506000910152565b60008151808452611d42816020860160208601611d06565b601f01601f19169290920160200192915050565b6020815260006108376020830184611d2a565b600060208284031215611d7b57600080fd5b5035919050565b80356001600160a01b0381168114611d9957600080fd5b919050565b60008060408385031215611db157600080fd5b611dba83611d82565b946020939093013593505050565b600080600060608486031215611ddd57600080fd5b611de684611d82565b9250611df460208501611d82565b9150604084013590509250925092565b60008060408385031215611e1757600080fd5b50508035926020909101359150565b600060208284031215611e3857600080fd5b61083782611d82565b6000610100808352611e558184018c611d2a565b90508281036020840152611e69818b611d2a565b90508281036040840152611e7d818a611d2a565b6060840198909852505060808101949094526001600160a01b0392831660a0850152911660c0830152151560e0909101529392505050565b60008060408385031215611ec857600080fd5b611ed183611d82565b915060208301358015158114611ee657600080fd5b809150509250929050565b634e487b7160e01b600052604160045260246000fd5b600067ffffffffffffffff80841115611f2257611f22611ef1565b604051601f8501601f19908116603f01168101908282118183101715611f4a57611f4a611ef1565b81604052809350858152868686011115611f6357600080fd5b858560208301376000602087830101525050509392505050565b60008060008060808587031215611f9357600080fd5b611f9c85611d82565b9350611faa60208601611d82565b925060408501359150606085013567ffffffffffffffff811115611fcd57600080fd5b8501601f81018713611fde57600080fd5b611fed87823560208401611f07565b91505092959194509250565b600082601f83011261200a57600080fd5b61083783833560208501611f07565b6000806000806080858703121561202f57600080fd5b843567ffffffffffffffff8082111561204757600080fd5b61205388838901611ff9565b9550602087013591508082111561206957600080fd5b61207588838901611ff9565b9450604087013591508082111561208b57600080fd5b5061209887828801611ff9565b949793965093946060013593505050565b6000806000606084860312156120be57600080fd5b505081359360208301359350604090920135919050565b600080604083850312156120e857600080fd5b6120f183611d82565b91506120ff60208401611d82565b90509250929050565b600181811c9082168061211c57607f821691505b60208210810361213c57634e487b7160e01b600052602260045260246000fd5b50919050565b6020808252602e908201527f4552433732313a2063616c6c6572206973206e6f7420746f6b656e206f776e6560408201526d1c881b9bdc88185c1c1c9bdd995960921b606082015260800190565b634e487b7160e01b600052601160045260246000fd5b6000600182016121b8576121b8612190565b5060010190565b600083516121d1818460208801611d06565b8351908301906121e5818360208801611d06565b01949350505050565b601f82111561082557600081815260208120601f850160051c810160208610156122155750805b601f850160051c820191505b8181101561223457828155600101612221565b505050505050565b815167ffffffffffffffff81111561225657612256611ef1565b61226a816122648454612108565b846121ee565b602080601f83116001811461229f57600084156122875750858301515b600019600386901b1c1916600185901b178555612234565b600085815260208120601f198616915b828110156122ce578886015182559484019460019091019084016122af565b50858210156122ec5787850151600019600388901b60f8161c191681555b5050505050600190811b01905550565b8082018082111561065157610651612190565b8181038181111561065157610651612190565b60208082526032908201527f4552433732313a207472616e7366657220746f206e6f6e20455243373231526560408201527131b2b4bb32b91034b6b83632b6b2b73a32b960711b606082015260800190565b6001600160a01b03858116825284166020820152604081018390526080606082018190526000906123a790830184611d2a565b9695505050505050565b6000602082840312156123c357600080fd5b815161083781611cd3565b634e487b7160e01b600052601260045260246000fd5b6000826123f3576123f36123ce565b500490565b600082612407576124076123ce565b500690565b634e487b7160e01b600052603260045260246000fdfea2646970667358221220a1873a8aafc80045885ecc4f8704c8ae169e553d746b286793d29a15e122993f64736f6c63430008100033",
  "devdoc": {
    "kind": "dev",
    "methods": {
      "approve(address,uint256)": {
        "details": "See {IERC721-approve}."
      },
      "balanceOf(address)": {
        "details": "See {IERC721-balanceOf}."
      },
      "getApproved(uint256)": {
        "details": "See {IERC721-getApproved}."
      },
      "isApprovedForAll(address,address)": {
        "details": "See {IERC721-isApprovedForAll}."
      },
      "name()": {
        "details": "See {IERC721Metadata-name}."
      },
      "ownerOf(uint256)": {
        "details": "See {IERC721-ownerOf}."
      },
      "safeTransferFrom(address,address,uint256)": {
        "details": "See {IERC721-safeTransferFrom}."
      },
      "safeTransferFrom(address,address,uint256,bytes)": {
        "details": "See {IERC721-safeTransferFrom}."
      },
      "setApprovalForAll(address,bool)": {
        "details": "See {IERC721-setApprovalForAll}."
      },
      "supportsInterface(bytes4)": {
        "details": "See {IERC165-supportsInterface}."
      },
      "symbol()": {
        "details": "See {IERC721Metadata-symbol}."
      },
      "tokenURI(uint256)": {
        "details": "See {IERC721Metadata-tokenURI}."
      },
      "transferFrom(address,address,uint256)": {
        "details": "See {IERC721-transferFrom}."
      }
    },
    "version": 1
  },
  "userdoc": {
    "errors": {
      "AuctionAlreadyEnded()": [
        {
          "notice": "The auction has already ended."
        }
      ],
      "AuctionEndAlreadyCalled()": [
        {
          "notice": "The function auctionEnd has already been called."
        }
      ],
      "AuctionNotYetEnded()": [
        {
          "notice": "The auction has not ended yet."
        }
      ],
      "BidNotHighEnough(uint256)": [
        {
          "notice": "There is already a higher or equal bid."
        }
      ],
      "NotYours()": [
        {
          "notice": "Not Yours"
        }
      ],
      "Poor()": [
        {
          "notice": "Poor"
        }
      ],
      "Wrong()": [
        {
          "notice": "Wrong"
        }
      ]
    },
    "kind": "user",
    "methods": {},
    "version": 1
  },
  "storageLayout": {
    "storage": [
      {
        "astId": 286,
        "contract": "contracts/AuctionBuny.sol:AuctionBuny",
        "label": "_name",
        "offset": 0,
        "slot": "0",
        "type": "t_string_storage"
      },
      {
        "astId": 288,
        "contract": "contracts/AuctionBuny.sol:AuctionBuny",
        "label": "_symbol",
        "offset": 0,
        "slot": "1",
        "type": "t_string_storage"
      },
      {
        "astId": 292,
        "contract": "contracts/AuctionBuny.sol:AuctionBuny",
        "label": "_owners",
        "offset": 0,
        "slot": "2",
        "type": "t_mapping(t_uint256,t_address)"
      },
      {
        "astId": 296,
        "contract": "contracts/AuctionBuny.sol:AuctionBuny",
        "label": "_balances",
        "offset": 0,
        "slot": "3",
        "type": "t_mapping(t_address,t_uint256)"
      },
      {
        "astId": 300,
        "contract": "contracts/AuctionBuny.sol:AuctionBuny",
        "label": "_tokenApprovals",
        "offset": 0,
        "slot": "4",
        "type": "t_mapping(t_uint256,t_address)"
      },
      {
        "astId": 306,
        "contract": "contracts/AuctionBuny.sol:AuctionBuny",
        "label": "_operatorApprovals",
        "offset": 0,
        "slot": "5",
        "type": "t_mapping(t_address,t_mapping(t_address,t_bool))"
      },
      {
        "astId": 1274,
        "contract": "contracts/AuctionBuny.sol:AuctionBuny",
        "label": "_tokenURIs",
        "offset": 0,
        "slot": "6",
        "type": "t_mapping(t_uint256,t_string_storage)"
      },
      {
        "astId": 2073,
        "contract": "contracts/AuctionBuny.sol:AuctionBuny",
        "label": "Name",
        "offset": 0,
        "slot": "7",
        "type": "t_string_storage"
      },
      {
        "astId": 2075,
        "contract": "contracts/AuctionBuny.sol:AuctionBuny",
        "label": "Symbol",
        "offset": 0,
        "slot": "8",
        "type": "t_string_storage"
      },
      {
        "astId": 2132,
        "contract": "contracts/AuctionBuny.sol:AuctionBuny",
        "label": "itemUid",
        "offset": 0,
        "slot": "9",
        "type": "t_uint256"
      },
      {
        "astId": 2134,
        "contract": "contracts/AuctionBuny.sol:AuctionBuny",
        "label": "auctionUid",
        "offset": 0,
        "slot": "10",
        "type": "t_uint256"
      },
      {
        "astId": 2139,
        "contract": "contracts/AuctionBuny.sol:AuctionBuny",
        "label": "hislen",
        "offset": 0,
        "slot": "11",
        "type": "t_mapping(t_uint256,t_struct(history)2130_storage)"
      },
      {
        "astId": 2144,
        "contract": "contracts/AuctionBuny.sol:AuctionBuny",
        "label": "marketBoard",
        "offset": 0,
        "slot": "12",
        "type": "t_mapping(t_uint256,t_struct(BUNY)2110_storage)"
      },
      {
        "astId": 2149,
        "contract": "contracts/AuctionBuny.sol:AuctionBuny",
        "label": "auctions",
        "offset": 0,
        "slot": "13",
        "type": "t_mapping(t_uint256,t_struct(Auction)2127_storage)"
      },
      {
        "astId": 2154,
        "contract": "contracts/AuctionBuny.sol:AuctionBuny",
        "label": "Historys",
        "offset": 0,
        "slot": "14",
        "type": "t_mapping(t_uint256,t_array(t_address)dyn_storage)"
      }
    ],
    "types": {
      "t_address": {
        "encoding": "inplace",
        "label": "address",
        "numberOfBytes": "20"
      },
      "t_address_payable": {
        "encoding": "inplace",
        "label": "address payable",
        "numberOfBytes": "20"
      },
      "t_array(t_address)dyn_storage": {
        "base": "t_address",
        "encoding": "dynamic_array",
        "label": "address[]",
        "numberOfBytes": "32"
      },
      "t_bool": {
        "encoding": "inplace",
        "label": "bool",
        "numberOfBytes": "1"
      },
      "t_mapping(t_address,t_bool)": {
        "encoding": "mapping",
        "key": "t_address",
        "label": "mapping(address => bool)",
        "numberOfBytes": "32",
        "value": "t_bool"
      },
      "t_mapping(t_address,t_mapping(t_address,t_bool))": {
        "encoding": "mapping",
        "key": "t_address",
        "label": "mapping(address => mapping(address => bool))",
        "numberOfBytes": "32",
        "value": "t_mapping(t_address,t_bool)"
      },
      "t_mapping(t_address,t_uint256)": {
        "encoding": "mapping",
        "key": "t_address",
        "label": "mapping(address => uint256)",
        "numberOfBytes": "32",
        "value": "t_uint256"
      },
      "t_mapping(t_uint256,t_address)": {
        "encoding": "mapping",
        "key": "t_uint256",
        "label": "mapping(uint256 => address)",
        "numberOfBytes": "32",
        "value": "t_address"
      },
      "t_mapping(t_uint256,t_array(t_address)dyn_storage)": {
        "encoding": "mapping",
        "key": "t_uint256",
        "label": "mapping(uint256 => address[])",
        "numberOfBytes": "32",
        "value": "t_array(t_address)dyn_storage"
      },
      "t_mapping(t_uint256,t_string_storage)": {
        "encoding": "mapping",
        "key": "t_uint256",
        "label": "mapping(uint256 => string)",
        "numberOfBytes": "32",
        "value": "t_string_storage"
      },
      "t_mapping(t_uint256,t_struct(Auction)2127_storage)": {
        "encoding": "mapping",
        "key": "t_uint256",
        "label": "mapping(uint256 => struct AuctionBuny.Auction)",
        "numberOfBytes": "32",
        "value": "t_struct(Auction)2127_storage"
      },
      "t_mapping(t_uint256,t_struct(BUNY)2110_storage)": {
        "encoding": "mapping",
        "key": "t_uint256",
        "label": "mapping(uint256 => struct AuctionBuny.BUNY)",
        "numberOfBytes": "32",
        "value": "t_struct(BUNY)2110_storage"
      },
      "t_mapping(t_uint256,t_struct(history)2130_storage)": {
        "encoding": "mapping",
        "key": "t_uint256",
        "label": "mapping(uint256 => struct AuctionBuny.history)",
        "numberOfBytes": "32",
        "value": "t_struct(history)2130_storage"
      },
      "t_string_storage": {
        "encoding": "bytes",
        "label": "string",
        "numberOfBytes": "32"
      },
      "t_struct(Auction)2127_storage": {
        "encoding": "inplace",
        "label": "struct AuctionBuny.Auction",
        "members": [
          {
            "astId": 2112,
            "contract": "contracts/AuctionBuny.sol:AuctionBuny",
            "label": "initivalue",
            "offset": 0,
            "slot": "0",
            "type": "t_uint256"
          },
          {
            "astId": 2114,
            "contract": "contracts/AuctionBuny.sol:AuctionBuny",
            "label": "finalvalue",
            "offset": 0,
            "slot": "1",
            "type": "t_uint256"
          },
          {
            "astId": 2116,
            "contract": "contracts/AuctionBuny.sol:AuctionBuny",
            "label": "endtime",
            "offset": 0,
            "slot": "2",
            "type": "t_uint256"
          },
          {
            "astId": 2118,
            "contract": "contracts/AuctionBuny.sol:AuctionBuny",
            "label": "nid",
            "offset": 0,
            "slot": "3",
            "type": "t_uint256"
          },
          {
            "astId": 2120,
            "contract": "contracts/AuctionBuny.sol:AuctionBuny",
            "label": "provider",
            "offset": 0,
            "slot": "4",
            "type": "t_address_payable"
          },
          {
            "astId": 2122,
            "contract": "contracts/AuctionBuny.sol:AuctionBuny",
            "label": "receiver",
            "offset": 0,
            "slot": "5",
            "type": "t_address_payable"
          },
          {
            "astId": 2124,
            "contract": "contracts/AuctionBuny.sol:AuctionBuny",
            "label": "on",
            "offset": 20,
            "slot": "5",
            "type": "t_bool"
          },
          {
            "astId": 2126,
            "contract": "contracts/AuctionBuny.sol:AuctionBuny",
            "label": "mark",
            "offset": 21,
            "slot": "5",
            "type": "t_bool"
          }
        ],
        "numberOfBytes": "192"
      },
      "t_struct(BUNY)2110_storage": {
        "encoding": "inplace",
        "label": "struct AuctionBuny.BUNY",
        "members": [
          {
            "astId": 2095,
            "contract": "contracts/AuctionBuny.sol:AuctionBuny",
            "label": "name",
            "offset": 0,
            "slot": "0",
            "type": "t_string_storage"
          },
          {
            "astId": 2097,
            "contract": "contracts/AuctionBuny.sol:AuctionBuny",
            "label": "tokenURI",
            "offset": 0,
            "slot": "1",
            "type": "t_string_storage"
          },
          {
            "astId": 2099,
            "contract": "contracts/AuctionBuny.sol:AuctionBuny",
            "label": "des",
            "offset": 0,
            "slot": "2",
            "type": "t_string_storage"
          },
          {
            "astId": 2101,
            "contract": "contracts/AuctionBuny.sol:AuctionBuny",
            "label": "uid",
            "offset": 0,
            "slot": "3",
            "type": "t_uint256"
          },
          {
            "astId": 2103,
            "contract": "contracts/AuctionBuny.sol:AuctionBuny",
            "label": "price",
            "offset": 0,
            "slot": "4",
            "type": "t_uint256"
          },
          {
            "astId": 2105,
            "contract": "contracts/AuctionBuny.sol:AuctionBuny",
            "label": "creator",
            "offset": 0,
            "slot": "5",
            "type": "t_address_payable"
          },
          {
            "astId": 2107,
            "contract": "contracts/AuctionBuny.sol:AuctionBuny",
            "label": "owner",
            "offset": 0,
            "slot": "6",
            "type": "t_address_payable"
          },
          {
            "astId": 2109,
            "contract": "contracts/AuctionBuny.sol:AuctionBuny",
            "label": "onauction",
            "offset": 20,
            "slot": "6",
            "type": "t_bool"
          }
        ],
        "numberOfBytes": "224"
      },
      "t_struct(history)2130_storage": {
        "encoding": "inplace",
        "label": "struct AuctionBuny.history",
        "members": [
          {
            "astId": 2129,
            "contract": "contracts/AuctionBuny.sol:AuctionBuny",
            "label": "num",
            "offset": 0,
            "slot": "0",
            "type": "t_uint256"
          }
        ],
        "numberOfBytes": "32"
      },
      "t_uint256": {
        "encoding": "inplace",
        "label": "uint256",
        "numberOfBytes": "32"
      }
    }
  }
}