{
  "address": "0xCfc659740F12925Bf6926252CDfB8199edF69D4b",
  "abi": [
    {
      "inputs": [
        {
          "internalType": "address",
          "name": "projectTreasury",
          "type": "address"
        },
        {
          "internalType": "uint256",
          "name": "auctionFee",
          "type": "uint256"
        }
      ],
      "stateMutability": "nonpayable",
      "type": "constructor"
    },
    {
      "anonymous": false,
      "inputs": [
        {
          "indexed": false,
          "internalType": "uint256",
          "name": "tokenId",
          "type": "uint256"
        },
        {
          "indexed": false,
          "internalType": "uint256",
          "name": "bid",
          "type": "uint256"
        },
        {
          "indexed": false,
          "internalType": "address",
          "name": "bidder",
          "type": "address"
        }
      ],
      "name": "AuctionBid",
      "type": "event"
    },
    {
      "anonymous": false,
      "inputs": [
        {
          "indexed": false,
          "internalType": "uint256",
          "name": "tokenId",
          "type": "uint256"
        }
      ],
      "name": "AuctionCancelled",
      "type": "event"
    },
    {
      "anonymous": false,
      "inputs": [
        {
          "indexed": false,
          "internalType": "uint256",
          "name": "tokenId",
          "type": "uint256"
        },
        {
          "indexed": false,
          "internalType": "uint256",
          "name": "startingPrice",
          "type": "uint256"
        },
        {
          "indexed": false,
          "internalType": "uint256",
          "name": "endingPrice",
          "type": "uint256"
        },
        {
          "indexed": false,
          "internalType": "uint256",
          "name": "duration",
          "type": "uint256"
        }
      ],
      "name": "AuctionCreated",
      "type": "event"
    },
    {
      "anonymous": false,
      "inputs": [
        {
          "indexed": false,
          "internalType": "uint256",
          "name": "tokenId",
          "type": "uint256"
        },
        {
          "indexed": false,
          "internalType": "uint256",
          "name": "price",
          "type": "uint256"
        },
        {
          "indexed": false,
          "internalType": "address",
          "name": "winner",
          "type": "address"
        }
      ],
      "name": "AuctionFinish",
      "type": "event"
    },
    {
      "anonymous": false,
      "inputs": [
        {
          "indexed": false,
          "internalType": "address",
          "name": "to",
          "type": "address"
        },
        {
          "indexed": false,
          "internalType": "uint256",
          "name": "amount",
          "type": "uint256"
        }
      ],
      "name": "FailedPayment",
      "type": "event"
    },
    {
      "anonymous": false,
      "inputs": [
        {
          "indexed": true,
          "internalType": "address",
          "name": "previousOwner",
          "type": "address"
        },
        {
          "indexed": true,
          "internalType": "address",
          "name": "newOwner",
          "type": "address"
        }
      ],
      "name": "OwnershipTransferred",
      "type": "event"
    },
    {
      "anonymous": false,
      "inputs": [
        {
          "indexed": false,
          "internalType": "address",
          "name": "account",
          "type": "address"
        }
      ],
      "name": "Paused",
      "type": "event"
    },
    {
      "anonymous": false,
      "inputs": [
        {
          "indexed": false,
          "internalType": "address",
          "name": "account",
          "type": "address"
        }
      ],
      "name": "Unpaused",
      "type": "event"
    },
    {
      "inputs": [
        {
          "internalType": "uint256",
          "name": "tokenId",
          "type": "uint256"
        }
      ],
      "name": "bid",
      "outputs": [],
      "stateMutability": "payable",
      "type": "function"
    },
    {
      "inputs": [
        {
          "internalType": "uint256",
          "name": "tokenId",
          "type": "uint256"
        }
      ],
      "name": "cancelAuction",
      "outputs": [],
      "stateMutability": "nonpayable",
      "type": "function"
    },
    {
      "inputs": [
        {
          "internalType": "uint256",
          "name": "tokenId",
          "type": "uint256"
        }
      ],
      "name": "cancelAuctionWhenPaused",
      "outputs": [],
      "stateMutability": "nonpayable",
      "type": "function"
    },
    {
      "inputs": [
        {
          "internalType": "uint256",
          "name": "tokenId",
          "type": "uint256"
        },
        {
          "internalType": "uint256",
          "name": "startingPrice",
          "type": "uint256"
        },
        {
          "internalType": "uint256",
          "name": "endingPrice",
          "type": "uint256"
        },
        {
          "internalType": "uint256",
          "name": "duration",
          "type": "uint256"
        }
      ],
      "name": "createAuction",
      "outputs": [],
      "stateMutability": "nonpayable",
      "type": "function"
    },
    {
      "inputs": [
        {
          "internalType": "uint256",
          "name": "tokenId",
          "type": "uint256"
        }
      ],
      "name": "finishAuction",
      "outputs": [],
      "stateMutability": "nonpayable",
      "type": "function"
    },
    {
      "inputs": [
        {
          "internalType": "uint256",
          "name": "tokenId",
          "type": "uint256"
        }
      ],
      "name": "getAuction",
      "outputs": [
        {
          "internalType": "address",
          "name": "seller",
          "type": "address"
        },
        {
          "internalType": "uint256",
          "name": "startingPrice",
          "type": "uint256"
        },
        {
          "internalType": "uint256",
          "name": "endingPrice",
          "type": "uint256"
        },
        {
          "internalType": "uint256",
          "name": "duration",
          "type": "uint256"
        },
        {
          "internalType": "uint256",
          "name": "startedAt",
          "type": "uint256"
        },
        {
          "internalType": "uint256",
          "name": "lastBid",
          "type": "uint256"
        },
        {
          "internalType": "address",
          "name": "lastBidder",
          "type": "address"
        }
      ],
      "stateMutability": "view",
      "type": "function"
    },
    {
      "inputs": [
        {
          "internalType": "uint256",
          "name": "tokenId",
          "type": "uint256"
        }
      ],
      "name": "getlastBid",
      "outputs": [
        {
          "internalType": "uint256",
          "name": "",
          "type": "uint256"
        }
      ],
      "stateMutability": "view",
      "type": "function"
    },
    {
      "inputs": [],
      "name": "nftContract",
      "outputs": [
        {
          "internalType": "contract IERC721",
          "name": "",
          "type": "address"
        }
      ],
      "stateMutability": "view",
      "type": "function"
    },
    {
      "inputs": [],
      "name": "owner",
      "outputs": [
        {
          "internalType": "address",
          "name": "",
          "type": "address"
        }
      ],
      "stateMutability": "view",
      "type": "function"
    },
    {
      "inputs": [],
      "name": "pause",
      "outputs": [],
      "stateMutability": "nonpayable",
      "type": "function"
    },
    {
      "inputs": [],
      "name": "paused",
      "outputs": [
        {
          "internalType": "bool",
          "name": "",
          "type": "bool"
        }
      ],
      "stateMutability": "view",
      "type": "function"
    },
    {
      "inputs": [],
      "name": "renounceOwnership",
      "outputs": [],
      "stateMutability": "nonpayable",
      "type": "function"
    },
    {
      "inputs": [
        {
          "internalType": "contract IERC721",
          "name": "nonFungibleContract",
          "type": "address"
        }
      ],
      "name": "setNFTContract",
      "outputs": [],
      "stateMutability": "nonpayable",
      "type": "function"
    },
    {
      "inputs": [
        {
          "internalType": "address",
          "name": "newOwner",
          "type": "address"
        }
      ],
      "name": "transferOwnership",
      "outputs": [],
      "stateMutability": "nonpayable",
      "type": "function"
    },
    {
      "inputs": [],
      "name": "unpause",
      "outputs": [],
      "stateMutability": "nonpayable",
      "type": "function"
    },
    {
      "inputs": [
        {
          "internalType": "address",
          "name": "to",
          "type": "address"
        }
      ],
      "name": "withdrawUnclaimed",
      "outputs": [
        {
          "internalType": "bool",
          "name": "",
          "type": "bool"
        }
      ],
      "stateMutability": "nonpayable",
      "type": "function"
    }
  ],
  "transactionHash": "0x82886635ec1b055d9e9d29d395c5959b297caa06d5a01490c85257121cc45796",
  "args": [
    "0x8406A51A0E1B5F52Ff61226773e6328e5Da5d964",
    "0"
  ],
  "numDeployments": 1,
  "solcInputHash": "76e4f10f4e3b38cc4cb768f44963d083",
  "bytecode": "0x60c06040526002805460ff1916905534801561001a57600080fd5b5060405162001ab638038062001ab683398101604081905261003b9161010d565b610044336100bd565b6000805460ff60a01b191690556001805580156100a75760405162461bcd60e51b815260206004820152601360248201527f61756374696f6e46656520746f6f206869676800000000000000000000000000604482015260640160405180910390fd5b6001600160a01b0390911660a052608052610147565b600080546001600160a01b038381166001600160a01b0319831681178455604051919092169283917f8be0079c531659141344cd1fd0a4f28419497f9722a3daafe3b4186f6b6457e09190a35050565b6000806040838503121561012057600080fd5b82516001600160a01b038116811461013757600080fd5b6020939093015192949293505050565b60805160a0516119496200016d60003960006111c10152600061116e01526119496000f3fe6080604052600436106100f35760003560e01c8063878eb3681161008a578063cf266ed011610059578063cf266ed0146102b3578063d56d229d146102d3578063d5f20926146102f3578063f2fde38b1461032157600080fd5b8063878eb368146102215780638da5cb5b1461024157806396b5a75514610273578063a7ccabdf1461029357600080fd5b80635c975abb116100c65780635c975abb14610177578063715018a61461019657806378bd7935146101ab5780638456cb591461020c57600080fd5b80630fadea30146100f85780633f4ba83a1461012d578063431f21da14610144578063454a2ab314610164575b600080fd5b34801561010457600080fd5b5061011861011336600461173b565b610341565b60405190151581526020015b60405180910390f35b34801561013957600080fd5b50610142610364565b005b34801561015057600080fd5b5061014261015f36600461175f565b610376565b610142610172366004611791565b6107a3565b34801561018357600080fd5b50600054600160a01b900460ff16610118565b3480156101a257600080fd5b50610142610a1c565b3480156101b757600080fd5b506101cb6101c6366004611791565b610a2e565b604080516001600160a01b03988916815260208101979097528601949094526060850192909252608084015260a083015290911660c082015260e001610124565b34801561021857600080fd5b50610142610ad2565b34801561022d57600080fd5b5061014261023c366004611791565b610ae2565b34801561024d57600080fd5b506000546001600160a01b03165b6040516001600160a01b039091168152602001610124565b34801561027f57600080fd5b5061014261028e366004611791565b610c43565b34801561029f57600080fd5b506101426102ae36600461173b565b610e41565b3480156102bf57600080fd5b506101426102ce366004611791565b610f72565b3480156102df57600080fd5b5060045461025b906001600160a01b031681565b3480156102ff57600080fd5b5061031361030e366004611791565b6112a5565b604051908152602001610124565b34801561032d57600080fd5b5061014261033c36600461173b565b6112e7565b600061034b611360565b6103536113b0565b61035c8261140a565b90505b919050565b61036c6113b0565b610374611470565b565b61037e6114c5565b826001600160801b0316831461039357600080fd5b816001600160801b031682146103a857600080fd5b806001600160401b031681146103bd57600080fd5b8282116103c957600080fd5b603c8110156103d757600080fd5b6000848152600560205260409020600201546001600160401b0316156104365760405162461bcd60e51b815260206004820152600f60248201526e293ab73734b7339020bab1ba34b7b760891b60448201526064015b60405180910390fd5b600480546040516331a9108f60e11b81529182018690526000916001600160a01b0390911690636352211e90602401602060405180830381865afa158015610482573d6000803e3d6000fd5b505050506040513d601f19601f820116820180604052508101906104a691906117aa565b90506104ba6000546001600160a01b031690565b6001600160a01b0316336001600160a01b031614806104e15750336001600160a01b038216145b61051e5760405162461bcd60e51b815260206004820152600e60248201526d139bdd08105d5d1a1bdc9a5e995960921b604482015260640161042d565b600480546040516323b872dd60e01b81526001600160a01b03909116916323b872dd9161055191859130918b91016117c7565b600060405180830381600087803b15801561056b57600080fd5b505af115801561057f573d6000803e3d6000fd5b5050505060006040518060e00160405280866001600160801b03168152602001856001600160801b03168152602001846001600160401b03168152602001836001600160a01b03168152602001426001600160401b0316815260200160006001600160a01b0316815260200160008152509050806005600088815260200190815260200160002060008201518160000160006101000a8154816001600160801b0302191690836001600160801b0316021790555060208201518160000160106101000a8154816001600160801b0302191690836001600160801b0316021790555060408201518160010160006101000a8154816001600160401b0302191690836001600160401b0316021790555060608201518160010160086101000a8154816001600160a01b0302191690836001600160a01b0316021790555060808201518160020160006101000a8154816001600160401b0302191690836001600160401b0316021790555060a08201518160020160086101000a8154816001600160a01b0302191690836001600160a01b0316021790555060c082015181600301559050507fa9c8dfcda5664a5a124c713e386da27de87432d5b668e79458501eb296389ba78682600001516001600160801b031683602001516001600160801b031684604001516001600160401b0316604051610793949392919093845260208401929092526040830152606082015260800190565b60405180910390a1505050505050565b6107ab6114c5565b6002600154036107cd5760405162461bcd60e51b815260040161042d906117eb565b600260015560008181526005602052604090206107e981611512565b6108285760405162461bcd60e51b815260206004820152601060248201526f20bab1ba34b7b7103737ba1037b832b760811b604482015260640161042d565b80546003820154600160801b9091046001600160801b0316116108835760405162461bcd60e51b8152602060048201526013602482015272195b991a5b99d41c9a58d9481c995858da1959606a1b604482015260640161042d565b80546001600160801b031634116108d35760405162461bcd60e51b81526020600482015260146024820152736269642062656c6c6f77206d696e20707269636560601b604482015260640161042d565b8060030154341161091c5760405162461bcd60e51b8152602060048201526013602482015272189a590818995b1b1bddc81b185cdd08189a59606a1b604482015260640161042d565b80543490600160801b90046001600160801b031681111561097357815461095e90339061095990600160801b90046001600160801b031684611838565b61155e565b50508054600160801b90046001600160801b03165b6003820154156109a357600282015460038301546109a191600160401b90046001600160a01b03169061155e565b505b60028201805468010000000000000000600160e01b03191633600160401b810291909117909155600383018290556040805185815260208101849052908101919091527ff9008dd91005935024ba5a41d46d0e6b9da928da99a364a8db10ea053f6b49c99060600160405180910390a150506001805550565b610a246113b0565b6103746000611646565b600081815260056020526040812060028101548291829182918291829182916001600160401b0316610a725760405162461bcd60e51b815260040161042d90611851565b600181015481546002830154600390930154600160401b8084046001600160a01b039081169e6001600160801b038086169f50600160801b9095049094169c506001600160401b039485169b509385169950909750909204169350915050565b610ada6113b0565b610374611696565b610aea611360565b610af26113b0565b600081815260056020526040902060028101546001600160401b0316610b2a5760405162461bcd60e51b815260040161042d90611851565b600381015415610b5a5760028101546003820154610b5891600160401b90046001600160a01b03169061155e565b505b6004805460018301546040516323b872dd60e01b81526001600160a01b03928316936323b872dd93610b9c933093600160401b909104909116918891016117c7565b600060405180830381600087803b158015610bb657600080fd5b505af1158015610bca573d6000803e3d6000fd5b5050506000838152600560205260408082208281556001810180546001600160e01b0319908116909155600282018054909116905560030191909155517f2809c7e17bf978fbc7194c0a694b638c4215e9140cacc6c38ca36010b45697df9150610c379084815260200190565b60405180910390a15050565b610c4b6114c5565b600260015403610c6d5760405162461bcd60e51b815260040161042d906117eb565b60026001556000818152600560205260409020610c8981611512565b610cc85760405162461bcd60e51b815260206004820152601060248201526f20bab1ba34b7b7103737ba1037b832b760811b604482015260640161042d565b6001810154600160401b90046001600160a01b03163314610d245760405162461bcd60e51b815260206004820152601660248201527513db9b1e481cd95b1b195c8818d85b8818d85b98d95b60521b604482015260640161042d565b600381015415610d545760028101546003820154610d5291600160401b90046001600160a01b03169061155e565b505b6004805460018301546040516323b872dd60e01b81526001600160a01b03928316936323b872dd93610d96933093600160401b909104909116918891016117c7565b600060405180830381600087803b158015610db057600080fd5b505af1158015610dc4573d6000803e3d6000fd5b5050506000838152600560205260408082208281556001810180546001600160e01b0319908116909155600282018054909116905560030191909155517f2809c7e17bf978fbc7194c0a694b638c4215e9140cacc6c38ca36010b45697df9150610e319084815260200190565b60405180910390a1505060018055565b610e496113b0565b6004546001600160a01b031615610ea25760405162461bcd60e51b815260206004820152601860248201527f4e465420436f6e747261637420616c7265616479207365740000000000000000604482015260640161042d565b6040516301ffc9a760e01b81526380ac58cd60e01b60048201526001600160a01b038216906301ffc9a790602401602060405180830381865afa158015610eed573d6000803e3d6000fd5b505050506040513d601f19601f82011682018060405250810190610f119190611876565b610f505760405162461bcd60e51b815260206004820152601060248201526f139bdb881391950818dbdb9d1c9858dd60821b604482015260640161042d565b600480546001600160a01b0319166001600160a01b0392909216919091179055565b610f7a6114c5565b600260015403610f9c5760405162461bcd60e51b815260040161042d906117eb565b60026001556000818152600560205260409020610fb8816116d9565b80610fd8575080546003820154600160801b9091046001600160801b0316145b6110195760405162461bcd60e51b8152602060048201526012602482015271082eac6e8d2dedc40dcdee840ccd2dcd2e6d60731b604482015260640161042d565b80600301546000036110f3576004805460018301546040516323b872dd60e01b81526001600160a01b03928316936323b872dd93611067933093600160401b909104909116918891016117c7565b600060405180830381600087803b15801561108157600080fd5b505af1158015611095573d6000803e3d6000fd5b5050505060018101546040805184815260006020820152600160401b9092046001600160a01b0316908201527ff1848f7aff3da0dce4a8740e984d7802ab25aa91710f782086fd6958e4baea6d9060600160405180910390a1611265565b6004805460028301546040516323b872dd60e01b81526001600160a01b03928316936323b872dd93611135933093600160401b909104909116918891016117c7565b600060405180830381600087803b15801561114f57600080fd5b505af1158015611163573d6000803e3d6000fd5b5050505060006127107f0000000000000000000000000000000000000000000000000000000000000000836003015461119c9190611898565b6111a691906118b7565b905060008183600301546111ba9190611838565b90506111e67f00000000000000000000000000000000000000000000000000000000000000008361155e565b50600183015461120690600160401b90046001600160a01b03168261155e565b5060038301546002840154604080518781526020810193909352600160401b9091046001600160a01b0316908201527ff1848f7aff3da0dce4a8740e984d7802ab25aa91710f782086fd6958e4baea6d9060600160405180910390a150505b506000908152600560205260408120818155600180820180546001600160e01b031990811690915560028301805490911690556003909101919091558055565b600081815260056020526040812060028101546001600160401b03166112dd5760405162461bcd60e51b815260040161042d90611851565b6003015492915050565b6112ef6113b0565b6001600160a01b0381166113545760405162461bcd60e51b815260206004820152602660248201527f4f776e61626c653a206e6577206f776e657220697320746865207a65726f206160448201526564647265737360d01b606482015260840161042d565b61135d81611646565b50565b600054600160a01b900460ff166103745760405162461bcd60e51b815260206004820152601460248201527314185d5cd8589b194e881b9bdd081c185d5cd95960621b604482015260640161042d565b6000546001600160a01b031633146103745760405162461bcd60e51b815260206004820181905260248201527f4f776e61626c653a2063616c6c6572206973206e6f7420746865206f776e6572604482015260640161042d565b6003546040516000916001600160a01b038416918381818185875af1925050503d8060008114611456576040519150601f19603f3d011682016040523d82523d6000602084013e61145b565b606091505b5090915050801561035f576000600355919050565b611478611360565b6000805460ff60a01b191690557f5db9ee0a495bf2e6ff9c91a7834c1ba4fdd244a5e8aa4e537bd38aeae4b073aa335b6040516001600160a01b03909116815260200160405180910390a1565b600054600160a01b900460ff16156103745760405162461bcd60e51b815260206004820152601060248201526f14185d5cd8589b194e881c185d5cd95960821b604482015260640161042d565b60028101546000906001600160401b03161580159061035c575060018201546002830154429161154e916001600160401b0391821691166118d9565b6001600160401b03161192915050565b60025460009060ff161561157157600080fd5b6002805460ff191660011790556040516001600160a01b03841690610bb89084906000818181858888f193505050503d80600081146115cc576040519150601f19603f3d011682016040523d82523d6000602084013e6115d1565b606091505b505080915050806116365781600360008282546115ee9190611900565b9091555050604080516001600160a01b0385168152602081018490527fac464fe4d3a86b9121261ac0a01dd981bfe0777c7c9d9c8f4473d31a9c0f9d2d910160405180910390a15b6002805460ff1916905592915050565b600080546001600160a01b038381166001600160a01b0319831681178455604051919092169283917f8be0079c531659141344cd1fd0a4f28419497f9722a3daafe3b4186f6b6457e09190a35050565b61169e6114c5565b6000805460ff60a01b1916600160a01b1790557f62e78cea01bee320cd4e420270b5ea74000d11b0c9f74754ebdbfc544b05a2586114a83390565b60028101546000906001600160401b03161580159061035c5750600182015460028301544291611715916001600160401b0391821691166118d9565b6001600160401b0316111592915050565b6001600160a01b038116811461135d57600080fd5b60006020828403121561174d57600080fd5b813561175881611726565b9392505050565b6000806000806080858703121561177557600080fd5b5050823594602084013594506040840135936060013592509050565b6000602082840312156117a357600080fd5b5035919050565b6000602082840312156117bc57600080fd5b815161175881611726565b6001600160a01b039384168152919092166020820152604081019190915260600190565b6020808252601f908201527f5265656e7472616e637947756172643a207265656e7472616e742063616c6c00604082015260600190565b634e487b7160e01b600052601160045260246000fd5b8181038181111561184b5761184b611822565b92915050565b6020808252600b908201526a2737ba1020bab1ba34b7b760a91b604082015260600190565b60006020828403121561188857600080fd5b8151801515811461175857600080fd5b60008160001904831182151516156118b2576118b2611822565b500290565b6000826118d457634e487b7160e01b600052601260045260246000fd5b500490565b6001600160401b038181168382160190808211156118f9576118f9611822565b5092915050565b8082018082111561184b5761184b61182256fea2646970667358221220c48de6c0ef1cf0627e63a788014f52449b8128032b28dc8d59d05a80a9b1361b64736f6c63430008100033",
  "devdoc": {
    "kind": "dev",
    "methods": {
      "owner()": {
        "details": "Returns the address of the current owner."
      },
      "paused()": {
        "details": "Returns true if the contract is paused, and false otherwise."
      },
      "renounceOwnership()": {
        "details": "Leaves the contract without owner. It will not be possible to call `onlyOwner` functions anymore. Can only be called by the current owner. NOTE: Renouncing ownership will leave the contract without an owner, thereby removing any functionality that is only available to the owner."
      },
      "transferOwnership(address)": {
        "details": "Transfers ownership of the contract to a new account (`newOwner`). Can only be called by the current owner."
      }
    },
    "version": 1
  },
  "userdoc": {
    "kind": "user",
    "methods": {},
    "version": 1
  },
  "storageLayout": {
    "storage": [
      {
        "astId": 7,
        "contract": "contracts/BunyAuctionFactory.sol:BunyAuctionFactory",
        "label": "_owner",
        "offset": 0,
        "slot": "0",
        "type": "t_address"
      },
      {
        "astId": 130,
        "contract": "contracts/BunyAuctionFactory.sol:BunyAuctionFactory",
        "label": "_paused",
        "offset": 20,
        "slot": "0",
        "type": "t_bool"
      },
      {
        "astId": 231,
        "contract": "contracts/BunyAuctionFactory.sol:BunyAuctionFactory",
        "label": "_status",
        "offset": 0,
        "slot": "1",
        "type": "t_uint256"
      },
      {
        "astId": 3429,
        "contract": "contracts/BunyAuctionFactory.sol:BunyAuctionFactory",
        "label": "_payLock",
        "offset": 0,
        "slot": "2",
        "type": "t_bool"
      },
      {
        "astId": 3431,
        "contract": "contracts/BunyAuctionFactory.sol:BunyAuctionFactory",
        "label": "_unclaimed",
        "offset": 0,
        "slot": "3",
        "type": "t_uint256"
      },
      {
        "astId": 2114,
        "contract": "contracts/BunyAuctionFactory.sol:BunyAuctionFactory",
        "label": "nftContract",
        "offset": 0,
        "slot": "4",
        "type": "t_contract(IERC721)1243"
      },
      {
        "astId": 2123,
        "contract": "contracts/BunyAuctionFactory.sol:BunyAuctionFactory",
        "label": "_tokenIdAuction",
        "offset": 0,
        "slot": "5",
        "type": "t_mapping(t_uint256,t_struct(Auction)2138_storage)"
      }
    ],
    "types": {
      "t_address": {
        "encoding": "inplace",
        "label": "address",
        "numberOfBytes": "20"
      },
      "t_bool": {
        "encoding": "inplace",
        "label": "bool",
        "numberOfBytes": "1"
      },
      "t_contract(IERC721)1243": {
        "encoding": "inplace",
        "label": "contract IERC721",
        "numberOfBytes": "20"
      },
      "t_mapping(t_uint256,t_struct(Auction)2138_storage)": {
        "encoding": "mapping",
        "key": "t_uint256",
        "label": "mapping(uint256 => struct BunyAuctionFactory.Auction)",
        "numberOfBytes": "32",
        "value": "t_struct(Auction)2138_storage"
      },
      "t_struct(Auction)2138_storage": {
        "encoding": "inplace",
        "label": "struct BunyAuctionFactory.Auction",
        "members": [
          {
            "astId": 2125,
            "contract": "contracts/BunyAuctionFactory.sol:BunyAuctionFactory",
            "label": "startingPrice",
            "offset": 0,
            "slot": "0",
            "type": "t_uint128"
          },
          {
            "astId": 2127,
            "contract": "contracts/BunyAuctionFactory.sol:BunyAuctionFactory",
            "label": "endingPrice",
            "offset": 16,
            "slot": "0",
            "type": "t_uint128"
          },
          {
            "astId": 2129,
            "contract": "contracts/BunyAuctionFactory.sol:BunyAuctionFactory",
            "label": "duration",
            "offset": 0,
            "slot": "1",
            "type": "t_uint64"
          },
          {
            "astId": 2131,
            "contract": "contracts/BunyAuctionFactory.sol:BunyAuctionFactory",
            "label": "seller",
            "offset": 8,
            "slot": "1",
            "type": "t_address"
          },
          {
            "astId": 2133,
            "contract": "contracts/BunyAuctionFactory.sol:BunyAuctionFactory",
            "label": "startedAt",
            "offset": 0,
            "slot": "2",
            "type": "t_uint64"
          },
          {
            "astId": 2135,
            "contract": "contracts/BunyAuctionFactory.sol:BunyAuctionFactory",
            "label": "lastBidder",
            "offset": 8,
            "slot": "2",
            "type": "t_address"
          },
          {
            "astId": 2137,
            "contract": "contracts/BunyAuctionFactory.sol:BunyAuctionFactory",
            "label": "lastBid",
            "offset": 0,
            "slot": "3",
            "type": "t_uint256"
          }
        ],
        "numberOfBytes": "128"
      },
      "t_uint128": {
        "encoding": "inplace",
        "label": "uint128",
        "numberOfBytes": "16"
      },
      "t_uint256": {
        "encoding": "inplace",
        "label": "uint256",
        "numberOfBytes": "32"
      },
      "t_uint64": {
        "encoding": "inplace",
        "label": "uint64",
        "numberOfBytes": "8"
      }
    }
  }
}