{
  "address": "0xC1f60c52aad72D1F803027387aF6FccB5AC03209",
  "abi": [
    {
      "inputs": [
        {
          "internalType": "contract SharedNFTLogic",
          "name": "_sharedNFTLogic",
          "type": "address"
        }
      ],
      "stateMutability": "nonpayable",
      "type": "constructor"
    },
    {
      "anonymous": false,
      "inputs": [
        {
          "indexed": true,
          "internalType": "address",
          "name": "owner",
          "type": "address"
        },
        {
          "indexed": true,
          "internalType": "address",
          "name": "approved",
          "type": "address"
        },
        {
          "indexed": true,
          "internalType": "uint256",
          "name": "tokenId",
          "type": "uint256"
        }
      ],
      "name": "Approval",
      "type": "event"
    },
    {
      "anonymous": false,
      "inputs": [
        {
          "indexed": true,
          "internalType": "address",
          "name": "owner",
          "type": "address"
        },
        {
          "indexed": true,
          "internalType": "address",
          "name": "operator",
          "type": "address"
        },
        {
          "indexed": false,
          "internalType": "bool",
          "name": "approved",
          "type": "bool"
        }
      ],
      "name": "ApprovalForAll",
      "type": "event"
    },
    {
      "anonymous": false,
      "inputs": [
        {
          "indexed": false,
          "internalType": "uint256",
          "name": "price",
          "type": "uint256"
        },
        {
          "indexed": false,
          "internalType": "address",
          "name": "owner",
          "type": "address"
        },
        {
          "indexed": false,
          "internalType": "uint256",
          "name": "EntryCount",
          "type": "uint256"
        },
        {
          "indexed": false,
          "internalType": "uint256",
          "name": "entryTime",
          "type": "uint256"
        }
      ],
      "name": "Editionsold",
      "type": "event"
    },
    {
      "anonymous": false,
      "inputs": [
        {
          "indexed": false,
          "internalType": "uint8",
          "name": "version",
          "type": "uint8"
        }
      ],
      "name": "Initialized",
      "type": "event"
    },
    {
      "anonymous": false,
      "inputs": [
        {
          "indexed": true,
          "internalType": "address",
          "name": "previousOwner",
          "type": "address"
        },
        {
          "indexed": true,
          "internalType": "address",
          "name": "newOwner",
          "type": "address"
        }
      ],
      "name": "OwnershipTransferred",
      "type": "event"
    },
    {
      "anonymous": false,
      "inputs": [
        {
          "indexed": false,
          "internalType": "address",
          "name": "account",
          "type": "address"
        }
      ],
      "name": "Paused",
      "type": "event"
    },
    {
      "anonymous": false,
      "inputs": [
        {
          "indexed": false,
          "internalType": "address",
          "name": "minter",
          "type": "address"
        },
        {
          "indexed": false,
          "internalType": "uint256",
          "name": "startTime",
          "type": "uint256"
        }
      ],
      "name": "Rafflestarted",
      "type": "event"
    },
    {
      "anonymous": false,
      "inputs": [
        {
          "indexed": true,
          "internalType": "bytes32",
          "name": "role",
          "type": "bytes32"
        },
        {
          "indexed": true,
          "internalType": "bytes32",
          "name": "previousAdminRole",
          "type": "bytes32"
        },
        {
          "indexed": true,
          "internalType": "bytes32",
          "name": "newAdminRole",
          "type": "bytes32"
        }
      ],
      "name": "RoleAdminChanged",
      "type": "event"
    },
    {
      "anonymous": false,
      "inputs": [
        {
          "indexed": true,
          "internalType": "bytes32",
          "name": "role",
          "type": "bytes32"
        },
        {
          "indexed": true,
          "internalType": "address",
          "name": "account",
          "type": "address"
        },
        {
          "indexed": true,
          "internalType": "address",
          "name": "sender",
          "type": "address"
        }
      ],
      "name": "RoleGranted",
      "type": "event"
    },
    {
      "anonymous": false,
      "inputs": [
        {
          "indexed": true,
          "internalType": "bytes32",
          "name": "role",
          "type": "bytes32"
        },
        {
          "indexed": true,
          "internalType": "address",
          "name": "account",
          "type": "address"
        },
        {
          "indexed": true,
          "internalType": "address",
          "name": "sender",
          "type": "address"
        }
      ],
      "name": "RoleRevoked",
      "type": "event"
    },
    {
      "anonymous": false,
      "inputs": [
        {
          "indexed": true,
          "internalType": "address",
          "name": "from",
          "type": "address"
        },
        {
          "indexed": true,
          "internalType": "address",
          "name": "to",
          "type": "address"
        },
        {
          "indexed": true,
          "internalType": "uint256",
          "name": "tokenId",
          "type": "uint256"
        }
      ],
      "name": "Transfer",
      "type": "event"
    },
    {
      "anonymous": false,
      "inputs": [
        {
          "indexed": false,
          "internalType": "address",
          "name": "account",
          "type": "address"
        }
      ],
      "name": "Unpaused",
      "type": "event"
    },
    {
      "anonymous": false,
      "inputs": [
        {
          "indexed": false,
          "internalType": "address",
          "name": "winner",
          "type": "address"
        },
        {
          "indexed": false,
          "internalType": "uint256",
          "name": "winningNumber",
          "type": "uint256"
        },
        {
          "indexed": false,
          "internalType": "uint256",
          "name": "prize",
          "type": "uint256"
        }
      ],
      "name": "WinnerPicked",
      "type": "event"
    },
    {
      "inputs": [],
      "name": "DEFAULT_ADMIN_ROLE",
      "outputs": [
        {
          "internalType": "bytes32",
          "name": "",
          "type": "bytes32"
        }
      ],
      "stateMutability": "view",
      "type": "function"
    },
    {
      "inputs": [],
      "name": "EntryCount",
      "outputs": [
        {
          "internalType": "uint256",
          "name": "",
          "type": "uint256"
        }
      ],
      "stateMutability": "view",
      "type": "function"
    },
    {
      "inputs": [],
      "name": "MINTER_ROLE",
      "outputs": [
        {
          "internalType": "bytes32",
          "name": "",
          "type": "bytes32"
        }
      ],
      "stateMutability": "view",
      "type": "function"
    },
    {
      "inputs": [],
      "name": "PAUSER_ROLE",
      "outputs": [
        {
          "internalType": "bytes32",
          "name": "",
          "type": "bytes32"
        }
      ],
      "stateMutability": "view",
      "type": "function"
    },
    {
      "inputs": [],
      "name": "Winner",
      "outputs": [
        {
          "internalType": "address payable",
          "name": "",
          "type": "address"
        }
      ],
      "stateMutability": "view",
      "type": "function"
    },
    {
      "inputs": [],
      "name": "active",
      "outputs": [
        {
          "internalType": "bool",
          "name": "",
          "type": "bool"
        }
      ],
      "stateMutability": "view",
      "type": "function"
    },
    {
      "inputs": [
        {
          "internalType": "address",
          "name": "",
          "type": "address"
        }
      ],
      "name": "allowedMinters",
      "outputs": [
        {
          "internalType": "bool",
          "name": "",
          "type": "bool"
        }
      ],
      "stateMutability": "view",
      "type": "function"
    },
    {
      "inputs": [],
      "name": "animationUrl",
      "outputs": [
        {
          "internalType": "string",
          "name": "",
          "type": "string"
        }
      ],
      "stateMutability": "view",
      "type": "function"
    },
    {
      "inputs": [
        {
          "internalType": "address",
          "name": "to",
          "type": "address"
        },
        {
          "internalType": "uint256",
          "name": "tokenId",
          "type": "uint256"
        }
      ],
      "name": "approve",
      "outputs": [],
      "stateMutability": "nonpayable",
      "type": "function"
    },
    {
      "inputs": [
        {
          "internalType": "address",
          "name": "owner",
          "type": "address"
        }
      ],
      "name": "balanceOf",
      "outputs": [
        {
          "internalType": "uint256",
          "name": "",
          "type": "uint256"
        }
      ],
      "stateMutability": "view",
      "type": "function"
    },
    {
      "inputs": [],
      "name": "bunyBank",
      "outputs": [
        {
          "internalType": "address payable",
          "name": "",
          "type": "address"
        }
      ],
      "stateMutability": "view",
      "type": "function"
    },
    {
      "inputs": [
        {
          "internalType": "uint256",
          "name": "tokenId",
          "type": "uint256"
        }
      ],
      "name": "burn",
      "outputs": [],
      "stateMutability": "nonpayable",
      "type": "function"
    },
    {
      "inputs": [
        {
          "internalType": "uint256",
          "name": "_winningNumber",
          "type": "uint256"
        }
      ],
      "name": "claimPrize",
      "outputs": [],
      "stateMutability": "nonpayable",
      "type": "function"
    },
    {
      "inputs": [],
      "name": "description",
      "outputs": [
        {
          "internalType": "string",
          "name": "",
          "type": "string"
        }
      ],
      "stateMutability": "view",
      "type": "function"
    },
    {
      "inputs": [],
      "name": "editionSize",
      "outputs": [
        {
          "internalType": "uint256",
          "name": "",
          "type": "uint256"
        }
      ],
      "stateMutability": "view",
      "type": "function"
    },
    {
      "inputs": [],
      "name": "enableRaffle",
      "outputs": [],
      "stateMutability": "nonpayable",
      "type": "function"
    },
    {
      "inputs": [],
      "name": "endTime",
      "outputs": [
        {
          "internalType": "uint256",
          "name": "",
          "type": "uint256"
        }
      ],
      "stateMutability": "view",
      "type": "function"
    },
    {
      "inputs": [
        {
          "internalType": "uint256",
          "name": "tokenId",
          "type": "uint256"
        }
      ],
      "name": "getApproved",
      "outputs": [
        {
          "internalType": "address",
          "name": "",
          "type": "address"
        }
      ],
      "stateMutability": "view",
      "type": "function"
    },
    {
      "inputs": [],
      "name": "getBalance",
      "outputs": [
        {
          "internalType": "uint256",
          "name": "",
          "type": "uint256"
        }
      ],
      "stateMutability": "view",
      "type": "function"
    },
    {
      "inputs": [
        {
          "internalType": "uint256",
          "name": "_id",
          "type": "uint256"
        }
      ],
      "name": "getOwner",
      "outputs": [
        {
          "internalType": "address",
          "name": "",
          "type": "address"
        }
      ],
      "stateMutability": "view",
      "type": "function"
    },
    {
      "inputs": [],
      "name": "getPrize",
      "outputs": [
        {
          "internalType": "uint256",
          "name": "",
          "type": "uint256"
        }
      ],
      "stateMutability": "view",
      "type": "function"
    },
    {
      "inputs": [
        {
          "internalType": "bytes32",
          "name": "role",
          "type": "bytes32"
        }
      ],
      "name": "getRoleAdmin",
      "outputs": [
        {
          "internalType": "bytes32",
          "name": "",
          "type": "bytes32"
        }
      ],
      "stateMutability": "view",
      "type": "function"
    },
    {
      "inputs": [
        {
          "internalType": "bytes32",
          "name": "role",
          "type": "bytes32"
        },
        {
          "internalType": "uint256",
          "name": "index",
          "type": "uint256"
        }
      ],
      "name": "getRoleMember",
      "outputs": [
        {
          "internalType": "address",
          "name": "",
          "type": "address"
        }
      ],
      "stateMutability": "view",
      "type": "function"
    },
    {
      "inputs": [
        {
          "internalType": "bytes32",
          "name": "role",
          "type": "bytes32"
        }
      ],
      "name": "getRoleMemberCount",
      "outputs": [
        {
          "internalType": "uint256",
          "name": "",
          "type": "uint256"
        }
      ],
      "stateMutability": "view",
      "type": "function"
    },
    {
      "inputs": [
        {
          "internalType": "bytes32",
          "name": "role",
          "type": "bytes32"
        },
        {
          "internalType": "address",
          "name": "account",
          "type": "address"
        }
      ],
      "name": "grantRole",
      "outputs": [],
      "stateMutability": "nonpayable",
      "type": "function"
    },
    {
      "inputs": [
        {
          "internalType": "bytes32",
          "name": "role",
          "type": "bytes32"
        },
        {
          "internalType": "address",
          "name": "account",
          "type": "address"
        }
      ],
      "name": "hasRole",
      "outputs": [
        {
          "internalType": "bool",
          "name": "",
          "type": "bool"
        }
      ],
      "stateMutability": "view",
      "type": "function"
    },
    {
      "inputs": [],
      "name": "imageUrl",
      "outputs": [
        {
          "internalType": "string",
          "name": "",
          "type": "string"
        }
      ],
      "stateMutability": "view",
      "type": "function"
    },
    {
      "inputs": [
        {
          "internalType": "address",
          "name": "_owner",
          "type": "address"
        },
        {
          "internalType": "string",
          "name": "_name",
          "type": "string"
        },
        {
          "internalType": "string",
          "name": "_symbol",
          "type": "string"
        },
        {
          "internalType": "string",
          "name": "_description",
          "type": "string"
        },
        {
          "internalType": "string",
          "name": "_imageUrl",
          "type": "string"
        },
        {
          "internalType": "uint256",
          "name": "_editionSize",
          "type": "uint256"
        },
        {
          "internalType": "uint256",
          "name": "_salePrice",
          "type": "uint256"
        },
        {
          "internalType": "uint256",
          "name": "_minPlayers",
          "type": "uint256"
        },
        {
          "internalType": "address payable",
          "name": "_bunyBank",
          "type": "address"
        },
        {
          "internalType": "uint256",
          "name": "_maxTokens",
          "type": "uint256"
        },
        {
          "internalType": "uint256",
          "name": "_prime",
          "type": "uint256"
        },
        {
          "internalType": "uint256",
          "name": "_iterations",
          "type": "uint256"
        }
      ],
      "name": "initialize",
      "outputs": [],
      "stateMutability": "nonpayable",
      "type": "function"
    },
    {
      "inputs": [
        {
          "internalType": "string",
          "name": "name",
          "type": "string"
        },
        {
          "internalType": "string",
          "name": "symbol",
          "type": "string"
        },
        {
          "internalType": "string",
          "name": "baseTokenURI",
          "type": "string"
        }
      ],
      "name": "initialize",
      "outputs": [],
      "stateMutability": "nonpayable",
      "type": "function"
    },
    {
      "inputs": [
        {
          "internalType": "address",
          "name": "owner",
          "type": "address"
        },
        {
          "internalType": "address",
          "name": "operator",
          "type": "address"
        }
      ],
      "name": "isApprovedForAll",
      "outputs": [
        {
          "internalType": "bool",
          "name": "",
          "type": "bool"
        }
      ],
      "stateMutability": "view",
      "type": "function"
    },
    {
      "inputs": [],
      "name": "isComplete",
      "outputs": [
        {
          "internalType": "bool",
          "name": "",
          "type": "bool"
        }
      ],
      "stateMutability": "view",
      "type": "function"
    },
    {
      "inputs": [
        {
          "internalType": "address",
          "name": "",
          "type": "address"
        }
      ],
      "name": "isPlayer",
      "outputs": [
        {
          "internalType": "bool",
          "name": "",
          "type": "bool"
        }
      ],
      "stateMutability": "view",
      "type": "function"
    },
    {
      "inputs": [],
      "name": "isProof",
      "outputs": [
        {
          "internalType": "bool",
          "name": "",
          "type": "bool"
        }
      ],
      "stateMutability": "view",
      "type": "function"
    },
    {
      "inputs": [],
      "name": "iterations",
      "outputs": [
        {
          "internalType": "uint256",
          "name": "",
          "type": "uint256"
        }
      ],
      "stateMutability": "view",
      "type": "function"
    },
    {
      "inputs": [],
      "name": "maxTokens",
      "outputs": [
        {
          "internalType": "uint256",
          "name": "",
          "type": "uint256"
        }
      ],
      "stateMutability": "view",
      "type": "function"
    },
    {
      "inputs": [],
      "name": "minPlayers",
      "outputs": [
        {
          "internalType": "uint256",
          "name": "",
          "type": "uint256"
        }
      ],
      "stateMutability": "view",
      "type": "function"
    },
    {
      "inputs": [
        {
          "internalType": "address",
          "name": "to",
          "type": "address"
        }
      ],
      "name": "mint",
      "outputs": [],
      "stateMutability": "nonpayable",
      "type": "function"
    },
    {
      "inputs": [
        {
          "internalType": "address",
          "name": "to",
          "type": "address"
        }
      ],
      "name": "mintEdition",
      "outputs": [
        {
          "internalType": "uint256",
          "name": "",
          "type": "uint256"
        }
      ],
      "stateMutability": "nonpayable",
      "type": "function"
    },
    {
      "inputs": [
        {
          "internalType": "address[]",
          "name": "recipients",
          "type": "address[]"
        }
      ],
      "name": "mintEditions",
      "outputs": [
        {
          "internalType": "uint256",
          "name": "",
          "type": "uint256"
        }
      ],
      "stateMutability": "nonpayable",
      "type": "function"
    },
    {
      "inputs": [
        {
          "internalType": "address",
          "name": "",
          "type": "address"
        }
      ],
      "name": "mintedTokens",
      "outputs": [
        {
          "internalType": "bool",
          "name": "",
          "type": "bool"
        }
      ],
      "stateMutability": "view",
      "type": "function"
    },
    {
      "inputs": [],
      "name": "name",
      "outputs": [
        {
          "internalType": "string",
          "name": "",
          "type": "string"
        }
      ],
      "stateMutability": "view",
      "type": "function"
    },
    {
      "inputs": [
        {
          "internalType": "uint256",
          "name": "",
          "type": "uint256"
        }
      ],
      "name": "nftTokenIds",
      "outputs": [
        {
          "internalType": "uint256",
          "name": "",
          "type": "uint256"
        }
      ],
      "stateMutability": "view",
      "type": "function"
    },
    {
      "inputs": [],
      "name": "numberCanMint",
      "outputs": [
        {
          "internalType": "uint256",
          "name": "",
          "type": "uint256"
        }
      ],
      "stateMutability": "view",
      "type": "function"
    },
    {
      "inputs": [],
      "name": "owner",
      "outputs": [
        {
          "internalType": "address",
          "name": "",
          "type": "address"
        }
      ],
      "stateMutability": "view",
      "type": "function"
    },
    {
      "inputs": [
        {
          "internalType": "uint256",
          "name": "tokenId",
          "type": "uint256"
        }
      ],
      "name": "ownerOf",
      "outputs": [
        {
          "internalType": "address",
          "name": "",
          "type": "address"
        }
      ],
      "stateMutability": "view",
      "type": "function"
    },
    {
      "inputs": [],
      "name": "pause",
      "outputs": [],
      "stateMutability": "nonpayable",
      "type": "function"
    },
    {
      "inputs": [],
      "name": "paused",
      "outputs": [
        {
          "internalType": "bool",
          "name": "",
          "type": "bool"
        }
      ],
      "stateMutability": "view",
      "type": "function"
    },
    {
      "inputs": [],
      "name": "pickWinner",
      "outputs": [
        {
          "internalType": "uint256",
          "name": "",
          "type": "uint256"
        }
      ],
      "stateMutability": "nonpayable",
      "type": "function"
    },
    {
      "inputs": [],
      "name": "prime",
      "outputs": [
        {
          "internalType": "uint256",
          "name": "",
          "type": "uint256"
        }
      ],
      "stateMutability": "view",
      "type": "function"
    },
    {
      "inputs": [],
      "name": "prizeClaimed",
      "outputs": [
        {
          "internalType": "bool",
          "name": "",
          "type": "bool"
        }
      ],
      "stateMutability": "view",
      "type": "function"
    },
    {
      "inputs": [
        {
          "internalType": "uint256",
          "name": "proof",
          "type": "uint256"
        }
      ],
      "name": "prove",
      "outputs": [],
      "stateMutability": "nonpayable",
      "type": "function"
    },
    {
      "inputs": [],
      "name": "purchase",
      "outputs": [
        {
          "internalType": "uint256",
          "name": "",
          "type": "uint256"
        }
      ],
      "stateMutability": "payable",
      "type": "function"
    },
    {
      "inputs": [
        {
          "internalType": "uint256",
          "name": "",
          "type": "uint256"
        }
      ],
      "name": "raffleWinner",
      "outputs": [
        {
          "internalType": "address payable",
          "name": "winner",
          "type": "address"
        },
        {
          "internalType": "uint256",
          "name": "winningTokenId",
          "type": "uint256"
        }
      ],
      "stateMutability": "view",
      "type": "function"
    },
    {
      "inputs": [],
      "name": "randomNumber",
      "outputs": [
        {
          "internalType": "uint256",
          "name": "",
          "type": "uint256"
        }
      ],
      "stateMutability": "view",
      "type": "function"
    },
    {
      "inputs": [],
      "name": "readAllEntries",
      "outputs": [
        {
          "components": [
            {
              "internalType": "address",
              "name": "player",
              "type": "address"
            },
            {
              "internalType": "uint256",
              "name": "EntryNumber",
              "type": "uint256"
            },
            {
              "internalType": "uint256",
              "name": "entryTime",
              "type": "uint256"
            }
          ],
          "internalType": "struct BunyRaffleNftV2.Entry[]",
          "name": "",
          "type": "tuple[]"
        }
      ],
      "stateMutability": "view",
      "type": "function"
    },
    {
      "inputs": [],
      "name": "renounceOwnership",
      "outputs": [],
      "stateMutability": "nonpayable",
      "type": "function"
    },
    {
      "inputs": [
        {
          "internalType": "bytes32",
          "name": "role",
          "type": "bytes32"
        },
        {
          "internalType": "address",
          "name": "account",
          "type": "address"
        }
      ],
      "name": "renounceRole",
      "outputs": [],
      "stateMutability": "nonpayable",
      "type": "function"
    },
    {
      "inputs": [
        {
          "internalType": "bytes32",
          "name": "role",
          "type": "bytes32"
        },
        {
          "internalType": "address",
          "name": "account",
          "type": "address"
        }
      ],
      "name": "revokeRole",
      "outputs": [],
      "stateMutability": "nonpayable",
      "type": "function"
    },
    {
      "inputs": [
        {
          "internalType": "address",
          "name": "from",
          "type": "address"
        },
        {
          "internalType": "address",
          "name": "to",
          "type": "address"
        },
        {
          "internalType": "uint256",
          "name": "tokenId",
          "type": "uint256"
        }
      ],
      "name": "safeTransferFrom",
      "outputs": [],
      "stateMutability": "nonpayable",
      "type": "function"
    },
    {
      "inputs": [
        {
          "internalType": "address",
          "name": "from",
          "type": "address"
        },
        {
          "internalType": "address",
          "name": "to",
          "type": "address"
        },
        {
          "internalType": "uint256",
          "name": "tokenId",
          "type": "uint256"
        },
        {
          "internalType": "bytes",
          "name": "data",
          "type": "bytes"
        }
      ],
      "name": "safeTransferFrom",
      "outputs": [],
      "stateMutability": "nonpayable",
      "type": "function"
    },
    {
      "inputs": [],
      "name": "salePrice",
      "outputs": [
        {
          "internalType": "uint256",
          "name": "",
          "type": "uint256"
        }
      ],
      "stateMutability": "view",
      "type": "function"
    },
    {
      "inputs": [
        {
          "internalType": "address",
          "name": "",
          "type": "address"
        }
      ],
      "name": "seed",
      "outputs": [
        {
          "internalType": "uint256",
          "name": "",
          "type": "uint256"
        }
      ],
      "stateMutability": "view",
      "type": "function"
    },
    {
      "inputs": [
        {
          "internalType": "address",
          "name": "operator",
          "type": "address"
        },
        {
          "internalType": "bool",
          "name": "approved",
          "type": "bool"
        }
      ],
      "name": "setApprovalForAll",
      "outputs": [],
      "stateMutability": "nonpayable",
      "type": "function"
    },
    {
      "inputs": [
        {
          "internalType": "address",
          "name": "minter",
          "type": "address"
        },
        {
          "internalType": "bool",
          "name": "allowed",
          "type": "bool"
        }
      ],
      "name": "setApprovedMinter",
      "outputs": [],
      "stateMutability": "nonpayable",
      "type": "function"
    },
    {
      "inputs": [],
      "name": "startTime",
      "outputs": [
        {
          "internalType": "uint256",
          "name": "",
          "type": "uint256"
        }
      ],
      "stateMutability": "view",
      "type": "function"
    },
    {
      "inputs": [
        {
          "internalType": "bytes4",
          "name": "interfaceId",
          "type": "bytes4"
        }
      ],
      "name": "supportsInterface",
      "outputs": [
        {
          "internalType": "bool",
          "name": "",
          "type": "bool"
        }
      ],
      "stateMutability": "view",
      "type": "function"
    },
    {
      "inputs": [],
      "name": "symbol",
      "outputs": [
        {
          "internalType": "string",
          "name": "",
          "type": "string"
        }
      ],
      "stateMutability": "view",
      "type": "function"
    },
    {
      "inputs": [
        {
          "internalType": "uint256",
          "name": "index",
          "type": "uint256"
        }
      ],
      "name": "tokenByIndex",
      "outputs": [
        {
          "internalType": "uint256",
          "name": "",
          "type": "uint256"
        }
      ],
      "stateMutability": "view",
      "type": "function"
    },
    {
      "inputs": [
        {
          "internalType": "address",
          "name": "owner",
          "type": "address"
        },
        {
          "internalType": "uint256",
          "name": "index",
          "type": "uint256"
        }
      ],
      "name": "tokenOfOwnerByIndex",
      "outputs": [
        {
          "internalType": "uint256",
          "name": "",
          "type": "uint256"
        }
      ],
      "stateMutability": "view",
      "type": "function"
    },
    {
      "inputs": [
        {
          "internalType": "uint256",
          "name": "tokenId",
          "type": "uint256"
        }
      ],
      "name": "tokenURI",
      "outputs": [
        {
          "internalType": "string",
          "name": "",
          "type": "string"
        }
      ],
      "stateMutability": "view",
      "type": "function"
    },
    {
      "inputs": [],
      "name": "totalSupply",
      "outputs": [
        {
          "internalType": "uint256",
          "name": "",
          "type": "uint256"
        }
      ],
      "stateMutability": "view",
      "type": "function"
    },
    {
      "inputs": [
        {
          "internalType": "address",
          "name": "from",
          "type": "address"
        },
        {
          "internalType": "address",
          "name": "to",
          "type": "address"
        },
        {
          "internalType": "uint256",
          "name": "tokenId",
          "type": "uint256"
        }
      ],
      "name": "transferFrom",
      "outputs": [],
      "stateMutability": "nonpayable",
      "type": "function"
    },
    {
      "inputs": [
        {
          "internalType": "address",
          "name": "newOwner",
          "type": "address"
        }
      ],
      "name": "transferOwnership",
      "outputs": [],
      "stateMutability": "nonpayable",
      "type": "function"
    },
    {
      "inputs": [],
      "name": "unpause",
      "outputs": [],
      "stateMutability": "nonpayable",
      "type": "function"
    },
    {
      "inputs": [],
      "name": "winnerSelected",
      "outputs": [
        {
          "internalType": "bool",
          "name": "",
          "type": "bool"
        }
      ],
      "stateMutability": "view",
      "type": "function"
    },
    {
      "inputs": [],
      "name": "winningNumber",
      "outputs": [
        {
          "internalType": "uint256",
          "name": "",
          "type": "uint256"
        }
      ],
      "stateMutability": "view",
      "type": "function"
    }
  ],
  "transactionHash": "0x2a2d328a9126145f0d21a395ad56640c154faa0995562ba975fb92b0af4ffe44",
  "args": [
    "0x10cA9E76Fb9d40B8Bc388A6986377669B46284f7"
  ],
  "numDeployments": 1,
  "solcInputHash": "e3ff266cc6df93fa46178b30910bbe6b",
  "bytecode": "0x60a060405261022f805464ffffffffff191690556000610232819055610233819055610234819055610235819055610236819055610237553480156200004457600080fd5b5060405162004a2238038062004a22833981016040819052620000679162000079565b6001600160a01b0316608052620000ab565b6000602082840312156200008c57600080fd5b81516001600160a01b0381168114620000a457600080fd5b9392505050565b60805161495b620000c760003960006122cf015261495b6000f3fe6080604052600436106104475760003560e01c806370a0823111610234578063b2fa1c9e1161012e578063d5391393116100b6578063e985e9c51161007a578063e985e9c514610cea578063f18aceda14610d33578063f2fde38b14610d48578063f4ed0f4614610d68578063f51f96dd14610d7f57600080fd5b8063d539139314610c3d578063d547741f14610c71578063d709815414610c91578063e63ab1e914610cb1578063e831574214610cd357600080fd5b8063c7ee005e116100fd578063c7ee005e14610bad578063c87b56dd14610bc4578063ca15c87314610be4578063ccbac9f514610c04578063d1b84c1914610c1b57600080fd5b8063b2fa1c9e14610b37578063b88d4fde14610b58578063c34f6b0d14610b78578063c41a360a14610b8d57600080fd5b80639042bbf3116101bc578063a22cb46511610180578063a22cb46514610aa1578063a6487c5314610ac1578063a66ff0af14610ae1578063aba8315014610b01578063b2b98ed214610b1657600080fd5b80639042bbf314610a1d57806391d1485414610a4057806395d89b4114610a60578063a1ea842f14610a75578063a217fddf14610a8c57600080fd5b806378e979251161020357806378e979251461099c5780638456cb59146109b35780638d382812146109c85780638da5cb5b146109e85780639010d07c146109fd57600080fd5b806370a0823114610921578063715018a6146109415780637241dfa0146109565780637284e4161461098757600080fd5b80632f745c59116103455780634664611e116102cd5780635dfd7a57116102915780635dfd7a571461087a5780636352211e1461089a57806364c19175146108ba57806364edfbf0146108f95780636a6278421461090157600080fd5b80634664611e146107f357806348ed45351461080a5780634f6ccce71461082c5780635c975abb1461084c5780635d495aea1461086557600080fd5b80633f4ba83a116103145780633f4ba83a14610756578063423afa661461076b57806342842e0e1461079c57806342966c68146107bc5780634358d2be146107dc57600080fd5b80632f745c59146106ea5780633197cbb61461070a57806336568abe14610721578063397b5b241461074157600080fd5b80630e2cbc3d116103d357806323b872dd1161039757806323b872dd14610643578063248a9ca3146106635780632770c8951461069357806329ec16dd146106aa5780632f2ff15d146106ca57600080fd5b80630e2cbc3d146105bb5780630f6a9349146105db57806312065fe0146105fb57806318160ddd1461060e57806322d544a31461062357600080fd5b8063081812fc1161041a578063081812fc146104fa578063095ea7b31461053257806309c95e101461055457806309d94448146105855780630b65b6e7146105a657600080fd5b806301ffc9a71461044c57806302fb0c5e14610481578063063c67b71461049c57806306fdde03146104d8575b600080fd5b34801561045857600080fd5b5061046c610467366004613d2c565b610d96565b60405190151581526020015b60405180910390f35b34801561048d57600080fd5b5061022f5461046c9060ff1681565b3480156104a857600080fd5b506104ca6104b7366004613d6e565b61023f6020526000908152604090205481565b604051908152602001610478565b3480156104e457600080fd5b506104ed610da7565b6040516104789190613ddb565b34801561050657600080fd5b5061051a610515366004613dee565b610e39565b6040516001600160a01b039091168152602001610478565b34801561053e57600080fd5b5061055261054d366004613e07565b610e60565b005b34801561056057600080fd5b5061046c61056f366004613d6e565b6102406020526000908152604090205460ff1681565b34801561059157600080fd5b506102395461051a906001600160a01b031681565b3480156105b257600080fd5b506104ca610f7a565b3480156105c757600080fd5b506105526105d6366004613efe565b610fb0565b3480156105e757600080fd5b506104ca6105f6366004614020565b6110ff565b34801561060757600080fd5b50476104ca565b34801561061a57600080fd5b5060fd546104ca565b34801561062f57600080fd5b506104ca61063e366004613dee565b61115e565b34801561064f57600080fd5b5061055261065e3660046140d1565b611180565b34801561066f57600080fd5b506104ca61067e366004613dee565b60009081526065602052604090206001015490565b34801561069f57600080fd5b506104ca61022d5481565b3480156106b657600080fd5b506105526106c5366004614112565b6111b2565b3480156106d657600080fd5b506105526106e5366004614150565b611235565b3480156106f657600080fd5b506104ca610705366004613e07565b61125a565b34801561071657600080fd5b506104ca6102315481565b34801561072d57600080fd5b5061055261073c366004614150565b6112f0565b34801561074d57600080fd5b506104ed61136e565b34801561076257600080fd5b506105526113fd565b34801561077757600080fd5b5061046c610786366004613d6e565b61023e6020526000908152604090205460ff1681565b3480156107a857600080fd5b506105526107b73660046140d1565b611493565b3480156107c857600080fd5b506105526107d7366004613dee565b6114ae565b3480156107e857600080fd5b506104ca6102345481565b3480156107ff57600080fd5b506104ca6102375481565b34801561081657600080fd5b5061081f6114df565b6040516104789190614175565b34801561083857600080fd5b506104ca610847366004613dee565b6115fc565b34801561085857600080fd5b5061015f5460ff1661046c565b34801561087157600080fd5b506104ca61168f565b34801561088657600080fd5b50610552610895366004613dee565b611984565b3480156108a657600080fd5b5061051a6108b5366004613dee565b611a1f565b3480156108c657600080fd5b506108da6108d5366004613dee565b611a7f565b604080516001600160a01b039093168352602083019190915201610478565b6104ca611ab8565b34801561090d57600080fd5b5061055261091c366004613d6e565b611e1c565b34801561092d57600080fd5b506104ca61093c366004613d6e565b611eda565b34801561094d57600080fd5b50610552611f60565b34801561096257600080fd5b5061046c610971366004613d6e565b61023d6020526000908152604090205460ff1681565b34801561099357600080fd5b506104ed611f72565b3480156109a857600080fd5b506104ca6102305481565b3480156109bf57600080fd5b50610552611f80565b3480156109d457600080fd5b5061022f5461046c90610100900460ff1681565b3480156109f457600080fd5b5061051a612012565b348015610a0957600080fd5b5061051a610a183660046141d7565b612027565b348015610a2957600080fd5b5061022f5461046c90640100000000900460ff1681565b348015610a4c57600080fd5b5061046c610a5b366004614150565b612046565b348015610a6c57600080fd5b506104ed612071565b348015610a8157600080fd5b506104ca6102325481565b348015610a9857600080fd5b506104ca600081565b348015610aad57600080fd5b50610552610abc366004614112565b612080565b348015610acd57600080fd5b50610552610adc3660046141f9565b61208b565b348015610aed57600080fd5b506104ca610afc366004613d6e565b61215b565b348015610b0d57600080fd5b506104ed612210565b348015610b2257600080fd5b506102385461051a906001600160a01b031681565b348015610b4357600080fd5b5061022f5461046c9062010000900460ff1681565b348015610b6457600080fd5b50610552610b73366004614280565b61221e565b348015610b8457600080fd5b506104ca612250565b348015610b9957600080fd5b5061051a610ba8366004613dee565b612270565b348015610bb957600080fd5b506104ca6102335481565b348015610bd057600080fd5b506104ed610bdf366004613dee565b61227b565b348015610bf057600080fd5b506104ca610bff366004613dee565b612378565b348015610c1057600080fd5b506104ca6102365481565b348015610c2757600080fd5b5061022f5461046c906301000000900460ff1681565b348015610c4957600080fd5b506104ca7f9f2df0fed2c77648de5860a4cc508cd0818c85b8b8a1ab4ceeef8d981c8956a681565b348015610c7d57600080fd5b50610552610c8c366004614150565b61238f565b348015610c9d57600080fd5b50610552610cac366004613dee565b6123b4565b348015610cbd57600080fd5b506104ca60008051602061490683398151915281565b348015610cdf57600080fd5b506104ca61022e5481565b348015610cf657600080fd5b5061046c610d053660046142ff565b6001600160a01b03918216600090815260ce6020908152604080832093909416825291909152205460ff1690565b348015610d3f57600080fd5b5061055261256f565b348015610d5457600080fd5b50610552610d63366004613d6e565b612587565b348015610d7457600080fd5b506104ca61022b5481565b348015610d8b57600080fd5b506104ca61022c5481565b6000610da1826125fd565b92915050565b606060c98054610db69061432d565b80601f0160208091040260200160405190810160405280929190818152602001828054610de29061432d565b8015610e2f5780601f10610e0457610100808354040283529160200191610e2f565b820191906000526020600020905b815481529060010190602001808311610e1257829003601f168201915b5050505050905090565b6000610e4482612608565b50600090815260cd60205260409020546001600160a01b031690565b6000610e6b82611a1f565b9050806001600160a01b0316836001600160a01b031603610edd5760405162461bcd60e51b815260206004820152602160248201527f4552433732313a20617070726f76616c20746f2063757272656e74206f776e656044820152603960f91b60648201526084015b60405180910390fd5b336001600160a01b0382161480610ef95750610ef98133610d05565b610f6b5760405162461bcd60e51b815260206004820152603d60248201527f4552433732313a20617070726f76652063616c6c6572206973206e6f7420746f60448201527f6b656e206f776e6572206f7220617070726f76656420666f7220616c6c0000006064820152608401610ed4565b610f758383612667565b505050565b600061022b54600003610f8e575060001990565b6102275461022b54610fa1906001614377565b610fab919061438a565b905090565b600054610100900460ff1615808015610fd05750600054600160ff909116105b80610fea5750303b158015610fea575060005460ff166001145b6110065760405162461bcd60e51b8152600401610ed49061439d565b6000805460ff191660011790558015611029576000805461ff0019166101001790555b6110338c8c6126d5565b61103b612706565b6110448d612587565b6102286110518b82614439565b5061022a61105f8a82614439565b5061022b88905561022c87905561022d86905561023980546001600160a01b0319166001600160a01b03871617905561022e8490556102338390556102348290556102278054600101905580156110f0576000805461ff0019169055604051600181527f7f26b83ff96e1f2b6a682f133852f6798a09c465da95921460cefb38474024989060200160405180910390a15b50505050505050505050505050565b6000611109612735565b6111555760405162461bcd60e51b815260206004820152601d60248201527f4e6565647320746f20626520616e20616c6c6f776564206d696e7465720000006044820152606401610ed4565b610da1826127a6565b61023c818154811061116f57600080fd5b600091825260209091200154905081565b61118b335b8261288a565b6111a75760405162461bcd60e51b8152600401610ed4906144f8565b610f75838383612908565b6111ba612a79565b6001600160a01b038216600090815261023e60205260409020805460ff19168215151790556111e761256f565b42610230819055604080516001600160a01b038516815260208101929092527f7618c8e7673fd316d308182b29784aad6b915e32612c6b9d67f50ef4e1b7d6e4910160405180910390a15050565b60008281526065602052604090206001015461125081612ad8565b610f758383612ae2565b600061126583611eda565b82106112c75760405162461bcd60e51b815260206004820152602b60248201527f455243373231456e756d657261626c653a206f776e657220696e646578206f7560448201526a74206f6620626f756e647360a81b6064820152608401610ed4565b506001600160a01b0391909116600090815260fb60209081526040808320938352929052205490565b6001600160a01b03811633146113605760405162461bcd60e51b815260206004820152602f60248201527f416363657373436f6e74726f6c3a2063616e206f6e6c792072656e6f756e636560448201526e103937b632b9903337b91039b2b63360891b6064820152608401610ed4565b61136a8282612b04565b5050565b610229805461137c9061432d565b80601f01602080910402602001604051908101604052809291908181526020018280546113a89061432d565b80156113f55780601f106113ca576101008083540402835291602001916113f5565b820191906000526020600020905b8154815290600101906020018083116113d857829003601f168201915b505050505081565b61141560008051602061490683398151915233612046565b611489576040805162461bcd60e51b81526020600482015260248101919091527f4552433732315072657365744d696e7465725061757365724175746f49643a2060448201527f6d75737420686176652070617573657220726f6c6520746f20756e70617573656064820152608401610ed4565b611491612b26565b565b610f758383836040518060200160405280600081525061221e565b6114b733611185565b6114d35760405162461bcd60e51b8152600401610ed4906144f8565b6114dc81612b79565b50565b60606000610232546001600160401b038111156114fe576114fe613e33565b60405190808252806020026020018201604052801561155c57816020015b611549604051806060016040528060006001600160a01b0316815260200160008152602001600081525090565b81526020019060019003908161151c5790505b50905060005b610232548110156115f65761023a818154811061158157611581614545565b600091825260209182902060408051606081018252600390930290910180546001600160a01b031683526001810154938301939093526002909201549181019190915282518390839081106115d8576115d8614545565b602002602001018190525080806115ee9061455b565b915050611562565b50919050565b600061160760fd5490565b821061166a5760405162461bcd60e51b815260206004820152602c60248201527f455243373231456e756d657261626c653a20676c6f62616c20696e646578206f60448201526b7574206f6620626f756e647360a01b6064820152608401610ed4565b60fd828154811061167d5761167d614545565b90600052602060002001549050919050565b60008061023654116116f15760405162461bcd60e51b815260206004820152602560248201527f47656e65726174652070726f7661626c652072616e646f6d206e756d62657220604482015264199a5c9cdd60da1b6064820152608401610ed4565b336000908152610240602052604090205460ff1661178e5760405162461bcd60e51b815260206004820152604e60248201527f55736572206973206e6f7420612061637469766520706c617965722e204f6e6c60448201527f7920612072656769737465726564207469636b657420686f6c6465722063616e60648201526d2073746172742064726177696e6760901b608482015260a401610ed4565b610235805490600061179f8361455b565b909155505060fd546102365443906117b860018361438a565b6040805160208101949094528301919091524060608201526080016040516020818303038152906040528051906020012060001c6117f6919061458a565b61023781905560009061180890612270565b90506000606461181947605a61459e565b61182391906145bd565b61023880546001600160a01b0319166001600160a01b0385169081179091556102375460408051928352602083019190915281018290529091507f7e57d825a2478cc8123a008d7d1e20c0f6e8cbca89a7bc100c9b05ecb3698deb9060600160405180910390a161022f805461ffff191661010017905560408051808201825261023880546001600160a01b039081168352610237546020840190815261023b80546001810182556000918252855160029091027f0600b8b9e235c0286c80de9e8be71551570e43a53c2a3d98242cd198b372fe3d810180549286166001600160a01b03199093169290921790915591517f0600b8b9e235c0286c80de9e8be71551570e43a53c2a3d98242cd198b372fe3e90920191909155915493519293169184156108fc0291859190818181858888f1935050505015801561196b573d6000803e3d6000fd5b50611974612c1c565b5050426102315550506102375490565b61023580549060006119958361455b565b909155505033600090815261023f602052604090205461023354610234546119c09284929091612d52565b6119fc5760405162461bcd60e51b815260206004820152600d60248201526c24b73b30b634b210383937b7b360991b6044820152606401610ed4565b61023681905580156114dc5761022f805463ff0000001916630100000017905550565b600081815260cb60205260408120546001600160a01b031680610da15760405162461bcd60e51b8152602060048201526018602482015277115490cdcc8c4e881a5b9d985b1a59081d1bdad95b88125160421b6044820152606401610ed4565b61023b8181548110611a9057600080fd5b6000918252602090912060029091020180546001909101546001600160a01b03909116915082565b600061022e54611ac733611eda565b10611b3a5760405162461bcd60e51b815260206004820152603760248201527f596f752068617665207265616368656420746865206d6178696d756d20746f6b60448201527f656e7320616c6c6f7765642070657220616464726573730000000000000000006064820152608401610ed4565b61022f5460ff16611baa5760405162461bcd60e51b815260206004820152603460248201527f526166666c6520686173206e6f7420737461727465642e204f776e6572206d7560448201527339ba1039b2ba20b8383937bb32b226b4b73a32b960611b6064820152608401610ed4565b61022c543414611bef5760405162461bcd60e51b815260206004820152601060248201526f4e6f20736f757020666f7220796f752160801b6044820152606401610ed4565b604080516001808252818301909252600091602080830190803683370190505090503381600081518110611c2557611c25614545565b6001600160a01b0390921660209283029190910182015233600090815261023d90915260408120805460ff19166001179055610235805491611c668361455b565b9190505550611c73612dc0565b506102328054906000611c858361455b565b9091555050336000818152610240602090815260408083208054600160ff199091168117909155610232805461023c80548085019091557f59356094290b6e36473d81d969d2f72d0a13d4ebc145ec33a8a22a532dcc409b0181905583516060810185529687529386019384524292860183815261023a8054938401815590955285517f31b0701dd73f2f7d8439d1d7d08f820103a082da2407fe1bbcaeea1996f2b655600390930292830180546001600160a01b0319166001600160a01b0390921691909117905592517f31b0701dd73f2f7d8439d1d7d08f820103a082da2407fe1bbcaeea1996f2b65682015592517f31b0701dd73f2f7d8439d1d7d08f820103a082da2407fe1bbcaeea1996f2b6579093019290925561022b54905491929103611dbf5761022f805462ff00ff1916620100001790555b61022c546102325460408051928352336020840152820152606081018390527f5c05e149773613d59c93e2584c4cbc9ca960d58add53b646b126f27a345eaeab9060800160405180910390a1611e14836127a6565b935050505090565b611e467f9f2df0fed2c77648de5860a4cc508cd0818c85b8b8a1ab4ceeef8d981c8956a633612046565b611eb85760405162461bcd60e51b815260206004820152603d60248201527f4552433732315072657365744d696e7465725061757365724175746f49643a2060448201527f6d7573742068617665206d696e74657220726f6c6520746f206d696e740000006064820152608401610ed4565b611ecb81611ec66101c35490565b612e46565b6114dc6101c380546001019055565b60006001600160a01b038216611f445760405162461bcd60e51b815260206004820152602960248201527f4552433732313a2061646472657373207a65726f206973206e6f7420612076616044820152683634b21037bbb732b960b91b6064820152608401610ed4565b506001600160a01b0316600090815260cc602052604090205490565b611f68612a79565b6114916000612fdf565b610228805461137c9061432d565b611f9860008051602061490683398151915233612046565b61200a5760405162461bcd60e51b815260206004820152603e60248201527f4552433732315072657365744d696e7465725061757365724175746f49643a2060448201527f6d75737420686176652070617573657220726f6c6520746f20706175736500006064820152608401610ed4565b611491613032565b6000610fab6101f5546001600160a01b031690565b600082815260976020526040812061203f9083613070565b9392505050565b60009182526065602090815260408084206001600160a01b0393909316845291905290205460ff1690565b606060ca8054610db69061432d565b61136a33838361307c565b600054610100900460ff16158080156120ab5750600054600160ff909116105b806120c55750303b1580156120c5575060005460ff166001145b6120e15760405162461bcd60e51b8152600401610ed49061439d565b6000805460ff191660011790558015612104576000805461ff0019166101001790555b61210f84848461314a565b8015612155576000805461ff0019169055604051600181527f7f26b83ff96e1f2b6a682f133852f6798a09c465da95921460cefb38474024989060200160405180910390a15b50505050565b6000612165612735565b6121b15760405162461bcd60e51b815260206004820152601d60248201527f4e6565647320746f20626520616e20616c6c6f776564206d696e7465720000006044820152606401610ed4565b6040805160018082528183019092526000916020808301908036833701905050905082816000815181106121e7576121e7614545565b60200260200101906001600160a01b031690816001600160a01b03168152505061203f816127a6565b61022a805461137c9061432d565b612228338361288a565b6122445760405162461bcd60e51b8152600401610ed4906144f8565b6121558484848461318e565b600047600a61226082600961459e565b61226a91906145bd565b91505090565b6000610da182611a1f565b600081815260cb60205260409020546060906001600160a01b03166122cd5760405162461bcd60e51b81526020600482015260086024820152672737903a37b5b2b760c11b6044820152606401610ed4565b7f00000000000000000000000000000000000000000000000000000000000000006001600160a01b031663df30dba0612304610da7565b61022861022a6102298761022b546040518763ffffffff1660e01b81526004016123339695949392919061464e565b600060405180830381865afa158015612350573d6000803e3d6000fd5b505050506040513d6000823e601f3d908101601f19168201604052610da191908101906146b1565b6000818152609760205260408120610da1906131c1565b6000828152606560205260409020600101546123aa81612ad8565b610f758383612b04565b60006123bf82611a1f565b9050336001600160a01b038216146124375760405162461bcd60e51b815260206004820152603560248201527f4f6e6c7920746865206f776e6572206f66207468697320746f6b656e2063616e604482015274207769746864726177207468652062616c616e636560581b6064820152608401610ed4565b61022f54610100900460ff1661249f5760405162461bcd60e51b815260206004820152602760248201527f54686520636f6e747261637420686173206e6f2062616c616e636520746f20776044820152666974686472617760c81b6064820152608401610ed4565b600060646124ae47605a61459e565b6124b891906145bd565b90506000826001600160a01b03168260405160006040518083038185875af1925050503d8060008114612507576040519150601f19603f3d011682016040523d82523d6000602084013e61250c565b606091505b505061022f805464ff000000001916640100000000179055905061252e612c1c565b806121555760405162461bcd60e51b815260206004820152601160248201527015da5d1a191c985dd85b0819985a5b1959607a1b6044820152606401610ed4565b612577612a79565b61022f805460ff19166001179055565b61258f612a79565b6001600160a01b0381166125f45760405162461bcd60e51b815260206004820152602660248201527f4f776e61626c653a206e6577206f776e657220697320746865207a65726f206160448201526564647265737360d01b6064820152608401610ed4565b6114dc81612fdf565b6000610da1826131cb565b600081815260cb60205260409020546001600160a01b03166114dc5760405162461bcd60e51b8152602060048201526018602482015277115490cdcc8c4e881a5b9d985b1a59081d1bdad95b88125160421b6044820152606401610ed4565b600081815260cd6020526040902080546001600160a01b0319166001600160a01b038416908117909155819061269c82611a1f565b6001600160a01b03167f8c5be1e5ebec7d5bd14f71427d1e84f3dd0314c0f7b2291e5b200ac8c7c3b92560405160405180910390a45050565b600054610100900460ff166126fc5760405162461bcd60e51b8152600401610ed490614727565b61136a82826131f0565b600054610100900460ff1661272d5760405162461bcd60e51b8152600401610ed490614727565b611491613230565b600033612740612012565b6001600160a01b0316036127545750600190565b6000805261023e6020527fb6a573486ec477beddebff0060b478b294d9847e3d69bfe56920c549d2b284885460ff161561278e5750600190565b5033600090815261023e602052604090205460ff1690565b6000806127b36102275490565b9050600060018451836127c69190614377565b6127d0919061438a565b905061022b54600014806127e7575061022b548111155b61281e5760405162461bcd60e51b815260206004820152600860248201526714dbdb19081bdd5d60c21b6044820152606401610ed4565b806128296102275490565b1161287d57612869848361283d6102275490565b612847919061438a565b8151811061285757612857614545565b6020026020010151611ec66102275490565b61287861022780546001019055565b61281e565b610227545b949350505050565b60008061289683611a1f565b9050806001600160a01b0316846001600160a01b031614806128dd57506001600160a01b03808216600090815260ce602090815260408083209388168352929052205460ff165b806128825750836001600160a01b03166128f684610e39565b6001600160a01b031614949350505050565b826001600160a01b031661291b82611a1f565b6001600160a01b0316146129415760405162461bcd60e51b8152600401610ed490614772565b6001600160a01b0382166129a35760405162461bcd60e51b8152602060048201526024808201527f4552433732313a207472616e7366657220746f20746865207a65726f206164646044820152637265737360e01b6064820152608401610ed4565b6129b08383836001613260565b826001600160a01b03166129c382611a1f565b6001600160a01b0316146129e95760405162461bcd60e51b8152600401610ed490614772565b600081815260cd6020908152604080832080546001600160a01b03199081169091556001600160a01b0387811680865260cc855283862080546000190190559087168086528386208054600101905586865260cb90945282852080549092168417909155905184937fddf252ad1be2c89b69c2b068fc378daa952ba7f163c4a11628f55a4df523b3ef91a4505050565b33612a82612012565b6001600160a01b0316146114915760405162461bcd60e51b815260206004820181905260248201527f4f776e61626c653a2063616c6c6572206973206e6f7420746865206f776e65726044820152606401610ed4565b6114dc813361326c565b612aec82826132c5565b6000828152609760205260409020610f75908261334b565b612b0e8282613360565b6000828152609760205260409020610f7590826133c7565b612b2e6133dc565b61015f805460ff191690557f5db9ee0a495bf2e6ff9c91a7834c1ba4fdd244a5e8aa4e537bd38aeae4b073aa335b6040516001600160a01b03909116815260200160405180910390a1565b6000612b8482611a1f565b9050612b94816000846001613260565b612b9d82611a1f565b600083815260cd6020908152604080832080546001600160a01b03199081169091556001600160a01b03851680855260cc8452828520805460001901905587855260cb909352818420805490911690555192935084927fddf252ad1be2c89b69c2b068fc378daa952ba7f163c4a11628f55a4df523b3ef908390a45050565b60006064612c2b47600a61459e565b612c3591906145bd565b61022f5490915062010000900460ff16612cb9576040805162461bcd60e51b81526020600482015260248101919091527f526166666c652073616c65206d75737420626520636f6d706c6574652062656660448201527f6f72652077697468647261772066756e6374696f6e20697320656e61626c65646064820152608401610ed4565b60008111612d175760405162461bcd60e51b815260206004820152602560248201527f436f6e7472616374204120686173206e6f2062616c616e636520746f20776974604482015264686472617760d81b6064820152608401610ed4565b610239546040516001600160a01b039091169082156108fc029083906000818181858888f1935050505015801561136a573d6000803e3d6000fd5b6000805b82811015612d81578380612d6c57612d6c614574565b8687099550612d7a8161455b565b9050612d56565b50612d8c838561458a565b9350848403612d9d57506001612882565b84612da8858561438a565b03612db557506001612882565b506000949350505050565b610235805460009182612dd28361455b565b909155505061023254339042612de960014361438a565b60405160609490941b6bffffffffffffffffffffffff191660208501526034840192909252605483015240607482015260940160408051601f19818403018152918152815160209283012033600090815261023f90935291205590565b6001600160a01b038216612e9c5760405162461bcd60e51b815260206004820181905260248201527f4552433732313a206d696e7420746f20746865207a65726f20616464726573736044820152606401610ed4565b600081815260cb60205260409020546001600160a01b031615612f015760405162461bcd60e51b815260206004820152601c60248201527f4552433732313a20746f6b656e20616c7265616479206d696e746564000000006044820152606401610ed4565b612f0f600083836001613260565b600081815260cb60205260409020546001600160a01b031615612f745760405162461bcd60e51b815260206004820152601c60248201527f4552433732313a20746f6b656e20616c7265616479206d696e746564000000006044820152606401610ed4565b6001600160a01b038216600081815260cc602090815260408083208054600101905584835260cb90915280822080546001600160a01b0319168417905551839291907fddf252ad1be2c89b69c2b068fc378daa952ba7f163c4a11628f55a4df523b3ef908290a45050565b6101f580546001600160a01b038381166001600160a01b0319831681179093556040519116919082907f8be0079c531659141344cd1fd0a4f28419497f9722a3daafe3b4186f6b6457e090600090a35050565b61303a613426565b61015f805460ff191660011790557f62e78cea01bee320cd4e420270b5ea74000d11b0c9f74754ebdbfc544b05a258612b5c3390565b600061203f838361346d565b816001600160a01b0316836001600160a01b0316036130dd5760405162461bcd60e51b815260206004820152601960248201527f4552433732313a20617070726f766520746f2063616c6c6572000000000000006044820152606401610ed4565b6001600160a01b03838116600081815260ce6020908152604080832094871680845294825291829020805460ff191686151590811790915591519182527f17307eab39ab6107e8899845ad3d59bd9653f200f220920489ca2b5937696c31910160405180910390a3505050565b600054610100900460ff166131715760405162461bcd60e51b8152600401610ed490614727565b61317b83836131f0565b613183613497565b610f758383836134cb565b613199848484612908565b6131a58484848461354d565b6121555760405162461bcd60e51b8152600401610ed4906147b7565b6000610da1825490565b60006001600160e01b0319821663780e9d6360e01b1480610da15750610da18261364b565b600054610100900460ff166132175760405162461bcd60e51b8152600401610ed490614727565b60c96132238382614439565b5060ca610f758282614439565b600054610100900460ff166132575760405162461bcd60e51b8152600401610ed490614727565b61149133612fdf565b6121558484848461368b565b6132768282612046565b61136a57613283816136ff565b61328e836020613711565b60405160200161329f929190614809565b60408051601f198184030181529082905262461bcd60e51b8252610ed491600401613ddb565b6132cf8282612046565b61136a5760008281526065602090815260408083206001600160a01b03851684529091529020805460ff191660011790556133073390565b6001600160a01b0316816001600160a01b0316837f2f8788117e7eff1d82e926ec794901d17c78024a50270940304540a733656f0d60405160405180910390a45050565b600061203f836001600160a01b0384166138ac565b61336a8282612046565b1561136a5760008281526065602090815260408083206001600160a01b0385168085529252808320805460ff1916905551339285917ff6391f5c32d9c69d2a47ea670b442974b53935d1edc7fd64eb21e047a839171b9190a45050565b600061203f836001600160a01b0384166138fb565b61015f5460ff166114915760405162461bcd60e51b815260206004820152601460248201527314185d5cd8589b194e881b9bdd081c185d5cd95960621b6044820152606401610ed4565b61015f5460ff16156114915760405162461bcd60e51b815260206004820152601060248201526f14185d5cd8589b194e881c185d5cd95960821b6044820152606401610ed4565b600082600001828154811061348457613484614545565b9060005260206000200154905092915050565b600054610100900460ff166134be5760405162461bcd60e51b8152600401610ed490614727565b61015f805460ff19169055565b600054610100900460ff166134f25760405162461bcd60e51b8152600401610ed490614727565b6101c46134ff8282614439565b5061350b6000336139ee565b6135357f9f2df0fed2c77648de5860a4cc508cd0818c85b8b8a1ab4ceeef8d981c8956a6336139ee565b610f75600080516020614906833981519152336139ee565b60006001600160a01b0384163b1561364357604051630a85bd0160e11b81526001600160a01b0385169063150b7a029061359190339089908890889060040161487e565b6020604051808303816000875af19250505080156135cc575060408051601f3d908101601f191682019092526135c9918101906148bb565b60015b613629573d8080156135fa576040519150601f19603f3d011682016040523d82523d6000602084013e6135ff565b606091505b5080516000036136215760405162461bcd60e51b8152600401610ed4906147b7565b805181602001fd5b6001600160e01b031916630a85bd0160e11b149050612882565b506001612882565b60006001600160e01b031982166380ac58cd60e01b148061367c57506001600160e01b03198216635b5e139f60e01b145b80610da15750610da1826139f8565b61369784848484613a1d565b61015f5460ff16156121555760405162461bcd60e51b815260206004820152602b60248201527f4552433732315061757361626c653a20746f6b656e207472616e73666572207760448201526a1a1a5b19481c185d5cd95960aa1b6064820152608401610ed4565b6060610da16001600160a01b03831660145b6060600061372083600261459e565b61372b906002614377565b6001600160401b0381111561374257613742613e33565b6040519080825280601f01601f19166020018201604052801561376c576020820181803683370190505b509050600360fc1b8160008151811061378757613787614545565b60200101906001600160f81b031916908160001a905350600f60fb1b816001815181106137b6576137b6614545565b60200101906001600160f81b031916908160001a90535060006137da84600261459e565b6137e5906001614377565b90505b600181111561385d576f181899199a1a9b1b9c1cb0b131b232b360811b85600f166010811061381957613819614545565b1a60f81b82828151811061382f5761382f614545565b60200101906001600160f81b031916908160001a90535060049490941c93613856816148d8565b90506137e8565b50831561203f5760405162461bcd60e51b815260206004820181905260248201527f537472696e67733a20686578206c656e67746820696e73756666696369656e746044820152606401610ed4565b60008181526001830160205260408120546138f357508154600181810184556000848152602080822090930184905584548482528286019093526040902091909155610da1565b506000610da1565b600081815260018301602052604081205480156139e457600061391f60018361438a565b85549091506000906139339060019061438a565b905081811461399857600086600001828154811061395357613953614545565b906000526020600020015490508087600001848154811061397657613976614545565b6000918252602080832090910192909255918252600188019052604090208390555b85548690806139a9576139a96148ef565b600190038181906000526020600020016000905590558560010160008681526020019081526020016000206000905560019350505050610da1565b6000915050610da1565b61136a8282612ae2565b60006001600160e01b03198216635a05180f60e01b1480610da15750610da182613b51565b6001811115613a8c5760405162461bcd60e51b815260206004820152603560248201527f455243373231456e756d657261626c653a20636f6e7365637574697665207472604482015274185b9cd9995c9cc81b9bdd081cdd5c1c1bdc9d1959605a1b6064820152608401610ed4565b816001600160a01b038516613ae857613ae38160fd8054600083815260fe60205260408120829055600182018355919091527f9346ac6dd7de6b96975fec380d4d994c4c12e6a8897544f22915316cc6cca2800155565b613b0b565b836001600160a01b0316856001600160a01b031614613b0b57613b0b8582613b86565b6001600160a01b038416613b2757613b2281613c23565b613b4a565b846001600160a01b0316846001600160a01b031614613b4a57613b4a8482613cd2565b5050505050565b60006001600160e01b03198216637965db0b60e01b1480610da157506301ffc9a760e01b6001600160e01b0319831614610da1565b60006001613b9384611eda565b613b9d919061438a565b600083815260fc6020526040902054909150808214613bf0576001600160a01b038416600090815260fb60209081526040808320858452825280832054848452818420819055835260fc90915290208190555b50600091825260fc602090815260408084208490556001600160a01b03909416835260fb81528383209183525290812055565b60fd54600090613c359060019061438a565b600083815260fe602052604081205460fd8054939450909284908110613c5d57613c5d614545565b906000526020600020015490508060fd8381548110613c7e57613c7e614545565b600091825260208083209091019290925582815260fe909152604080822084905585825281205560fd805480613cb657613cb66148ef565b6001900381819060005260206000200160009055905550505050565b6000613cdd83611eda565b6001600160a01b03909316600090815260fb60209081526040808320868452825280832085905593825260fc9052919091209190915550565b6001600160e01b0319811681146114dc57600080fd5b600060208284031215613d3e57600080fd5b813561203f81613d16565b6001600160a01b03811681146114dc57600080fd5b8035613d6981613d49565b919050565b600060208284031215613d8057600080fd5b813561203f81613d49565b60005b83811015613da6578181015183820152602001613d8e565b50506000910152565b60008151808452613dc7816020860160208601613d8b565b601f01601f19169290920160200192915050565b60208152600061203f6020830184613daf565b600060208284031215613e0057600080fd5b5035919050565b60008060408385031215613e1a57600080fd5b8235613e2581613d49565b946020939093013593505050565b634e487b7160e01b600052604160045260246000fd5b604051601f8201601f191681016001600160401b0381118282101715613e7157613e71613e33565b604052919050565b60006001600160401b03821115613e9257613e92613e33565b50601f01601f191660200190565b6000613eb3613eae84613e79565b613e49565b9050828152838383011115613ec757600080fd5b828260208301376000602084830101529392505050565b600082601f830112613eef57600080fd5b61203f83833560208501613ea0565b6000806000806000806000806000806000806101808d8f031215613f2157600080fd5b613f2a8d613d5e565b9b506001600160401b0360208e01351115613f4457600080fd5b613f548e60208f01358f01613ede565b9a506001600160401b0360408e01351115613f6e57600080fd5b613f7e8e60408f01358f01613ede565b99506001600160401b0360608e01351115613f9857600080fd5b613fa88e60608f01358f01613ede565b98506001600160401b0360808e01351115613fc257600080fd5b613fd28e60808f01358f01613ede565b975060a08d0135965060c08d0135955060e08d01359450613ff66101008e01613d5e565b93506101208d013592506101408d013591506101608d013590509295989b509295989b509295989b565b6000602080838503121561403357600080fd5b82356001600160401b038082111561404a57600080fd5b818501915085601f83011261405e57600080fd5b81358181111561407057614070613e33565b8060051b9150614081848301613e49565b818152918301840191848101908884111561409b57600080fd5b938501935b838510156140c557843592506140b583613d49565b82825293850193908501906140a0565b98975050505050505050565b6000806000606084860312156140e657600080fd5b83356140f181613d49565b9250602084013561410181613d49565b929592945050506040919091013590565b6000806040838503121561412557600080fd5b823561413081613d49565b91506020830135801515811461414557600080fd5b809150509250929050565b6000806040838503121561416357600080fd5b82359150602083013561414581613d49565b602080825282518282018190526000919060409081850190868401855b828110156141ca57815180516001600160a01b0316855286810151878601528501518585015260609093019290850190600101614192565b5091979650505050505050565b600080604083850312156141ea57600080fd5b50508035926020909101359150565b60008060006060848603121561420e57600080fd5b83356001600160401b038082111561422557600080fd5b61423187838801613ede565b9450602086013591508082111561424757600080fd5b61425387838801613ede565b9350604086013591508082111561426957600080fd5b5061427686828701613ede565b9150509250925092565b6000806000806080858703121561429657600080fd5b84356142a181613d49565b935060208501356142b181613d49565b92506040850135915060608501356001600160401b038111156142d357600080fd5b8501601f810187136142e457600080fd5b6142f387823560208401613ea0565b91505092959194509250565b6000806040838503121561431257600080fd5b823561431d81613d49565b9150602083013561414581613d49565b600181811c9082168061434157607f821691505b6020821081036115f657634e487b7160e01b600052602260045260246000fd5b634e487b7160e01b600052601160045260246000fd5b80820180821115610da157610da1614361565b81810381811115610da157610da1614361565b6020808252602e908201527f496e697469616c697a61626c653a20636f6e747261637420697320616c72656160408201526d191e481a5b9a5d1a585b1a5e995960921b606082015260800190565b601f821115610f7557600081815260208120601f850160051c810160208610156144125750805b601f850160051c820191505b818110156144315782815560010161441e565b505050505050565b81516001600160401b0381111561445257614452613e33565b61446681614460845461432d565b846143eb565b602080601f83116001811461449b57600084156144835750858301515b600019600386901b1c1916600185901b178555614431565b600085815260208120601f198616915b828110156144ca578886015182559484019460019091019084016144ab565b50858210156144e85787850151600019600388901b60f8161c191681555b5050505050600190811b01905550565b6020808252602d908201527f4552433732313a2063616c6c6572206973206e6f7420746f6b656e206f776e6560408201526c1c881bdc88185c1c1c9bdd9959609a1b606082015260800190565b634e487b7160e01b600052603260045260246000fd5b60006001820161456d5761456d614361565b5060010190565b634e487b7160e01b600052601260045260246000fd5b60008261459957614599614574565b500690565b60008160001904831182151516156145b8576145b8614361565b500290565b6000826145cc576145cc614574565b500490565b600081546145de8161432d565b8085526020600183811680156145fb576001811461461557614643565b60ff1985168884015283151560051b880183019550614643565b866000528260002060005b8581101561463b5781548a8201860152908301908401614620565b890184019650505b505050505092915050565b60c08152600061466160c0830189613daf565b828103602084015261467381896145d1565b9050828103604084015261468781886145d1565b9050828103606084015261469b81876145d1565b6080840195909552505060a00152949350505050565b6000602082840312156146c357600080fd5b81516001600160401b038111156146d957600080fd5b8201601f810184136146ea57600080fd5b80516146f8613eae82613e79565b81815285602083850101111561470d57600080fd5b61471e826020830160208601613d8b565b95945050505050565b6020808252602b908201527f496e697469616c697a61626c653a20636f6e7472616374206973206e6f74206960408201526a6e697469616c697a696e6760a81b606082015260800190565b60208082526025908201527f4552433732313a207472616e736665722066726f6d20696e636f72726563742060408201526437bbb732b960d91b606082015260800190565b60208082526032908201527f4552433732313a207472616e7366657220746f206e6f6e20455243373231526560408201527131b2b4bb32b91034b6b83632b6b2b73a32b960711b606082015260800190565b7f416363657373436f6e74726f6c3a206163636f756e7420000000000000000000815260008351614841816017850160208801613d8b565b7001034b99036b4b9b9b4b733903937b6329607d1b6017918401918201528351614872816028840160208801613d8b565b01602801949350505050565b6001600160a01b03858116825284166020820152604081018390526080606082018190526000906148b190830184613daf565b9695505050505050565b6000602082840312156148cd57600080fd5b815161203f81613d16565b6000816148e7576148e7614361565b506000190190565b634e487b7160e01b600052603160045260246000fdfe65d7a28e3265b37a6474929f336521b332c1681b933f6cb9f3376673440d862aa2646970667358221220c8e14969c0c8ccb9eb8ed95b05540bec4e50d73b418ab6a7b18de06ad08fdfef64736f6c63430008100033",
  "devdoc": {
    "kind": "dev",
    "methods": {
      "approve(address,uint256)": {
        "details": "See {IERC721-approve}."
      },
      "balanceOf(address)": {
        "details": "See {IERC721-balanceOf}."
      },
      "burn(uint256)": {
        "details": "Burns `tokenId`. See {ERC721-_burn}. Requirements: - The caller must own `tokenId` or be an approved operator."
      },
      "getApproved(uint256)": {
        "details": "See {IERC721-getApproved}."
      },
      "getBalance()": {
        "details": "returns the number of minted tokens within the edition"
      },
      "getRoleAdmin(bytes32)": {
        "details": "Returns the admin role that controls `role`. See {grantRole} and {revokeRole}. To change a role's admin, use {_setRoleAdmin}."
      },
      "getRoleMember(bytes32,uint256)": {
        "details": "Returns one of the accounts that have `role`. `index` must be a value between 0 and {getRoleMemberCount}, non-inclusive. Role bearers are not sorted in any particular way, and their ordering may change at any point. WARNING: When using {getRoleMember} and {getRoleMemberCount}, make sure you perform all queries on the same block. See the following https://forum.openzeppelin.com/t/iterating-over-elements-on-enumerableset-in-openzeppelin-contracts/2296[forum post] for more information."
      },
      "getRoleMemberCount(bytes32)": {
        "details": "Returns the number of accounts that have `role`. Can be used together with {getRoleMember} to enumerate all bearers of a role."
      },
      "grantRole(bytes32,address)": {
        "details": "Grants `role` to `account`. If `account` had not been already granted `role`, emits a {RoleGranted} event. Requirements: - the caller must have ``role``'s admin role. May emit a {RoleGranted} event."
      },
      "hasRole(bytes32,address)": {
        "details": "Returns `true` if `account` has been granted `role`."
      },
      "isApprovedForAll(address,address)": {
        "details": "See {IERC721-isApprovedForAll}."
      },
      "mint(address)": {
        "details": "Creates a new token for `to`. Its token ID will be automatically assigned (and available on the emitted {IERC721-Transfer} event), and the token URI autogenerated based on the base URI passed at construction. See {ERC721-_mint}. Requirements: - the caller must have the `MINTER_ROLE`."
      },
      "name()": {
        "details": "See {IERC721Metadata-name}."
      },
      "ownerOf(uint256)": {
        "details": "See {IERC721-ownerOf}."
      },
      "pause()": {
        "details": "Pauses all token transfers. See {ERC721Pausable} and {Pausable-_pause}. Requirements: - the caller must have the `PAUSER_ROLE`."
      },
      "paused()": {
        "details": "Returns true if the contract is paused, and false otherwise."
      },
      "renounceOwnership()": {
        "details": "Leaves the contract without owner. It will not be possible to call `onlyOwner` functions anymore. Can only be called by the current owner. NOTE: Renouncing ownership will leave the contract without an owner, thereby removing any functionality that is only available to the owner."
      },
      "renounceRole(bytes32,address)": {
        "details": "Revokes `role` from the calling account. Roles are often managed via {grantRole} and {revokeRole}: this function's purpose is to provide a mechanism for accounts to lose their privileges if they are compromised (such as when a trusted device is misplaced). If the calling account had been revoked `role`, emits a {RoleRevoked} event. Requirements: - the caller must be `account`. May emit a {RoleRevoked} event."
      },
      "revokeRole(bytes32,address)": {
        "details": "Revokes `role` from `account`. If `account` had been granted `role`, emits a {RoleRevoked} event. Requirements: - the caller must have ``role``'s admin role. May emit a {RoleRevoked} event."
      },
      "safeTransferFrom(address,address,uint256)": {
        "details": "See {IERC721-safeTransferFrom}."
      },
      "safeTransferFrom(address,address,uint256,bytes)": {
        "details": "See {IERC721-safeTransferFrom}."
      },
      "setApprovalForAll(address,bool)": {
        "details": "See {IERC721-setApprovalForAll}."
      },
      "supportsInterface(bytes4)": {
        "details": "See {IERC165-supportsInterface}."
      },
      "symbol()": {
        "details": "See {IERC721Metadata-symbol}."
      },
      "tokenByIndex(uint256)": {
        "details": "See {IERC721Enumerable-tokenByIndex}."
      },
      "tokenOfOwnerByIndex(address,uint256)": {
        "details": "See {IERC721Enumerable-tokenOfOwnerByIndex}."
      },
      "tokenURI(uint256)": {
        "details": "See {IERC721Metadata-tokenURI}."
      },
      "totalSupply()": {
        "details": "See {IERC721Enumerable-totalSupply}."
      },
      "transferFrom(address,address,uint256)": {
        "details": "See {IERC721-transferFrom}."
      },
      "transferOwnership(address)": {
        "details": "Transfers ownership of the contract to a new account (`newOwner`). Can only be called by the current owner."
      },
      "unpause()": {
        "details": "Unpauses all token transfers. See {ERC721Pausable} and {Pausable-_unpause}. Requirements: - the caller must have the `PAUSER_ROLE`."
      }
    },
    "version": 1
  },
  "userdoc": {
    "kind": "user",
    "methods": {
      "numberCanMint()": {
        "notice": "Returns the number of editions allowed to mint (max_uint256 when open edition)"
      }
    },
    "version": 1
  },
  "storageLayout": {
    "storage": [
      {
        "astId": 819,
        "contract": "contracts/BunyRaffleNftV2.sol:BunyRaffleNftV2",
        "label": "_initialized",
        "offset": 0,
        "slot": "0",
        "type": "t_uint8"
      },
      {
        "astId": 822,
        "contract": "contracts/BunyRaffleNftV2.sol:BunyRaffleNftV2",
        "label": "_initializing",
        "offset": 1,
        "slot": "0",
        "type": "t_bool"
      },
      {
        "astId": 3305,
        "contract": "contracts/BunyRaffleNftV2.sol:BunyRaffleNftV2",
        "label": "__gap",
        "offset": 0,
        "slot": "1",
        "type": "t_array(t_uint256)50_storage"
      },
      {
        "astId": 3598,
        "contract": "contracts/BunyRaffleNftV2.sol:BunyRaffleNftV2",
        "label": "__gap",
        "offset": 0,
        "slot": "51",
        "type": "t_array(t_uint256)50_storage"
      },
      {
        "astId": 184,
        "contract": "contracts/BunyRaffleNftV2.sol:BunyRaffleNftV2",
        "label": "_roles",
        "offset": 0,
        "slot": "101",
        "type": "t_mapping(t_bytes32,t_struct(RoleData)179_storage)"
      },
      {
        "astId": 479,
        "contract": "contracts/BunyRaffleNftV2.sol:BunyRaffleNftV2",
        "label": "__gap",
        "offset": 0,
        "slot": "102",
        "type": "t_array(t_uint256)49_storage"
      },
      {
        "astId": 33,
        "contract": "contracts/BunyRaffleNftV2.sol:BunyRaffleNftV2",
        "label": "_roleMembers",
        "offset": 0,
        "slot": "151",
        "type": "t_mapping(t_bytes32,t_struct(AddressSet)4802_storage)"
      },
      {
        "astId": 143,
        "contract": "contracts/BunyRaffleNftV2.sol:BunyRaffleNftV2",
        "label": "__gap",
        "offset": 0,
        "slot": "152",
        "type": "t_array(t_uint256)49_storage"
      },
      {
        "astId": 1137,
        "contract": "contracts/BunyRaffleNftV2.sol:BunyRaffleNftV2",
        "label": "_name",
        "offset": 0,
        "slot": "201",
        "type": "t_string_storage"
      },
      {
        "astId": 1139,
        "contract": "contracts/BunyRaffleNftV2.sol:BunyRaffleNftV2",
        "label": "_symbol",
        "offset": 0,
        "slot": "202",
        "type": "t_string_storage"
      },
      {
        "astId": 1143,
        "contract": "contracts/BunyRaffleNftV2.sol:BunyRaffleNftV2",
        "label": "_owners",
        "offset": 0,
        "slot": "203",
        "type": "t_mapping(t_uint256,t_address)"
      },
      {
        "astId": 1147,
        "contract": "contracts/BunyRaffleNftV2.sol:BunyRaffleNftV2",
        "label": "_balances",
        "offset": 0,
        "slot": "204",
        "type": "t_mapping(t_address,t_uint256)"
      },
      {
        "astId": 1151,
        "contract": "contracts/BunyRaffleNftV2.sol:BunyRaffleNftV2",
        "label": "_tokenApprovals",
        "offset": 0,
        "slot": "205",
        "type": "t_mapping(t_uint256,t_address)"
      },
      {
        "astId": 1157,
        "contract": "contracts/BunyRaffleNftV2.sol:BunyRaffleNftV2",
        "label": "_operatorApprovals",
        "offset": 0,
        "slot": "206",
        "type": "t_mapping(t_address,t_mapping(t_address,t_bool))"
      },
      {
        "astId": 2059,
        "contract": "contracts/BunyRaffleNftV2.sol:BunyRaffleNftV2",
        "label": "__gap",
        "offset": 0,
        "slot": "207",
        "type": "t_array(t_uint256)44_storage"
      },
      {
        "astId": 2274,
        "contract": "contracts/BunyRaffleNftV2.sol:BunyRaffleNftV2",
        "label": "_ownedTokens",
        "offset": 0,
        "slot": "251",
        "type": "t_mapping(t_address,t_mapping(t_uint256,t_uint256))"
      },
      {
        "astId": 2278,
        "contract": "contracts/BunyRaffleNftV2.sol:BunyRaffleNftV2",
        "label": "_ownedTokensIndex",
        "offset": 0,
        "slot": "252",
        "type": "t_mapping(t_uint256,t_uint256)"
      },
      {
        "astId": 2281,
        "contract": "contracts/BunyRaffleNftV2.sol:BunyRaffleNftV2",
        "label": "_allTokens",
        "offset": 0,
        "slot": "253",
        "type": "t_array(t_uint256)dyn_storage"
      },
      {
        "astId": 2285,
        "contract": "contracts/BunyRaffleNftV2.sol:BunyRaffleNftV2",
        "label": "_allTokensIndex",
        "offset": 0,
        "slot": "254",
        "type": "t_mapping(t_uint256,t_uint256)"
      },
      {
        "astId": 2617,
        "contract": "contracts/BunyRaffleNftV2.sol:BunyRaffleNftV2",
        "label": "__gap",
        "offset": 0,
        "slot": "255",
        "type": "t_array(t_uint256)46_storage"
      },
      {
        "astId": 2243,
        "contract": "contracts/BunyRaffleNftV2.sol:BunyRaffleNftV2",
        "label": "__gap",
        "offset": 0,
        "slot": "301",
        "type": "t_array(t_uint256)50_storage"
      },
      {
        "astId": 1002,
        "contract": "contracts/BunyRaffleNftV2.sol:BunyRaffleNftV2",
        "label": "_paused",
        "offset": 0,
        "slot": "351",
        "type": "t_bool"
      },
      {
        "astId": 1107,
        "contract": "contracts/BunyRaffleNftV2.sol:BunyRaffleNftV2",
        "label": "__gap",
        "offset": 0,
        "slot": "352",
        "type": "t_array(t_uint256)49_storage"
      },
      {
        "astId": 2680,
        "contract": "contracts/BunyRaffleNftV2.sol:BunyRaffleNftV2",
        "label": "__gap",
        "offset": 0,
        "slot": "401",
        "type": "t_array(t_uint256)50_storage"
      },
      {
        "astId": 2797,
        "contract": "contracts/BunyRaffleNftV2.sol:BunyRaffleNftV2",
        "label": "_tokenIdTracker",
        "offset": 0,
        "slot": "451",
        "type": "t_struct(Counter)3312_storage"
      },
      {
        "astId": 2799,
        "contract": "contracts/BunyRaffleNftV2.sol:BunyRaffleNftV2",
        "label": "_baseTokenURI",
        "offset": 0,
        "slot": "452",
        "type": "t_string_storage"
      },
      {
        "astId": 2979,
        "contract": "contracts/BunyRaffleNftV2.sol:BunyRaffleNftV2",
        "label": "__gap",
        "offset": 0,
        "slot": "453",
        "type": "t_array(t_uint256)48_storage"
      },
      {
        "astId": 589,
        "contract": "contracts/BunyRaffleNftV2.sol:BunyRaffleNftV2",
        "label": "_owner",
        "offset": 0,
        "slot": "501",
        "type": "t_address"
      },
      {
        "astId": 709,
        "contract": "contracts/BunyRaffleNftV2.sol:BunyRaffleNftV2",
        "label": "__gap",
        "offset": 0,
        "slot": "502",
        "type": "t_array(t_uint256)49_storage"
      },
      {
        "astId": 12486,
        "contract": "contracts/BunyRaffleNftV2.sol:BunyRaffleNftV2",
        "label": "atEditionId",
        "offset": 0,
        "slot": "551",
        "type": "t_struct(Counter)3312_storage"
      },
      {
        "astId": 12512,
        "contract": "contracts/BunyRaffleNftV2.sol:BunyRaffleNftV2",
        "label": "description",
        "offset": 0,
        "slot": "552",
        "type": "t_string_storage"
      },
      {
        "astId": 12514,
        "contract": "contracts/BunyRaffleNftV2.sol:BunyRaffleNftV2",
        "label": "animationUrl",
        "offset": 0,
        "slot": "553",
        "type": "t_string_storage"
      },
      {
        "astId": 12516,
        "contract": "contracts/BunyRaffleNftV2.sol:BunyRaffleNftV2",
        "label": "imageUrl",
        "offset": 0,
        "slot": "554",
        "type": "t_string_storage"
      },
      {
        "astId": 12518,
        "contract": "contracts/BunyRaffleNftV2.sol:BunyRaffleNftV2",
        "label": "editionSize",
        "offset": 0,
        "slot": "555",
        "type": "t_uint256"
      },
      {
        "astId": 12520,
        "contract": "contracts/BunyRaffleNftV2.sol:BunyRaffleNftV2",
        "label": "salePrice",
        "offset": 0,
        "slot": "556",
        "type": "t_uint256"
      },
      {
        "astId": 12522,
        "contract": "contracts/BunyRaffleNftV2.sol:BunyRaffleNftV2",
        "label": "minPlayers",
        "offset": 0,
        "slot": "557",
        "type": "t_uint256"
      },
      {
        "astId": 12524,
        "contract": "contracts/BunyRaffleNftV2.sol:BunyRaffleNftV2",
        "label": "maxTokens",
        "offset": 0,
        "slot": "558",
        "type": "t_uint256"
      },
      {
        "astId": 12527,
        "contract": "contracts/BunyRaffleNftV2.sol:BunyRaffleNftV2",
        "label": "active",
        "offset": 0,
        "slot": "559",
        "type": "t_bool"
      },
      {
        "astId": 12530,
        "contract": "contracts/BunyRaffleNftV2.sol:BunyRaffleNftV2",
        "label": "winnerSelected",
        "offset": 1,
        "slot": "559",
        "type": "t_bool"
      },
      {
        "astId": 12533,
        "contract": "contracts/BunyRaffleNftV2.sol:BunyRaffleNftV2",
        "label": "isComplete",
        "offset": 2,
        "slot": "559",
        "type": "t_bool"
      },
      {
        "astId": 12536,
        "contract": "contracts/BunyRaffleNftV2.sol:BunyRaffleNftV2",
        "label": "isProof",
        "offset": 3,
        "slot": "559",
        "type": "t_bool"
      },
      {
        "astId": 12539,
        "contract": "contracts/BunyRaffleNftV2.sol:BunyRaffleNftV2",
        "label": "prizeClaimed",
        "offset": 4,
        "slot": "559",
        "type": "t_bool"
      },
      {
        "astId": 12541,
        "contract": "contracts/BunyRaffleNftV2.sol:BunyRaffleNftV2",
        "label": "startTime",
        "offset": 0,
        "slot": "560",
        "type": "t_uint256"
      },
      {
        "astId": 12543,
        "contract": "contracts/BunyRaffleNftV2.sol:BunyRaffleNftV2",
        "label": "endTime",
        "offset": 0,
        "slot": "561",
        "type": "t_uint256"
      },
      {
        "astId": 12546,
        "contract": "contracts/BunyRaffleNftV2.sol:BunyRaffleNftV2",
        "label": "EntryCount",
        "offset": 0,
        "slot": "562",
        "type": "t_uint256"
      },
      {
        "astId": 12549,
        "contract": "contracts/BunyRaffleNftV2.sol:BunyRaffleNftV2",
        "label": "prime",
        "offset": 0,
        "slot": "563",
        "type": "t_uint256"
      },
      {
        "astId": 12552,
        "contract": "contracts/BunyRaffleNftV2.sol:BunyRaffleNftV2",
        "label": "iterations",
        "offset": 0,
        "slot": "564",
        "type": "t_uint256"
      },
      {
        "astId": 12555,
        "contract": "contracts/BunyRaffleNftV2.sol:BunyRaffleNftV2",
        "label": "nonce",
        "offset": 0,
        "slot": "565",
        "type": "t_uint256"
      },
      {
        "astId": 12558,
        "contract": "contracts/BunyRaffleNftV2.sol:BunyRaffleNftV2",
        "label": "randomNumber",
        "offset": 0,
        "slot": "566",
        "type": "t_uint256"
      },
      {
        "astId": 12561,
        "contract": "contracts/BunyRaffleNftV2.sol:BunyRaffleNftV2",
        "label": "winningNumber",
        "offset": 0,
        "slot": "567",
        "type": "t_uint256"
      },
      {
        "astId": 12563,
        "contract": "contracts/BunyRaffleNftV2.sol:BunyRaffleNftV2",
        "label": "Winner",
        "offset": 0,
        "slot": "568",
        "type": "t_address_payable"
      },
      {
        "astId": 12565,
        "contract": "contracts/BunyRaffleNftV2.sol:BunyRaffleNftV2",
        "label": "bunyBank",
        "offset": 0,
        "slot": "569",
        "type": "t_address_payable"
      },
      {
        "astId": 12569,
        "contract": "contracts/BunyRaffleNftV2.sol:BunyRaffleNftV2",
        "label": "entry",
        "offset": 0,
        "slot": "570",
        "type": "t_array(t_struct(Entry)12599_storage)dyn_storage"
      },
      {
        "astId": 12573,
        "contract": "contracts/BunyRaffleNftV2.sol:BunyRaffleNftV2",
        "label": "raffleWinner",
        "offset": 0,
        "slot": "571",
        "type": "t_array(t_struct(RaffleWinner)12604_storage)dyn_storage"
      },
      {
        "astId": 12576,
        "contract": "contracts/BunyRaffleNftV2.sol:BunyRaffleNftV2",
        "label": "nftTokenIds",
        "offset": 0,
        "slot": "572",
        "type": "t_array(t_uint256)dyn_storage"
      },
      {
        "astId": 12580,
        "contract": "contracts/BunyRaffleNftV2.sol:BunyRaffleNftV2",
        "label": "mintedTokens",
        "offset": 0,
        "slot": "573",
        "type": "t_mapping(t_address,t_bool)"
      },
      {
        "astId": 12584,
        "contract": "contracts/BunyRaffleNftV2.sol:BunyRaffleNftV2",
        "label": "allowedMinters",
        "offset": 0,
        "slot": "574",
        "type": "t_mapping(t_address,t_bool)"
      },
      {
        "astId": 12588,
        "contract": "contracts/BunyRaffleNftV2.sol:BunyRaffleNftV2",
        "label": "seed",
        "offset": 0,
        "slot": "575",
        "type": "t_mapping(t_address,t_uint256)"
      },
      {
        "astId": 12592,
        "contract": "contracts/BunyRaffleNftV2.sol:BunyRaffleNftV2",
        "label": "isPlayer",
        "offset": 0,
        "slot": "576",
        "type": "t_mapping(t_address,t_bool)"
      }
    ],
    "types": {
      "t_address": {
        "encoding": "inplace",
        "label": "address",
        "numberOfBytes": "20"
      },
      "t_address_payable": {
        "encoding": "inplace",
        "label": "address payable",
        "numberOfBytes": "20"
      },
      "t_array(t_bytes32)dyn_storage": {
        "base": "t_bytes32",
        "encoding": "dynamic_array",
        "label": "bytes32[]",
        "numberOfBytes": "32"
      },
      "t_array(t_struct(Entry)12599_storage)dyn_storage": {
        "base": "t_struct(Entry)12599_storage",
        "encoding": "dynamic_array",
        "label": "struct BunyRaffleNftV2.Entry[]",
        "numberOfBytes": "32"
      },
      "t_array(t_struct(RaffleWinner)12604_storage)dyn_storage": {
        "base": "t_struct(RaffleWinner)12604_storage",
        "encoding": "dynamic_array",
        "label": "struct BunyRaffleNftV2.RaffleWinner[]",
        "numberOfBytes": "32"
      },
      "t_array(t_uint256)44_storage": {
        "base": "t_uint256",
        "encoding": "inplace",
        "label": "uint256[44]",
        "numberOfBytes": "1408"
      },
      "t_array(t_uint256)46_storage": {
        "base": "t_uint256",
        "encoding": "inplace",
        "label": "uint256[46]",
        "numberOfBytes": "1472"
      },
      "t_array(t_uint256)48_storage": {
        "base": "t_uint256",
        "encoding": "inplace",
        "label": "uint256[48]",
        "numberOfBytes": "1536"
      },
      "t_array(t_uint256)49_storage": {
        "base": "t_uint256",
        "encoding": "inplace",
        "label": "uint256[49]",
        "numberOfBytes": "1568"
      },
      "t_array(t_uint256)50_storage": {
        "base": "t_uint256",
        "encoding": "inplace",
        "label": "uint256[50]",
        "numberOfBytes": "1600"
      },
      "t_array(t_uint256)dyn_storage": {
        "base": "t_uint256",
        "encoding": "dynamic_array",
        "label": "uint256[]",
        "numberOfBytes": "32"
      },
      "t_bool": {
        "encoding": "inplace",
        "label": "bool",
        "numberOfBytes": "1"
      },
      "t_bytes32": {
        "encoding": "inplace",
        "label": "bytes32",
        "numberOfBytes": "32"
      },
      "t_mapping(t_address,t_bool)": {
        "encoding": "mapping",
        "key": "t_address",
        "label": "mapping(address => bool)",
        "numberOfBytes": "32",
        "value": "t_bool"
      },
      "t_mapping(t_address,t_mapping(t_address,t_bool))": {
        "encoding": "mapping",
        "key": "t_address",
        "label": "mapping(address => mapping(address => bool))",
        "numberOfBytes": "32",
        "value": "t_mapping(t_address,t_bool)"
      },
      "t_mapping(t_address,t_mapping(t_uint256,t_uint256))": {
        "encoding": "mapping",
        "key": "t_address",
        "label": "mapping(address => mapping(uint256 => uint256))",
        "numberOfBytes": "32",
        "value": "t_mapping(t_uint256,t_uint256)"
      },
      "t_mapping(t_address,t_uint256)": {
        "encoding": "mapping",
        "key": "t_address",
        "label": "mapping(address => uint256)",
        "numberOfBytes": "32",
        "value": "t_uint256"
      },
      "t_mapping(t_bytes32,t_struct(AddressSet)4802_storage)": {
        "encoding": "mapping",
        "key": "t_bytes32",
        "label": "mapping(bytes32 => struct EnumerableSetUpgradeable.AddressSet)",
        "numberOfBytes": "32",
        "value": "t_struct(AddressSet)4802_storage"
      },
      "t_mapping(t_bytes32,t_struct(RoleData)179_storage)": {
        "encoding": "mapping",
        "key": "t_bytes32",
        "label": "mapping(bytes32 => struct AccessControlUpgradeable.RoleData)",
        "numberOfBytes": "32",
        "value": "t_struct(RoleData)179_storage"
      },
      "t_mapping(t_bytes32,t_uint256)": {
        "encoding": "mapping",
        "key": "t_bytes32",
        "label": "mapping(bytes32 => uint256)",
        "numberOfBytes": "32",
        "value": "t_uint256"
      },
      "t_mapping(t_uint256,t_address)": {
        "encoding": "mapping",
        "key": "t_uint256",
        "label": "mapping(uint256 => address)",
        "numberOfBytes": "32",
        "value": "t_address"
      },
      "t_mapping(t_uint256,t_uint256)": {
        "encoding": "mapping",
        "key": "t_uint256",
        "label": "mapping(uint256 => uint256)",
        "numberOfBytes": "32",
        "value": "t_uint256"
      },
      "t_string_storage": {
        "encoding": "bytes",
        "label": "string",
        "numberOfBytes": "32"
      },
      "t_struct(AddressSet)4802_storage": {
        "encoding": "inplace",
        "label": "struct EnumerableSetUpgradeable.AddressSet",
        "members": [
          {
            "astId": 4801,
            "contract": "contracts/BunyRaffleNftV2.sol:BunyRaffleNftV2",
            "label": "_inner",
            "offset": 0,
            "slot": "0",
            "type": "t_struct(Set)4487_storage"
          }
        ],
        "numberOfBytes": "64"
      },
      "t_struct(Counter)3312_storage": {
        "encoding": "inplace",
        "label": "struct CountersUpgradeable.Counter",
        "members": [
          {
            "astId": 3311,
            "contract": "contracts/BunyRaffleNftV2.sol:BunyRaffleNftV2",
            "label": "_value",
            "offset": 0,
            "slot": "0",
            "type": "t_uint256"
          }
        ],
        "numberOfBytes": "32"
      },
      "t_struct(Entry)12599_storage": {
        "encoding": "inplace",
        "label": "struct BunyRaffleNftV2.Entry",
        "members": [
          {
            "astId": 12594,
            "contract": "contracts/BunyRaffleNftV2.sol:BunyRaffleNftV2",
            "label": "player",
            "offset": 0,
            "slot": "0",
            "type": "t_address"
          },
          {
            "astId": 12596,
            "contract": "contracts/BunyRaffleNftV2.sol:BunyRaffleNftV2",
            "label": "EntryNumber",
            "offset": 0,
            "slot": "1",
            "type": "t_uint256"
          },
          {
            "astId": 12598,
            "contract": "contracts/BunyRaffleNftV2.sol:BunyRaffleNftV2",
            "label": "entryTime",
            "offset": 0,
            "slot": "2",
            "type": "t_uint256"
          }
        ],
        "numberOfBytes": "96"
      },
      "t_struct(RaffleWinner)12604_storage": {
        "encoding": "inplace",
        "label": "struct BunyRaffleNftV2.RaffleWinner",
        "members": [
          {
            "astId": 12601,
            "contract": "contracts/BunyRaffleNftV2.sol:BunyRaffleNftV2",
            "label": "winner",
            "offset": 0,
            "slot": "0",
            "type": "t_address_payable"
          },
          {
            "astId": 12603,
            "contract": "contracts/BunyRaffleNftV2.sol:BunyRaffleNftV2",
            "label": "winningTokenId",
            "offset": 0,
            "slot": "1",
            "type": "t_uint256"
          }
        ],
        "numberOfBytes": "64"
      },
      "t_struct(RoleData)179_storage": {
        "encoding": "inplace",
        "label": "struct AccessControlUpgradeable.RoleData",
        "members": [
          {
            "astId": 176,
            "contract": "contracts/BunyRaffleNftV2.sol:BunyRaffleNftV2",
            "label": "members",
            "offset": 0,
            "slot": "0",
            "type": "t_mapping(t_address,t_bool)"
          },
          {
            "astId": 178,
            "contract": "contracts/BunyRaffleNftV2.sol:BunyRaffleNftV2",
            "label": "adminRole",
            "offset": 0,
            "slot": "1",
            "type": "t_bytes32"
          }
        ],
        "numberOfBytes": "64"
      },
      "t_struct(Set)4487_storage": {
        "encoding": "inplace",
        "label": "struct EnumerableSetUpgradeable.Set",
        "members": [
          {
            "astId": 4482,
            "contract": "contracts/BunyRaffleNftV2.sol:BunyRaffleNftV2",
            "label": "_values",
            "offset": 0,
            "slot": "0",
            "type": "t_array(t_bytes32)dyn_storage"
          },
          {
            "astId": 4486,
            "contract": "contracts/BunyRaffleNftV2.sol:BunyRaffleNftV2",
            "label": "_indexes",
            "offset": 0,
            "slot": "1",
            "type": "t_mapping(t_bytes32,t_uint256)"
          }
        ],
        "numberOfBytes": "64"
      },
      "t_uint256": {
        "encoding": "inplace",
        "label": "uint256",
        "numberOfBytes": "32"
      },
      "t_uint8": {
        "encoding": "inplace",
        "label": "uint8",
        "numberOfBytes": "1"
      }
    }
  }
}