{
  "address": "0x1449D46AEFEBF46cdBe444377daC39e173C24891",
  "abi": [
    {
      "anonymous": false,
      "inputs": [
        {
          "indexed": false,
          "internalType": "address",
          "name": "addr",
          "type": "address"
        },
        {
          "indexed": false,
          "internalType": "uint256",
          "name": "commitment",
          "type": "uint256"
        },
        {
          "indexed": false,
          "internalType": "uint256",
          "name": "price",
          "type": "uint256"
        }
      ],
      "name": "AddedCommitment",
      "type": "event"
    },
    {
      "inputs": [],
      "name": "auctionEnded",
      "outputs": [
        {
          "internalType": "bool",
          "name": "",
          "type": "bool"
        }
      ],
      "stateMutability": "view",
      "type": "function"
    },
    {
      "inputs": [],
      "name": "auctionSuccessful",
      "outputs": [
        {
          "internalType": "bool",
          "name": "",
          "type": "bool"
        }
      ],
      "stateMutability": "view",
      "type": "function"
    },
    {
      "inputs": [],
      "name": "auctionToken",
      "outputs": [
        {
          "internalType": "address",
          "name": "",
          "type": "address"
        }
      ],
      "stateMutability": "view",
      "type": "function"
    },
    {
      "inputs": [
        {
          "internalType": "uint256",
          "name": "_commitment",
          "type": "uint256"
        }
      ],
      "name": "calculateCommitment",
      "outputs": [
        {
          "internalType": "uint256",
          "name": "committed",
          "type": "uint256"
        }
      ],
      "stateMutability": "view",
      "type": "function"
    },
    {
      "inputs": [
        {
          "internalType": "address",
          "name": "",
          "type": "address"
        }
      ],
      "name": "claimed",
      "outputs": [
        {
          "internalType": "uint256",
          "name": "",
          "type": "uint256"
        }
      ],
      "stateMutability": "view",
      "type": "function"
    },
    {
      "inputs": [],
      "name": "clearingPrice",
      "outputs": [
        {
          "internalType": "uint256",
          "name": "",
          "type": "uint256"
        }
      ],
      "stateMutability": "view",
      "type": "function"
    },
    {
      "inputs": [],
      "name": "commitEth",
      "outputs": [],
      "stateMutability": "payable",
      "type": "function"
    },
    {
      "inputs": [
        {
          "internalType": "address payable",
          "name": "_from",
          "type": "address"
        }
      ],
      "name": "commitEthFrom",
      "outputs": [],
      "stateMutability": "payable",
      "type": "function"
    },
    {
      "inputs": [
        {
          "internalType": "uint256",
          "name": "_amount",
          "type": "uint256"
        }
      ],
      "name": "commitTokens",
      "outputs": [],
      "stateMutability": "nonpayable",
      "type": "function"
    },
    {
      "inputs": [
        {
          "internalType": "address",
          "name": "_from",
          "type": "address"
        },
        {
          "internalType": "uint256",
          "name": "_amount",
          "type": "uint256"
        }
      ],
      "name": "commitTokensFrom",
      "outputs": [],
      "stateMutability": "nonpayable",
      "type": "function"
    },
    {
      "inputs": [
        {
          "internalType": "address",
          "name": "",
          "type": "address"
        }
      ],
      "name": "commitments",
      "outputs": [
        {
          "internalType": "uint256",
          "name": "",
          "type": "uint256"
        }
      ],
      "stateMutability": "view",
      "type": "function"
    },
    {
      "inputs": [],
      "name": "commitmentsTotal",
      "outputs": [
        {
          "internalType": "uint256",
          "name": "",
          "type": "uint256"
        }
      ],
      "stateMutability": "view",
      "type": "function"
    },
    {
      "inputs": [],
      "name": "endDate",
      "outputs": [
        {
          "internalType": "uint256",
          "name": "",
          "type": "uint256"
        }
      ],
      "stateMutability": "view",
      "type": "function"
    },
    {
      "inputs": [],
      "name": "finaliseAuction",
      "outputs": [],
      "stateMutability": "nonpayable",
      "type": "function"
    },
    {
      "inputs": [],
      "name": "finalised",
      "outputs": [
        {
          "internalType": "bool",
          "name": "",
          "type": "bool"
        }
      ],
      "stateMutability": "view",
      "type": "function"
    },
    {
      "inputs": [
        {
          "internalType": "address",
          "name": "_funder",
          "type": "address"
        },
        {
          "internalType": "address",
          "name": "_token",
          "type": "address"
        },
        {
          "internalType": "uint256",
          "name": "_totalTokens",
          "type": "uint256"
        },
        {
          "internalType": "uint256",
          "name": "_startDate",
          "type": "uint256"
        },
        {
          "internalType": "uint256",
          "name": "_endDate",
          "type": "uint256"
        },
        {
          "internalType": "address",
          "name": "_paymentCurrency",
          "type": "address"
        },
        {
          "internalType": "uint256",
          "name": "_startPrice",
          "type": "uint256"
        },
        {
          "internalType": "uint256",
          "name": "_minimumPrice",
          "type": "uint256"
        },
        {
          "internalType": "address payable",
          "name": "_wallet",
          "type": "address"
        }
      ],
      "name": "initDutchAuction",
      "outputs": [],
      "stateMutability": "nonpayable",
      "type": "function"
    },
    {
      "inputs": [],
      "name": "minimumPrice",
      "outputs": [
        {
          "internalType": "uint256",
          "name": "",
          "type": "uint256"
        }
      ],
      "stateMutability": "view",
      "type": "function"
    },
    {
      "inputs": [],
      "name": "paymentCurrency",
      "outputs": [
        {
          "internalType": "address",
          "name": "",
          "type": "address"
        }
      ],
      "stateMutability": "view",
      "type": "function"
    },
    {
      "inputs": [],
      "name": "priceDrop",
      "outputs": [
        {
          "internalType": "uint256",
          "name": "",
          "type": "uint256"
        }
      ],
      "stateMutability": "view",
      "type": "function"
    },
    {
      "inputs": [],
      "name": "priceFunction",
      "outputs": [
        {
          "internalType": "uint256",
          "name": "",
          "type": "uint256"
        }
      ],
      "stateMutability": "view",
      "type": "function"
    },
    {
      "inputs": [],
      "name": "startDate",
      "outputs": [
        {
          "internalType": "uint256",
          "name": "",
          "type": "uint256"
        }
      ],
      "stateMutability": "view",
      "type": "function"
    },
    {
      "inputs": [],
      "name": "startPrice",
      "outputs": [
        {
          "internalType": "uint256",
          "name": "",
          "type": "uint256"
        }
      ],
      "stateMutability": "view",
      "type": "function"
    },
    {
      "inputs": [],
      "name": "tokenPrice",
      "outputs": [
        {
          "internalType": "uint256",
          "name": "",
          "type": "uint256"
        }
      ],
      "stateMutability": "view",
      "type": "function"
    },
    {
      "inputs": [],
      "name": "tokenWithdrawn",
      "outputs": [
        {
          "internalType": "uint256",
          "name": "",
          "type": "uint256"
        }
      ],
      "stateMutability": "view",
      "type": "function"
    },
    {
      "inputs": [
        {
          "internalType": "address",
          "name": "_user",
          "type": "address"
        }
      ],
      "name": "tokensClaimable",
      "outputs": [
        {
          "internalType": "uint256",
          "name": "",
          "type": "uint256"
        }
      ],
      "stateMutability": "view",
      "type": "function"
    },
    {
      "inputs": [],
      "name": "tokensRemaining",
      "outputs": [
        {
          "internalType": "uint256",
          "name": "",
          "type": "uint256"
        }
      ],
      "stateMutability": "view",
      "type": "function"
    },
    {
      "inputs": [],
      "name": "totalTokens",
      "outputs": [
        {
          "internalType": "uint256",
          "name": "",
          "type": "uint256"
        }
      ],
      "stateMutability": "view",
      "type": "function"
    },
    {
      "inputs": [],
      "name": "totalTokensCommitted",
      "outputs": [
        {
          "internalType": "uint256",
          "name": "",
          "type": "uint256"
        }
      ],
      "stateMutability": "view",
      "type": "function"
    },
    {
      "inputs": [],
      "name": "wallet",
      "outputs": [
        {
          "internalType": "address payable",
          "name": "",
          "type": "address"
        }
      ],
      "stateMutability": "view",
      "type": "function"
    },
    {
      "inputs": [],
      "name": "withdrawTokens",
      "outputs": [],
      "stateMutability": "nonpayable",
      "type": "function"
    },
    {
      "stateMutability": "payable",
      "type": "receive"
    }
  ],
  "transactionHash": "0x523a0f54323a560bafffc0f8a37af89b8888efbb769a20f60d39530418c6aea0",
  "args": [],
  "numDeployments": 1,
  "solcInputHash": "d9c02394b2d9331cad4460e650831b12",
  "bytecode": "0x608060405234801561001057600080fd5b50611296806100206000396000f3fe6080604052600436106101d15760003560e01c80637e1c0c09116100f7578063a9d87ee611610095578063c8b0812511610064578063c8b0812514610530578063d7568b6e14610545578063e8fcf7231461055a578063f1a9af891461058d576101e1565b8063a9d87ee614610466578063ab6c07c61461047b578063c24a0f8b146104e8578063c884ef83146104fd576101e1565b806386433374116100d157806386433374146104125780638d8f2adb14610427578063919e93b51461043c57806399fdb32014610451576101e1565b80637e1c0c09146103d35780637f386b6c146103e85780637ff9b596146103fd576101e1565b806336d0054b1161016f5780634dc80e151161013e5780634dc80e151461034c578063521eb2731461037f5780635228733f1461039457806373973fcb146103a9576101e1565b806336d0054b146102c55780633d15cc6d146102da57806345dc13f31461030b5780634646783914610313576101e1565b806323bb46b6116101ab57806323bb46b6146102605780632897a6b9146102755780632b3853bd1461029b57806332a0f2d7146102b0576101e1565b80630482a787146101e65780630b97bc8614610210578063214bb60f14610237576101e1565b366101e1576101df336105a2565b005b600080fd5b3480156101f257600080fd5b506101df6004803603602081101561020957600080fd5b5035610656565b34801561021c57600080fd5b50610225610663565b60408051918252519081900360200190f35b34801561024357600080fd5b5061024c610669565b604080519115158252519081900360200190f35b34801561026c57600080fd5b50610225610677565b6101df6004803603602081101561028b57600080fd5b50356001600160a01b03166105a2565b3480156102a757600080fd5b5061022561067d565b3480156102bc57600080fd5b50610225610683565b3480156102d157600080fd5b5061024c6106b8565b3480156102e657600080fd5b506102ef6106d1565b604080516001600160a01b039092168252519081900360200190f35b6101df6106e0565b34801561031f57600080fd5b506101df6004803603604081101561033657600080fd5b506001600160a01b0381351690602001356106eb565b34801561035857600080fd5b506102256004803603602081101561036f57600080fd5b50356001600160a01b031661077f565b34801561038b57600080fd5b506102ef6107f7565b3480156103a057600080fd5b506101df610806565b3480156103b557600080fd5b50610225600480360360208110156103cc57600080fd5b5035610924565b3480156103df57600080fd5b5061022561098e565b3480156103f457600080fd5b50610225610994565b34801561040957600080fd5b5061022561099a565b34801561041e57600080fd5b5061024c6109bf565b34801561043357600080fd5b506101df6109d8565b34801561044857600080fd5b50610225610b0e565b34801561045d57600080fd5b506102ef610b36565b34801561047257600080fd5b50610225610b45565b34801561048757600080fd5b506101df600480360361012081101561049f57600080fd5b506001600160a01b038135811691602081013582169160408201359160608101359160808201359160a081013582169160c08201359160e0810135916101009091013516610b72565b3480156104f457600080fd5b50610225610c69565b34801561050957600080fd5b506102256004803603602081101561052057600080fd5b50356001600160a01b0316610c6f565b34801561053c57600080fd5b50610225610c81565b34801561055157600080fd5b50610225610cbc565b34801561056657600080fd5b506102256004803603602081101561057d57600080fd5b50356001600160a01b0316610cc2565b34801561059957600080fd5b50610225610cd4565b600854610100900460ff16156105b757600080fd5b600b546001600160a01b031673eeeeeeeeeeeeeeeeeeeeeeeeeeeeeeeeeeeeeeee146105e257600080fd5b60006105ed34610924565b90506000610601348363ffffffff610cda16565b90508115610613576106138383610d25565b8015610651576040516001600160a01b0384169082156108fc029083906000818181858888f1935050505015801561064f573d6000803e3d6000fd5b505b505050565b61066033826106eb565b50565b60005481565b600854610100900460ff1681565b60065481565b60075481565b600061068d610b45565b61069561099a565b11156106aa576106a361099a565b90506106b5565b6106b2610b45565b90505b90565b60006106c2610683565b6106ca61099a565b1015905090565b600b546001600160a01b031681565b6106e9336105a2565b565b600260095414156106fb57600080fd5b6002600955600854610100900460ff161561071557600080fd5b600b546001600160a01b031673eeeeeeeeeeeeeeeeeeeeeeeeeeeeeeeeeeeeeeee141561074157600080fd5b600061074c82610924565b9050801561077557600b5461076b906001600160a01b03168483610df0565b6107758382610d25565b5050600160095550565b6000806107ca61078d610683565b6001600160a01b0385166000908152600d60205260409020546107be90670de0b6b3a764000063ffffffff610f1816565b9063ffffffff610f7116565b336000908152600e60205260409020549091506107ee90829063ffffffff610cda16565b9150505b919050565b600c546001600160a01b031681565b6002600954141561081657600080fd5b6002600955600854610100900460ff161561083057600080fd5b6108386106b8565b1561086257600b54600c5460065461085d926001600160a01b03908116921690610fb3565b61090e565b600654158015610873575060005442105b1561089857600a54600c5460045461085d926001600160a01b03908116921690610fb3565b60015442116108ee576040805162461bcd60e51b815260206004820152601860248201527f41756374696f6e206e6f742066696e6973686564207965740000000000000000604482015290519081900360640190fd5b600a54600c5460045461090e926001600160a01b03908116921690610fb3565b6008805461ff0019166101001790556001600955565b60008061094d670de0b6b3a76400006107be61093e610683565b6004549063ffffffff610f1816565b9050806109658460065461101f90919063ffffffff16565b11156109875760065461097f90829063ffffffff610cda16565b9150506107f2565b5090919050565b60045481565b60035481565b60006106b26004546107be670de0b6b3a7640000600654610f1890919063ffffffff16565b60006109c96106b8565b806106b2575050600154421190565b600260095414156109e857600080fd5b60026009556109f56106b8565b15610ab4576000610a053361077f565b905060008111610a51576040805162461bcd60e51b81526020600482015260126024820152714e6f20746f6b656e7320746f20636c61696d60701b604482015290519081900360640190fd5b336000908152600e6020526040902054610a71908263ffffffff61101f16565b336000908152600e6020526040902055600754610a94908263ffffffff61101f16565b600755600a54610aae906001600160a01b03163383610fb3565b50610b07565b6001544211610ac257600080fd5b336000908152600d602052604090205480610adc57600080fd5b336000818152600d6020526040812055600b54610b05916001600160a01b039091169083610fb3565b505b6001600955565b60006106b2610b1b610683565b6006546107be90670de0b6b3a764000063ffffffff610f1816565b600a546001600160a01b031681565b600080544211610b5857506002546106b5565b6001544210610b6a57506003546106b5565b6106b2611079565b60085460ff1615610b8257600080fd5b858511610b8e57600080fd5b60008211610b9b57600080fd5b600a80546001600160a01b03808b166001600160a01b031992831617909255600b805487841690831617905560048990556000888155600188815560028790556003869055600c80549486169490931693909317909155600991909155610c08848463ffffffff610cda16565b90506000610c23600054600154610cda90919063ffffffff16565b9050610c35828263ffffffff610f7116565b600555600a54610c4f906001600160a01b03168c8b610df0565b50506008805460ff19166001179055505050505050505050565b60015481565b600e6020526000908152604090205481565b600080610c8c610b0e565b90506004548110610ca15760009150506106b5565b600454610cb4908263ffffffff610cda16565b9150506106b5565b60055481565b600d6020526000908152604090205481565b60025481565b6000610d1c83836040518060400160405280601e81526020017f536166654d6174683a207375627472616374696f6e206f766572666c6f7700008152506110c7565b90505b92915050565b6000544210158015610d3957506001544211155b610d4257600080fd5b6001600160a01b0382166000908152600d6020526040902054610d6b908263ffffffff61101f16565b6001600160a01b0383166000908152600d6020526040902055600654610d97908263ffffffff61101f16565b6006557f2708a7a3988eeb427740f4fc8a40de05ea1ef186ec85ff11b09d8c486ca4a0038282610dc5611079565b604080516001600160a01b039094168452602084019290925282820152519081900360600190a15050565b604080516001600160a01b038481166024830152306044830152606480830185905283518084039091018152608490920183526020820180516001600160e01b03166323b872dd60e01b178152925182516000946060949389169392918291908083835b60208310610e735780518252601f199092019160209182019101610e54565b6001836020036101000a0380198251168184511680821785525050505050509050019150506000604051808303816000865af19150503d8060008114610ed5576040519150601f19603f3d011682016040523d82523d6000602084013e610eda565b606091505b5091509150818015610f08575080511580610f085750808060200190516020811015610f0557600080fd5b50515b610f1157600080fd5b5050505050565b600082610f2757506000610d1f565b82820282848281610f3457fe5b0414610d1c5760405162461bcd60e51b81526004018080602001828103825260218152602001806112406021913960400191505060405180910390fd5b6000610d1c83836040518060400160405280601a81526020017f536166654d6174683a206469766973696f6e206279207a65726f00000000000081525061115e565b6001600160a01b03831673eeeeeeeeeeeeeeeeeeeeeeeeeeeeeeeeeeeeeeee1415611014576040516001600160a01b0383169082156108fc029083906000818181858888f1935050505015801561100e573d6000803e3d6000fd5b50610651565b6106518383836111c3565b600082820183811015610d1c576040805162461bcd60e51b815260206004820152601b60248201527f536166654d6174683a206164646974696f6e206f766572666c6f770000000000604482015290519081900360640190fd5b60008061109160005442610cda90919063ffffffff16565b905060006110aa60055483610f1890919063ffffffff16565b6002549091506110c0908263ffffffff610cda16565b9250505090565b600081848411156111565760405162461bcd60e51b81526004018080602001828103825283818151815260200191508051906020019080838360005b8381101561111b578181015183820152602001611103565b50505050905090810190601f1680156111485780820380516001836020036101000a031916815260200191505b509250505060405180910390fd5b505050900390565b600081836111ad5760405162461bcd60e51b815260206004820181815283516024840152835190928392604490910191908501908083836000831561111b578181015183820152602001611103565b5060008385816111b957fe5b0495945050505050565b604080516001600160a01b038481166024830152604480830185905283518084039091018152606490920183526020820180516001600160e01b031663a9059cbb60e01b1781529251825160009460609493891693929182919080838360208310610e735780518252601f199092019160209182019101610e5456fe536166654d6174683a206d756c7469706c69636174696f6e206f766572666c6f77a2646970667358221220bdbc4de894979af23b8cd48a2166d864be4704a98aa2a877607bba9aa4dc06e864736f6c63430006090033",
  "devdoc": {
    "methods": {
      "auctionEnded()": {
        "details": "able to claim early if auction is successful"
      },
      "commitEth()": {
        "details": "Needs extra gas limit for additional state changes"
      },
      "commitTokensFrom(address,uint256)": {
        "details": "Users must approve contract prior to committing tokens to auction"
      },
      "finaliseAuction()": {
        "details": "Transfer contract funds to initialised wallet."
      },
      "initDutchAuction(address,address,uint256,uint256,uint256,address,uint256,uint256,address)": {
        "details": "Init function"
      }
    },
    "stateVariables": {
      "ETH_ADDRESS": {
        "details": "The placeholder ETH address."
      }
    }
  },
  "userdoc": {
    "methods": {
      "auctionEnded()": {
        "notice": "Returns bool if successful or time has ended"
      },
      "auctionSuccessful()": {
        "notice": "Successful if tokens sold equals totalTokens"
      },
      "calculateCommitment(uint256)": {
        "notice": "Returns the amout able to be committed during an auction"
      },
      "clearingPrice()": {
        "notice": "The current clearing price of the Dutch auction"
      },
      "commitEthFrom(address)": {
        "notice": "Commit ETH to buy tokens for any address"
      },
      "commitTokens(uint256)": {
        "notice": "Commit approved ERC20 tokens to buy tokens on sale"
      },
      "finaliseAuction()": {
        "notice": "Auction finishes successfully above the reserve"
      },
      "priceFunction()": {
        "notice": "Returns price during the auction"
      },
      "tokenPrice()": {
        "notice": "The average price of each token from all commitments."
      },
      "tokensClaimable(address)": {
        "notice": "How many tokens the user is able to claim"
      },
      "tokensRemaining()": {
        "notice": "Total amount of tokens remaining"
      },
      "totalTokensCommitted()": {
        "notice": "Total amount of tokens committed at current auction price"
      },
      "withdrawTokens()": {
        "notice": "Withdraw your tokens once the Auction has ended."
      }
    }
  },
  "storageLayout": {
    "storage": [
      {
        "astId": 11,
        "contract": "contracts/Dutch/contracts/DutchSwapAuction.sol:DutchSwapAuction",
        "label": "startDate",
        "offset": 0,
        "slot": "0",
        "type": "t_uint256"
      },
      {
        "astId": 13,
        "contract": "contracts/Dutch/contracts/DutchSwapAuction.sol:DutchSwapAuction",
        "label": "endDate",
        "offset": 0,
        "slot": "1",
        "type": "t_uint256"
      },
      {
        "astId": 15,
        "contract": "contracts/Dutch/contracts/DutchSwapAuction.sol:DutchSwapAuction",
        "label": "startPrice",
        "offset": 0,
        "slot": "2",
        "type": "t_uint256"
      },
      {
        "astId": 17,
        "contract": "contracts/Dutch/contracts/DutchSwapAuction.sol:DutchSwapAuction",
        "label": "minimumPrice",
        "offset": 0,
        "slot": "3",
        "type": "t_uint256"
      },
      {
        "astId": 19,
        "contract": "contracts/Dutch/contracts/DutchSwapAuction.sol:DutchSwapAuction",
        "label": "totalTokens",
        "offset": 0,
        "slot": "4",
        "type": "t_uint256"
      },
      {
        "astId": 21,
        "contract": "contracts/Dutch/contracts/DutchSwapAuction.sol:DutchSwapAuction",
        "label": "priceDrop",
        "offset": 0,
        "slot": "5",
        "type": "t_uint256"
      },
      {
        "astId": 23,
        "contract": "contracts/Dutch/contracts/DutchSwapAuction.sol:DutchSwapAuction",
        "label": "commitmentsTotal",
        "offset": 0,
        "slot": "6",
        "type": "t_uint256"
      },
      {
        "astId": 25,
        "contract": "contracts/Dutch/contracts/DutchSwapAuction.sol:DutchSwapAuction",
        "label": "tokenWithdrawn",
        "offset": 0,
        "slot": "7",
        "type": "t_uint256"
      },
      {
        "astId": 27,
        "contract": "contracts/Dutch/contracts/DutchSwapAuction.sol:DutchSwapAuction",
        "label": "initialised",
        "offset": 0,
        "slot": "8",
        "type": "t_bool"
      },
      {
        "astId": 29,
        "contract": "contracts/Dutch/contracts/DutchSwapAuction.sol:DutchSwapAuction",
        "label": "finalised",
        "offset": 1,
        "slot": "8",
        "type": "t_bool"
      },
      {
        "astId": 37,
        "contract": "contracts/Dutch/contracts/DutchSwapAuction.sol:DutchSwapAuction",
        "label": "_status",
        "offset": 0,
        "slot": "9",
        "type": "t_uint256"
      },
      {
        "astId": 39,
        "contract": "contracts/Dutch/contracts/DutchSwapAuction.sol:DutchSwapAuction",
        "label": "auctionToken",
        "offset": 0,
        "slot": "10",
        "type": "t_address"
      },
      {
        "astId": 41,
        "contract": "contracts/Dutch/contracts/DutchSwapAuction.sol:DutchSwapAuction",
        "label": "paymentCurrency",
        "offset": 0,
        "slot": "11",
        "type": "t_address"
      },
      {
        "astId": 43,
        "contract": "contracts/Dutch/contracts/DutchSwapAuction.sol:DutchSwapAuction",
        "label": "wallet",
        "offset": 0,
        "slot": "12",
        "type": "t_address_payable"
      },
      {
        "astId": 47,
        "contract": "contracts/Dutch/contracts/DutchSwapAuction.sol:DutchSwapAuction",
        "label": "commitments",
        "offset": 0,
        "slot": "13",
        "type": "t_mapping(t_address,t_uint256)"
      },
      {
        "astId": 51,
        "contract": "contracts/Dutch/contracts/DutchSwapAuction.sol:DutchSwapAuction",
        "label": "claimed",
        "offset": 0,
        "slot": "14",
        "type": "t_mapping(t_address,t_uint256)"
      }
    ],
    "types": {
      "t_address": {
        "encoding": "inplace",
        "label": "address",
        "numberOfBytes": "20"
      },
      "t_address_payable": {
        "encoding": "inplace",
        "label": "address payable",
        "numberOfBytes": "20"
      },
      "t_bool": {
        "encoding": "inplace",
        "label": "bool",
        "numberOfBytes": "1"
      },
      "t_mapping(t_address,t_uint256)": {
        "encoding": "mapping",
        "key": "t_address",
        "label": "mapping(address => uint256)",
        "numberOfBytes": "32",
        "value": "t_uint256"
      },
      "t_uint256": {
        "encoding": "inplace",
        "label": "uint256",
        "numberOfBytes": "32"
      }
    }
  }
}