{
  "address": "0x529e79CB6B4808F98A377B8a8fee1Ce30983e379",
  "abi": [
    {
      "inputs": [
        {
          "internalType": "address",
          "name": "marketplaceAddress",
          "type": "address"
        },
        {
          "internalType": "contract SharedNFTLogic",
          "name": "_sharedNFTLogic",
          "type": "address"
        }
      ],
      "stateMutability": "nonpayable",
      "type": "constructor"
    },
    {
      "anonymous": false,
      "inputs": [
        {
          "indexed": true,
          "internalType": "address",
          "name": "owner",
          "type": "address"
        },
        {
          "indexed": true,
          "internalType": "address",
          "name": "approved",
          "type": "address"
        },
        {
          "indexed": true,
          "internalType": "uint256",
          "name": "tokenId",
          "type": "uint256"
        }
      ],
      "name": "Approval",
      "type": "event"
    },
    {
      "anonymous": false,
      "inputs": [
        {
          "indexed": true,
          "internalType": "address",
          "name": "owner",
          "type": "address"
        },
        {
          "indexed": true,
          "internalType": "address",
          "name": "operator",
          "type": "address"
        },
        {
          "indexed": false,
          "internalType": "bool",
          "name": "approved",
          "type": "bool"
        }
      ],
      "name": "ApprovalForAll",
      "type": "event"
    },
    {
      "anonymous": false,
      "inputs": [
        {
          "indexed": false,
          "internalType": "uint256",
          "name": "price",
          "type": "uint256"
        },
        {
          "indexed": false,
          "internalType": "address",
          "name": "owner",
          "type": "address"
        }
      ],
      "name": "EditionSold",
      "type": "event"
    },
    {
      "anonymous": false,
      "inputs": [
        {
          "indexed": false,
          "internalType": "uint8",
          "name": "version",
          "type": "uint8"
        }
      ],
      "name": "Initialized",
      "type": "event"
    },
    {
      "anonymous": false,
      "inputs": [
        {
          "indexed": true,
          "internalType": "address",
          "name": "previousOwner",
          "type": "address"
        },
        {
          "indexed": true,
          "internalType": "address",
          "name": "newOwner",
          "type": "address"
        }
      ],
      "name": "OwnershipTransferred",
      "type": "event"
    },
    {
      "anonymous": false,
      "inputs": [
        {
          "indexed": false,
          "internalType": "uint256",
          "name": "amount",
          "type": "uint256"
        }
      ],
      "name": "PriceChanged",
      "type": "event"
    },
    {
      "anonymous": false,
      "inputs": [
        {
          "indexed": true,
          "internalType": "address",
          "name": "from",
          "type": "address"
        },
        {
          "indexed": true,
          "internalType": "address",
          "name": "to",
          "type": "address"
        },
        {
          "indexed": true,
          "internalType": "uint256",
          "name": "tokenId",
          "type": "uint256"
        }
      ],
      "name": "Transfer",
      "type": "event"
    },
    {
      "inputs": [
        {
          "internalType": "address",
          "name": "to",
          "type": "address"
        },
        {
          "internalType": "uint256",
          "name": "tokenId",
          "type": "uint256"
        }
      ],
      "name": "approve",
      "outputs": [],
      "stateMutability": "nonpayable",
      "type": "function"
    },
    {
      "inputs": [
        {
          "internalType": "address",
          "name": "owner",
          "type": "address"
        }
      ],
      "name": "balanceOf",
      "outputs": [
        {
          "internalType": "uint256",
          "name": "",
          "type": "uint256"
        }
      ],
      "stateMutability": "view",
      "type": "function"
    },
    {
      "inputs": [
        {
          "internalType": "uint256",
          "name": "tokenId",
          "type": "uint256"
        }
      ],
      "name": "burn",
      "outputs": [],
      "stateMutability": "nonpayable",
      "type": "function"
    },
    {
      "inputs": [],
      "name": "description",
      "outputs": [
        {
          "internalType": "string",
          "name": "",
          "type": "string"
        }
      ],
      "stateMutability": "view",
      "type": "function"
    },
    {
      "inputs": [],
      "name": "editionSize",
      "outputs": [
        {
          "internalType": "uint256",
          "name": "",
          "type": "uint256"
        }
      ],
      "stateMutability": "view",
      "type": "function"
    },
    {
      "inputs": [
        {
          "internalType": "uint256",
          "name": "tokenId",
          "type": "uint256"
        }
      ],
      "name": "getApproved",
      "outputs": [
        {
          "internalType": "address",
          "name": "",
          "type": "address"
        }
      ],
      "stateMutability": "view",
      "type": "function"
    },
    {
      "inputs": [],
      "name": "getURIs",
      "outputs": [
        {
          "internalType": "string",
          "name": "",
          "type": "string"
        },
        {
          "internalType": "string",
          "name": "",
          "type": "string"
        }
      ],
      "stateMutability": "view",
      "type": "function"
    },
    {
      "inputs": [
        {
          "internalType": "address",
          "name": "_owner",
          "type": "address"
        },
        {
          "internalType": "string",
          "name": "_name",
          "type": "string"
        },
        {
          "internalType": "string",
          "name": "_symbol",
          "type": "string"
        },
        {
          "internalType": "string",
          "name": "_description",
          "type": "string"
        },
        {
          "internalType": "string",
          "name": "_animationUrl",
          "type": "string"
        },
        {
          "internalType": "string",
          "name": "_imageUrl",
          "type": "string"
        },
        {
          "internalType": "uint256",
          "name": "_editionSize",
          "type": "uint256"
        },
        {
          "internalType": "uint256",
          "name": "_royaltyBPS",
          "type": "uint256"
        }
      ],
      "name": "initialize",
      "outputs": [],
      "stateMutability": "nonpayable",
      "type": "function"
    },
    {
      "inputs": [
        {
          "internalType": "address",
          "name": "owner",
          "type": "address"
        },
        {
          "internalType": "address",
          "name": "operator",
          "type": "address"
        }
      ],
      "name": "isApprovedForAll",
      "outputs": [
        {
          "internalType": "bool",
          "name": "",
          "type": "bool"
        }
      ],
      "stateMutability": "view",
      "type": "function"
    },
    {
      "inputs": [
        {
          "internalType": "address",
          "name": "to",
          "type": "address"
        }
      ],
      "name": "mintEdition",
      "outputs": [
        {
          "internalType": "uint256",
          "name": "",
          "type": "uint256"
        }
      ],
      "stateMutability": "nonpayable",
      "type": "function"
    },
    {
      "inputs": [
        {
          "internalType": "address[]",
          "name": "recipients",
          "type": "address[]"
        }
      ],
      "name": "mintEditions",
      "outputs": [
        {
          "internalType": "uint256",
          "name": "",
          "type": "uint256"
        }
      ],
      "stateMutability": "nonpayable",
      "type": "function"
    },
    {
      "inputs": [],
      "name": "name",
      "outputs": [
        {
          "internalType": "string",
          "name": "",
          "type": "string"
        }
      ],
      "stateMutability": "view",
      "type": "function"
    },
    {
      "inputs": [],
      "name": "numberCanMint",
      "outputs": [
        {
          "internalType": "uint256",
          "name": "",
          "type": "uint256"
        }
      ],
      "stateMutability": "view",
      "type": "function"
    },
    {
      "inputs": [],
      "name": "owner",
      "outputs": [
        {
          "internalType": "address",
          "name": "",
          "type": "address"
        }
      ],
      "stateMutability": "view",
      "type": "function"
    },
    {
      "inputs": [
        {
          "internalType": "uint256",
          "name": "tokenId",
          "type": "uint256"
        }
      ],
      "name": "ownerOf",
      "outputs": [
        {
          "internalType": "address",
          "name": "",
          "type": "address"
        }
      ],
      "stateMutability": "view",
      "type": "function"
    },
    {
      "inputs": [],
      "name": "purchase",
      "outputs": [
        {
          "internalType": "uint256",
          "name": "",
          "type": "uint256"
        }
      ],
      "stateMutability": "payable",
      "type": "function"
    },
    {
      "inputs": [],
      "name": "renounceOwnership",
      "outputs": [],
      "stateMutability": "nonpayable",
      "type": "function"
    },
    {
      "inputs": [
        {
          "internalType": "uint256",
          "name": "",
          "type": "uint256"
        },
        {
          "internalType": "uint256",
          "name": "_salePrice",
          "type": "uint256"
        }
      ],
      "name": "royaltyInfo",
      "outputs": [
        {
          "internalType": "address",
          "name": "receiver",
          "type": "address"
        },
        {
          "internalType": "uint256",
          "name": "royaltyAmount",
          "type": "uint256"
        }
      ],
      "stateMutability": "view",
      "type": "function"
    },
    {
      "inputs": [
        {
          "internalType": "address",
          "name": "from",
          "type": "address"
        },
        {
          "internalType": "address",
          "name": "to",
          "type": "address"
        },
        {
          "internalType": "uint256",
          "name": "tokenId",
          "type": "uint256"
        }
      ],
      "name": "safeTransferFrom",
      "outputs": [],
      "stateMutability": "nonpayable",
      "type": "function"
    },
    {
      "inputs": [
        {
          "internalType": "address",
          "name": "from",
          "type": "address"
        },
        {
          "internalType": "address",
          "name": "to",
          "type": "address"
        },
        {
          "internalType": "uint256",
          "name": "tokenId",
          "type": "uint256"
        },
        {
          "internalType": "bytes",
          "name": "data",
          "type": "bytes"
        }
      ],
      "name": "safeTransferFrom",
      "outputs": [],
      "stateMutability": "nonpayable",
      "type": "function"
    },
    {
      "inputs": [],
      "name": "salePrice",
      "outputs": [
        {
          "internalType": "uint256",
          "name": "",
          "type": "uint256"
        }
      ],
      "stateMutability": "view",
      "type": "function"
    },
    {
      "inputs": [
        {
          "internalType": "address",
          "name": "operator",
          "type": "address"
        },
        {
          "internalType": "bool",
          "name": "approved",
          "type": "bool"
        }
      ],
      "name": "setApprovalForAll",
      "outputs": [],
      "stateMutability": "nonpayable",
      "type": "function"
    },
    {
      "inputs": [
        {
          "internalType": "address",
          "name": "minter",
          "type": "address"
        },
        {
          "internalType": "bool",
          "name": "allowed",
          "type": "bool"
        }
      ],
      "name": "setApprovedMinter",
      "outputs": [],
      "stateMutability": "nonpayable",
      "type": "function"
    },
    {
      "inputs": [
        {
          "internalType": "uint256",
          "name": "_salePrice",
          "type": "uint256"
        }
      ],
      "name": "setSalePrice",
      "outputs": [],
      "stateMutability": "nonpayable",
      "type": "function"
    },
    {
      "inputs": [
        {
          "internalType": "bytes4",
          "name": "interfaceId",
          "type": "bytes4"
        }
      ],
      "name": "supportsInterface",
      "outputs": [
        {
          "internalType": "bool",
          "name": "",
          "type": "bool"
        }
      ],
      "stateMutability": "view",
      "type": "function"
    },
    {
      "inputs": [],
      "name": "symbol",
      "outputs": [
        {
          "internalType": "string",
          "name": "",
          "type": "string"
        }
      ],
      "stateMutability": "view",
      "type": "function"
    },
    {
      "inputs": [
        {
          "internalType": "uint256",
          "name": "tokenId",
          "type": "uint256"
        }
      ],
      "name": "tokenURI",
      "outputs": [
        {
          "internalType": "string",
          "name": "",
          "type": "string"
        }
      ],
      "stateMutability": "view",
      "type": "function"
    },
    {
      "inputs": [],
      "name": "totalSupply",
      "outputs": [
        {
          "internalType": "uint256",
          "name": "",
          "type": "uint256"
        }
      ],
      "stateMutability": "view",
      "type": "function"
    },
    {
      "inputs": [
        {
          "internalType": "address",
          "name": "from",
          "type": "address"
        },
        {
          "internalType": "address",
          "name": "to",
          "type": "address"
        },
        {
          "internalType": "uint256",
          "name": "tokenId",
          "type": "uint256"
        }
      ],
      "name": "transferFrom",
      "outputs": [],
      "stateMutability": "nonpayable",
      "type": "function"
    },
    {
      "inputs": [
        {
          "internalType": "address",
          "name": "newOwner",
          "type": "address"
        }
      ],
      "name": "transferOwnership",
      "outputs": [],
      "stateMutability": "nonpayable",
      "type": "function"
    },
    {
      "inputs": [
        {
          "internalType": "string",
          "name": "_imageUrl",
          "type": "string"
        },
        {
          "internalType": "string",
          "name": "_animationUrl",
          "type": "string"
        }
      ],
      "name": "updateEditionURLs",
      "outputs": [],
      "stateMutability": "nonpayable",
      "type": "function"
    },
    {
      "inputs": [],
      "name": "withdraw",
      "outputs": [],
      "stateMutability": "nonpayable",
      "type": "function"
    }
  ],
  "transactionHash": "0x56c4a5e4c2fa2c506cc559620c93d8c17cca1d6a0e667efad77715796daa06da",
  "args": [
    "0x6222518591eDB175CFA534cB118db817453Ac5DA",
    "0x0220dB1072f3673c1035CAE6c07e12d36C6f7952"
  ],
  "numDeployments": 1,
  "solcInputHash": "eba98e6adb560d1babbaa9680e2de94e",
  "bytecode": "0x60a06040523480156200001157600080fd5b50604051620027ce380380620027ce833981016040819052620000349162000079565b6001600160a01b0390811660805260c980546001600160a01b03191692909116919091179055620000b8565b6001600160a01b03811681146200007657600080fd5b50565b600080604083850312156200008d57600080fd5b82516200009a8162000060565b6020840151909250620000ad8162000060565b809150509250929050565b6080516126fa620000d460003960006110e401526126fa6000f3fe6080604052600436106101e35760003560e01c806364edfbf011610102578063a66ff0af11610095578063e985e9c511610064578063e985e9c514610564578063f2fde38b146105ad578063f4ed0f46146105cd578063f51f96dd146105e357600080fd5b8063a66ff0af146104e4578063b88d4fde14610504578063c87b56dd14610524578063e444bfcc1461054457600080fd5b80637284e416116100d15780637284e416146104855780638da5cb5b1461049a57806395d89b41146104af578063a22cb465146104c457600080fd5b806364edfbf01461042857806370a0823114610430578063715018a614610450578063720cdd821461046557600080fd5b806323b872dd1161017a5780633ccfd60b116101495780633ccfd60b146103b357806342842e0e146103c857806342966c68146103e85780636352211e1461040857600080fd5b806323b872dd1461031157806328c5440f1461033157806329ec16dd146103545780632a55205a1461037457600080fd5b80630b65b6e7116101b65780630b65b6e7146102995780630f6a9349146102bc57806318160ddd146102dc5780631919fed7146102f157600080fd5b806301ffc9a7146101e857806306fdde031461021d578063081812fc1461023f578063095ea7b314610277575b600080fd5b3480156101f457600080fd5b50610208610203366004611dea565b6105f9565b60405190151581526020015b60405180910390f35b34801561022957600080fd5b50610232610624565b6040516102149190611e5f565b34801561024b57600080fd5b5061025f61025a366004611e72565b6106b6565b6040516001600160a01b039091168152602001610214565b34801561028357600080fd5b50610297610292366004611ea7565b6106dd565b005b3480156102a557600080fd5b506102ae6107f8565b604051908152602001610214565b3480156102c857600080fd5b506102ae6102d7366004611f18565b61082c565b3480156102e857600080fd5b506102ae61088b565b3480156102fd57600080fd5b5061029761030c366004611e72565b610898565b34801561031d57600080fd5b5061029761032c366004611fc5565b6108db565b34801561033d57600080fd5b5061034661090d565b604051610214929190612001565b34801561036057600080fd5b5061029761036f36600461202f565b610a34565b34801561038057600080fd5b5061039461038f36600461206b565b610a67565b604080516001600160a01b039093168352602083019190915201610214565b3480156103bf57600080fd5b50610297610ac4565b3480156103d457600080fd5b506102976103e3366004611fc5565b610adf565b3480156103f457600080fd5b50610297610403366004611e72565b610afa565b34801561041457600080fd5b5061025f610423366004611e72565b610b4a565b6102ae610baa565b34801561043c57600080fd5b506102ae61044b36600461208d565b610cc4565b34801561045c57600080fd5b50610297610d4a565b34801561047157600080fd5b5061029761048036600461212e565b610d5c565b34801561049157600080fd5b50610232610edc565b3480156104a657600080fd5b5061025f610f6a565b3480156104bb57600080fd5b50610232610f7e565b3480156104d057600080fd5b506102976104df36600461202f565b610f8d565b3480156104f057600080fd5b506102ae6104ff36600461208d565b610f9c565b34801561051057600080fd5b5061029761051f366004612224565b611058565b34801561053057600080fd5b5061023261053f366004611e72565b611090565b34801561055057600080fd5b5061029761055f3660046122a0565b611189565b34801561057057600080fd5b5061020861057f366004612304565b6001600160a01b039182166000908152606a6020908152604080832093909416825291909152205460ff1690565b3480156105b957600080fd5b506102976105c836600461208d565b6111b8565b3480156105d957600080fd5b506102ae60cd5481565b3480156105ef57600080fd5b506102ae60d15481565b600063152a902d60e11b6001600160e01b03198316148061061e575061061e8261122e565b92915050565b60606065805461063390612337565b80601f016020809104026020016040519081016040528092919081815260200182805461065f90612337565b80156106ac5780601f10610681576101008083540402835291602001916106ac565b820191906000526020600020905b81548152906001019060200180831161068f57829003601f168201915b5050505050905090565b60006106c18261127e565b506000908152606960205260409020546001600160a01b031690565b60006106e882610b4a565b9050806001600160a01b0316836001600160a01b0316141561075b5760405162461bcd60e51b815260206004820152602160248201527f4552433732313a20617070726f76616c20746f2063757272656e74206f776e656044820152603960f91b60648201526084015b60405180910390fd5b336001600160a01b03821614806107775750610777813361057f565b6107e95760405162461bcd60e51b815260206004820152603e60248201527f4552433732313a20617070726f76652063616c6c6572206973206e6f7420746f60448201527f6b656e206f776e6572206e6f7220617070726f76656420666f7220616c6c00006064820152608401610752565b6107f383836112dd565b505050565b600060cd546000141561080c575060001990565b60ce5460cd5461081d906001612388565b61082791906123a0565b905090565b600061083661134b565b6108825760405162461bcd60e51b815260206004820152601d60248201527f4e6565647320746f20626520616e20616c6c6f776564206d696e7465720000006044820152606401610752565b61061e826113bb565b6000600161081d60ce5490565b6108a061149c565b60d18190556040518181527fa6dc15bdb68da224c66db4b3838d9a2b205138e8cff6774e57d0af91e196d6229060200160405180910390a150565b6108e6335b826114fb565b6109025760405162461bcd60e51b8152600401610752906123b7565b6107f3838383611579565b60608060cc60cb81805461092090612337565b80601f016020809104026020016040519081016040528092919081815260200182805461094c90612337565b80156109995780601f1061096e57610100808354040283529160200191610999565b820191906000526020600020905b81548152906001019060200180831161097c57829003601f168201915b505050505091508080546109ac90612337565b80601f01602080910402602001604051908101604052809291908181526020018280546109d890612337565b8015610a255780601f106109fa57610100808354040283529160200191610a25565b820191906000526020600020905b815481529060010190602001808311610a0857829003601f168201915b50505050509050915091509091565b610a3c61149c565b6001600160a01b0391909116600090815260d060205260409020805460ff1916911515919091179055565b60008080610a73610f6a565b6001600160a01b03161415610a9557610a8a610f6a565b600091509150610abd565b610a9d610f6a565b61271060cf5485610aae9190612405565b610ab89190612424565b915091505b9250929050565b610acc61149c565b610add610ad7610f6a565b47611715565b565b6107f383838360405180602001604052806000815250611058565b610b03336108e0565b610b3e5760405162461bcd60e51b815260206004820152600c60248201526b139bdd08185c1c1c9bdd995960a21b6044820152606401610752565b610b478161182e565b50565b6000818152606760205260408120546001600160a01b03168061061e5760405162461bcd60e51b8152602060048201526018602482015277115490cdcc8c4e881a5b9d985b1a59081d1bdad95b88125160421b6044820152606401610752565b60008060d15411610bec5760405162461bcd60e51b815260206004820152600c60248201526b4e6f7420666f722073616c6560a01b6044820152606401610752565b60d1543414610c2b5760405162461bcd60e51b815260206004820152600b60248201526a57726f6e6720707269636560a81b6044820152606401610752565b604080516001808252818301909252600091602080830190803683370190505090503381600081518110610c6157610c61612446565b6001600160a01b0390921660209283029190910182015260d1546040805191825233928201929092527f60a6c75698fadb72223808131f9f9bb9db3afa32122db6d94fb8fc985a504baa910160405180910390a1610cbe816113bb565b91505090565b60006001600160a01b038216610d2e5760405162461bcd60e51b815260206004820152602960248201527f4552433732313a2061646472657373207a65726f206973206e6f7420612076616044820152683634b21037bbb732b960b91b6064820152608401610752565b506001600160a01b031660009081526068602052604090205490565b610d5261149c565b610add60006118c9565b600054610100900460ff1615808015610d7c5750600054600160ff909116105b80610d965750303b158015610d96575060005460ff166001145b610df95760405162461bcd60e51b815260206004820152602e60248201527f496e697469616c697a61626c653a20636f6e747261637420697320616c72656160448201526d191e481a5b9a5d1a585b1a5e995960921b6064820152608401610752565b6000805460ff191660011790558015610e1c576000805461ff0019166101001790555b610e26888861191b565b610e2e61194c565b610e37896111b8565b8551610e4a9060ca906020890190611d3b565b508451610e5e9060cb906020880190611d3b565b508351610e729060cc906020870190611d3b565b5060cd83905560cf829055610e8b60ce80546001019055565b8015610ed1576000805461ff0019169055604051600181527f7f26b83ff96e1f2b6a682f133852f6798a09c465da95921460cefb38474024989060200160405180910390a15b505050505050505050565b60ca8054610ee990612337565b80601f0160208091040260200160405190810160405280929190818152602001828054610f1590612337565b8015610f625780601f10610f3757610100808354040283529160200191610f62565b820191906000526020600020905b815481529060010190602001808311610f4557829003601f168201915b505050505081565b60006108276097546001600160a01b031690565b60606066805461063390612337565b610f9833838361197b565b5050565b6000610fa661134b565b610ff25760405162461bcd60e51b815260206004820152601d60248201527f4e6565647320746f20626520616e20616c6c6f776564206d696e7465720000006044820152606401610752565b60408051600180825281830190925260009160208083019080368337019050509050828160008151811061102857611028612446565b60200260200101906001600160a01b031690816001600160a01b031681525050611051816113bb565b9392505050565b61106233836114fb565b61107e5760405162461bcd60e51b8152600401610752906123b7565b61108a84848484611a4a565b50505050565b6000818152606760205260409020546060906001600160a01b03166110e25760405162461bcd60e51b81526020600482015260086024820152672737903a37b5b2b760c11b6044820152606401610752565b7f00000000000000000000000000000000000000000000000000000000000000006001600160a01b031663df30dba0611119610624565b60ca60cc60cb8760cd546040518763ffffffff1660e01b8152600401611144969594939291906124fc565b600060405180830381865afa158015611161573d6000803e3d6000fd5b505050506040513d6000823e601f3d908101601f1916820160405261061e919081019061255f565b61119161149c565b81516111a49060cc906020850190611d3b565b5080516107f39060cb906020840190611d3b565b6111c061149c565b6001600160a01b0381166112255760405162461bcd60e51b815260206004820152602660248201527f4f776e61626c653a206e6577206f776e657220697320746865207a65726f206160448201526564647265737360d01b6064820152608401610752565b610b47816118c9565b60006001600160e01b031982166380ac58cd60e01b148061125f57506001600160e01b03198216635b5e139f60e01b145b8061061e57506301ffc9a760e01b6001600160e01b031983161461061e565b6000818152606760205260409020546001600160a01b0316610b475760405162461bcd60e51b8152602060048201526018602482015277115490cdcc8c4e881a5b9d985b1a59081d1bdad95b88125160421b6044820152606401610752565b600081815260696020526040902080546001600160a01b0319166001600160a01b038416908117909155819061131282610b4a565b6001600160a01b03167f8c5be1e5ebec7d5bd14f71427d1e84f3dd0314c0f7b2291e5b200ac8c7c3b92560405160405180910390a45050565b600033611356610f6a565b6001600160a01b0316141561136b5750600190565b6000805260d06020527f790dca8aa28f25f1915553dd78bb1fae41686aabbb62ea6516ab2cafb7d258995460ff16156113a45750600190565b5033600090815260d0602052604090205460ff1690565b6000806113c760ce5490565b9050600060018451836113da9190612388565b6113e491906123a0565b905060cd54600014806113f9575060cd548111155b6114305760405162461bcd60e51b815260206004820152600860248201526714dbdb19081bdd5d60c21b6044820152606401610752565b8061143a60ce5490565b116114905761147d848361144d60ce5490565b61145791906123a0565b8151811061146757611467612446565b602002602001015161147860ce5490565b611a7d565b61148b60ce80546001019055565b611430565b60ce545b949350505050565b336114a5610f6a565b6001600160a01b031614610add5760405162461bcd60e51b815260206004820181905260248201527f4f776e61626c653a2063616c6c6572206973206e6f7420746865206f776e65726044820152606401610752565b60008061150783610b4a565b9050806001600160a01b0316846001600160a01b0316148061154e57506001600160a01b038082166000908152606a602090815260408083209388168352929052205460ff165b806114945750836001600160a01b0316611567846106b6565b6001600160a01b031614949350505050565b826001600160a01b031661158c82610b4a565b6001600160a01b0316146115f05760405162461bcd60e51b815260206004820152602560248201527f4552433732313a207472616e736665722066726f6d20696e636f72726563742060448201526437bbb732b960d91b6064820152608401610752565b6001600160a01b0382166116525760405162461bcd60e51b8152602060048201526024808201527f4552433732313a207472616e7366657220746f20746865207a65726f206164646044820152637265737360e01b6064820152608401610752565b61165d6000826112dd565b6001600160a01b03831660009081526068602052604081208054600192906116869084906123a0565b90915550506001600160a01b03821660009081526068602052604081208054600192906116b4908490612388565b909155505060008181526067602052604080822080546001600160a01b0319166001600160a01b0386811691821790925591518493918716917fddf252ad1be2c89b69c2b068fc378daa952ba7f163c4a11628f55a4df523b3ef91a4505050565b804710156117655760405162461bcd60e51b815260206004820152601d60248201527f416464726573733a20696e73756666696369656e742062616c616e63650000006044820152606401610752565b6000826001600160a01b03168260405160006040518083038185875af1925050503d80600081146117b2576040519150601f19603f3d011682016040523d82523d6000602084013e6117b7565b606091505b50509050806107f35760405162461bcd60e51b815260206004820152603a60248201527f416464726573733a20756e61626c6520746f2073656e642076616c75652c207260448201527f6563697069656e74206d617920686176652072657665727465640000000000006064820152608401610752565b600061183982610b4a565b90506118466000836112dd565b6001600160a01b038116600090815260686020526040812080546001929061186f9084906123a0565b909155505060008281526067602052604080822080546001600160a01b0319169055518391906001600160a01b038416907fddf252ad1be2c89b69c2b068fc378daa952ba7f163c4a11628f55a4df523b3ef908390a45050565b609780546001600160a01b038381166001600160a01b0319831681179093556040519116919082907f8be0079c531659141344cd1fd0a4f28419497f9722a3daafe3b4186f6b6457e090600090a35050565b600054610100900460ff166119425760405162461bcd60e51b8152600401610752906125cd565b610f988282611bbf565b600054610100900460ff166119735760405162461bcd60e51b8152600401610752906125cd565b610add611c0d565b816001600160a01b0316836001600160a01b031614156119dd5760405162461bcd60e51b815260206004820152601960248201527f4552433732313a20617070726f766520746f2063616c6c6572000000000000006044820152606401610752565b6001600160a01b038381166000818152606a6020908152604080832094871680845294825291829020805460ff191686151590811790915591519182527f17307eab39ab6107e8899845ad3d59bd9653f200f220920489ca2b5937696c31910160405180910390a3505050565b611a55848484611579565b611a6184848484611c3d565b61108a5760405162461bcd60e51b815260040161075290612618565b6001600160a01b038216611ad35760405162461bcd60e51b815260206004820181905260248201527f4552433732313a206d696e7420746f20746865207a65726f20616464726573736044820152606401610752565b6000818152606760205260409020546001600160a01b031615611b385760405162461bcd60e51b815260206004820152601c60248201527f4552433732313a20746f6b656e20616c7265616479206d696e746564000000006044820152606401610752565b6001600160a01b0382166000908152606860205260408120805460019290611b61908490612388565b909155505060008181526067602052604080822080546001600160a01b0319166001600160a01b03861690811790915590518392907fddf252ad1be2c89b69c2b068fc378daa952ba7f163c4a11628f55a4df523b3ef908290a45050565b600054610100900460ff16611be65760405162461bcd60e51b8152600401610752906125cd565b8151611bf9906065906020850190611d3b565b5080516107f3906066906020840190611d3b565b600054610100900460ff16611c345760405162461bcd60e51b8152600401610752906125cd565b610add336118c9565b60006001600160a01b0384163b15611d3057604051630a85bd0160e11b81526001600160a01b0385169063150b7a0290611c8190339089908890889060040161266a565b6020604051808303816000875af1925050508015611cbc575060408051601f3d908101601f19168201909252611cb9918101906126a7565b60015b611d16573d808015611cea576040519150601f19603f3d011682016040523d82523d6000602084013e611cef565b606091505b508051611d0e5760405162461bcd60e51b815260040161075290612618565b805181602001fd5b6001600160e01b031916630a85bd0160e11b149050611494565b506001949350505050565b828054611d4790612337565b90600052602060002090601f016020900481019282611d695760008555611daf565b82601f10611d8257805160ff1916838001178555611daf565b82800160010185558215611daf579182015b82811115611daf578251825591602001919060010190611d94565b50611dbb929150611dbf565b5090565b5b80821115611dbb5760008155600101611dc0565b6001600160e01b031981168114610b4757600080fd5b600060208284031215611dfc57600080fd5b813561105181611dd4565b60005b83811015611e22578181015183820152602001611e0a565b8381111561108a5750506000910152565b60008151808452611e4b816020860160208601611e07565b601f01601f19169290920160200192915050565b6020815260006110516020830184611e33565b600060208284031215611e8457600080fd5b5035919050565b80356001600160a01b0381168114611ea257600080fd5b919050565b60008060408385031215611eba57600080fd5b611ec383611e8b565b946020939093013593505050565b634e487b7160e01b600052604160045260246000fd5b604051601f8201601f1916810167ffffffffffffffff81118282101715611f1057611f10611ed1565b604052919050565b60006020808385031215611f2b57600080fd5b823567ffffffffffffffff80821115611f4357600080fd5b818501915085601f830112611f5757600080fd5b813581811115611f6957611f69611ed1565b8060051b9150611f7a848301611ee7565b8181529183018401918481019088841115611f9457600080fd5b938501935b83851015611fb957611faa85611e8b565b82529385019390850190611f99565b98975050505050505050565b600080600060608486031215611fda57600080fd5b611fe384611e8b565b9250611ff160208501611e8b565b9150604084013590509250925092565b6040815260006120146040830185611e33565b82810360208401526120268185611e33565b95945050505050565b6000806040838503121561204257600080fd5b61204b83611e8b565b91506020830135801515811461206057600080fd5b809150509250929050565b6000806040838503121561207e57600080fd5b50508035926020909101359150565b60006020828403121561209f57600080fd5b61105182611e8b565b600067ffffffffffffffff8211156120c2576120c2611ed1565b50601f01601f191660200190565b60006120e36120de846120a8565b611ee7565b90508281528383830111156120f757600080fd5b828260208301376000602084830101529392505050565b600082601f83011261211f57600080fd5b611051838335602085016120d0565b600080600080600080600080610100898b03121561214b57600080fd5b61215489611e8b565b9750602089013567ffffffffffffffff8082111561217157600080fd5b61217d8c838d0161210e565b985060408b013591508082111561219357600080fd5b61219f8c838d0161210e565b975060608b01359150808211156121b557600080fd5b6121c18c838d0161210e565b965060808b01359150808211156121d757600080fd5b6121e38c838d0161210e565b955060a08b01359150808211156121f957600080fd5b506122068b828c0161210e565b93505060c0890135915060e089013590509295985092959890939650565b6000806000806080858703121561223a57600080fd5b61224385611e8b565b935061225160208601611e8b565b925060408501359150606085013567ffffffffffffffff81111561227457600080fd5b8501601f8101871361228557600080fd5b612294878235602084016120d0565b91505092959194509250565b600080604083850312156122b357600080fd5b823567ffffffffffffffff808211156122cb57600080fd5b6122d78683870161210e565b935060208501359150808211156122ed57600080fd5b506122fa8582860161210e565b9150509250929050565b6000806040838503121561231757600080fd5b61232083611e8b565b915061232e60208401611e8b565b90509250929050565b600181811c9082168061234b57607f821691505b6020821081141561236c57634e487b7160e01b600052602260045260246000fd5b50919050565b634e487b7160e01b600052601160045260246000fd5b6000821982111561239b5761239b612372565b500190565b6000828210156123b2576123b2612372565b500390565b6020808252602e908201527f4552433732313a2063616c6c6572206973206e6f7420746f6b656e206f776e6560408201526d1c881b9bdc88185c1c1c9bdd995960921b606082015260800190565b600081600019048311821515161561241f5761241f612372565b500290565b60008261244157634e487b7160e01b600052601260045260246000fd5b500490565b634e487b7160e01b600052603260045260246000fd5b8054600090600181811c908083168061247657607f831692505b602080841082141561249857634e487b7160e01b600052602260045260246000fd5b838852602088018280156124b357600181146124c4576124ef565b60ff198716825282820197506124ef565b60008981526020902060005b878110156124e9578154848201529086019084016124d0565b83019850505b5050505050505092915050565b60c08152600061250f60c0830189611e33565b8281036020840152612521818961245c565b90508281036040840152612535818861245c565b90508281036060840152612549818761245c565b6080840195909552505060a00152949350505050565b60006020828403121561257157600080fd5b815167ffffffffffffffff81111561258857600080fd5b8201601f8101841361259957600080fd5b80516125a76120de826120a8565b8181528560208385010111156125bc57600080fd5b612026826020830160208601611e07565b6020808252602b908201527f496e697469616c697a61626c653a20636f6e7472616374206973206e6f74206960408201526a6e697469616c697a696e6760a81b606082015260800190565b60208082526032908201527f4552433732313a207472616e7366657220746f206e6f6e20455243373231526560408201527131b2b4bb32b91034b6b83632b6b2b73a32b960711b606082015260800190565b6001600160a01b038581168252841660208201526040810183905260806060820181905260009061269d90830184611e33565b9695505050505050565b6000602082840312156126b957600080fd5b815161105181611dd456fea26469706673582212206b3721006ee208b146c7ecbb4f4ecf3e4e65a8bce3642803c9eced5c8c69e93664736f6c634300080a0033",
  "devdoc": {
    "kind": "dev",
    "methods": {
      "approve(address,uint256)": {
        "details": "See {IERC721-approve}."
      },
      "balanceOf(address)": {
        "details": "See {IERC721-balanceOf}."
      },
      "burn(uint256)": {
        "params": {
          "tokenId": "Token ID to burn User burn function for token id "
        }
      },
      "getApproved(uint256)": {
        "details": "See {IERC721-getApproved}."
      },
      "getURIs()": {
        "details": "Get URIs for edition NFT",
        "returns": {
          "_0": "imageUrl,  animationUrl"
        }
      },
      "isApprovedForAll(address,address)": {
        "details": "See {IERC721-isApprovedForAll}."
      },
      "mintEdition(address)": {
        "details": "This mints one edition to the given address by an allowed minter on the edition instance.",
        "params": {
          "to": "address to send the newly minted edition to"
        }
      },
      "mintEditions(address[])": {
        "details": "This mints multiple editions to the given list of addresses.",
        "params": {
          "recipients": "list of addresses to send the newly minted editions to"
        }
      },
      "name()": {
        "details": "See {IERC721Metadata-name}."
      },
      "ownerOf(uint256)": {
        "details": "See {IERC721-ownerOf}."
      },
      "purchase()": {
        "details": "This allows the user to purchase a edition edition at the given price in the contract."
      },
      "renounceOwnership()": {
        "details": "Leaves the contract without owner. It will not be possible to call `onlyOwner` functions anymore. Can only be called by the current owner. NOTE: Renouncing ownership will leave the contract without an owner, thereby removing any functionality that is only available to the owner."
      },
      "royaltyInfo(uint256,uint256)": {
        "details": "Get royalty information for token",
        "params": {
          "_salePrice": "Sale price for the token"
        }
      },
      "safeTransferFrom(address,address,uint256)": {
        "details": "See {IERC721-safeTransferFrom}."
      },
      "safeTransferFrom(address,address,uint256,bytes)": {
        "details": "See {IERC721-safeTransferFrom}."
      },
      "setApprovalForAll(address,bool)": {
        "details": "See {IERC721-setApprovalForAll}."
      },
      "setApprovedMinter(address,bool)": {
        "details": "Sets the approved minting status of the given address. This requires that msg.sender is the owner of the given edition id. If the ZeroAddress (address(0x0)) is set as a minter, anyone will be allowed to mint. This setup is similar to setApprovalForAll in the ERC721 spec.",
        "params": {
          "allowed": "boolean if that address is allowed to mint",
          "minter": "address to set approved minting status for"
        }
      },
      "setSalePrice(uint256)": {
        "details": "This sets a simple ETH sales price Setting a sales price allows users to mint the edition until it sells out. For more granular sales, use an external sales contract.",
        "params": {
          "_salePrice": "if sale price is 0 sale is stopped, otherwise that amount  of ETH is needed to start the sale."
        }
      },
      "symbol()": {
        "details": "See {IERC721Metadata-symbol}."
      },
      "tokenURI(uint256)": {
        "details": "Get URI for given token id",
        "params": {
          "tokenId": "token id to get uri for"
        },
        "returns": {
          "_0": "base64-encoded json metadata object"
        }
      },
      "totalSupply()": {
        "details": "returns the number of minted tokens within the edition"
      },
      "transferFrom(address,address,uint256)": {
        "details": "See {IERC721-transferFrom}."
      },
      "transferOwnership(address)": {
        "details": "Transfers ownership of the contract to a new account (`newOwner`). Can only be called by the current owner."
      },
      "updateEditionURLs(string,string)": {
        "details": "Allows for updates of edition urls by the owner of the edition. Only URLs can be updated (data-uris are supported), hashes cannot be updated."
      },
      "withdraw()": {
        "details": "This withdraws ETH from the contract to the contract owner."
      }
    },
    "version": 1
  },
  "userdoc": {
    "kind": "user",
    "methods": {
      "numberCanMint()": {
        "notice": "Returns the number of editions allowed to mint (max_uint256 when open edition)"
      },
      "owner()": {
        "notice": "Simple override for owner interface."
      }
    },
    "version": 1
  },
  "storageLayout": {
    "storage": [
      {
        "astId": 820,
        "contract": "contracts/erc721Static.sol:erc721Static",
        "label": "_initialized",
        "offset": 0,
        "slot": "0",
        "type": "t_uint8"
      },
      {
        "astId": 823,
        "contract": "contracts/erc721Static.sol:erc721Static",
        "label": "_initializing",
        "offset": 1,
        "slot": "0",
        "type": "t_bool"
      },
      {
        "astId": 3165,
        "contract": "contracts/erc721Static.sol:erc721Static",
        "label": "__gap",
        "offset": 0,
        "slot": "1",
        "type": "t_array(t_uint256)50_storage"
      },
      {
        "astId": 3509,
        "contract": "contracts/erc721Static.sol:erc721Static",
        "label": "__gap",
        "offset": 0,
        "slot": "51",
        "type": "t_array(t_uint256)50_storage"
      },
      {
        "astId": 1120,
        "contract": "contracts/erc721Static.sol:erc721Static",
        "label": "_name",
        "offset": 0,
        "slot": "101",
        "type": "t_string_storage"
      },
      {
        "astId": 1122,
        "contract": "contracts/erc721Static.sol:erc721Static",
        "label": "_symbol",
        "offset": 0,
        "slot": "102",
        "type": "t_string_storage"
      },
      {
        "astId": 1126,
        "contract": "contracts/erc721Static.sol:erc721Static",
        "label": "_owners",
        "offset": 0,
        "slot": "103",
        "type": "t_mapping(t_uint256,t_address)"
      },
      {
        "astId": 1130,
        "contract": "contracts/erc721Static.sol:erc721Static",
        "label": "_balances",
        "offset": 0,
        "slot": "104",
        "type": "t_mapping(t_address,t_uint256)"
      },
      {
        "astId": 1134,
        "contract": "contracts/erc721Static.sol:erc721Static",
        "label": "_tokenApprovals",
        "offset": 0,
        "slot": "105",
        "type": "t_mapping(t_uint256,t_address)"
      },
      {
        "astId": 1140,
        "contract": "contracts/erc721Static.sol:erc721Static",
        "label": "_operatorApprovals",
        "offset": 0,
        "slot": "106",
        "type": "t_mapping(t_address,t_mapping(t_address,t_bool))"
      },
      {
        "astId": 1982,
        "contract": "contracts/erc721Static.sol:erc721Static",
        "label": "__gap",
        "offset": 0,
        "slot": "107",
        "type": "t_array(t_uint256)44_storage"
      },
      {
        "astId": 593,
        "contract": "contracts/erc721Static.sol:erc721Static",
        "label": "_owner",
        "offset": 0,
        "slot": "151",
        "type": "t_address"
      },
      {
        "astId": 713,
        "contract": "contracts/erc721Static.sol:erc721Static",
        "label": "__gap",
        "offset": 0,
        "slot": "152",
        "type": "t_array(t_uint256)49_storage"
      },
      {
        "astId": 5423,
        "contract": "contracts/erc721Static.sol:erc721Static",
        "label": "contractAddress",
        "offset": 0,
        "slot": "201",
        "type": "t_address"
      },
      {
        "astId": 5425,
        "contract": "contracts/erc721Static.sol:erc721Static",
        "label": "description",
        "offset": 0,
        "slot": "202",
        "type": "t_string_storage"
      },
      {
        "astId": 5427,
        "contract": "contracts/erc721Static.sol:erc721Static",
        "label": "animationUrl",
        "offset": 0,
        "slot": "203",
        "type": "t_string_storage"
      },
      {
        "astId": 5429,
        "contract": "contracts/erc721Static.sol:erc721Static",
        "label": "imageUrl",
        "offset": 0,
        "slot": "204",
        "type": "t_string_storage"
      },
      {
        "astId": 5431,
        "contract": "contracts/erc721Static.sol:erc721Static",
        "label": "editionSize",
        "offset": 0,
        "slot": "205",
        "type": "t_uint256"
      },
      {
        "astId": 5434,
        "contract": "contracts/erc721Static.sol:erc721Static",
        "label": "atEditionId",
        "offset": 0,
        "slot": "206",
        "type": "t_struct(Counter)3172_storage"
      },
      {
        "astId": 5436,
        "contract": "contracts/erc721Static.sol:erc721Static",
        "label": "royaltyBPS",
        "offset": 0,
        "slot": "207",
        "type": "t_uint256"
      },
      {
        "astId": 5440,
        "contract": "contracts/erc721Static.sol:erc721Static",
        "label": "allowedMinters",
        "offset": 0,
        "slot": "208",
        "type": "t_mapping(t_address,t_bool)"
      },
      {
        "astId": 5442,
        "contract": "contracts/erc721Static.sol:erc721Static",
        "label": "salePrice",
        "offset": 0,
        "slot": "209",
        "type": "t_uint256"
      }
    ],
    "types": {
      "t_address": {
        "encoding": "inplace",
        "label": "address",
        "numberOfBytes": "20"
      },
      "t_array(t_uint256)44_storage": {
        "base": "t_uint256",
        "encoding": "inplace",
        "label": "uint256[44]",
        "numberOfBytes": "1408"
      },
      "t_array(t_uint256)49_storage": {
        "base": "t_uint256",
        "encoding": "inplace",
        "label": "uint256[49]",
        "numberOfBytes": "1568"
      },
      "t_array(t_uint256)50_storage": {
        "base": "t_uint256",
        "encoding": "inplace",
        "label": "uint256[50]",
        "numberOfBytes": "1600"
      },
      "t_bool": {
        "encoding": "inplace",
        "label": "bool",
        "numberOfBytes": "1"
      },
      "t_mapping(t_address,t_bool)": {
        "encoding": "mapping",
        "key": "t_address",
        "label": "mapping(address => bool)",
        "numberOfBytes": "32",
        "value": "t_bool"
      },
      "t_mapping(t_address,t_mapping(t_address,t_bool))": {
        "encoding": "mapping",
        "key": "t_address",
        "label": "mapping(address => mapping(address => bool))",
        "numberOfBytes": "32",
        "value": "t_mapping(t_address,t_bool)"
      },
      "t_mapping(t_address,t_uint256)": {
        "encoding": "mapping",
        "key": "t_address",
        "label": "mapping(address => uint256)",
        "numberOfBytes": "32",
        "value": "t_uint256"
      },
      "t_mapping(t_uint256,t_address)": {
        "encoding": "mapping",
        "key": "t_uint256",
        "label": "mapping(uint256 => address)",
        "numberOfBytes": "32",
        "value": "t_address"
      },
      "t_string_storage": {
        "encoding": "bytes",
        "label": "string",
        "numberOfBytes": "32"
      },
      "t_struct(Counter)3172_storage": {
        "encoding": "inplace",
        "label": "struct CountersUpgradeable.Counter",
        "members": [
          {
            "astId": 3171,
            "contract": "contracts/erc721Static.sol:erc721Static",
            "label": "_value",
            "offset": 0,
            "slot": "0",
            "type": "t_uint256"
          }
        ],
        "numberOfBytes": "32"
      },
      "t_uint256": {
        "encoding": "inplace",
        "label": "uint256",
        "numberOfBytes": "32"
      },
      "t_uint8": {
        "encoding": "inplace",
        "label": "uint8",
        "numberOfBytes": "1"
      }
    }
  }
}