{
  "address": "0x886d89692bDe1eb3aB57A9AE0E2A01902c1003Bd",
  "abi": [
    {
      "inputs": [
        {
          "internalType": "address",
          "name": "_owner1",
          "type": "address"
        },
        {
          "internalType": "address",
          "name": "_owner2",
          "type": "address"
        }
      ],
      "stateMutability": "nonpayable",
      "type": "constructor"
    },
    {
      "anonymous": false,
      "inputs": [
        {
          "indexed": true,
          "internalType": "address",
          "name": "depositor",
          "type": "address"
        },
        {
          "indexed": false,
          "internalType": "uint256",
          "name": "amount",
          "type": "uint256"
        }
      ],
      "name": "Deposit",
      "type": "event"
    },
    {
      "anonymous": false,
      "inputs": [
        {
          "indexed": true,
          "internalType": "address",
          "name": "owner",
          "type": "address"
        },
        {
          "indexed": false,
          "internalType": "uint256",
          "name": "amount",
          "type": "uint256"
        }
      ],
      "name": "Withdrawal",
      "type": "event"
    },
    {
      "inputs": [],
      "name": "ContractName",
      "outputs": [
        {
          "internalType": "string",
          "name": "",
          "type": "string"
        }
      ],
      "stateMutability": "view",
      "type": "function"
    },
    {
      "inputs": [],
      "name": "deposit",
      "outputs": [],
      "stateMutability": "payable",
      "type": "function"
    },
    {
      "inputs": [],
      "name": "getBalance",
      "outputs": [
        {
          "internalType": "uint256",
          "name": "",
          "type": "uint256"
        }
      ],
      "stateMutability": "view",
      "type": "function"
    },
    {
      "inputs": [],
      "name": "getOwner1Balance",
      "outputs": [
        {
          "internalType": "uint256",
          "name": "",
          "type": "uint256"
        }
      ],
      "stateMutability": "view",
      "type": "function"
    },
    {
      "inputs": [],
      "name": "getOwner2Balance",
      "outputs": [
        {
          "internalType": "uint256",
          "name": "",
          "type": "uint256"
        }
      ],
      "stateMutability": "view",
      "type": "function"
    },
    {
      "inputs": [
        {
          "internalType": "address",
          "name": "token",
          "type": "address"
        }
      ],
      "name": "getTokenBalance",
      "outputs": [
        {
          "internalType": "uint256",
          "name": "",
          "type": "uint256"
        }
      ],
      "stateMutability": "view",
      "type": "function"
    },
    {
      "inputs": [],
      "name": "owner1",
      "outputs": [
        {
          "internalType": "address",
          "name": "",
          "type": "address"
        }
      ],
      "stateMutability": "view",
      "type": "function"
    },
    {
      "inputs": [
        {
          "internalType": "address",
          "name": "",
          "type": "address"
        }
      ],
      "name": "owner1Balance",
      "outputs": [
        {
          "internalType": "uint256",
          "name": "",
          "type": "uint256"
        }
      ],
      "stateMutability": "view",
      "type": "function"
    },
    {
      "inputs": [],
      "name": "owner2",
      "outputs": [
        {
          "internalType": "address",
          "name": "",
          "type": "address"
        }
      ],
      "stateMutability": "view",
      "type": "function"
    },
    {
      "inputs": [
        {
          "internalType": "address",
          "name": "",
          "type": "address"
        }
      ],
      "name": "owner2Balance",
      "outputs": [
        {
          "internalType": "uint256",
          "name": "",
          "type": "uint256"
        }
      ],
      "stateMutability": "view",
      "type": "function"
    },
    {
      "inputs": [
        {
          "internalType": "address",
          "name": "token",
          "type": "address"
        },
        {
          "internalType": "uint256",
          "name": "amount",
          "type": "uint256"
        }
      ],
      "name": "receive",
      "outputs": [],
      "stateMutability": "nonpayable",
      "type": "function"
    },
    {
      "inputs": [
        {
          "internalType": "uint256",
          "name": "amount",
          "type": "uint256"
        }
      ],
      "name": "withdraw",
      "outputs": [],
      "stateMutability": "nonpayable",
      "type": "function"
    },
    {
      "inputs": [
        {
          "internalType": "address payable",
          "name": "recipient",
          "type": "address"
        },
        {
          "internalType": "uint256",
          "name": "amount",
          "type": "uint256"
        }
      ],
      "name": "withdrawTo",
      "outputs": [],
      "stateMutability": "nonpayable",
      "type": "function"
    },
    {
      "stateMutability": "payable",
      "type": "receive"
    }
  ],
  "transactionHash": "0x4dc65075e02ff94dabb5c42f41361f76cb52e52b747a8e67f58e74df9db21b0e",
  "args": [
    "0x8406A51A0E1B5F52Ff61226773e6328e5Da5d964",
    "0x54bbdb17108F7AC766a540971EE3723f02dDB2Cf"
  ],
  "numDeployments": 1,
  "solcInputHash": "f511fb173992a7887917c75943c4563f",
  "bytecode": "0x60c0604052600c60809081526b42756e792042616e6b20763160a01b60a0526005906200002d908262000135565b503480156200003b57600080fd5b5060405162000ea638038062000ea68339810160408190526200005e916200021e565b600080546001600160a01b039384166001600160a01b0319918216179091556001805492909316911617905562000256565b634e487b7160e01b600052604160045260246000fd5b600181811c90821680620000bb57607f821691505b602082108103620000dc57634e487b7160e01b600052602260045260246000fd5b50919050565b601f8211156200013057600081815260208120601f850160051c810160208610156200010b5750805b601f850160051c820191505b818110156200012c5782815560010162000117565b5050505b505050565b81516001600160401b0381111562000151576200015162000090565b6200016981620001628454620000a6565b84620000e2565b602080601f831160018114620001a15760008415620001885750858301515b600019600386901b1c1916600185901b1785556200012c565b600085815260208120601f198616915b82811015620001d257888601518255948401946001909101908401620001b1565b5085821015620001f15787850151600019600388901b60f8161c191681555b5050505050600190811b01905550565b80516001600160a01b03811681146200021957600080fd5b919050565b600080604083850312156200023257600080fd5b6200023d8362000201565b91506200024d6020840162000201565b90509250929050565b610c4080620002666000396000f3fe6080604052600436106100c65760003560e01c80633aecd0e31161007f57806373688914116100595780637368891414610239578063a52142eb14610259578063d0e30db014610286578063fd79c2a91461028e57600080fd5b80633aecd0e3146101b457806352709725146101d457806362d0433c1461020c57600080fd5b806310b8fadc146100da57806312065fe0146100fa5780631c05fb6f1461011c578063205c28781461014957806325d533dd146101695780632e1a7d4d1461019457600080fd5b366100d5576100d36102b0565b005b600080fd5b3480156100e657600080fd5b506100d36100f5366004610a3e565b6103bc565b34801561010657600080fd5b50475b6040519081526020015b60405180910390f35b34801561012857600080fd5b506001546001600160a01b0316600090815260046020526040902054610109565b34801561015557600080fd5b506100d3610164366004610a3e565b610519565b34801561017557600080fd5b50600080546001600160a01b0316815260036020526040902054610109565b3480156101a057600080fd5b506100d36101af366004610a6a565b610725565b3480156101c057600080fd5b506101096101cf366004610a83565b610927565b3480156101e057600080fd5b506001546101f4906001600160a01b031681565b6040516001600160a01b039091168152602001610113565b34801561021857600080fd5b50610109610227366004610a83565b60046020526000908152604090205481565b34801561024557600080fd5b506000546101f4906001600160a01b031681565b34801561026557600080fd5b50610109610274366004610a83565b60036020526000908152604090205481565b6100d36102b0565b34801561029a57600080fd5b506102a3610998565b6040516101139190610aa7565b600034116103145760405162461bcd60e51b815260206004820152602660248201527f4465706f73697420616d6f756e74206d757374206265206772656174657220746044820152653430b710181760d11b60648201526084015b60405180910390fd5b346000610322600283610b0b565b600080546001600160a01b031681526003602052604081208054929350839290919061034f908490610b2d565b90915550506001546001600160a01b03166000908152600460205260408120805483929061037e908490610b2d565b909155505060405182815233907fe1fffcc4923d04b559f4d29a8bfc6cda04eb5b0d3c460751c2402c5c5cc9109c9060200160405180910390a25050565b336001600160a01b0383161461042c5760405162461bcd60e51b815260206004820152602f60248201527f4f6e6c792074686520746f6b656e20636f6e74726163742063616e2063616c6c60448201526e103a3434b990333ab731ba34b7b71760891b606482015260840161030b565b6040516323b872dd60e01b8152336004820152306024820152604481018290526001600160a01b038316906323b872dd906064016020604051808303816000875af115801561047f573d6000803e3d6000fd5b505050506040513d601f19601f820116820180604052508101906104a39190610b40565b6104e85760405162461bcd60e51b81526020600482015260166024820152752a37b5b2b7103a3930b739b332b9103330b4b632b21760511b604482015260640161030b565b6001600160a01b03821660009081526002602052604081208054839290610510908490610b2d565b90915550505050565b6000546001600160a01b031633148061053c57506001546001600160a01b031633145b6105585760405162461bcd60e51b815260040161030b90610b62565b478111156105a05760405162461bcd60e51b815260206004820152601560248201527424b739bab33334b1b4b2b73a103130b630b731b29760591b604482015260640161030b565b6105ab600282610b0b565b600080546001600160a01b0316815260036020526040902054108015906105f657506105d8600282610b0b565b6001546001600160a01b031660009081526004602052604090205410155b6106425760405162461bcd60e51b815260206004820152601b60248201527f496e73756666696369656e74206f776e65722062616c616e63652e0000000000604482015260640161030b565b61064d600282610b0b565b600080546001600160a01b031681526003602052604081208054909190610675908490610ba4565b909155506106869050600282610b0b565b6001546001600160a01b0316600090815260046020526040812080549091906106b0908490610ba4565b909155505060405181815233907f7fcf532c15f0a6db0bd6d0e038bea71d30d808c7d98cb3bf7268a95bf5081b659060200160405180910390a26040516001600160a01b0383169082156108fc029083906000818181858888f19350505050158015610720573d6000803e3d6000fd5b505050565b6000546001600160a01b031633148061074857506001546001600160a01b031633145b6107645760405162461bcd60e51b815260040161030b90610b62565b478111156107ac5760405162461bcd60e51b815260206004820152601560248201527424b739bab33334b1b4b2b73a103130b630b731b29760591b604482015260640161030b565b6107b7600282610b0b565b600080546001600160a01b03168152600360205260409020541080159061080257506107e4600282610b0b565b6001546001600160a01b031660009081526004602052604090205410155b61084e5760405162461bcd60e51b815260206004820152601b60248201527f496e73756666696369656e74206f776e65722062616c616e63652e0000000000604482015260640161030b565b610859600282610b0b565b600080546001600160a01b031681526003602052604081208054909190610881908490610ba4565b909155506108929050600282610b0b565b6001546001600160a01b0316600090815260046020526040812080549091906108bc908490610ba4565b909155505060405181815233907f7fcf532c15f0a6db0bd6d0e038bea71d30d808c7d98cb3bf7268a95bf5081b659060200160405180910390a2604051339082156108fc029083906000818181858888f19350505050158015610923573d6000803e3d6000fd5b5050565b6040516370a0823160e01b81523060048201526000906001600160a01b038316906370a0823190602401602060405180830381865afa15801561096e573d6000803e3d6000fd5b505050506040513d601f19601f820116820180604052508101906109929190610bb7565b92915050565b600580546109a590610bd0565b80601f01602080910402602001604051908101604052809291908181526020018280546109d190610bd0565b8015610a1e5780601f106109f357610100808354040283529160200191610a1e565b820191906000526020600020905b815481529060010190602001808311610a0157829003601f168201915b505050505081565b6001600160a01b0381168114610a3b57600080fd5b50565b60008060408385031215610a5157600080fd5b8235610a5c81610a26565b946020939093013593505050565b600060208284031215610a7c57600080fd5b5035919050565b600060208284031215610a9557600080fd5b8135610aa081610a26565b9392505050565b600060208083528351808285015260005b81811015610ad457858101830151858201604001528201610ab8565b506000604082860101526040601f19601f8301168501019250505092915050565b634e487b7160e01b600052601160045260246000fd5b600082610b2857634e487b7160e01b600052601260045260246000fd5b500490565b8082018082111561099257610992610af5565b600060208284031215610b5257600080fd5b81518015158114610aa057600080fd5b60208082526022908201527f4f6e6c7920746865206f776e65722063616e2077697468647261772066756e64604082015261399760f11b606082015260800190565b8181038181111561099257610992610af5565b600060208284031215610bc957600080fd5b5051919050565b600181811c90821680610be457607f821691505b602082108103610c0457634e487b7160e01b600052602260045260246000fd5b5091905056fea26469706673582212203b5f29ebf8349f3d3ce138624fa7bf37f8476e9a4ffb5e5dc6dc1b59528dd6c064736f6c63430008100033",
  "devdoc": {
    "kind": "dev",
    "methods": {},
    "version": 1
  },
  "userdoc": {
    "kind": "user",
    "methods": {},
    "version": 1
  },
  "storageLayout": {
    "storage": [
      {
        "astId": 22,
        "contract": "contracts/BunyBankTelos.sol:BunyBankTelos",
        "label": "owner1",
        "offset": 0,
        "slot": "0",
        "type": "t_address"
      },
      {
        "astId": 24,
        "contract": "contracts/BunyBankTelos.sol:BunyBankTelos",
        "label": "owner2",
        "offset": 0,
        "slot": "1",
        "type": "t_address"
      },
      {
        "astId": 28,
        "contract": "contracts/BunyBankTelos.sol:BunyBankTelos",
        "label": "tokenBalances",
        "offset": 0,
        "slot": "2",
        "type": "t_mapping(t_address,t_uint256)"
      },
      {
        "astId": 32,
        "contract": "contracts/BunyBankTelos.sol:BunyBankTelos",
        "label": "owner1Balance",
        "offset": 0,
        "slot": "3",
        "type": "t_mapping(t_address,t_uint256)"
      },
      {
        "astId": 36,
        "contract": "contracts/BunyBankTelos.sol:BunyBankTelos",
        "label": "owner2Balance",
        "offset": 0,
        "slot": "4",
        "type": "t_mapping(t_address,t_uint256)"
      },
      {
        "astId": 39,
        "contract": "contracts/BunyBankTelos.sol:BunyBankTelos",
        "label": "ContractName",
        "offset": 0,
        "slot": "5",
        "type": "t_string_storage"
      }
    ],
    "types": {
      "t_address": {
        "encoding": "inplace",
        "label": "address",
        "numberOfBytes": "20"
      },
      "t_mapping(t_address,t_uint256)": {
        "encoding": "mapping",
        "key": "t_address",
        "label": "mapping(address => uint256)",
        "numberOfBytes": "32",
        "value": "t_uint256"
      },
      "t_string_storage": {
        "encoding": "bytes",
        "label": "string",
        "numberOfBytes": "32"
      },
      "t_uint256": {
        "encoding": "inplace",
        "label": "uint256",
        "numberOfBytes": "32"
      }
    }
  }
}