{
  "address": "0xBD23fD4C249DB92214022c8985C546ada3A4A5B1",
  "abi": [
    {
      "inputs": [
        {
          "internalType": "contract SharedNFTLogic",
          "name": "_sharedNFTLogic",
          "type": "address"
        }
      ],
      "stateMutability": "nonpayable",
      "type": "constructor"
    },
    {
      "anonymous": false,
      "inputs": [
        {
          "indexed": true,
          "internalType": "address",
          "name": "owner",
          "type": "address"
        },
        {
          "indexed": true,
          "internalType": "address",
          "name": "approved",
          "type": "address"
        },
        {
          "indexed": true,
          "internalType": "uint256",
          "name": "tokenId",
          "type": "uint256"
        }
      ],
      "name": "Approval",
      "type": "event"
    },
    {
      "anonymous": false,
      "inputs": [
        {
          "indexed": true,
          "internalType": "address",
          "name": "owner",
          "type": "address"
        },
        {
          "indexed": true,
          "internalType": "address",
          "name": "operator",
          "type": "address"
        },
        {
          "indexed": false,
          "internalType": "bool",
          "name": "approved",
          "type": "bool"
        }
      ],
      "name": "ApprovalForAll",
      "type": "event"
    },
    {
      "anonymous": false,
      "inputs": [
        {
          "indexed": false,
          "internalType": "uint256",
          "name": "price",
          "type": "uint256"
        },
        {
          "indexed": false,
          "internalType": "address",
          "name": "owner",
          "type": "address"
        },
        {
          "indexed": false,
          "internalType": "uint256",
          "name": "EntryCount",
          "type": "uint256"
        },
        {
          "indexed": false,
          "internalType": "uint256",
          "name": "entryTime",
          "type": "uint256"
        }
      ],
      "name": "Editionsold",
      "type": "event"
    },
    {
      "anonymous": false,
      "inputs": [
        {
          "indexed": false,
          "internalType": "uint8",
          "name": "version",
          "type": "uint8"
        }
      ],
      "name": "Initialized",
      "type": "event"
    },
    {
      "anonymous": false,
      "inputs": [
        {
          "indexed": true,
          "internalType": "address",
          "name": "previousOwner",
          "type": "address"
        },
        {
          "indexed": true,
          "internalType": "address",
          "name": "newOwner",
          "type": "address"
        }
      ],
      "name": "OwnershipTransferred",
      "type": "event"
    },
    {
      "anonymous": false,
      "inputs": [
        {
          "indexed": false,
          "internalType": "address",
          "name": "minter",
          "type": "address"
        },
        {
          "indexed": false,
          "internalType": "uint256",
          "name": "startTime",
          "type": "uint256"
        }
      ],
      "name": "Rafflestarted",
      "type": "event"
    },
    {
      "anonymous": false,
      "inputs": [
        {
          "indexed": true,
          "internalType": "address",
          "name": "from",
          "type": "address"
        },
        {
          "indexed": true,
          "internalType": "address",
          "name": "to",
          "type": "address"
        },
        {
          "indexed": true,
          "internalType": "uint256",
          "name": "tokenId",
          "type": "uint256"
        }
      ],
      "name": "Transfer",
      "type": "event"
    },
    {
      "anonymous": false,
      "inputs": [
        {
          "indexed": false,
          "internalType": "address",
          "name": "winner",
          "type": "address"
        },
        {
          "indexed": false,
          "internalType": "uint256",
          "name": "winningNumber",
          "type": "uint256"
        },
        {
          "indexed": false,
          "internalType": "uint256",
          "name": "prize",
          "type": "uint256"
        }
      ],
      "name": "WinnerPicked",
      "type": "event"
    },
    {
      "inputs": [],
      "name": "EntryCount",
      "outputs": [
        {
          "internalType": "uint256",
          "name": "",
          "type": "uint256"
        }
      ],
      "stateMutability": "view",
      "type": "function"
    },
    {
      "inputs": [],
      "name": "Winner",
      "outputs": [
        {
          "internalType": "address payable",
          "name": "",
          "type": "address"
        }
      ],
      "stateMutability": "view",
      "type": "function"
    },
    {
      "inputs": [],
      "name": "active",
      "outputs": [
        {
          "internalType": "bool",
          "name": "",
          "type": "bool"
        }
      ],
      "stateMutability": "view",
      "type": "function"
    },
    {
      "inputs": [
        {
          "internalType": "address",
          "name": "",
          "type": "address"
        }
      ],
      "name": "allowedMinters",
      "outputs": [
        {
          "internalType": "bool",
          "name": "",
          "type": "bool"
        }
      ],
      "stateMutability": "view",
      "type": "function"
    },
    {
      "inputs": [],
      "name": "animationUrl",
      "outputs": [
        {
          "internalType": "string",
          "name": "",
          "type": "string"
        }
      ],
      "stateMutability": "view",
      "type": "function"
    },
    {
      "inputs": [
        {
          "internalType": "address",
          "name": "to",
          "type": "address"
        },
        {
          "internalType": "uint256",
          "name": "tokenId",
          "type": "uint256"
        }
      ],
      "name": "approve",
      "outputs": [],
      "stateMutability": "nonpayable",
      "type": "function"
    },
    {
      "inputs": [
        {
          "internalType": "address",
          "name": "owner",
          "type": "address"
        }
      ],
      "name": "balanceOf",
      "outputs": [
        {
          "internalType": "uint256",
          "name": "",
          "type": "uint256"
        }
      ],
      "stateMutability": "view",
      "type": "function"
    },
    {
      "inputs": [],
      "name": "bunyBank",
      "outputs": [
        {
          "internalType": "address payable",
          "name": "",
          "type": "address"
        }
      ],
      "stateMutability": "view",
      "type": "function"
    },
    {
      "inputs": [
        {
          "internalType": "uint256",
          "name": "_winningNumber",
          "type": "uint256"
        }
      ],
      "name": "claimPrize",
      "outputs": [],
      "stateMutability": "nonpayable",
      "type": "function"
    },
    {
      "inputs": [],
      "name": "description",
      "outputs": [
        {
          "internalType": "string",
          "name": "",
          "type": "string"
        }
      ],
      "stateMutability": "view",
      "type": "function"
    },
    {
      "inputs": [],
      "name": "editionSize",
      "outputs": [
        {
          "internalType": "uint256",
          "name": "",
          "type": "uint256"
        }
      ],
      "stateMutability": "view",
      "type": "function"
    },
    {
      "inputs": [],
      "name": "enableRaffle",
      "outputs": [],
      "stateMutability": "nonpayable",
      "type": "function"
    },
    {
      "inputs": [],
      "name": "endTime",
      "outputs": [
        {
          "internalType": "uint256",
          "name": "",
          "type": "uint256"
        }
      ],
      "stateMutability": "view",
      "type": "function"
    },
    {
      "inputs": [
        {
          "internalType": "uint256",
          "name": "tokenId",
          "type": "uint256"
        }
      ],
      "name": "getApproved",
      "outputs": [
        {
          "internalType": "address",
          "name": "",
          "type": "address"
        }
      ],
      "stateMutability": "view",
      "type": "function"
    },
    {
      "inputs": [],
      "name": "getBalance",
      "outputs": [
        {
          "internalType": "uint256",
          "name": "",
          "type": "uint256"
        }
      ],
      "stateMutability": "view",
      "type": "function"
    },
    {
      "inputs": [
        {
          "internalType": "uint256",
          "name": "_id",
          "type": "uint256"
        }
      ],
      "name": "getOwner",
      "outputs": [
        {
          "internalType": "address",
          "name": "",
          "type": "address"
        }
      ],
      "stateMutability": "view",
      "type": "function"
    },
    {
      "inputs": [],
      "name": "getPrize",
      "outputs": [
        {
          "internalType": "uint256",
          "name": "",
          "type": "uint256"
        }
      ],
      "stateMutability": "view",
      "type": "function"
    },
    {
      "inputs": [],
      "name": "imageUrl",
      "outputs": [
        {
          "internalType": "string",
          "name": "",
          "type": "string"
        }
      ],
      "stateMutability": "view",
      "type": "function"
    },
    {
      "inputs": [
        {
          "internalType": "address",
          "name": "_owner",
          "type": "address"
        },
        {
          "internalType": "string",
          "name": "_name",
          "type": "string"
        },
        {
          "internalType": "string",
          "name": "_symbol",
          "type": "string"
        },
        {
          "internalType": "string",
          "name": "_description",
          "type": "string"
        },
        {
          "internalType": "string",
          "name": "_imageUrl",
          "type": "string"
        },
        {
          "internalType": "uint256",
          "name": "_editionSize",
          "type": "uint256"
        },
        {
          "internalType": "uint256",
          "name": "_salePrice",
          "type": "uint256"
        },
        {
          "internalType": "uint256",
          "name": "_minPlayers",
          "type": "uint256"
        },
        {
          "internalType": "address payable",
          "name": "_bunyBank",
          "type": "address"
        },
        {
          "internalType": "uint256",
          "name": "_maxTokens",
          "type": "uint256"
        },
        {
          "internalType": "uint256",
          "name": "_prime",
          "type": "uint256"
        },
        {
          "internalType": "uint256",
          "name": "_iterations",
          "type": "uint256"
        }
      ],
      "name": "initialize",
      "outputs": [],
      "stateMutability": "nonpayable",
      "type": "function"
    },
    {
      "inputs": [
        {
          "internalType": "address",
          "name": "owner",
          "type": "address"
        },
        {
          "internalType": "address",
          "name": "operator",
          "type": "address"
        }
      ],
      "name": "isApprovedForAll",
      "outputs": [
        {
          "internalType": "bool",
          "name": "",
          "type": "bool"
        }
      ],
      "stateMutability": "view",
      "type": "function"
    },
    {
      "inputs": [],
      "name": "isComplete",
      "outputs": [
        {
          "internalType": "bool",
          "name": "",
          "type": "bool"
        }
      ],
      "stateMutability": "view",
      "type": "function"
    },
    {
      "inputs": [
        {
          "internalType": "address",
          "name": "",
          "type": "address"
        }
      ],
      "name": "isPlayer",
      "outputs": [
        {
          "internalType": "bool",
          "name": "",
          "type": "bool"
        }
      ],
      "stateMutability": "view",
      "type": "function"
    },
    {
      "inputs": [],
      "name": "isProof",
      "outputs": [
        {
          "internalType": "bool",
          "name": "",
          "type": "bool"
        }
      ],
      "stateMutability": "view",
      "type": "function"
    },
    {
      "inputs": [],
      "name": "iterations",
      "outputs": [
        {
          "internalType": "uint256",
          "name": "",
          "type": "uint256"
        }
      ],
      "stateMutability": "view",
      "type": "function"
    },
    {
      "inputs": [],
      "name": "maxTokens",
      "outputs": [
        {
          "internalType": "uint256",
          "name": "",
          "type": "uint256"
        }
      ],
      "stateMutability": "view",
      "type": "function"
    },
    {
      "inputs": [],
      "name": "minPlayers",
      "outputs": [
        {
          "internalType": "uint256",
          "name": "",
          "type": "uint256"
        }
      ],
      "stateMutability": "view",
      "type": "function"
    },
    {
      "inputs": [
        {
          "internalType": "address",
          "name": "to",
          "type": "address"
        }
      ],
      "name": "mintEdition",
      "outputs": [
        {
          "internalType": "uint256",
          "name": "",
          "type": "uint256"
        }
      ],
      "stateMutability": "nonpayable",
      "type": "function"
    },
    {
      "inputs": [
        {
          "internalType": "address[]",
          "name": "recipients",
          "type": "address[]"
        }
      ],
      "name": "mintEditions",
      "outputs": [
        {
          "internalType": "uint256",
          "name": "",
          "type": "uint256"
        }
      ],
      "stateMutability": "nonpayable",
      "type": "function"
    },
    {
      "inputs": [
        {
          "internalType": "address",
          "name": "",
          "type": "address"
        }
      ],
      "name": "mintedTokens",
      "outputs": [
        {
          "internalType": "bool",
          "name": "",
          "type": "bool"
        }
      ],
      "stateMutability": "view",
      "type": "function"
    },
    {
      "inputs": [],
      "name": "name",
      "outputs": [
        {
          "internalType": "string",
          "name": "",
          "type": "string"
        }
      ],
      "stateMutability": "view",
      "type": "function"
    },
    {
      "inputs": [
        {
          "internalType": "uint256",
          "name": "",
          "type": "uint256"
        }
      ],
      "name": "nftTokenIds",
      "outputs": [
        {
          "internalType": "uint256",
          "name": "",
          "type": "uint256"
        }
      ],
      "stateMutability": "view",
      "type": "function"
    },
    {
      "inputs": [],
      "name": "numberCanMint",
      "outputs": [
        {
          "internalType": "uint256",
          "name": "",
          "type": "uint256"
        }
      ],
      "stateMutability": "view",
      "type": "function"
    },
    {
      "inputs": [],
      "name": "owner",
      "outputs": [
        {
          "internalType": "address",
          "name": "",
          "type": "address"
        }
      ],
      "stateMutability": "view",
      "type": "function"
    },
    {
      "inputs": [
        {
          "internalType": "uint256",
          "name": "tokenId",
          "type": "uint256"
        }
      ],
      "name": "ownerOf",
      "outputs": [
        {
          "internalType": "address",
          "name": "",
          "type": "address"
        }
      ],
      "stateMutability": "view",
      "type": "function"
    },
    {
      "inputs": [],
      "name": "pickWinner",
      "outputs": [
        {
          "internalType": "uint256",
          "name": "",
          "type": "uint256"
        }
      ],
      "stateMutability": "nonpayable",
      "type": "function"
    },
    {
      "inputs": [],
      "name": "prime",
      "outputs": [
        {
          "internalType": "uint256",
          "name": "",
          "type": "uint256"
        }
      ],
      "stateMutability": "view",
      "type": "function"
    },
    {
      "inputs": [],
      "name": "prizeClaimed",
      "outputs": [
        {
          "internalType": "bool",
          "name": "",
          "type": "bool"
        }
      ],
      "stateMutability": "view",
      "type": "function"
    },
    {
      "inputs": [
        {
          "internalType": "uint256",
          "name": "proof",
          "type": "uint256"
        }
      ],
      "name": "prove",
      "outputs": [],
      "stateMutability": "nonpayable",
      "type": "function"
    },
    {
      "inputs": [],
      "name": "purchase",
      "outputs": [
        {
          "internalType": "uint256",
          "name": "",
          "type": "uint256"
        }
      ],
      "stateMutability": "payable",
      "type": "function"
    },
    {
      "inputs": [
        {
          "internalType": "uint256",
          "name": "",
          "type": "uint256"
        }
      ],
      "name": "raffleWinner",
      "outputs": [
        {
          "internalType": "address payable",
          "name": "winner",
          "type": "address"
        },
        {
          "internalType": "uint256",
          "name": "winningTokenId",
          "type": "uint256"
        }
      ],
      "stateMutability": "view",
      "type": "function"
    },
    {
      "inputs": [],
      "name": "randomNumber",
      "outputs": [
        {
          "internalType": "uint256",
          "name": "",
          "type": "uint256"
        }
      ],
      "stateMutability": "view",
      "type": "function"
    },
    {
      "inputs": [],
      "name": "readAllEntries",
      "outputs": [
        {
          "components": [
            {
              "internalType": "address",
              "name": "player",
              "type": "address"
            },
            {
              "internalType": "uint256",
              "name": "EntryNumber",
              "type": "uint256"
            },
            {
              "internalType": "uint256",
              "name": "entryTime",
              "type": "uint256"
            }
          ],
          "internalType": "struct BunyRaffleNft.Entry[]",
          "name": "",
          "type": "tuple[]"
        }
      ],
      "stateMutability": "view",
      "type": "function"
    },
    {
      "inputs": [],
      "name": "renounceOwnership",
      "outputs": [],
      "stateMutability": "nonpayable",
      "type": "function"
    },
    {
      "inputs": [
        {
          "internalType": "address",
          "name": "from",
          "type": "address"
        },
        {
          "internalType": "address",
          "name": "to",
          "type": "address"
        },
        {
          "internalType": "uint256",
          "name": "tokenId",
          "type": "uint256"
        }
      ],
      "name": "safeTransferFrom",
      "outputs": [],
      "stateMutability": "nonpayable",
      "type": "function"
    },
    {
      "inputs": [
        {
          "internalType": "address",
          "name": "from",
          "type": "address"
        },
        {
          "internalType": "address",
          "name": "to",
          "type": "address"
        },
        {
          "internalType": "uint256",
          "name": "tokenId",
          "type": "uint256"
        },
        {
          "internalType": "bytes",
          "name": "data",
          "type": "bytes"
        }
      ],
      "name": "safeTransferFrom",
      "outputs": [],
      "stateMutability": "nonpayable",
      "type": "function"
    },
    {
      "inputs": [],
      "name": "salePrice",
      "outputs": [
        {
          "internalType": "uint256",
          "name": "",
          "type": "uint256"
        }
      ],
      "stateMutability": "view",
      "type": "function"
    },
    {
      "inputs": [
        {
          "internalType": "address",
          "name": "",
          "type": "address"
        }
      ],
      "name": "seed",
      "outputs": [
        {
          "internalType": "uint256",
          "name": "",
          "type": "uint256"
        }
      ],
      "stateMutability": "view",
      "type": "function"
    },
    {
      "inputs": [
        {
          "internalType": "address",
          "name": "operator",
          "type": "address"
        },
        {
          "internalType": "bool",
          "name": "approved",
          "type": "bool"
        }
      ],
      "name": "setApprovalForAll",
      "outputs": [],
      "stateMutability": "nonpayable",
      "type": "function"
    },
    {
      "inputs": [
        {
          "internalType": "address",
          "name": "minter",
          "type": "address"
        },
        {
          "internalType": "bool",
          "name": "allowed",
          "type": "bool"
        }
      ],
      "name": "setApprovedMinter",
      "outputs": [],
      "stateMutability": "nonpayable",
      "type": "function"
    },
    {
      "inputs": [],
      "name": "startTime",
      "outputs": [
        {
          "internalType": "uint256",
          "name": "",
          "type": "uint256"
        }
      ],
      "stateMutability": "view",
      "type": "function"
    },
    {
      "inputs": [
        {
          "internalType": "bytes4",
          "name": "interfaceId",
          "type": "bytes4"
        }
      ],
      "name": "supportsInterface",
      "outputs": [
        {
          "internalType": "bool",
          "name": "",
          "type": "bool"
        }
      ],
      "stateMutability": "view",
      "type": "function"
    },
    {
      "inputs": [],
      "name": "symbol",
      "outputs": [
        {
          "internalType": "string",
          "name": "",
          "type": "string"
        }
      ],
      "stateMutability": "view",
      "type": "function"
    },
    {
      "inputs": [
        {
          "internalType": "uint256",
          "name": "tokenId",
          "type": "uint256"
        }
      ],
      "name": "tokenURI",
      "outputs": [
        {
          "internalType": "string",
          "name": "",
          "type": "string"
        }
      ],
      "stateMutability": "view",
      "type": "function"
    },
    {
      "inputs": [],
      "name": "totalSupply",
      "outputs": [
        {
          "internalType": "uint256",
          "name": "",
          "type": "uint256"
        }
      ],
      "stateMutability": "view",
      "type": "function"
    },
    {
      "inputs": [
        {
          "internalType": "address",
          "name": "from",
          "type": "address"
        },
        {
          "internalType": "address",
          "name": "to",
          "type": "address"
        },
        {
          "internalType": "uint256",
          "name": "tokenId",
          "type": "uint256"
        }
      ],
      "name": "transferFrom",
      "outputs": [],
      "stateMutability": "nonpayable",
      "type": "function"
    },
    {
      "inputs": [
        {
          "internalType": "address",
          "name": "newOwner",
          "type": "address"
        }
      ],
      "name": "transferOwnership",
      "outputs": [],
      "stateMutability": "nonpayable",
      "type": "function"
    },
    {
      "inputs": [],
      "name": "winnerSelected",
      "outputs": [
        {
          "internalType": "bool",
          "name": "",
          "type": "bool"
        }
      ],
      "stateMutability": "view",
      "type": "function"
    },
    {
      "inputs": [],
      "name": "winningNumber",
      "outputs": [
        {
          "internalType": "uint256",
          "name": "",
          "type": "uint256"
        }
      ],
      "stateMutability": "view",
      "type": "function"
    }
  ],
  "transactionHash": "0xc737e5dbf4a6b4c656dbe72c955b5e13ea389b7e030f62f9d6f7b4436c0a7517",
  "args": [
    "0x5807574C534393dFD4094386b30C89fA2104baF2"
  ],
  "numDeployments": 1,
  "solcInputHash": "8c770a2d7c2d2a48820e157543d4f641",
  "bytecode": "0x60a060405260d1805464ffffffffff19169055600060d481905560d581905560d681905560d781905560d881905560d9553480156200003d57600080fd5b506040516200341738038062003417833981016040819052620000609162000072565b6001600160a01b0316608052620000a4565b6000602082840312156200008557600080fd5b81516001600160a01b03811681146200009d57600080fd5b9392505050565b608051613357620000c06000396000611ac301526133576000f3fe6080604052600436106103815760003560e01c806370a08231116101d1578063b2fa1c9e11610102578063d1b84c19116100a0578063f18aceda1161006f578063f18aceda146109f2578063f2fde38b14610a07578063f4ed0f4614610a27578063f51f96dd14610a3d57600080fd5b8063d1b84c191461097b578063d70981541461099c578063e8315742146109bc578063e985e9c5146109d257600080fd5b8063c41a360a116100dc578063c41a360a1461090f578063c7ee005e1461092f578063c87b56dd14610945578063ccbac9f51461096557600080fd5b8063b2fa1c9e146108ba578063b88d4fde146108da578063c34f6b0d146108fa57600080fd5b80639042bbf31161016f578063a22cb46511610149578063a22cb46514610845578063a66ff0af14610865578063aba8315014610885578063b2b98ed21461089a57600080fd5b80639042bbf3146107f857806395d89b411461081a578063a1ea842f1461082f57600080fd5b80637284e416116101ab5780637284e4161461079957806378e97925146107ae5780638d382812146107c45780638da5cb5b146107e357600080fd5b806370a0823114610734578063715018a6146107545780637241dfa01461076957600080fd5b806323b872dd116102b65780634358d2be116102545780635dfd7a57116102235780635dfd7a57146106ad5780636352211e146106cd57806364c19175146106ed57806364edfbf01461072c57600080fd5b80634358d2be1461064a5780634664611e1461066057806348ed4535146106765780635d495aea1461069857600080fd5b80633197cbb6116102905780633197cbb6146105cf578063397b5b24146105e5578063423afa66146105fa57806342842e0e1461062a57600080fd5b806323b872dd146105795780632770c8951461059957806329ec16dd146105af57600080fd5b806309d94448116103235780630f6a9349116102fd5780630f6a93491461051157806312065fe01461053157806318160ddd1461054457806322d544a31461055957600080fd5b806309d94448146104bc5780630b65b6e7146104dc5780630e2cbc3d146104f157600080fd5b806306fdde031161035f57806306fdde0314610410578063081812fc14610432578063095ea7b31461046a57806309c95e101461048c57600080fd5b806301ffc9a71461038657806302fb0c5e146103bb578063063c67b7146103d5575b600080fd5b34801561039257600080fd5b506103a66103a1366004612940565b610a53565b60405190151581526020015b60405180910390f35b3480156103c757600080fd5b5060d1546103a69060ff1681565b3480156103e157600080fd5b506104026103f0366004612982565b60e16020526000908152604090205481565b6040519081526020016103b2565b34801561041c57600080fd5b50610425610a64565b6040516103b291906129ef565b34801561043e57600080fd5b5061045261044d366004612a02565b610af6565b6040516001600160a01b0390911681526020016103b2565b34801561047657600080fd5b5061048a610485366004612a1b565b610b1d565b005b34801561049857600080fd5b506103a66104a7366004612982565b60e26020526000908152604090205460ff1681565b3480156104c857600080fd5b5060db54610452906001600160a01b031681565b3480156104e857600080fd5b50610402610c37565b3480156104fd57600080fd5b5061048a61050c366004612b14565b610c6a565b34801561051d57600080fd5b5061040261052c366004612c3a565b610df6565b34801561053d57600080fd5b5047610402565b34801561055057600080fd5b50610402610e55565b34801561056557600080fd5b50610402610574366004612a02565b610e62565b34801561058557600080fd5b5061048a610594366004612cec565b610e83565b3480156105a557600080fd5b5061040260cf5481565b3480156105bb57600080fd5b5061048a6105ca366004612d2d565b610eb4565b3480156105db57600080fd5b5061040260d35481565b3480156105f157600080fd5b50610425610f35565b34801561060657600080fd5b506103a6610615366004612982565b60e06020526000908152604090205460ff1681565b34801561063657600080fd5b5061048a610645366004612cec565b610fc3565b34801561065657600080fd5b5061040260d65481565b34801561066c57600080fd5b5061040260d95481565b34801561068257600080fd5b5061068b610fde565b6040516103b29190612d6b565b3480156106a457600080fd5b506104026110f9565b3480156106b957600080fd5b5061048a6106c8366004612a02565b6113e6565b3480156106d957600080fd5b506104526106e8366004612a02565b61147c565b3480156106f957600080fd5b5061070d610708366004612a02565b6114dc565b604080516001600160a01b0390931683526020830191909152016103b2565b610402611514565b34801561074057600080fd5b5061040261074f366004612982565b61186a565b34801561076057600080fd5b5061048a6118f0565b34801561077557600080fd5b506103a6610784366004612982565b60df6020526000908152604090205460ff1681565b3480156107a557600080fd5b50610425611904565b3480156107ba57600080fd5b5061040260d25481565b3480156107d057600080fd5b5060d1546103a690610100900460ff1681565b3480156107ef57600080fd5b50610452611911565b34801561080457600080fd5b5060d1546103a690640100000000900460ff1681565b34801561082657600080fd5b50610425611925565b34801561083b57600080fd5b5061040260d45481565b34801561085157600080fd5b5061048a610860366004612d2d565b611934565b34801561087157600080fd5b50610402610880366004612982565b611943565b34801561089157600080fd5b506104256119ff565b3480156108a657600080fd5b5060da54610452906001600160a01b031681565b3480156108c657600080fd5b5060d1546103a69062010000900460ff1681565b3480156108e657600080fd5b5061048a6108f5366004612dcd565b611a0c565b34801561090657600080fd5b50610402611a44565b34801561091b57600080fd5b5061045261092a366004612a02565b611a64565b34801561093b57600080fd5b5061040260d55481565b34801561095157600080fd5b50610425610960366004612a02565b611a6f565b34801561097157600080fd5b5061040260d85481565b34801561098757600080fd5b5060d1546103a6906301000000900460ff1681565b3480156109a857600080fd5b5061048a6109b7366004612a02565b611b68565b3480156109c857600080fd5b5061040260d05481565b3480156109de57600080fd5b506103a66109ed366004612e4d565b611d21565b3480156109fe57600080fd5b5061048a611d4f565b348015610a1357600080fd5b5061048a610a22366004612982565b611d66565b348015610a3357600080fd5b5061040260cd5481565b348015610a4957600080fd5b5061040260ce5481565b6000610a5e82611ddc565b92915050565b606060658054610a7390612e7b565b80601f0160208091040260200160405190810160405280929190818152602001828054610a9f90612e7b565b8015610aec5780601f10610ac157610100808354040283529160200191610aec565b820191906000526020600020905b815481529060010190602001808311610acf57829003601f168201915b5050505050905090565b6000610b0182611e2c565b506000908152606960205260409020546001600160a01b031690565b6000610b288261147c565b9050806001600160a01b0316836001600160a01b031603610b9a5760405162461bcd60e51b815260206004820152602160248201527f4552433732313a20617070726f76616c20746f2063757272656e74206f776e656044820152603960f91b60648201526084015b60405180910390fd5b336001600160a01b0382161480610bb65750610bb68133611d21565b610c285760405162461bcd60e51b815260206004820152603e60248201527f4552433732313a20617070726f76652063616c6c6572206973206e6f7420746f60448201527f6b656e206f776e6572206e6f7220617070726f76656420666f7220616c6c00006064820152608401610b91565b610c328383611e8b565b505050565b600060cd54600003610c4a575060001990565b60c95460cd54610c5b906001612ec5565b610c659190612ed8565b905090565b600054610100900460ff1615808015610c8a5750600054600160ff909116105b80610ca45750303b158015610ca4575060005460ff166001145b610d075760405162461bcd60e51b815260206004820152602e60248201527f496e697469616c697a61626c653a20636f6e747261637420697320616c72656160448201526d191e481a5b9a5d1a585b1a5e995960921b6064820152608401610b91565b6000805460ff191660011790558015610d2a576000805461ff0019166101001790555b610d348c8c611ef9565b610d3c611f2a565b610d458d611d66565b60ca610d518b82612f39565b5060cc610d5e8a82612f39565b5060cd88905560ce87905560cf86905560db80546001600160a01b0319166001600160a01b03871617905560d084905560d583905560d682905560c9805460010190558015610de7576000805461ff0019169055604051600181527f7f26b83ff96e1f2b6a682f133852f6798a09c465da95921460cefb38474024989060200160405180910390a15b50505050505050505050505050565b6000610e00611f59565b610e4c5760405162461bcd60e51b815260206004820152601d60248201527f4e6565647320746f20626520616e20616c6c6f776564206d696e7465720000006044820152606401610b91565b610a5e82611fc8565b60006001610c5b60c95490565b60de8181548110610e7257600080fd5b600091825260209091200154905081565b610e8d33826120a9565b610ea95760405162461bcd60e51b8152600401610b9190612ff9565b610c32838383612107565b610ebc6122a3565b6001600160a01b038216600090815260e060205260409020805460ff1916821515179055610ee8611d4f565b4260d2819055604080516001600160a01b038516815260208101929092527f7618c8e7673fd316d308182b29784aad6b915e32612c6b9d67f50ef4e1b7d6e4910160405180910390a15050565b60cb8054610f4290612e7b565b80601f0160208091040260200160405190810160405280929190818152602001828054610f6e90612e7b565b8015610fbb5780601f10610f9057610100808354040283529160200191610fbb565b820191906000526020600020905b815481529060010190602001808311610f9e57829003601f168201915b505050505081565b610c3283838360405180602001604052806000815250611a0c565b6060600060d45467ffffffffffffffff811115610ffd57610ffd612a47565b60405190808252806020026020018201604052801561105b57816020015b611048604051806060016040528060006001600160a01b0316815260200160008152602001600081525090565b81526020019060019003908161101b5790505b50905060005b60d4548110156110f35760dc818154811061107e5761107e613047565b600091825260209182902060408051606081018252600390930290910180546001600160a01b031683526001810154938301939093526002909201549181019190915282518390839081106110d5576110d5613047565b602002602001018190525080806110eb9061305d565b915050611061565b50919050565b60008060d8541161115a5760405162461bcd60e51b815260206004820152602560248201527f47656e65726174652070726f7661626c652072616e646f6d206e756d62657220604482015264199a5c9cdd60da1b6064820152608401610b91565b33600090815260e2602052604090205460ff166111f65760405162461bcd60e51b815260206004820152604e60248201527f55736572206973206e6f7420612061637469766520706c617965722e204f6e6c60448201527f7920612072656769737465726564207469636b657420686f6c6465722063616e60648201526d2073746172742064726177696e6760901b608482015260a401610b91565b60d780549060006112068361305d565b9190505550611213610e55565b60d8544390611223600183612ed8565b6040805160208101949094528301919091524060608201526080016040516020818303038152906040528051906020012060001c611261919061308c565b60d981905560009061127290611a64565b90506000606461128347605a6130a0565b61128d91906130bf565b60da80546001600160a01b0319166001600160a01b03851690811790915560d95460408051928352602083019190915281018290529091507f7e57d825a2478cc8123a008d7d1e20c0f6e8cbca89a7bc100c9b05ecb3698deb9060600160405180910390a160d1805461ffff191661010017905560408051808201825260da80546001600160a01b03908116835260d9546020840190815260dd80546001810182556000918252855160029091027fac507b9f8bf86ad8bb770f71cd2b1992902ae0314d93fc0f2bb011d70e796226810180549286166001600160a01b03199093169290921790915591517fac507b9f8bf86ad8bb770f71cd2b1992902ae0314d93fc0f2bb011d70e79622790920191909155915493519293169184156108fc0291859190818181858888f193505050501580156113cf573d6000803e3d6000fd5b506113d8612302565b50504260d355505060d95490565b60d780549060006113f68361305d565b909155505033600090815260e1602052604090205460d55460d65461141e9284929091612436565b61145a5760405162461bcd60e51b815260206004820152600d60248201526c24b73b30b634b210383937b7b360991b6044820152606401610b91565b60d881905580156114795760d1805463ff000000191663010000001790555b50565b6000818152606760205260408120546001600160a01b031680610a5e5760405162461bcd60e51b8152602060048201526018602482015277115490cdcc8c4e881a5b9d985b1a59081d1bdad95b88125160421b6044820152606401610b91565b60dd81815481106114ec57600080fd5b6000918252602090912060029091020180546001909101546001600160a01b03909116915082565b600060d0546115223361186a565b106115955760405162461bcd60e51b815260206004820152603760248201527f596f752068617665207265616368656420746865206d6178696d756d20746f6b60448201527f656e7320616c6c6f7765642070657220616464726573730000000000000000006064820152608401610b91565b60d15460ff166116045760405162461bcd60e51b815260206004820152603460248201527f526166666c6520686173206e6f7420737461727465642e204f776e6572206d7560448201527339ba1039b2ba20b8383937bb32b226b4b73a32b960611b6064820152608401610b91565b60ce5434146116485760405162461bcd60e51b815260206004820152601060248201526f4e6f20736f757020666f7220796f752160801b6044820152606401610b91565b60408051600180825281830190925260009160208083019080368337019050509050338160008151811061167e5761167e613047565b6001600160a01b0390921660209283029190910182015233600090815260df90915260408120805460ff1916600117905560d78054916116bd8361305d565b91905055506116ca6124a4565b5060d480549060006116db8361305d565b909155505033600081815260e2602090815260408083208054600160ff19909116811790915560d4805460de80548085019091557ffae8130c0619f84b4b44f01b84806f04e82e536d70e05f2356977fa318aecc1a0181905583516060810185529687529386019384524292860183815260dc8054938401815590955285517f3162b0988d4210bff484413ed451d170a03887272177efc0b7d000f10abe9edf600390930292830180546001600160a01b0319166001600160a01b0390921691909117905592517f3162b0988d4210bff484413ed451d170a03887272177efc0b7d000f10abe9ee082015592517f3162b0988d4210bff484413ed451d170a03887272177efc0b7d000f10abe9ee19093019290925560cd5490549192910361180f5760d1805462ff00ff1916620100001790555b60ce5460d45460408051928352336020840152820152606081018390527f5c05e149773613d59c93e2584c4cbc9ca960d58add53b646b126f27a345eaeab9060800160405180910390a161186283611fc8565b935050505090565b60006001600160a01b0382166118d45760405162461bcd60e51b815260206004820152602960248201527f4552433732313a2061646472657373207a65726f206973206e6f7420612076616044820152683634b21037bbb732b960b91b6064820152608401610b91565b506001600160a01b031660009081526068602052604090205490565b6118f86122a3565b6119026000612527565b565b60ca8054610f4290612e7b565b6000610c656097546001600160a01b031690565b606060668054610a7390612e7b565b61193f338383612579565b5050565b600061194d611f59565b6119995760405162461bcd60e51b815260206004820152601d60248201527f4e6565647320746f20626520616e20616c6c6f776564206d696e7465720000006044820152606401610b91565b6040805160018082528183019092526000916020808301908036833701905050905082816000815181106119cf576119cf613047565b60200260200101906001600160a01b031690816001600160a01b0316815250506119f881611fc8565b9392505050565b60cc8054610f4290612e7b565b611a1633836120a9565b611a325760405162461bcd60e51b8152600401610b9190612ff9565b611a3e84848484612647565b50505050565b600047600a611a548260096130a0565b611a5e91906130bf565b91505090565b6000610a5e8261147c565b6000818152606760205260409020546060906001600160a01b0316611ac15760405162461bcd60e51b81526020600482015260086024820152672737903a37b5b2b760c11b6044820152606401610b91565b7f00000000000000000000000000000000000000000000000000000000000000006001600160a01b031663df30dba0611af8610a64565b60ca60cc60cb8760cd546040518763ffffffff1660e01b8152600401611b2396959493929190613150565b600060405180830381865afa158015611b40573d6000803e3d6000fd5b505050506040513d6000823e601f3d908101601f19168201604052610a5e91908101906131b3565b6000611b738261147c565b9050336001600160a01b03821614611beb5760405162461bcd60e51b815260206004820152603560248201527f4f6e6c7920746865206f776e6572206f66207468697320746f6b656e2063616e604482015274207769746864726177207468652062616c616e636560581b6064820152608401610b91565b60d154610100900460ff16611c525760405162461bcd60e51b815260206004820152602760248201527f54686520636f6e747261637420686173206e6f2062616c616e636520746f20776044820152666974686472617760c81b6064820152608401610b91565b60006064611c6147605a6130a0565b611c6b91906130bf565b90506000826001600160a01b03168260405160006040518083038185875af1925050503d8060008114611cba576040519150601f19603f3d011682016040523d82523d6000602084013e611cbf565b606091505b505060d1805464ff0000000019166401000000001790559050611ce0612302565b80611a3e5760405162461bcd60e51b815260206004820152601160248201527015da5d1a191c985dd85b0819985a5b1959607a1b6044820152606401610b91565b6001600160a01b039182166000908152606a6020908152604080832093909416825291909152205460ff1690565b611d576122a3565b60d1805460ff19166001179055565b611d6e6122a3565b6001600160a01b038116611dd35760405162461bcd60e51b815260206004820152602660248201527f4f776e61626c653a206e6577206f776e657220697320746865207a65726f206160448201526564647265737360d01b6064820152608401610b91565b61147981612527565b60006001600160e01b031982166380ac58cd60e01b1480611e0d57506001600160e01b03198216635b5e139f60e01b145b80610a5e57506301ffc9a760e01b6001600160e01b0319831614610a5e565b6000818152606760205260409020546001600160a01b03166114795760405162461bcd60e51b8152602060048201526018602482015277115490cdcc8c4e881a5b9d985b1a59081d1bdad95b88125160421b6044820152606401610b91565b600081815260696020526040902080546001600160a01b0319166001600160a01b0384169081179091558190611ec08261147c565b6001600160a01b03167f8c5be1e5ebec7d5bd14f71427d1e84f3dd0314c0f7b2291e5b200ac8c7c3b92560405160405180910390a45050565b600054610100900460ff16611f205760405162461bcd60e51b8152600401610b919061322a565b61193f828261267a565b600054610100900460ff16611f515760405162461bcd60e51b8152600401610b919061322a565b6119026126ba565b600033611f64611911565b6001600160a01b031603611f785750600190565b6000805260e06020527f88c7c6e2e6608585cc594f384e2acdf8215a4a261b6a00df05fe03af932e95775460ff1615611fb15750600190565b5033600090815260e0602052604090205460ff1690565b600080611fd460c95490565b905060006001845183611fe79190612ec5565b611ff19190612ed8565b905060cd5460001480612006575060cd548111155b61203d5760405162461bcd60e51b815260206004820152600860248201526714dbdb19081bdd5d60c21b6044820152606401610b91565b8061204760c95490565b1161209d5761208a848361205a60c95490565b6120649190612ed8565b8151811061207457612074613047565b602002602001015161208560c95490565b6126ea565b61209860c980546001019055565b61203d565b60c9545b949350505050565b6000806120b58361147c565b9050806001600160a01b0316846001600160a01b031614806120dc57506120dc8185611d21565b806120a15750836001600160a01b03166120f584610af6565b6001600160a01b031614949350505050565b826001600160a01b031661211a8261147c565b6001600160a01b03161461217e5760405162461bcd60e51b815260206004820152602560248201527f4552433732313a207472616e736665722066726f6d20696e636f72726563742060448201526437bbb732b960d91b6064820152608401610b91565b6001600160a01b0382166121e05760405162461bcd60e51b8152602060048201526024808201527f4552433732313a207472616e7366657220746f20746865207a65726f206164646044820152637265737360e01b6064820152608401610b91565b6121eb600082611e8b565b6001600160a01b0383166000908152606860205260408120805460019290612214908490612ed8565b90915550506001600160a01b0382166000908152606860205260408120805460019290612242908490612ec5565b909155505060008181526067602052604080822080546001600160a01b0319166001600160a01b0386811691821790925591518493918716917fddf252ad1be2c89b69c2b068fc378daa952ba7f163c4a11628f55a4df523b3ef91a4505050565b336122ac611911565b6001600160a01b0316146119025760405162461bcd60e51b815260206004820181905260248201527f4f776e61626c653a2063616c6c6572206973206e6f7420746865206f776e65726044820152606401610b91565b6000606461231147600a6130a0565b61231b91906130bf565b60d15490915062010000900460ff1661239e576040805162461bcd60e51b81526020600482015260248101919091527f526166666c652073616c65206d75737420626520636f6d706c6574652062656660448201527f6f72652077697468647261772066756e6374696f6e20697320656e61626c65646064820152608401610b91565b600081116123fc5760405162461bcd60e51b815260206004820152602560248201527f436f6e7472616374204120686173206e6f2062616c616e636520746f20776974604482015264686472617760d81b6064820152608401610b91565b60db546040516001600160a01b039091169082156108fc029083906000818181858888f1935050505015801561193f573d6000803e3d6000fd5b6000805b8281101561246557838061245057612450613076565b868709955061245e8161305d565b905061243a565b50612470838561308c565b9350848403612481575060016120a1565b8461248c8585612ed8565b03612499575060016120a1565b506000949350505050565b60d78054600091826124b58361305d565b909155505060d4543390426124cb600143612ed8565b60405160609490941b6bffffffffffffffffffffffff191660208501526034840192909252605483015240607482015260940160408051601f19818403018152918152815160209283012033600090815260e190935291205590565b609780546001600160a01b038381166001600160a01b0319831681179093556040519116919082907f8be0079c531659141344cd1fd0a4f28419497f9722a3daafe3b4186f6b6457e090600090a35050565b816001600160a01b0316836001600160a01b0316036125da5760405162461bcd60e51b815260206004820152601960248201527f4552433732313a20617070726f766520746f2063616c6c6572000000000000006044820152606401610b91565b6001600160a01b038381166000818152606a6020908152604080832094871680845294825291829020805460ff191686151590811790915591519182527f17307eab39ab6107e8899845ad3d59bd9653f200f220920489ca2b5937696c31910160405180910390a3505050565b612652848484612107565b61265e8484848461282c565b611a3e5760405162461bcd60e51b8152600401610b9190613275565b600054610100900460ff166126a15760405162461bcd60e51b8152600401610b919061322a565b60656126ad8382612f39565b506066610c328282612f39565b600054610100900460ff166126e15760405162461bcd60e51b8152600401610b919061322a565b61190233612527565b6001600160a01b0382166127405760405162461bcd60e51b815260206004820181905260248201527f4552433732313a206d696e7420746f20746865207a65726f20616464726573736044820152606401610b91565b6000818152606760205260409020546001600160a01b0316156127a55760405162461bcd60e51b815260206004820152601c60248201527f4552433732313a20746f6b656e20616c7265616479206d696e746564000000006044820152606401610b91565b6001600160a01b03821660009081526068602052604081208054600192906127ce908490612ec5565b909155505060008181526067602052604080822080546001600160a01b0319166001600160a01b03861690811790915590518392907fddf252ad1be2c89b69c2b068fc378daa952ba7f163c4a11628f55a4df523b3ef908290a45050565b60006001600160a01b0384163b1561292257604051630a85bd0160e11b81526001600160a01b0385169063150b7a02906128709033908990889088906004016132c7565b6020604051808303816000875af19250505080156128ab575060408051601f3d908101601f191682019092526128a891810190613304565b60015b612908573d8080156128d9576040519150601f19603f3d011682016040523d82523d6000602084013e6128de565b606091505b5080516000036129005760405162461bcd60e51b8152600401610b9190613275565b805181602001fd5b6001600160e01b031916630a85bd0160e11b1490506120a1565b5060016120a1565b6001600160e01b03198116811461147957600080fd5b60006020828403121561295257600080fd5b81356119f88161292a565b6001600160a01b038116811461147957600080fd5b803561297d8161295d565b919050565b60006020828403121561299457600080fd5b81356119f88161295d565b60005b838110156129ba5781810151838201526020016129a2565b50506000910152565b600081518084526129db81602086016020860161299f565b601f01601f19169290920160200192915050565b6020815260006119f860208301846129c3565b600060208284031215612a1457600080fd5b5035919050565b60008060408385031215612a2e57600080fd5b8235612a398161295d565b946020939093013593505050565b634e487b7160e01b600052604160045260246000fd5b604051601f8201601f1916810167ffffffffffffffff81118282101715612a8657612a86612a47565b604052919050565b600067ffffffffffffffff821115612aa857612aa8612a47565b50601f01601f191660200190565b6000612ac9612ac484612a8e565b612a5d565b9050828152838383011115612add57600080fd5b828260208301376000602084830101529392505050565b600082601f830112612b0557600080fd5b6119f883833560208501612ab6565b6000806000806000806000806000806000806101808d8f031215612b3757600080fd5b612b408d612972565b9b5067ffffffffffffffff60208e01351115612b5b57600080fd5b612b6b8e60208f01358f01612af4565b9a5067ffffffffffffffff60408e01351115612b8657600080fd5b612b968e60408f01358f01612af4565b995067ffffffffffffffff60608e01351115612bb157600080fd5b612bc18e60608f01358f01612af4565b985067ffffffffffffffff60808e01351115612bdc57600080fd5b612bec8e60808f01358f01612af4565b975060a08d0135965060c08d0135955060e08d01359450612c106101008e01612972565b93506101208d013592506101408d013591506101608d013590509295989b509295989b509295989b565b60006020808385031215612c4d57600080fd5b823567ffffffffffffffff80821115612c6557600080fd5b818501915085601f830112612c7957600080fd5b813581811115612c8b57612c8b612a47565b8060051b9150612c9c848301612a5d565b8181529183018401918481019088841115612cb657600080fd5b938501935b83851015612ce05784359250612cd08361295d565b8282529385019390850190612cbb565b98975050505050505050565b600080600060608486031215612d0157600080fd5b8335612d0c8161295d565b92506020840135612d1c8161295d565b929592945050506040919091013590565b60008060408385031215612d4057600080fd5b8235612d4b8161295d565b915060208301358015158114612d6057600080fd5b809150509250929050565b602080825282518282018190526000919060409081850190868401855b82811015612dc057815180516001600160a01b0316855286810151878601528501518585015260609093019290850190600101612d88565b5091979650505050505050565b60008060008060808587031215612de357600080fd5b8435612dee8161295d565b93506020850135612dfe8161295d565b925060408501359150606085013567ffffffffffffffff811115612e2157600080fd5b8501601f81018713612e3257600080fd5b612e4187823560208401612ab6565b91505092959194509250565b60008060408385031215612e6057600080fd5b8235612e6b8161295d565b91506020830135612d608161295d565b600181811c90821680612e8f57607f821691505b6020821081036110f357634e487b7160e01b600052602260045260246000fd5b634e487b7160e01b600052601160045260246000fd5b80820180821115610a5e57610a5e612eaf565b81810381811115610a5e57610a5e612eaf565b601f821115610c3257600081815260208120601f850160051c81016020861015612f125750805b601f850160051c820191505b81811015612f3157828155600101612f1e565b505050505050565b815167ffffffffffffffff811115612f5357612f53612a47565b612f6781612f618454612e7b565b84612eeb565b602080601f831160018114612f9c5760008415612f845750858301515b600019600386901b1c1916600185901b178555612f31565b600085815260208120601f198616915b82811015612fcb57888601518255948401946001909101908401612fac565b5085821015612fe95787850151600019600388901b60f8161c191681555b5050505050600190811b01905550565b6020808252602e908201527f4552433732313a2063616c6c6572206973206e6f7420746f6b656e206f776e6560408201526d1c881b9bdc88185c1c1c9bdd995960921b606082015260800190565b634e487b7160e01b600052603260045260246000fd5b60006001820161306f5761306f612eaf565b5060010190565b634e487b7160e01b600052601260045260246000fd5b60008261309b5761309b613076565b500690565b60008160001904831182151516156130ba576130ba612eaf565b500290565b6000826130ce576130ce613076565b500490565b600081546130e081612e7b565b8085526020600183811680156130fd576001811461311757613145565b60ff1985168884015283151560051b880183019550613145565b866000528260002060005b8581101561313d5781548a8201860152908301908401613122565b890184019650505b505050505092915050565b60c08152600061316360c08301896129c3565b828103602084015261317581896130d3565b9050828103604084015261318981886130d3565b9050828103606084015261319d81876130d3565b6080840195909552505060a00152949350505050565b6000602082840312156131c557600080fd5b815167ffffffffffffffff8111156131dc57600080fd5b8201601f810184136131ed57600080fd5b80516131fb612ac482612a8e565b81815285602083850101111561321057600080fd5b61322182602083016020860161299f565b95945050505050565b6020808252602b908201527f496e697469616c697a61626c653a20636f6e7472616374206973206e6f74206960408201526a6e697469616c697a696e6760a81b606082015260800190565b60208082526032908201527f4552433732313a207472616e7366657220746f206e6f6e20455243373231526560408201527131b2b4bb32b91034b6b83632b6b2b73a32b960711b606082015260800190565b6001600160a01b03858116825284166020820152604081018390526080606082018190526000906132fa908301846129c3565b9695505050505050565b60006020828403121561331657600080fd5b81516119f88161292a56fea2646970667358221220c46f099f3eb03c59fb82de756ada42a98f12236765be7da5db78895f7a75d1f764736f6c63430008100033",
  "devdoc": {
    "kind": "dev",
    "methods": {
      "approve(address,uint256)": {
        "details": "See {IERC721-approve}."
      },
      "balanceOf(address)": {
        "details": "See {IERC721-balanceOf}."
      },
      "getApproved(uint256)": {
        "details": "See {IERC721-getApproved}."
      },
      "isApprovedForAll(address,address)": {
        "details": "See {IERC721-isApprovedForAll}."
      },
      "name()": {
        "details": "See {IERC721Metadata-name}."
      },
      "ownerOf(uint256)": {
        "details": "See {IERC721-ownerOf}."
      },
      "renounceOwnership()": {
        "details": "Leaves the contract without owner. It will not be possible to call `onlyOwner` functions anymore. Can only be called by the current owner. NOTE: Renouncing ownership will leave the contract without an owner, thereby removing any functionality that is only available to the owner."
      },
      "safeTransferFrom(address,address,uint256)": {
        "details": "See {IERC721-safeTransferFrom}."
      },
      "safeTransferFrom(address,address,uint256,bytes)": {
        "details": "See {IERC721-safeTransferFrom}."
      },
      "setApprovalForAll(address,bool)": {
        "details": "See {IERC721-setApprovalForAll}."
      },
      "supportsInterface(bytes4)": {
        "details": "See {IERC165-supportsInterface}."
      },
      "symbol()": {
        "details": "See {IERC721Metadata-symbol}."
      },
      "tokenURI(uint256)": {
        "details": "See {IERC721Metadata-tokenURI}."
      },
      "totalSupply()": {
        "details": "returns the number of minted tokens within the edition"
      },
      "transferFrom(address,address,uint256)": {
        "details": "See {IERC721-transferFrom}."
      },
      "transferOwnership(address)": {
        "details": "Transfers ownership of the contract to a new account (`newOwner`). Can only be called by the current owner."
      }
    },
    "version": 1
  },
  "userdoc": {
    "kind": "user",
    "methods": {
      "numberCanMint()": {
        "notice": "Returns the number of editions allowed to mint (max_uint256 when open edition)"
      }
    },
    "version": 1
  },
  "storageLayout": {
    "storage": [
      {
        "astId": 823,
        "contract": "contracts/BunyRaffleNft.sol:BunyRaffleNft",
        "label": "_initialized",
        "offset": 0,
        "slot": "0",
        "type": "t_uint8"
      },
      {
        "astId": 826,
        "contract": "contracts/BunyRaffleNft.sol:BunyRaffleNft",
        "label": "_initializing",
        "offset": 1,
        "slot": "0",
        "type": "t_bool"
      },
      {
        "astId": 3168,
        "contract": "contracts/BunyRaffleNft.sol:BunyRaffleNft",
        "label": "__gap",
        "offset": 0,
        "slot": "1",
        "type": "t_array(t_uint256)50_storage"
      },
      {
        "astId": 3512,
        "contract": "contracts/BunyRaffleNft.sol:BunyRaffleNft",
        "label": "__gap",
        "offset": 0,
        "slot": "51",
        "type": "t_array(t_uint256)50_storage"
      },
      {
        "astId": 1123,
        "contract": "contracts/BunyRaffleNft.sol:BunyRaffleNft",
        "label": "_name",
        "offset": 0,
        "slot": "101",
        "type": "t_string_storage"
      },
      {
        "astId": 1125,
        "contract": "contracts/BunyRaffleNft.sol:BunyRaffleNft",
        "label": "_symbol",
        "offset": 0,
        "slot": "102",
        "type": "t_string_storage"
      },
      {
        "astId": 1129,
        "contract": "contracts/BunyRaffleNft.sol:BunyRaffleNft",
        "label": "_owners",
        "offset": 0,
        "slot": "103",
        "type": "t_mapping(t_uint256,t_address)"
      },
      {
        "astId": 1133,
        "contract": "contracts/BunyRaffleNft.sol:BunyRaffleNft",
        "label": "_balances",
        "offset": 0,
        "slot": "104",
        "type": "t_mapping(t_address,t_uint256)"
      },
      {
        "astId": 1137,
        "contract": "contracts/BunyRaffleNft.sol:BunyRaffleNft",
        "label": "_tokenApprovals",
        "offset": 0,
        "slot": "105",
        "type": "t_mapping(t_uint256,t_address)"
      },
      {
        "astId": 1143,
        "contract": "contracts/BunyRaffleNft.sol:BunyRaffleNft",
        "label": "_operatorApprovals",
        "offset": 0,
        "slot": "106",
        "type": "t_mapping(t_address,t_mapping(t_address,t_bool))"
      },
      {
        "astId": 1985,
        "contract": "contracts/BunyRaffleNft.sol:BunyRaffleNft",
        "label": "__gap",
        "offset": 0,
        "slot": "107",
        "type": "t_array(t_uint256)44_storage"
      },
      {
        "astId": 593,
        "contract": "contracts/BunyRaffleNft.sol:BunyRaffleNft",
        "label": "_owner",
        "offset": 0,
        "slot": "151",
        "type": "t_address"
      },
      {
        "astId": 713,
        "contract": "contracts/BunyRaffleNft.sol:BunyRaffleNft",
        "label": "__gap",
        "offset": 0,
        "slot": "152",
        "type": "t_array(t_uint256)49_storage"
      },
      {
        "astId": 9053,
        "contract": "contracts/BunyRaffleNft.sol:BunyRaffleNft",
        "label": "atEditionId",
        "offset": 0,
        "slot": "201",
        "type": "t_struct(Counter)3175_storage"
      },
      {
        "astId": 9079,
        "contract": "contracts/BunyRaffleNft.sol:BunyRaffleNft",
        "label": "description",
        "offset": 0,
        "slot": "202",
        "type": "t_string_storage"
      },
      {
        "astId": 9081,
        "contract": "contracts/BunyRaffleNft.sol:BunyRaffleNft",
        "label": "animationUrl",
        "offset": 0,
        "slot": "203",
        "type": "t_string_storage"
      },
      {
        "astId": 9083,
        "contract": "contracts/BunyRaffleNft.sol:BunyRaffleNft",
        "label": "imageUrl",
        "offset": 0,
        "slot": "204",
        "type": "t_string_storage"
      },
      {
        "astId": 9085,
        "contract": "contracts/BunyRaffleNft.sol:BunyRaffleNft",
        "label": "editionSize",
        "offset": 0,
        "slot": "205",
        "type": "t_uint256"
      },
      {
        "astId": 9087,
        "contract": "contracts/BunyRaffleNft.sol:BunyRaffleNft",
        "label": "salePrice",
        "offset": 0,
        "slot": "206",
        "type": "t_uint256"
      },
      {
        "astId": 9089,
        "contract": "contracts/BunyRaffleNft.sol:BunyRaffleNft",
        "label": "minPlayers",
        "offset": 0,
        "slot": "207",
        "type": "t_uint256"
      },
      {
        "astId": 9091,
        "contract": "contracts/BunyRaffleNft.sol:BunyRaffleNft",
        "label": "maxTokens",
        "offset": 0,
        "slot": "208",
        "type": "t_uint256"
      },
      {
        "astId": 9094,
        "contract": "contracts/BunyRaffleNft.sol:BunyRaffleNft",
        "label": "active",
        "offset": 0,
        "slot": "209",
        "type": "t_bool"
      },
      {
        "astId": 9097,
        "contract": "contracts/BunyRaffleNft.sol:BunyRaffleNft",
        "label": "winnerSelected",
        "offset": 1,
        "slot": "209",
        "type": "t_bool"
      },
      {
        "astId": 9100,
        "contract": "contracts/BunyRaffleNft.sol:BunyRaffleNft",
        "label": "isComplete",
        "offset": 2,
        "slot": "209",
        "type": "t_bool"
      },
      {
        "astId": 9103,
        "contract": "contracts/BunyRaffleNft.sol:BunyRaffleNft",
        "label": "isProof",
        "offset": 3,
        "slot": "209",
        "type": "t_bool"
      },
      {
        "astId": 9106,
        "contract": "contracts/BunyRaffleNft.sol:BunyRaffleNft",
        "label": "prizeClaimed",
        "offset": 4,
        "slot": "209",
        "type": "t_bool"
      },
      {
        "astId": 9108,
        "contract": "contracts/BunyRaffleNft.sol:BunyRaffleNft",
        "label": "startTime",
        "offset": 0,
        "slot": "210",
        "type": "t_uint256"
      },
      {
        "astId": 9110,
        "contract": "contracts/BunyRaffleNft.sol:BunyRaffleNft",
        "label": "endTime",
        "offset": 0,
        "slot": "211",
        "type": "t_uint256"
      },
      {
        "astId": 9113,
        "contract": "contracts/BunyRaffleNft.sol:BunyRaffleNft",
        "label": "EntryCount",
        "offset": 0,
        "slot": "212",
        "type": "t_uint256"
      },
      {
        "astId": 9116,
        "contract": "contracts/BunyRaffleNft.sol:BunyRaffleNft",
        "label": "prime",
        "offset": 0,
        "slot": "213",
        "type": "t_uint256"
      },
      {
        "astId": 9119,
        "contract": "contracts/BunyRaffleNft.sol:BunyRaffleNft",
        "label": "iterations",
        "offset": 0,
        "slot": "214",
        "type": "t_uint256"
      },
      {
        "astId": 9122,
        "contract": "contracts/BunyRaffleNft.sol:BunyRaffleNft",
        "label": "nonce",
        "offset": 0,
        "slot": "215",
        "type": "t_uint256"
      },
      {
        "astId": 9125,
        "contract": "contracts/BunyRaffleNft.sol:BunyRaffleNft",
        "label": "randomNumber",
        "offset": 0,
        "slot": "216",
        "type": "t_uint256"
      },
      {
        "astId": 9128,
        "contract": "contracts/BunyRaffleNft.sol:BunyRaffleNft",
        "label": "winningNumber",
        "offset": 0,
        "slot": "217",
        "type": "t_uint256"
      },
      {
        "astId": 9130,
        "contract": "contracts/BunyRaffleNft.sol:BunyRaffleNft",
        "label": "Winner",
        "offset": 0,
        "slot": "218",
        "type": "t_address_payable"
      },
      {
        "astId": 9132,
        "contract": "contracts/BunyRaffleNft.sol:BunyRaffleNft",
        "label": "bunyBank",
        "offset": 0,
        "slot": "219",
        "type": "t_address_payable"
      },
      {
        "astId": 9136,
        "contract": "contracts/BunyRaffleNft.sol:BunyRaffleNft",
        "label": "entry",
        "offset": 0,
        "slot": "220",
        "type": "t_array(t_struct(Entry)9166_storage)dyn_storage"
      },
      {
        "astId": 9140,
        "contract": "contracts/BunyRaffleNft.sol:BunyRaffleNft",
        "label": "raffleWinner",
        "offset": 0,
        "slot": "221",
        "type": "t_array(t_struct(RaffleWinner)9171_storage)dyn_storage"
      },
      {
        "astId": 9143,
        "contract": "contracts/BunyRaffleNft.sol:BunyRaffleNft",
        "label": "nftTokenIds",
        "offset": 0,
        "slot": "222",
        "type": "t_array(t_uint256)dyn_storage"
      },
      {
        "astId": 9147,
        "contract": "contracts/BunyRaffleNft.sol:BunyRaffleNft",
        "label": "mintedTokens",
        "offset": 0,
        "slot": "223",
        "type": "t_mapping(t_address,t_bool)"
      },
      {
        "astId": 9151,
        "contract": "contracts/BunyRaffleNft.sol:BunyRaffleNft",
        "label": "allowedMinters",
        "offset": 0,
        "slot": "224",
        "type": "t_mapping(t_address,t_bool)"
      },
      {
        "astId": 9155,
        "contract": "contracts/BunyRaffleNft.sol:BunyRaffleNft",
        "label": "seed",
        "offset": 0,
        "slot": "225",
        "type": "t_mapping(t_address,t_uint256)"
      },
      {
        "astId": 9159,
        "contract": "contracts/BunyRaffleNft.sol:BunyRaffleNft",
        "label": "isPlayer",
        "offset": 0,
        "slot": "226",
        "type": "t_mapping(t_address,t_bool)"
      }
    ],
    "types": {
      "t_address": {
        "encoding": "inplace",
        "label": "address",
        "numberOfBytes": "20"
      },
      "t_address_payable": {
        "encoding": "inplace",
        "label": "address payable",
        "numberOfBytes": "20"
      },
      "t_array(t_struct(Entry)9166_storage)dyn_storage": {
        "base": "t_struct(Entry)9166_storage",
        "encoding": "dynamic_array",
        "label": "struct BunyRaffleNft.Entry[]",
        "numberOfBytes": "32"
      },
      "t_array(t_struct(RaffleWinner)9171_storage)dyn_storage": {
        "base": "t_struct(RaffleWinner)9171_storage",
        "encoding": "dynamic_array",
        "label": "struct BunyRaffleNft.RaffleWinner[]",
        "numberOfBytes": "32"
      },
      "t_array(t_uint256)44_storage": {
        "base": "t_uint256",
        "encoding": "inplace",
        "label": "uint256[44]",
        "numberOfBytes": "1408"
      },
      "t_array(t_uint256)49_storage": {
        "base": "t_uint256",
        "encoding": "inplace",
        "label": "uint256[49]",
        "numberOfBytes": "1568"
      },
      "t_array(t_uint256)50_storage": {
        "base": "t_uint256",
        "encoding": "inplace",
        "label": "uint256[50]",
        "numberOfBytes": "1600"
      },
      "t_array(t_uint256)dyn_storage": {
        "base": "t_uint256",
        "encoding": "dynamic_array",
        "label": "uint256[]",
        "numberOfBytes": "32"
      },
      "t_bool": {
        "encoding": "inplace",
        "label": "bool",
        "numberOfBytes": "1"
      },
      "t_mapping(t_address,t_bool)": {
        "encoding": "mapping",
        "key": "t_address",
        "label": "mapping(address => bool)",
        "numberOfBytes": "32",
        "value": "t_bool"
      },
      "t_mapping(t_address,t_mapping(t_address,t_bool))": {
        "encoding": "mapping",
        "key": "t_address",
        "label": "mapping(address => mapping(address => bool))",
        "numberOfBytes": "32",
        "value": "t_mapping(t_address,t_bool)"
      },
      "t_mapping(t_address,t_uint256)": {
        "encoding": "mapping",
        "key": "t_address",
        "label": "mapping(address => uint256)",
        "numberOfBytes": "32",
        "value": "t_uint256"
      },
      "t_mapping(t_uint256,t_address)": {
        "encoding": "mapping",
        "key": "t_uint256",
        "label": "mapping(uint256 => address)",
        "numberOfBytes": "32",
        "value": "t_address"
      },
      "t_string_storage": {
        "encoding": "bytes",
        "label": "string",
        "numberOfBytes": "32"
      },
      "t_struct(Counter)3175_storage": {
        "encoding": "inplace",
        "label": "struct CountersUpgradeable.Counter",
        "members": [
          {
            "astId": 3174,
            "contract": "contracts/BunyRaffleNft.sol:BunyRaffleNft",
            "label": "_value",
            "offset": 0,
            "slot": "0",
            "type": "t_uint256"
          }
        ],
        "numberOfBytes": "32"
      },
      "t_struct(Entry)9166_storage": {
        "encoding": "inplace",
        "label": "struct BunyRaffleNft.Entry",
        "members": [
          {
            "astId": 9161,
            "contract": "contracts/BunyRaffleNft.sol:BunyRaffleNft",
            "label": "player",
            "offset": 0,
            "slot": "0",
            "type": "t_address"
          },
          {
            "astId": 9163,
            "contract": "contracts/BunyRaffleNft.sol:BunyRaffleNft",
            "label": "EntryNumber",
            "offset": 0,
            "slot": "1",
            "type": "t_uint256"
          },
          {
            "astId": 9165,
            "contract": "contracts/BunyRaffleNft.sol:BunyRaffleNft",
            "label": "entryTime",
            "offset": 0,
            "slot": "2",
            "type": "t_uint256"
          }
        ],
        "numberOfBytes": "96"
      },
      "t_struct(RaffleWinner)9171_storage": {
        "encoding": "inplace",
        "label": "struct BunyRaffleNft.RaffleWinner",
        "members": [
          {
            "astId": 9168,
            "contract": "contracts/BunyRaffleNft.sol:BunyRaffleNft",
            "label": "winner",
            "offset": 0,
            "slot": "0",
            "type": "t_address_payable"
          },
          {
            "astId": 9170,
            "contract": "contracts/BunyRaffleNft.sol:BunyRaffleNft",
            "label": "winningTokenId",
            "offset": 0,
            "slot": "1",
            "type": "t_uint256"
          }
        ],
        "numberOfBytes": "64"
      },
      "t_uint256": {
        "encoding": "inplace",
        "label": "uint256",
        "numberOfBytes": "32"
      },
      "t_uint8": {
        "encoding": "inplace",
        "label": "uint8",
        "numberOfBytes": "1"
      }
    }
  }
}