{
  "address": "0x0EC46495c3f4Ed3c33Fd0E6e517d6CAE7F3E2B9E",
  "abi": [
    {
      "inputs": [
        {
          "internalType": "bytes",
          "name": "unencoded",
          "type": "bytes"
        }
      ],
      "name": "base64Encode",
      "outputs": [
        {
          "internalType": "string",
          "name": "",
          "type": "string"
        }
      ],
      "stateMutability": "pure",
      "type": "function"
    },
    {
      "inputs": [
        {
          "internalType": "string",
          "name": "name",
          "type": "string"
        },
        {
          "internalType": "string",
          "name": "description",
          "type": "string"
        },
        {
          "internalType": "string",
          "name": "imageUrl",
          "type": "string"
        },
        {
          "internalType": "string",
          "name": "animationUrl",
          "type": "string"
        },
        {
          "internalType": "uint256",
          "name": "tokenOfEdition",
          "type": "uint256"
        },
        {
          "internalType": "uint256",
          "name": "editionSize",
          "type": "uint256"
        }
      ],
      "name": "createMetadataEdition",
      "outputs": [
        {
          "internalType": "string",
          "name": "",
          "type": "string"
        }
      ],
      "stateMutability": "pure",
      "type": "function"
    },
    {
      "inputs": [
        {
          "internalType": "string",
          "name": "name",
          "type": "string"
        },
        {
          "internalType": "string",
          "name": "description",
          "type": "string"
        },
        {
          "internalType": "string",
          "name": "mediaData",
          "type": "string"
        },
        {
          "internalType": "uint256",
          "name": "tokenOfEdition",
          "type": "uint256"
        },
        {
          "internalType": "uint256",
          "name": "editionSize",
          "type": "uint256"
        }
      ],
      "name": "createMetadataJSON",
      "outputs": [
        {
          "internalType": "bytes",
          "name": "",
          "type": "bytes"
        }
      ],
      "stateMutability": "pure",
      "type": "function"
    },
    {
      "inputs": [
        {
          "internalType": "bytes",
          "name": "json",
          "type": "bytes"
        }
      ],
      "name": "encodeMetadataJSON",
      "outputs": [
        {
          "internalType": "string",
          "name": "",
          "type": "string"
        }
      ],
      "stateMutability": "pure",
      "type": "function"
    },
    {
      "inputs": [
        {
          "internalType": "uint256",
          "name": "value",
          "type": "uint256"
        }
      ],
      "name": "numberToString",
      "outputs": [
        {
          "internalType": "string",
          "name": "",
          "type": "string"
        }
      ],
      "stateMutability": "pure",
      "type": "function"
    },
    {
      "inputs": [
        {
          "internalType": "string",
          "name": "imageUrl",
          "type": "string"
        },
        {
          "internalType": "string",
          "name": "animationUrl",
          "type": "string"
        },
        {
          "internalType": "uint256",
          "name": "tokenOfEdition",
          "type": "uint256"
        }
      ],
      "name": "tokenMediaData",
      "outputs": [
        {
          "internalType": "string",
          "name": "",
          "type": "string"
        }
      ],
      "stateMutability": "pure",
      "type": "function"
    }
  ],
  "transactionHash": "0x1eeaa5a721803a3c3a5ed139179efebfcd972410ac3ec35c24aaa472a99f6848",
  "args": [],
  "numDeployments": 1,
  "solcInputHash": "6fd771d513ece276dd126da219e20a4f",
  "bytecode": "0x608060405234801561001057600080fd5b50610cda806100206000396000f3fe608060405234801561001057600080fd5b50600436106100625760003560e01c8063170dc6601461006757806358464f3014610090578063d01fde8c146100a3578063d5fb1b19146100b6578063df30dba0146100c9578063eb111ab6146100dc575b600080fd5b61007a610075366004610579565b6100ef565b60405161008791906105e2565b60405180910390f35b61007a61009e3660046106a1565b610100565b61007a6100b136600461073b565b61017c565b61007a6100c436600461073b565b6101ad565b61007a6100d736600461078c565b6101b8565b61007a6100ea36600461084b565b6101f0565b60606100fa826102a9565b92915050565b606080821561013457610112836100ef565b60405160200161012291906108d4565b60405160208183030381529060405290505b8661013e856100ef565b82888861014a896100ef565b8c60405160200161016197969594939291906108fd565b60405160208183030381529060405291505095945050505050565b6060610187826101ad565b6040516020016101979190610a26565b6040516020818303038152906040529050919050565b60606100fa8261033c565b606060006101c78686866101f0565b905060006101d88989848888610100565b90506101e38161017c565b9998505050505050505050565b825182516060911580159115159082906102075750805b1561024b5785610216856100ef565b86610220876100ef565b6040516020016102339493929190610a6b565b604051602081830303815290604052925050506102a2565b811561026c578561025b856100ef565b604051602001610233929190610b26565b801561028d578461027c856100ef565b604051602001610233929190610b8c565b60405180602001604052806000815250925050505b9392505050565b606060006102b6836104a1565b600101905060008167ffffffffffffffff8111156102d6576102d66105f5565b6040519080825280601f01601f191660200182016040528015610300576020820181803683370190505b5090508181016020015b600019016f181899199a1a9b1b9c1cb0b131b232b360811b600a86061a8153600a850494508461030a57509392505050565b6060815160000361035b57505060408051602081019091526000815290565b6000604051806060016040528060408152602001610c65604091399050600060038451600261038a9190610c10565b6103949190610c23565b61039f906004610c45565b905060006103ae826020610c10565b67ffffffffffffffff8111156103c6576103c66105f5565b6040519080825280601f01601f1916602001820160405280156103f0576020820181803683370190505b509050818152600183018586518101602084015b8183101561045c576003830192508251603f8160121c168501518253600182019150603f81600c1c168501518253600182019150603f8160061c168501518253600182019150603f8116850151825350600101610404565b600389510660018114610476576002811461048757610493565b613d3d60f01b600119830152610493565b603d60f81b6000198301525b509398975050505050505050565b60008072184f03e93ff9f4daa797ed6e38ed64bf6a1f0160401b83106104e05772184f03e93ff9f4daa797ed6e38ed64bf6a1f0160401b830492506040015b6d04ee2d6d415b85acef8100000000831061050c576d04ee2d6d415b85acef8100000000830492506020015b662386f26fc10000831061052a57662386f26fc10000830492506010015b6305f5e1008310610542576305f5e100830492506008015b612710831061055657612710830492506004015b60648310610568576064830492506002015b600a83106100fa5760010192915050565b60006020828403121561058b57600080fd5b5035919050565b60005b838110156105ad578181015183820152602001610595565b50506000910152565b600081518084526105ce816020860160208601610592565b601f01601f19169290920160200192915050565b6020815260006102a260208301846105b6565b634e487b7160e01b600052604160045260246000fd5b600067ffffffffffffffff80841115610626576106266105f5565b604051601f8501601f19908116603f0116810190828211818310171561064e5761064e6105f5565b8160405280935085815286868601111561066757600080fd5b858560208301376000602087830101525050509392505050565b600082601f83011261069257600080fd5b6102a28383356020850161060b565b600080600080600060a086880312156106b957600080fd5b853567ffffffffffffffff808211156106d157600080fd5b6106dd89838a01610681565b965060208801359150808211156106f357600080fd5b6106ff89838a01610681565b9550604088013591508082111561071557600080fd5b5061072288828901610681565b9598949750949560608101359550608001359392505050565b60006020828403121561074d57600080fd5b813567ffffffffffffffff81111561076457600080fd5b8201601f8101841361077557600080fd5b6107848482356020840161060b565b949350505050565b60008060008060008060c087890312156107a557600080fd5b863567ffffffffffffffff808211156107bd57600080fd5b6107c98a838b01610681565b975060208901359150808211156107df57600080fd5b6107eb8a838b01610681565b9650604089013591508082111561080157600080fd5b61080d8a838b01610681565b9550606089013591508082111561082357600080fd5b5061083089828a01610681565b9350506080870135915060a087013590509295509295509295565b60008060006060848603121561086057600080fd5b833567ffffffffffffffff8082111561087857600080fd5b61088487838801610681565b9450602086013591508082111561089a57600080fd5b506108a786828701610681565b925050604084013590509250925092565b600081516108ca818560208601610592565b9290920192915050565b602f60f81b8152600082516108f0816001850160208701610592565b9190910160010192915050565b693d913730b6b2911d101160b11b8152875160009061092381600a850160208d01610592565b600160fd1b600a91840191820152885161094481600b840160208d01610592565b885191019061095a81600b840160208c01610592565b631116101160e11b600b929091019182018190526e3232b9b1b934b83a34b7b7111d101160891b600f830152875161099981601e850160208c01610592565b601e920191820152610a18610a09610a036109ec6109e66109bd602287018c6108b8565b7f70726f70657274696573223a207b226e756d626572223a200000000000000000815260180190565b896108b8565b6a1610113730b6b2911d101160a91b8152600b0190565b866108b8565b62227d7d60e81b815260030190565b9a9950505050505050505050565b7f646174613a6170706c69636174696f6e2f6a736f6e3b6261736536342c000000815260008251610a5e81601d850160208701610592565b91909101601d0192915050565b6834b6b0b3b2911d101160b91b81528451600090610a90816009850160208a01610592565b8083019050633f69643d60e01b8060098301528651610ab681600d850160208b01610592565b741116101130b734b6b0ba34b7b72fbab936111d101160591b600d93909101928301528551610aec816022850160208a01610592565b60229201918201528351610b07816026840160208801610592565b631116101160e11b60269290910191820152602a019695505050505050565b6834b6b0b3b2911d101160b91b81528251600090610b4b816009850160208801610592565b633f69643d60e01b6009918401918201528351610b6f81600d840160208801610592565b631116101160e11b600d9290910191820152601101949350505050565b7030b734b6b0ba34b7b72fbab936111d101160791b81528251600090610bb9816011850160208801610592565b633f69643d60e01b6011918401918201528351610bdd816015840160208801610592565b631116101160e11b60159290910191820152601901949350505050565b634e487b7160e01b600052601160045260246000fd5b808201808211156100fa576100fa610bfa565b600082610c4057634e487b7160e01b600052601260045260246000fd5b500490565b6000816000190483118215151615610c5f57610c5f610bfa565b50029056fe4142434445464748494a4b4c4d4e4f505152535455565758595a6162636465666768696a6b6c6d6e6f707172737475767778797a303132333435363738392b2fa264697066735822122038f3c2cc9a96f33534071fa7b432b8aac86a5befe3f84fcd7084471c1cdb893564736f6c63430008100033",
  "devdoc": {
    "details": "Can safely be used for generic base64Encode and numberToString functions",
    "kind": "dev",
    "methods": {
      "base64Encode(bytes)": {
        "params": {
          "unencoded": "bytes to base64-encode"
        }
      },
      "createMetadataEdition(string,string,string,string,uint256,uint256)": {
        "params": {
          "animationUrl": "URL of animation to render for edition",
          "description": "Description of NFT in metadata",
          "editionSize": "Size of entire edition to show",
          "imageUrl": "URL of image to render for edition",
          "name": "Name of NFT in metadata",
          "tokenOfEdition": "Token ID for specific token"
        }
      },
      "createMetadataJSON(string,string,string,uint256,uint256)": {
        "params": {
          "description": "Description of NFT in metadata",
          "editionSize": "Size of entire edition to show",
          "mediaData": "Data for media to include in json object",
          "name": "Name of NFT in metadata",
          "tokenOfEdition": "Token ID for specific token"
        }
      },
      "encodeMetadataJSON(bytes)": {
        "params": {
          "json": "Raw json to base64 and turn into a data-uri"
        }
      },
      "numberToString(uint256)": {
        "params": {
          "value": "number to return as a string"
        }
      },
      "tokenMediaData(string,string,uint256)": {
        "params": {
          "animationUrl": "URL of animation to render for edition",
          "imageUrl": "URL of image to render for edition"
        }
      }
    },
    "version": 1
  },
  "userdoc": {
    "kind": "user",
    "methods": {
      "createMetadataEdition(string,string,string,string,uint256,uint256)": {
        "notice": "Generate edition metadata from storage information as base64-json blob Combines the media data and metadata"
      },
      "createMetadataJSON(string,string,string,uint256,uint256)": {
        "notice": "Function to create the metadata json string for the nft edition"
      },
      "encodeMetadataJSON(bytes)": {
        "notice": "Encodes the argument json bytes into base64-data uri format"
      },
      "numberToString(uint256)": {
        "notice": "Proxy to openzeppelin's toString function"
      },
      "tokenMediaData(string,string,uint256)": {
        "notice": "Generates edition metadata from storage information as base64-json blob Combines the media data and metadata"
      }
    },
    "notice": "Shared NFT logic for rendering metadata associated with editions",
    "version": 1
  },
  "storageLayout": {
    "storage": [],
    "types": null
  }
}