{
  "address": "0xf5Bc22F98f42e23953bDc9A376085FcFA450fD61",
  "abi": [
    {
      "inputs": [
        {
          "internalType": "address",
          "name": "_implementation",
          "type": "address"
        }
      ],
      "stateMutability": "nonpayable",
      "type": "constructor"
    },
    {
      "anonymous": false,
      "inputs": [
        {
          "indexed": true,
          "internalType": "uint256",
          "name": "editionId",
          "type": "uint256"
        },
        {
          "indexed": true,
          "internalType": "address",
          "name": "creator",
          "type": "address"
        },
        {
          "indexed": false,
          "internalType": "uint256",
          "name": "editionSize",
          "type": "uint256"
        },
        {
          "indexed": true,
          "internalType": "address",
          "name": "editionContractAddress",
          "type": "address"
        },
        {
          "indexed": false,
          "internalType": "uint256",
          "name": "minPlayers",
          "type": "uint256"
        },
        {
          "indexed": false,
          "internalType": "uint256",
          "name": "salePrice",
          "type": "uint256"
        }
      ],
      "name": "CreatedEdition",
      "type": "event"
    },
    {
      "inputs": [
        {
          "internalType": "uint256",
          "name": "",
          "type": "uint256"
        }
      ],
      "name": "collection",
      "outputs": [
        {
          "internalType": "string",
          "name": "_name",
          "type": "string"
        },
        {
          "internalType": "address",
          "name": "editionContractAddress",
          "type": "address"
        },
        {
          "internalType": "uint256",
          "name": "_editionSize",
          "type": "uint256"
        },
        {
          "internalType": "uint256",
          "name": "newId",
          "type": "uint256"
        },
        {
          "internalType": "uint256",
          "name": "_minPlayers",
          "type": "uint256"
        },
        {
          "internalType": "uint256",
          "name": "_salePrice",
          "type": "uint256"
        },
        {
          "internalType": "string",
          "name": "_imageUrl",
          "type": "string"
        }
      ],
      "stateMutability": "view",
      "type": "function"
    },
    {
      "inputs": [],
      "name": "collectionCount",
      "outputs": [
        {
          "internalType": "uint256",
          "name": "",
          "type": "uint256"
        }
      ],
      "stateMutability": "view",
      "type": "function"
    },
    {
      "inputs": [
        {
          "internalType": "string",
          "name": "_description",
          "type": "string"
        },
        {
          "internalType": "string",
          "name": "_imageUrl",
          "type": "string"
        },
        {
          "internalType": "uint256",
          "name": "_editionSize",
          "type": "uint256"
        },
        {
          "internalType": "uint256",
          "name": "_salePrice",
          "type": "uint256"
        },
        {
          "internalType": "uint256",
          "name": "_minPlayers",
          "type": "uint256"
        }
      ],
      "name": "createEdition",
      "outputs": [
        {
          "internalType": "uint256",
          "name": "",
          "type": "uint256"
        }
      ],
      "stateMutability": "nonpayable",
      "type": "function"
    },
    {
      "inputs": [
        {
          "internalType": "uint256",
          "name": "raffleId",
          "type": "uint256"
        }
      ],
      "name": "getRaffleAtId",
      "outputs": [
        {
          "internalType": "contract RaffleNft",
          "name": "",
          "type": "address"
        }
      ],
      "stateMutability": "view",
      "type": "function"
    },
    {
      "inputs": [],
      "name": "implementation",
      "outputs": [
        {
          "internalType": "address",
          "name": "",
          "type": "address"
        }
      ],
      "stateMutability": "view",
      "type": "function"
    },
    {
      "inputs": [],
      "name": "readAllCollections",
      "outputs": [
        {
          "components": [
            {
              "internalType": "string",
              "name": "_name",
              "type": "string"
            },
            {
              "internalType": "address",
              "name": "editionContractAddress",
              "type": "address"
            },
            {
              "internalType": "uint256",
              "name": "_editionSize",
              "type": "uint256"
            },
            {
              "internalType": "uint256",
              "name": "newId",
              "type": "uint256"
            },
            {
              "internalType": "uint256",
              "name": "_minPlayers",
              "type": "uint256"
            },
            {
              "internalType": "uint256",
              "name": "_salePrice",
              "type": "uint256"
            },
            {
              "internalType": "string",
              "name": "_imageUrl",
              "type": "string"
            }
          ],
          "internalType": "struct raffleFactory.Collection[]",
          "name": "",
          "type": "tuple[]"
        }
      ],
      "stateMutability": "view",
      "type": "function"
    }
  ],
  "transactionHash": "0xe0492236960a9cd5f7b54e32c9d1707858994c63c68e37ae7fd1965a1f11250f",
  "args": [
    "0x686e920611079eE4E0CcD66383B48B0eFf235d6a"
  ],
  "numDeployments": 1,
  "solcInputHash": "874cbae2360d6d111c9759a00abcc64b",
  "bytecode": "0x60c0604052601460809081527f42756e7920526166666c6520496e66696e69747900000000000000000000000060a0526002906200003e9082620001b1565b506040805180820190915260058152647242554e5960d81b60208201526003906200006a9082620001b1565b506040518060800160405280604381526020016200115460439139600490620000949082620001b1565b507104f627b3bbd341d240517fe3db99ad3b2c276005556105396006556000600755348015620000c357600080fd5b506040516200119738038062001197833981016040819052620000e6916200027d565b600180546001600160a01b0319166001600160a01b0392909216919091179055620002af565b634e487b7160e01b600052604160045260246000fd5b600181811c908216806200013757607f821691505b6020821081036200015857634e487b7160e01b600052602260045260246000fd5b50919050565b601f821115620001ac57600081815260208120601f850160051c81016020861015620001875750805b601f850160051c820191505b81811015620001a85782815560010162000193565b5050505b505050565b81516001600160401b03811115620001cd57620001cd6200010c565b620001e581620001de845462000122565b846200015e565b602080601f8311600181146200021d5760008415620002045750858301515b600019600386901b1c1916600185901b178555620001a8565b600085815260208120601f198616915b828110156200024e578886015182559484019460019091019084016200022d565b50858210156200026d5787850151600019600388901b60f8161c191681555b5050505050600190811b01905550565b6000602082840312156200029057600080fd5b81516001600160a01b0381168114620002a857600080fd5b9392505050565b610e9580620002bf6000396000f3fe608060405234801561001057600080fd5b50600436106100625760003560e01c80630dcd5f2b146100675780635c60da1b1461009757806378b6aee9146100aa578063adee9cc4146100cb578063d57f966b146100e0578063f0772377146100e9575b600080fd5b61007a6100753660046108f9565b61010f565b6040516001600160a01b0390911681526020015b60405180910390f35b60015461007a906001600160a01b031681565b6100bd6100b83660046109b5565b6101ae565b60405190815260200161008e565b6100d3610472565b60405161008e9190610a7a565b6100bd60075481565b6100fc6100f73660046108f9565b6106e0565b60405161008e9796959493929190610b3e565b60015460408051602081018490526000926101a8926001600160a01b03909116910160405160208183030381529060405261014990610b97565b30604051733d602d80600a3d3981f3363d3d373d3d3d363d7360601b8152606093841b60148201526f5af43d82803e903d91602b57fd5bf3ff60801b6028820152921b6038830152604c8201526037808220606c830152605591012090565b92915050565b6000806101ba60005490565b60015460408051602081018490529293506000926101fa926001600160a01b031691016040516020818303038152906040526101f590610b97565b610855565b9050806001600160a01b0316635ad1016f33600260038c60048d8d8d8d6005546006546040518c63ffffffff1660e01b81526004016102439b9a99989796959493929190610c6c565b600060405180830381600087803b15801561025d57600080fd5b505af1158015610271573d6000803e3d6000fd5b505060408051898152602081018890529081018890526001600160a01b038416925033915084907f5db3e27acfaa7d7bc77e743a8c23dc2c45a0052e1ce0d3af2a0f4c622c5a14d19060600160405180910390a46102d3600080546001019055565b60006040518060e00160405280600280546102ed90610bbb565b80601f016020809104026020016040519081016040528092919081815260200182805461031990610bbb565b80156103665780601f1061033b57610100808354040283529160200191610366565b820191906000526020600020905b81548152906001019060200180831161034957829003601f168201915b50505091835250506001600160a01b038416602082015260408101899052606081018590526080810187905260a0810188905260c001899052600880546001810182556000919091528151919250829160079091027ff3f7a9fe364faab93b216da50a3214154f22a0a2b415b23a84c8169e8b636ee3019081906103ea9082610d62565b5060208201516001820180546001600160a01b0319166001600160a01b0390921691909117905560408201516002820155606082015160038201556080820151600482015560a0820151600582015560c0820151600682019061044d9082610d62565b5050600780549150600061046083610e22565b90915550929998505050505050505050565b6060600060075467ffffffffffffffff81111561049157610491610912565b60405190808252806020026020018201604052801561050b57816020015b6104f86040518060e001604052806060815260200160006001600160a01b0316815260200160008152602001600081526020016000815260200160008152602001606081525090565b8152602001906001900390816104af5790505b50905060005b6007548110156106da576008818154811061052e5761052e610e49565b90600052602060002090600702016040518060e001604052908160008201805461055790610bbb565b80601f016020809104026020016040519081016040528092919081815260200182805461058390610bbb565b80156105d05780601f106105a5576101008083540402835291602001916105d0565b820191906000526020600020905b8154815290600101906020018083116105b357829003601f168201915b505050918352505060018201546001600160a01b03166020820152600282015460408201526003820154606082015260048201546080820152600582015460a082015260068201805460c09092019161062890610bbb565b80601f016020809104026020016040519081016040528092919081815260200182805461065490610bbb565b80156106a15780601f10610676576101008083540402835291602001916106a1565b820191906000526020600020905b81548152906001019060200180831161068457829003601f168201915b5050505050815250508282815181106106bc576106bc610e49565b602002602001018190525080806106d290610e22565b915050610511565b50919050565b600881815481106106f057600080fd5b906000526020600020906007020160009150905080600001805461071390610bbb565b80601f016020809104026020016040519081016040528092919081815260200182805461073f90610bbb565b801561078c5780601f106107615761010080835404028352916020019161078c565b820191906000526020600020905b81548152906001019060200180831161076f57829003601f168201915b5050505050908060010160009054906101000a90046001600160a01b0316908060020154908060030154908060040154908060050154908060060180546107d290610bbb565b80601f01602080910402602001604051908101604052809291908181526020018280546107fe90610bbb565b801561084b5780601f106108205761010080835404028352916020019161084b565b820191906000526020600020905b81548152906001019060200180831161082e57829003601f168201915b5050505050905087565b6000604051733d602d80600a3d3981f3363d3d373d3d3d363d7360601b81528360601b60148201526e5af43d82803e903d91602b57fd5bf360881b6028820152826037826000f59150506001600160a01b0381166101a85760405162461bcd60e51b815260206004820152601760248201527f455243313136373a2063726561746532206661696c6564000000000000000000604482015260640160405180910390fd5b60006020828403121561090b57600080fd5b5035919050565b634e487b7160e01b600052604160045260246000fd5b600082601f83011261093957600080fd5b813567ffffffffffffffff8082111561095457610954610912565b604051601f8301601f19908116603f0116810190828211818310171561097c5761097c610912565b8160405283815286602085880101111561099557600080fd5b836020870160208301376000602085830101528094505050505092915050565b600080600080600060a086880312156109cd57600080fd5b853567ffffffffffffffff808211156109e557600080fd5b6109f189838a01610928565b96506020880135915080821115610a0757600080fd5b50610a1488828901610928565b959895975050505060408401359360608101359360809091013592509050565b6000815180845260005b81811015610a5a57602081850181015186830182015201610a3e565b506000602082860101526020601f19601f83011685010191505092915050565b60006020808301818452808551808352604092508286019150828160051b87010184880160005b83811015610b3057603f19898403018552815160e08151818652610ac782870182610a34565b838b01516001600160a01b0316878c0152898401518a880152606080850151908801526080808501519088015260a0848101519088015260c093840151878203948801949094529150610b1c90508183610a34565b968901969450505090860190600101610aa1565b509098975050505050505050565b60e081526000610b5160e083018a610a34565b60018060a01b03891660208401528760408401528660608401528560808401528460a084015282810360c0840152610b898185610a34565b9a9950505050505050505050565b805160208083015191908110156106da5760001960209190910360031b1b16919050565b600181811c90821680610bcf57607f821691505b6020821081036106da57634e487b7160e01b600052602260045260246000fd5b60008154610bfc81610bbb565b808552602060018381168015610c195760018114610c3357610c61565b60ff1985168884015283151560051b880183019550610c61565b866000528260002060005b85811015610c595781548a8201860152908301908401610c3e565b890184019650505b505050505092915050565b6001600160a01b038c16815261016060208201819052600090610c918382018e610bef565b90508281036040840152610ca5818d610bef565b90508281036060840152610cb9818c610a34565b90508281036080840152610ccd818b610bef565b905082810360a0840152610ce1818a610a34565b60c0840198909852505060e0810194909452610100840192909252610120830152610140909101529695505050505050565b601f821115610d5d57600081815260208120601f850160051c81016020861015610d3a5750805b601f850160051c820191505b81811015610d5957828155600101610d46565b5050505b505050565b815167ffffffffffffffff811115610d7c57610d7c610912565b610d9081610d8a8454610bbb565b84610d13565b602080601f831160018114610dc55760008415610dad5750858301515b600019600386901b1c1916600185901b178555610d59565b600085815260208120601f198616915b82811015610df457888601518255948401946001909101908401610dd5565b5085821015610e125787850151600019600388901b60f8161c191681555b5050505050600190811b01905550565b600060018201610e4257634e487b7160e01b600052601160045260246000fd5b5060010190565b634e487b7160e01b600052603260045260246000fdfea26469706673582212209d622058652539fe08c390119b05fa095c23eab00cac50490746f54a6661507e64736f6c6343000810003368747470733a2f2f697066732e696f2f697066732f516d643934597372734b356a506269363735586977794c774d68634d364853364d554c43376d7151474d6e587457",
  "devdoc": {
    "kind": "dev",
    "methods": {},
    "version": 1
  },
  "userdoc": {
    "kind": "user",
    "methods": {
      "constructor": {
        "notice": "Initializes factory with address of implementation logic"
      }
    },
    "version": 1
  },
  "storageLayout": {
    "storage": [
      {
        "astId": 4306,
        "contract": "contracts/RaffleFactory.sol:raffleFactory",
        "label": "atContract",
        "offset": 0,
        "slot": "0",
        "type": "t_struct(Counter)3172_storage"
      },
      {
        "astId": 4308,
        "contract": "contracts/RaffleFactory.sol:raffleFactory",
        "label": "implementation",
        "offset": 0,
        "slot": "1",
        "type": "t_address"
      },
      {
        "astId": 4311,
        "contract": "contracts/RaffleFactory.sol:raffleFactory",
        "label": "_name",
        "offset": 0,
        "slot": "2",
        "type": "t_string_storage"
      },
      {
        "astId": 4314,
        "contract": "contracts/RaffleFactory.sol:raffleFactory",
        "label": "_symbol",
        "offset": 0,
        "slot": "3",
        "type": "t_string_storage"
      },
      {
        "astId": 4317,
        "contract": "contracts/RaffleFactory.sol:raffleFactory",
        "label": "_animationUrl",
        "offset": 0,
        "slot": "4",
        "type": "t_string_storage"
      },
      {
        "astId": 4320,
        "contract": "contracts/RaffleFactory.sol:raffleFactory",
        "label": "_prime",
        "offset": 0,
        "slot": "5",
        "type": "t_uint256"
      },
      {
        "astId": 4323,
        "contract": "contracts/RaffleFactory.sol:raffleFactory",
        "label": "_iterations",
        "offset": 0,
        "slot": "6",
        "type": "t_uint256"
      },
      {
        "astId": 4326,
        "contract": "contracts/RaffleFactory.sol:raffleFactory",
        "label": "collectionCount",
        "offset": 0,
        "slot": "7",
        "type": "t_uint256"
      },
      {
        "astId": 4344,
        "contract": "contracts/RaffleFactory.sol:raffleFactory",
        "label": "collection",
        "offset": 0,
        "slot": "8",
        "type": "t_array(t_struct(Collection)4359_storage)dyn_storage"
      }
    ],
    "types": {
      "t_address": {
        "encoding": "inplace",
        "label": "address",
        "numberOfBytes": "20"
      },
      "t_array(t_struct(Collection)4359_storage)dyn_storage": {
        "base": "t_struct(Collection)4359_storage",
        "encoding": "dynamic_array",
        "label": "struct raffleFactory.Collection[]",
        "numberOfBytes": "32"
      },
      "t_string_storage": {
        "encoding": "bytes",
        "label": "string",
        "numberOfBytes": "32"
      },
      "t_struct(Collection)4359_storage": {
        "encoding": "inplace",
        "label": "struct raffleFactory.Collection",
        "members": [
          {
            "astId": 4346,
            "contract": "contracts/RaffleFactory.sol:raffleFactory",
            "label": "_name",
            "offset": 0,
            "slot": "0",
            "type": "t_string_storage"
          },
          {
            "astId": 4348,
            "contract": "contracts/RaffleFactory.sol:raffleFactory",
            "label": "editionContractAddress",
            "offset": 0,
            "slot": "1",
            "type": "t_address"
          },
          {
            "astId": 4350,
            "contract": "contracts/RaffleFactory.sol:raffleFactory",
            "label": "_editionSize",
            "offset": 0,
            "slot": "2",
            "type": "t_uint256"
          },
          {
            "astId": 4352,
            "contract": "contracts/RaffleFactory.sol:raffleFactory",
            "label": "newId",
            "offset": 0,
            "slot": "3",
            "type": "t_uint256"
          },
          {
            "astId": 4354,
            "contract": "contracts/RaffleFactory.sol:raffleFactory",
            "label": "_minPlayers",
            "offset": 0,
            "slot": "4",
            "type": "t_uint256"
          },
          {
            "astId": 4356,
            "contract": "contracts/RaffleFactory.sol:raffleFactory",
            "label": "_salePrice",
            "offset": 0,
            "slot": "5",
            "type": "t_uint256"
          },
          {
            "astId": 4358,
            "contract": "contracts/RaffleFactory.sol:raffleFactory",
            "label": "_imageUrl",
            "offset": 0,
            "slot": "6",
            "type": "t_string_storage"
          }
        ],
        "numberOfBytes": "224"
      },
      "t_struct(Counter)3172_storage": {
        "encoding": "inplace",
        "label": "struct CountersUpgradeable.Counter",
        "members": [
          {
            "astId": 3171,
            "contract": "contracts/RaffleFactory.sol:raffleFactory",
            "label": "_value",
            "offset": 0,
            "slot": "0",
            "type": "t_uint256"
          }
        ],
        "numberOfBytes": "32"
      },
      "t_uint256": {
        "encoding": "inplace",
        "label": "uint256",
        "numberOfBytes": "32"
      }
    }
  }
}