{
  "address": "0x686e920611079eE4E0CcD66383B48B0eFf235d6a",
  "abi": [
    {
      "inputs": [
        {
          "internalType": "contract SharedNFTLogic",
          "name": "_sharedNFTLogic",
          "type": "address"
        }
      ],
      "stateMutability": "nonpayable",
      "type": "constructor"
    },
    {
      "anonymous": false,
      "inputs": [
        {
          "indexed": true,
          "internalType": "address",
          "name": "owner",
          "type": "address"
        },
        {
          "indexed": true,
          "internalType": "address",
          "name": "approved",
          "type": "address"
        },
        {
          "indexed": true,
          "internalType": "uint256",
          "name": "tokenId",
          "type": "uint256"
        }
      ],
      "name": "Approval",
      "type": "event"
    },
    {
      "anonymous": false,
      "inputs": [
        {
          "indexed": true,
          "internalType": "address",
          "name": "owner",
          "type": "address"
        },
        {
          "indexed": true,
          "internalType": "address",
          "name": "operator",
          "type": "address"
        },
        {
          "indexed": false,
          "internalType": "bool",
          "name": "approved",
          "type": "bool"
        }
      ],
      "name": "ApprovalForAll",
      "type": "event"
    },
    {
      "anonymous": false,
      "inputs": [
        {
          "indexed": false,
          "internalType": "uint256",
          "name": "price",
          "type": "uint256"
        },
        {
          "indexed": false,
          "internalType": "address",
          "name": "owner",
          "type": "address"
        }
      ],
      "name": "EditionSold",
      "type": "event"
    },
    {
      "anonymous": false,
      "inputs": [
        {
          "indexed": false,
          "internalType": "uint8",
          "name": "version",
          "type": "uint8"
        }
      ],
      "name": "Initialized",
      "type": "event"
    },
    {
      "anonymous": false,
      "inputs": [
        {
          "indexed": false,
          "internalType": "uint256",
          "name": "minimum",
          "type": "uint256"
        }
      ],
      "name": "MinPlayersChanged",
      "type": "event"
    },
    {
      "anonymous": false,
      "inputs": [
        {
          "indexed": true,
          "internalType": "address",
          "name": "previousOwner",
          "type": "address"
        },
        {
          "indexed": true,
          "internalType": "address",
          "name": "newOwner",
          "type": "address"
        }
      ],
      "name": "OwnershipTransferred",
      "type": "event"
    },
    {
      "anonymous": false,
      "inputs": [
        {
          "indexed": false,
          "internalType": "uint256",
          "name": "amount",
          "type": "uint256"
        }
      ],
      "name": "PriceChanged",
      "type": "event"
    },
    {
      "anonymous": false,
      "inputs": [
        {
          "indexed": false,
          "internalType": "address",
          "name": "minter",
          "type": "address"
        },
        {
          "indexed": false,
          "internalType": "uint256",
          "name": "startTime",
          "type": "uint256"
        }
      ],
      "name": "RaffleStarted",
      "type": "event"
    },
    {
      "anonymous": false,
      "inputs": [
        {
          "indexed": true,
          "internalType": "address",
          "name": "from",
          "type": "address"
        },
        {
          "indexed": true,
          "internalType": "address",
          "name": "to",
          "type": "address"
        },
        {
          "indexed": true,
          "internalType": "uint256",
          "name": "tokenId",
          "type": "uint256"
        }
      ],
      "name": "Transfer",
      "type": "event"
    },
    {
      "anonymous": false,
      "inputs": [
        {
          "indexed": false,
          "internalType": "address payable",
          "name": "winner",
          "type": "address"
        },
        {
          "indexed": false,
          "internalType": "uint256",
          "name": "prize",
          "type": "uint256"
        },
        {
          "indexed": false,
          "internalType": "uint256",
          "name": "winningNumber",
          "type": "uint256"
        }
      ],
      "name": "WinnerPicked",
      "type": "event"
    },
    {
      "inputs": [],
      "name": "EntryCount",
      "outputs": [
        {
          "internalType": "uint256",
          "name": "",
          "type": "uint256"
        }
      ],
      "stateMutability": "view",
      "type": "function"
    },
    {
      "inputs": [
        {
          "internalType": "address",
          "name": "_owner",
          "type": "address"
        }
      ],
      "name": "OwnerOfToken",
      "outputs": [
        {
          "internalType": "uint256[]",
          "name": "",
          "type": "uint256[]"
        }
      ],
      "stateMutability": "view",
      "type": "function"
    },
    {
      "inputs": [
        {
          "internalType": "uint256",
          "name": "",
          "type": "uint256"
        }
      ],
      "name": "RaffleWinner",
      "outputs": [
        {
          "internalType": "address payable",
          "name": "",
          "type": "address"
        }
      ],
      "stateMutability": "view",
      "type": "function"
    },
    {
      "inputs": [],
      "name": "active",
      "outputs": [
        {
          "internalType": "bool",
          "name": "",
          "type": "bool"
        }
      ],
      "stateMutability": "view",
      "type": "function"
    },
    {
      "inputs": [],
      "name": "animationUrl",
      "outputs": [
        {
          "internalType": "string",
          "name": "",
          "type": "string"
        }
      ],
      "stateMutability": "view",
      "type": "function"
    },
    {
      "inputs": [
        {
          "internalType": "address",
          "name": "to",
          "type": "address"
        },
        {
          "internalType": "uint256",
          "name": "tokenId",
          "type": "uint256"
        }
      ],
      "name": "approve",
      "outputs": [],
      "stateMutability": "nonpayable",
      "type": "function"
    },
    {
      "inputs": [
        {
          "internalType": "address",
          "name": "owner",
          "type": "address"
        }
      ],
      "name": "balanceOf",
      "outputs": [
        {
          "internalType": "uint256",
          "name": "",
          "type": "uint256"
        }
      ],
      "stateMutability": "view",
      "type": "function"
    },
    {
      "inputs": [
        {
          "internalType": "uint256",
          "name": "tokenId",
          "type": "uint256"
        }
      ],
      "name": "burn",
      "outputs": [],
      "stateMutability": "nonpayable",
      "type": "function"
    },
    {
      "inputs": [],
      "name": "clapperFee",
      "outputs": [
        {
          "internalType": "uint256",
          "name": "",
          "type": "uint256"
        }
      ],
      "stateMutability": "view",
      "type": "function"
    },
    {
      "inputs": [],
      "name": "createSeed",
      "outputs": [
        {
          "internalType": "uint256",
          "name": "",
          "type": "uint256"
        }
      ],
      "stateMutability": "payable",
      "type": "function"
    },
    {
      "inputs": [],
      "name": "description",
      "outputs": [
        {
          "internalType": "string",
          "name": "",
          "type": "string"
        }
      ],
      "stateMutability": "view",
      "type": "function"
    },
    {
      "inputs": [],
      "name": "disableRaffle",
      "outputs": [],
      "stateMutability": "nonpayable",
      "type": "function"
    },
    {
      "inputs": [],
      "name": "editionSize",
      "outputs": [
        {
          "internalType": "uint256",
          "name": "",
          "type": "uint256"
        }
      ],
      "stateMutability": "view",
      "type": "function"
    },
    {
      "inputs": [],
      "name": "enableRaffle",
      "outputs": [],
      "stateMutability": "nonpayable",
      "type": "function"
    },
    {
      "inputs": [
        {
          "internalType": "uint256",
          "name": "tokenId",
          "type": "uint256"
        }
      ],
      "name": "getApproved",
      "outputs": [
        {
          "internalType": "address",
          "name": "",
          "type": "address"
        }
      ],
      "stateMutability": "view",
      "type": "function"
    },
    {
      "inputs": [],
      "name": "getBalance",
      "outputs": [
        {
          "internalType": "uint256",
          "name": "",
          "type": "uint256"
        }
      ],
      "stateMutability": "view",
      "type": "function"
    },
    {
      "inputs": [],
      "name": "getPlayers",
      "outputs": [
        {
          "internalType": "address payable[]",
          "name": "",
          "type": "address[]"
        }
      ],
      "stateMutability": "view",
      "type": "function"
    },
    {
      "inputs": [],
      "name": "getPrize",
      "outputs": [
        {
          "internalType": "uint256",
          "name": "",
          "type": "uint256"
        }
      ],
      "stateMutability": "view",
      "type": "function"
    },
    {
      "inputs": [],
      "name": "getWinner",
      "outputs": [
        {
          "internalType": "address payable[]",
          "name": "",
          "type": "address[]"
        }
      ],
      "stateMutability": "view",
      "type": "function"
    },
    {
      "inputs": [],
      "name": "houseFee",
      "outputs": [
        {
          "internalType": "uint256",
          "name": "",
          "type": "uint256"
        }
      ],
      "stateMutability": "view",
      "type": "function"
    },
    {
      "inputs": [],
      "name": "imageUrl",
      "outputs": [
        {
          "internalType": "string",
          "name": "",
          "type": "string"
        }
      ],
      "stateMutability": "view",
      "type": "function"
    },
    {
      "inputs": [
        {
          "internalType": "address",
          "name": "_owner",
          "type": "address"
        },
        {
          "internalType": "string",
          "name": "_name",
          "type": "string"
        },
        {
          "internalType": "string",
          "name": "_symbol",
          "type": "string"
        },
        {
          "internalType": "string",
          "name": "_description",
          "type": "string"
        },
        {
          "internalType": "string",
          "name": "_animationUrl",
          "type": "string"
        },
        {
          "internalType": "string",
          "name": "_imageUrl",
          "type": "string"
        },
        {
          "internalType": "uint256",
          "name": "_editionSize",
          "type": "uint256"
        },
        {
          "internalType": "uint256",
          "name": "_salePrice",
          "type": "uint256"
        },
        {
          "internalType": "uint256",
          "name": "_minPlayers",
          "type": "uint256"
        },
        {
          "internalType": "uint256",
          "name": "_prime",
          "type": "uint256"
        },
        {
          "internalType": "uint256",
          "name": "_iterations",
          "type": "uint256"
        }
      ],
      "name": "initialize",
      "outputs": [],
      "stateMutability": "nonpayable",
      "type": "function"
    },
    {
      "inputs": [
        {
          "internalType": "address",
          "name": "owner",
          "type": "address"
        },
        {
          "internalType": "address",
          "name": "operator",
          "type": "address"
        }
      ],
      "name": "isApprovedForAll",
      "outputs": [
        {
          "internalType": "bool",
          "name": "",
          "type": "bool"
        }
      ],
      "stateMutability": "view",
      "type": "function"
    },
    {
      "inputs": [],
      "name": "iterations",
      "outputs": [
        {
          "internalType": "uint256",
          "name": "",
          "type": "uint256"
        }
      ],
      "stateMutability": "view",
      "type": "function"
    },
    {
      "inputs": [],
      "name": "minPlayers",
      "outputs": [
        {
          "internalType": "uint256",
          "name": "",
          "type": "uint256"
        }
      ],
      "stateMutability": "view",
      "type": "function"
    },
    {
      "inputs": [
        {
          "internalType": "address",
          "name": "to",
          "type": "address"
        }
      ],
      "name": "mintEdition",
      "outputs": [
        {
          "internalType": "uint256",
          "name": "",
          "type": "uint256"
        }
      ],
      "stateMutability": "nonpayable",
      "type": "function"
    },
    {
      "inputs": [
        {
          "internalType": "address[]",
          "name": "recipients",
          "type": "address[]"
        }
      ],
      "name": "mintEditions",
      "outputs": [
        {
          "internalType": "uint256",
          "name": "",
          "type": "uint256"
        }
      ],
      "stateMutability": "nonpayable",
      "type": "function"
    },
    {
      "inputs": [],
      "name": "name",
      "outputs": [
        {
          "internalType": "string",
          "name": "",
          "type": "string"
        }
      ],
      "stateMutability": "view",
      "type": "function"
    },
    {
      "inputs": [],
      "name": "newSeed",
      "outputs": [
        {
          "internalType": "uint256",
          "name": "",
          "type": "uint256"
        }
      ],
      "stateMutability": "view",
      "type": "function"
    },
    {
      "inputs": [],
      "name": "numberCanMint",
      "outputs": [
        {
          "internalType": "uint256",
          "name": "",
          "type": "uint256"
        }
      ],
      "stateMutability": "view",
      "type": "function"
    },
    {
      "inputs": [],
      "name": "owner",
      "outputs": [
        {
          "internalType": "address",
          "name": "",
          "type": "address"
        }
      ],
      "stateMutability": "view",
      "type": "function"
    },
    {
      "inputs": [
        {
          "internalType": "uint256",
          "name": "tokenId",
          "type": "uint256"
        }
      ],
      "name": "ownerOf",
      "outputs": [
        {
          "internalType": "address",
          "name": "",
          "type": "address"
        }
      ],
      "stateMutability": "view",
      "type": "function"
    },
    {
      "inputs": [],
      "name": "pickWinner",
      "outputs": [
        {
          "internalType": "uint256",
          "name": "",
          "type": "uint256"
        }
      ],
      "stateMutability": "payable",
      "type": "function"
    },
    {
      "inputs": [
        {
          "internalType": "uint256",
          "name": "",
          "type": "uint256"
        }
      ],
      "name": "players",
      "outputs": [
        {
          "internalType": "address payable",
          "name": "",
          "type": "address"
        }
      ],
      "stateMutability": "view",
      "type": "function"
    },
    {
      "inputs": [],
      "name": "prime",
      "outputs": [
        {
          "internalType": "uint256",
          "name": "",
          "type": "uint256"
        }
      ],
      "stateMutability": "view",
      "type": "function"
    },
    {
      "inputs": [
        {
          "internalType": "uint256",
          "name": "proof",
          "type": "uint256"
        }
      ],
      "name": "prove",
      "outputs": [
        {
          "internalType": "uint256",
          "name": "",
          "type": "uint256"
        }
      ],
      "stateMutability": "nonpayable",
      "type": "function"
    },
    {
      "inputs": [],
      "name": "purchase",
      "outputs": [
        {
          "internalType": "uint256",
          "name": "",
          "type": "uint256"
        }
      ],
      "stateMutability": "payable",
      "type": "function"
    },
    {
      "inputs": [],
      "name": "randomNumber",
      "outputs": [
        {
          "internalType": "uint256",
          "name": "",
          "type": "uint256"
        }
      ],
      "stateMutability": "view",
      "type": "function"
    },
    {
      "inputs": [],
      "name": "readAllEntries",
      "outputs": [
        {
          "components": [
            {
              "internalType": "address",
              "name": "player",
              "type": "address"
            },
            {
              "internalType": "uint256",
              "name": "EntryNumber",
              "type": "uint256"
            }
          ],
          "internalType": "struct RaffleNft.Entry[]",
          "name": "",
          "type": "tuple[]"
        }
      ],
      "stateMutability": "view",
      "type": "function"
    },
    {
      "inputs": [],
      "name": "renounceOwnership",
      "outputs": [],
      "stateMutability": "nonpayable",
      "type": "function"
    },
    {
      "inputs": [
        {
          "internalType": "address",
          "name": "from",
          "type": "address"
        },
        {
          "internalType": "address",
          "name": "to",
          "type": "address"
        },
        {
          "internalType": "uint256",
          "name": "tokenId",
          "type": "uint256"
        }
      ],
      "name": "safeTransferFrom",
      "outputs": [],
      "stateMutability": "nonpayable",
      "type": "function"
    },
    {
      "inputs": [
        {
          "internalType": "address",
          "name": "from",
          "type": "address"
        },
        {
          "internalType": "address",
          "name": "to",
          "type": "address"
        },
        {
          "internalType": "uint256",
          "name": "tokenId",
          "type": "uint256"
        },
        {
          "internalType": "bytes",
          "name": "data",
          "type": "bytes"
        }
      ],
      "name": "safeTransferFrom",
      "outputs": [],
      "stateMutability": "nonpayable",
      "type": "function"
    },
    {
      "inputs": [],
      "name": "salePrice",
      "outputs": [
        {
          "internalType": "uint256",
          "name": "",
          "type": "uint256"
        }
      ],
      "stateMutability": "view",
      "type": "function"
    },
    {
      "inputs": [
        {
          "internalType": "address",
          "name": "",
          "type": "address"
        }
      ],
      "name": "seed",
      "outputs": [
        {
          "internalType": "uint256",
          "name": "",
          "type": "uint256"
        }
      ],
      "stateMutability": "view",
      "type": "function"
    },
    {
      "inputs": [
        {
          "internalType": "address",
          "name": "operator",
          "type": "address"
        },
        {
          "internalType": "bool",
          "name": "approved",
          "type": "bool"
        }
      ],
      "name": "setApprovalForAll",
      "outputs": [],
      "stateMutability": "nonpayable",
      "type": "function"
    },
    {
      "inputs": [
        {
          "internalType": "address",
          "name": "minter",
          "type": "address"
        },
        {
          "internalType": "bool",
          "name": "allowed",
          "type": "bool"
        }
      ],
      "name": "setApprovedMinter",
      "outputs": [],
      "stateMutability": "nonpayable",
      "type": "function"
    },
    {
      "inputs": [
        {
          "internalType": "uint256",
          "name": "_minPlayers",
          "type": "uint256"
        }
      ],
      "name": "setMinPlayers",
      "outputs": [],
      "stateMutability": "nonpayable",
      "type": "function"
    },
    {
      "inputs": [
        {
          "internalType": "uint256",
          "name": "_salePrice",
          "type": "uint256"
        }
      ],
      "name": "setSalePrice",
      "outputs": [],
      "stateMutability": "nonpayable",
      "type": "function"
    },
    {
      "inputs": [],
      "name": "startTime",
      "outputs": [
        {
          "internalType": "uint256",
          "name": "",
          "type": "uint256"
        }
      ],
      "stateMutability": "view",
      "type": "function"
    },
    {
      "inputs": [
        {
          "internalType": "bytes4",
          "name": "interfaceId",
          "type": "bytes4"
        }
      ],
      "name": "supportsInterface",
      "outputs": [
        {
          "internalType": "bool",
          "name": "",
          "type": "bool"
        }
      ],
      "stateMutability": "view",
      "type": "function"
    },
    {
      "inputs": [],
      "name": "symbol",
      "outputs": [
        {
          "internalType": "string",
          "name": "",
          "type": "string"
        }
      ],
      "stateMutability": "view",
      "type": "function"
    },
    {
      "inputs": [
        {
          "internalType": "uint256",
          "name": "tokenId",
          "type": "uint256"
        }
      ],
      "name": "tokenURI",
      "outputs": [
        {
          "internalType": "string",
          "name": "",
          "type": "string"
        }
      ],
      "stateMutability": "view",
      "type": "function"
    },
    {
      "inputs": [],
      "name": "totalSupply",
      "outputs": [
        {
          "internalType": "uint256",
          "name": "",
          "type": "uint256"
        }
      ],
      "stateMutability": "view",
      "type": "function"
    },
    {
      "inputs": [
        {
          "internalType": "address",
          "name": "from",
          "type": "address"
        },
        {
          "internalType": "address",
          "name": "to",
          "type": "address"
        },
        {
          "internalType": "uint256",
          "name": "tokenId",
          "type": "uint256"
        }
      ],
      "name": "transferFrom",
      "outputs": [],
      "stateMutability": "nonpayable",
      "type": "function"
    },
    {
      "inputs": [
        {
          "internalType": "address",
          "name": "newOwner",
          "type": "address"
        }
      ],
      "name": "transferOwnership",
      "outputs": [],
      "stateMutability": "nonpayable",
      "type": "function"
    },
    {
      "inputs": [],
      "name": "winningNumber",
      "outputs": [
        {
          "internalType": "uint256",
          "name": "",
          "type": "uint256"
        }
      ],
      "stateMutability": "view",
      "type": "function"
    }
  ],
  "transactionHash": "0xc417879369e98845b085feb89fc54d20b6e42c47355c636cd4e848f8f965c081",
  "args": [
    "0x10cA9E76Fb9d40B8Bc388A6986377669B46284f7"
  ],
  "numDeployments": 1,
  "solcInputHash": "874cbae2360d6d111c9759a00abcc64b",
  "bytecode": "0x60a060405260d1805460ff19169055600060d381905560d781905560d881905560d981905560da81905560db553480156200003957600080fd5b5060405162003354380380620033548339810160408190526200005c916200006e565b6001600160a01b0316608052620000a0565b6000602082840312156200008157600080fd5b81516001600160a01b03811681146200009957600080fd5b9392505050565b608051613298620000bc6000396000611a9f01526132986000f3fe60806040526004361061036b5760003560e01c8063715018a6116101c6578063b88d4fde116100f7578063e985e9c511610095578063f2fde38b1161006f578063f2fde38b14610908578063f4ed0f4614610928578063f51f96dd1461093e578063f71d96cb1461095457600080fd5b8063e985e9c5146108be578063ea880a20146108de578063f18aceda146108f357600080fd5b8063c87b56dd116100d1578063c87b56dd14610853578063ccbac9f514610873578063dd9633ce14610889578063e54b5760146108a957600080fd5b8063b88d4fde14610808578063c34f6b0d14610828578063c7ee005e1461083d57600080fd5b806395d89b4111610164578063a22cb4651161013e578063a22cb46514610793578063a66ff0af146107b3578063aba83150146107d3578063af1fe35c146107e857600080fd5b806395d89b41146107525780639b0ec5ae14610767578063a1ea842f1461077d57600080fd5b80638b5b9ccc116101a05780638b5b9ccc146106d95780638da5cb5b146106fb5780638e7ea5b21461071057806394a06ecf1461072557600080fd5b8063715018a6146106995780637284e416146106ae57806378e97925146106c357600080fd5b806329ec16dd116102a057806348ed45351161023e5780635dfd7a57116102185780635dfd7a57146106315780636352211e1461065157806364edfbf01461067157806370a082311461067957600080fd5b806348ed4535146105e75780635ad1016f146106095780635d495aea1461062957600080fd5b806342842e0e1161027a57806342842e0e1461057b57806342966c681461059b5780634358d2be146105bb5780634664611e146105d157600080fd5b806329ec16dd1461053e578063397b5b241461055e5780633eacd8a71461057357600080fd5b80630ed469b81161030d57806318160ddd116102e757806318160ddd146104d35780631919fed7146104e857806323b872dd146105085780632770c8951461052857600080fd5b80630ed469b81461048b5780630f6a9349146104a057806312065fe0146104c057600080fd5b806306fdde031161034957806306fdde03146103fa578063081812fc1461041c578063095ea7b3146104545780630b65b6e71461047657600080fd5b806301ffc9a71461037057806302fb0c5e146103a5578063063c67b7146103bf575b600080fd5b34801561037c57600080fd5b5061039061038b366004612829565b610974565b60405190151581526020015b60405180910390f35b3480156103b157600080fd5b5060d1546103909060ff1681565b3480156103cb57600080fd5b506103ec6103da366004612862565b60df6020526000908152604090205481565b60405190815260200161039c565b34801561040657600080fd5b5061040f6109c6565b60405161039c91906128cd565b34801561042857600080fd5b5061043c6104373660046128e0565b610a58565b6040516001600160a01b03909116815260200161039c565b34801561046057600080fd5b5061047461046f3660046128f9565b610a7f565b005b34801561048257600080fd5b506103ec610b99565b34801561049757600080fd5b506103ec610bcc565b3480156104ac57600080fd5b506103ec6104bb36600461296a565b610be5565b3480156104cc57600080fd5b50476103ec565b3480156104df57600080fd5b506103ec610c44565b3480156104f457600080fd5b506104746105033660046128e0565b610c51565b34801561051457600080fd5b50610474610523366004612a17565b610c95565b34801561053457600080fd5b506103ec60d05481565b34801561054a57600080fd5b50610474610559366004612a53565b610cc7565b34801561056a57600080fd5b5061040f610d48565b6103ec610dd6565b34801561058757600080fd5b50610474610596366004612a17565b610e5a565b3480156105a757600080fd5b506104746105b63660046128e0565b610e75565b3480156105c757600080fd5b506103ec60d85481565b3480156105dd57600080fd5b506103ec60db5481565b3480156105f357600080fd5b506105fc610ec5565b60405161039c9190612a8f565b34801561061557600080fd5b50610474610624366004612b6d565b610fb7565b6103ec611134565b34801561063d57600080fd5b506103ec61064c3660046128e0565b611391565b34801561065d57600080fd5b5061043c61066c3660046128e0565b6113f9565b6103ec611459565b34801561068557600080fd5b506103ec610694366004612862565b611697565b3480156106a557600080fd5b5061047461171d565b3480156106ba57600080fd5b5061040f611731565b3480156106cf57600080fd5b506103ec60d25481565b3480156106e557600080fd5b506106ee61173e565b60405161039c9190612c88565b34801561070757600080fd5b5061043c61179f565b34801561071c57600080fd5b506106ee6117b3565b34801561073157600080fd5b50610745610740366004612862565b611813565b60405161039c9190612cd5565b34801561075e57600080fd5b5061040f6118f3565b34801561077357600080fd5b506103ec60d65481565b34801561078957600080fd5b506103ec60d35481565b34801561079f57600080fd5b506104746107ae366004612a53565b611902565b3480156107bf57600080fd5b506103ec6107ce366004612862565b611911565b3480156107df57600080fd5b5061040f6119cd565b3480156107f457600080fd5b5061043c6108033660046128e0565b6119da565b34801561081457600080fd5b50610474610823366004612d0d565b611a04565b34801561083457600080fd5b506103ec611a3c565b34801561084957600080fd5b506103ec60d75481565b34801561085f57600080fd5b5061040f61086e3660046128e0565b611a4b565b34801561087f57600080fd5b506103ec60da5481565b34801561089557600080fd5b506104746108a43660046128e0565b611b44565b3480156108b557600080fd5b506103ec611b81565b3480156108ca57600080fd5b506103906108d9366004612d89565b611b90565b3480156108ea57600080fd5b50610474611bbe565b3480156108ff57600080fd5b50610474611bd2565b34801561091457600080fd5b50610474610923366004612862565b611be9565b34801561093457600080fd5b506103ec60cd5481565b34801561094a57600080fd5b506103ec60cf5481565b34801561096057600080fd5b5061043c61096f3660046128e0565b611c5f565b60006001600160e01b031982166380ac58cd60e01b14806109a557506001600160e01b03198216635b5e139f60e01b145b806109c057506301ffc9a760e01b6001600160e01b03198316145b92915050565b6060606580546109d590612dbc565b80601f0160208091040260200160405190810160405280929190818152602001828054610a0190612dbc565b8015610a4e5780601f10610a2357610100808354040283529160200191610a4e565b820191906000526020600020905b815481529060010190602001808311610a3157829003601f168201915b5050505050905090565b6000610a6382611c6f565b506000908152606960205260409020546001600160a01b031690565b6000610a8a826113f9565b9050806001600160a01b0316836001600160a01b031603610afc5760405162461bcd60e51b815260206004820152602160248201527f4552433732313a20617070726f76616c20746f2063757272656e74206f776e656044820152603960f91b60648201526084015b60405180910390fd5b336001600160a01b0382161480610b185750610b188133611b90565b610b8a5760405162461bcd60e51b815260206004820152603e60248201527f4552433732313a20617070726f76652063616c6c6572206973206e6f7420746f60448201527f6b656e206f776e6572206e6f7220617070726f76656420666f7220616c6c00006064820152608401610af3565b610b948383611cce565b505050565b600060cd54600003610bac575060001990565b60c95460cd54610bbd906001612e06565b610bc79190612e19565b905090565b60006064610bdb47600f612e2c565b610bc79190612e61565b6000610bef611d3c565b610c3b5760405162461bcd60e51b815260206004820152601d60248201527f4e6565647320746f20626520616e20616c6c6f776564206d696e7465720000006044820152606401610af3565b6109c082611dab565b60006001610bbd60c95490565b610c59611e8c565b60cf8190556040518181527fa6dc15bdb68da224c66db4b3838d9a2b205138e8cff6774e57d0af91e196d622906020015b60405180910390a150565b610ca0335b82611eeb565b610cbc5760405162461bcd60e51b8152600401610af390612e75565b610b94838383611f49565b610ccf611e8c565b6001600160a01b038216600090815260ce60205260409020805460ff1916821515179055610cfb611bd2565b4260d2819055604080516001600160a01b038516815260208101929092527f604ff4506f6b62a4f75e14f6f1c27a18b6b17654958bb77aaa5fabde3ca085fa910160405180910390a15050565b60cb8054610d5590612dbc565b80601f0160208091040260200160405190810160405280929190818152602001828054610d8190612dbc565b8015610dce5780601f10610da357610100808354040283529160200191610dce565b820191906000526020600020905b815481529060010190602001808311610db157829003601f168201915b505050505081565b60d9805460009133919083610dea83612ec3565b9091555042610dfa600143612e19565b60405160609490941b6bffffffffffffffffffffffff191660208501526034840192909252605483015240607482015260940160408051601f19818403018152918152815160209283012033600090815260df9093529120555060d65490565b610b9483838360405180602001604052806000815250611a04565b610e7e33610c9a565b610eb95760405162461bcd60e51b815260206004820152600c60248201526b139bdd08185c1c1c9bdd995960a21b6044820152606401610af3565b610ec2816120e5565b50565b6060600060d35467ffffffffffffffff811115610ee457610ee4612923565b604051908082528060200260200182016040528015610f2957816020015b6040805180820190915260008082526020820152815260200190600190039081610f025790505b50905060005b60d354811015610fb15760dc8181548110610f4c57610f4c612edc565b60009182526020918290206040805180820190915260029092020180546001600160a01b0316825260010154918101919091528251839083908110610f9357610f93612edc565b60200260200101819052508080610fa990612ec3565b915050610f2f565b50919050565b600054610100900460ff1615808015610fd75750600054600160ff909116105b80610ff15750303b158015610ff1575060005460ff166001145b6110545760405162461bcd60e51b815260206004820152602e60248201527f496e697469616c697a61626c653a20636f6e747261637420697320616c72656160448201526d191e481a5b9a5d1a585b1a5e995960921b6064820152608401610af3565b6000805460ff191660011790558015611077576000805461ff0019166101001790555b6110818b8b612180565b6110896121b1565b6110928c611be9565b60ca61109e8a82612f40565b5060cb6110ab8982612f40565b5060cc6110b88882612f40565b5060cd86905560cf85905560d084905560d783905560d88290556110e060c980546001019055565b8015611126576000805461ff0019169055604051600181527f7f26b83ff96e1f2b6a682f133852f6798a09c465da95921460cefb38474024989060200160405180910390a15b505050505050505050505050565b60d05460d454600091111561118b5760405162461bcd60e51b815260206004820152601c60248201527f446566696e65206d696e696d756d20706c61796572206e756d626572000000006044820152606401610af3565b60cd54611196610c44565b10156111f75760405162461bcd60e51b815260206004820152602a60248201527f526166666c65206d75737420636f6d706c657465206265666f7265207069636b60448201526934b733903bb4b73732b960b11b6064820152608401610af3565b600061123560da5460408051446020808301919091524282840152606080830194909452825180830390940184526080909101909152815191012090565b905060008060cd54836112489190613000565b905060d4818154811061125d5761125d612edc565b60009182526020822001546001600160a01b0316925061127b611a3c565b9050826001600160a01b03166108fc611292611a3c565b6040518115909202916000818181858888f193505050501580156112ba573d6000803e3d6000fd5b5060408051600081526020810191829052516112d89160d491612799565b506112e16121e0565b60d580546001810182556000919091527f51858de9989bf7441865ebdadbf7382c8838edbf830f5d86a9a51ac773676dd60180546001600160a01b0319166001600160a01b03851617905560db829055611339611bbe565b60db54604080516001600160a01b03861681526020810184905280820192909252517f7e57d825a2478cc8123a008d7d1e20c0f6e8cbca89a7bc100c9b05ecb3698deb9181900360600190a160db5494505050505090565b33600090815260df602052604081205460d75460d8546113b4928592909161220f565b6113f05760405162461bcd60e51b815260206004820152600d60248201526c24b73b30b634b210383937b7b360991b6044820152606401610af3565b60da9190915590565b6000818152606760205260408120546001600160a01b0316806109c05760405162461bcd60e51b8152602060048201526018602482015277115490cdcc8c4e881a5b9d985b1a59081d1bdad95b88125160421b6044820152606401610af3565b60d15460009060ff166114cb5760405162461bcd60e51b815260206004820152603460248201527f526166666c6520686173206e6f7420737461727465642e204f776e6572206d7560448201527339ba1039b2ba20b8383937bb32b226b4b73a32b960611b6064820152608401610af3565b60cf54341461150f5760405162461bcd60e51b815260206004820152601060248201526f4e6f20736f757020666f7220796f752160801b6044820152606401610af3565b60408051600180825281830190925260009160208083019080368337019050509050338160008151811061154557611545612edc565b6001600160a01b039092166020928302919091019091015260d4805460018101825560009182527f9780e26d96b1f2a9a18ef8fc72d589dbf03ef788137b64f43897e83a91e7feec0180546001600160a01b0319163317905560d38054916115ac83612ec3565b90915550506040805180820182523380825260d354602080840191825260dc805460018101825560009190915284517f3162b0988d4210bff484413ed451d170a03887272177efc0b7d000f10abe9edf600290920291820180546001600160a01b0319166001600160a01b0390921691909117905591517f3162b0988d4210bff484413ed451d170a03887272177efc0b7d000f10abe9ee09092019190915560cf5484519081529081019190915290917f60a6c75698fadb72223808131f9f9bb9db3afa32122db6d94fb8fc985a504baa910160405180910390a161169082611dab565b9250505090565b60006001600160a01b0382166117015760405162461bcd60e51b815260206004820152602960248201527f4552433732313a2061646472657373207a65726f206973206e6f7420612076616044820152683634b21037bbb732b960b91b6064820152608401610af3565b506001600160a01b031660009081526068602052604090205490565b611725611e8c565b61172f600061227d565b565b60ca8054610d5590612dbc565b606060d4805480602002602001604051908101604052809291908181526020018280548015610a4e57602002820191906000526020600020905b81546001600160a01b03168152600190910190602001808311611778575050505050905090565b6000610bc76097546001600160a01b031690565b606060d5805480602002602001604051908101604052809291908181526020018280548015610a4e576020028201919060005260206000209081546001600160a01b03168152600190910190602001808311611778575050505050905090565b6060600061182083611697565b905060008167ffffffffffffffff81111561183d5761183d612923565b604051908082528060200260200182016040528015611866578160200160208202803683370190505b509050600160005b838110801561187f575060cd548211155b156118e957600061188f836113f9565b9050866001600160a01b0316816001600160a01b0316036118d657828483815181106118bd576118bd612edc565b6020908102919091010152816118d281612ec3565b9250505b826118e081612ec3565b9350505061186e565b5090949350505050565b6060606680546109d590612dbc565b61190d3383836122cf565b5050565b600061191b611d3c565b6119675760405162461bcd60e51b815260206004820152601d60248201527f4e6565647320746f20626520616e20616c6c6f776564206d696e7465720000006044820152606401610af3565b60408051600180825281830190925260009160208083019080368337019050509050828160008151811061199d5761199d612edc565b60200260200101906001600160a01b031690816001600160a01b0316815250506119c681611dab565b9392505050565b60cc8054610d5590612dbc565b60d581815481106119ea57600080fd5b6000918252602090912001546001600160a01b0316905081565b611a0e3383611eeb565b611a2a5760405162461bcd60e51b8152600401610af390612e75565b611a368484848461239d565b50505050565b60006064610bdb476050612e2c565b6000818152606760205260409020546060906001600160a01b0316611a9d5760405162461bcd60e51b81526020600482015260086024820152672737903a37b5b2b760c11b6044820152606401610af3565b7f00000000000000000000000000000000000000000000000000000000000000006001600160a01b031663df30dba0611ad46109c6565b60ca60cc60cb8760cd546040518763ffffffff1660e01b8152600401611aff96959493929190613091565b600060405180830381865afa158015611b1c573d6000803e3d6000fd5b505050506040513d6000823e601f3d908101601f191682016040526109c091908101906130f4565b611b4c611e8c565b60d08190556040518181527f55656ebc8bf216cc8addf8bfb2e6f358f27d719a6b66e8e94be4af065e55714890602001610c8a565b60006064610bdb476005612e2c565b6001600160a01b039182166000908152606a6020908152604080832093909416825291909152205460ff1690565b611bc6611e8c565b60d1805460ff19169055565b611bda611e8c565b60d1805460ff19166001179055565b611bf1611e8c565b6001600160a01b038116611c565760405162461bcd60e51b815260206004820152602660248201527f4f776e61626c653a206e6577206f776e657220697320746865207a65726f206160448201526564647265737360d01b6064820152608401610af3565b610ec28161227d565b60d481815481106119ea57600080fd5b6000818152606760205260409020546001600160a01b0316610ec25760405162461bcd60e51b8152602060048201526018602482015277115490cdcc8c4e881a5b9d985b1a59081d1bdad95b88125160421b6044820152606401610af3565b600081815260696020526040902080546001600160a01b0319166001600160a01b0384169081179091558190611d03826113f9565b6001600160a01b03167f8c5be1e5ebec7d5bd14f71427d1e84f3dd0314c0f7b2291e5b200ac8c7c3b92560405160405180910390a45050565b600033611d4761179f565b6001600160a01b031603611d5b5750600190565b6000805260ce6020527fd3f5862f6f80175da7514904f3a889cc3cc8c4f3af5129e28cdeaee2baa6efc45460ff1615611d945750600190565b5033600090815260ce602052604090205460ff1690565b600080611db760c95490565b905060006001845183611dca9190612e06565b611dd49190612e19565b905060cd5460001480611de9575060cd548111155b611e205760405162461bcd60e51b815260206004820152600860248201526714dbdb19081bdd5d60c21b6044820152606401610af3565b80611e2a60c95490565b11611e8057611e6d8483611e3d60c95490565b611e479190612e19565b81518110611e5757611e57612edc565b6020026020010151611e6860c95490565b6123d0565b611e7b60c980546001019055565b611e20565b60c9545b949350505050565b33611e9561179f565b6001600160a01b03161461172f5760405162461bcd60e51b815260206004820181905260248201527f4f776e61626c653a2063616c6c6572206973206e6f7420746865206f776e65726044820152606401610af3565b600080611ef7836113f9565b9050806001600160a01b0316846001600160a01b03161480611f1e5750611f1e8185611b90565b80611e845750836001600160a01b0316611f3784610a58565b6001600160a01b031614949350505050565b826001600160a01b0316611f5c826113f9565b6001600160a01b031614611fc05760405162461bcd60e51b815260206004820152602560248201527f4552433732313a207472616e736665722066726f6d20696e636f72726563742060448201526437bbb732b960d91b6064820152608401610af3565b6001600160a01b0382166120225760405162461bcd60e51b8152602060048201526024808201527f4552433732313a207472616e7366657220746f20746865207a65726f206164646044820152637265737360e01b6064820152608401610af3565b61202d600082611cce565b6001600160a01b0383166000908152606860205260408120805460019290612056908490612e19565b90915550506001600160a01b0382166000908152606860205260408120805460019290612084908490612e06565b909155505060008181526067602052604080822080546001600160a01b0319166001600160a01b0386811691821790925591518493918716917fddf252ad1be2c89b69c2b068fc378daa952ba7f163c4a11628f55a4df523b3ef91a4505050565b60006120f0826113f9565b90506120fd600083611cce565b6001600160a01b0381166000908152606860205260408120805460019290612126908490612e19565b909155505060008281526067602052604080822080546001600160a01b0319169055518391906001600160a01b038416907fddf252ad1be2c89b69c2b068fc378daa952ba7f163c4a11628f55a4df523b3ef908390a45050565b600054610100900460ff166121a75760405162461bcd60e51b8152600401610af39061316b565b61190d8282612512565b600054610100900460ff166121d85760405162461bcd60e51b8152600401610af39061316b565b61172f612552565b6121e8611e8c565b61172f6121f361179f565b6064612200476014612e2c565b61220a9190612e61565b612582565b6000805b8281101561223e57838061222957612229612e4b565b868709955061223781612ec3565b9050612213565b506122498385613000565b935084840361225a57506001611e84565b846122658585612e19565b0361227257506001611e84565b506000949350505050565b609780546001600160a01b038381166001600160a01b0319831681179093556040519116919082907f8be0079c531659141344cd1fd0a4f28419497f9722a3daafe3b4186f6b6457e090600090a35050565b816001600160a01b0316836001600160a01b0316036123305760405162461bcd60e51b815260206004820152601960248201527f4552433732313a20617070726f766520746f2063616c6c6572000000000000006044820152606401610af3565b6001600160a01b038381166000818152606a6020908152604080832094871680845294825291829020805460ff191686151590811790915591519182527f17307eab39ab6107e8899845ad3d59bd9653f200f220920489ca2b5937696c31910160405180910390a3505050565b6123a8848484611f49565b6123b48484848461269b565b611a365760405162461bcd60e51b8152600401610af3906131b6565b6001600160a01b0382166124265760405162461bcd60e51b815260206004820181905260248201527f4552433732313a206d696e7420746f20746865207a65726f20616464726573736044820152606401610af3565b6000818152606760205260409020546001600160a01b03161561248b5760405162461bcd60e51b815260206004820152601c60248201527f4552433732313a20746f6b656e20616c7265616479206d696e746564000000006044820152606401610af3565b6001600160a01b03821660009081526068602052604081208054600192906124b4908490612e06565b909155505060008181526067602052604080822080546001600160a01b0319166001600160a01b03861690811790915590518392907fddf252ad1be2c89b69c2b068fc378daa952ba7f163c4a11628f55a4df523b3ef908290a45050565b600054610100900460ff166125395760405162461bcd60e51b8152600401610af39061316b565b60656125458382612f40565b506066610b948282612f40565b600054610100900460ff166125795760405162461bcd60e51b8152600401610af39061316b565b61172f3361227d565b804710156125d25760405162461bcd60e51b815260206004820152601d60248201527f416464726573733a20696e73756666696369656e742062616c616e63650000006044820152606401610af3565b6000826001600160a01b03168260405160006040518083038185875af1925050503d806000811461261f576040519150601f19603f3d011682016040523d82523d6000602084013e612624565b606091505b5050905080610b945760405162461bcd60e51b815260206004820152603a60248201527f416464726573733a20756e61626c6520746f2073656e642076616c75652c207260448201527f6563697069656e74206d617920686176652072657665727465640000000000006064820152608401610af3565b60006001600160a01b0384163b1561279157604051630a85bd0160e11b81526001600160a01b0385169063150b7a02906126df903390899088908890600401613208565b6020604051808303816000875af192505050801561271a575060408051601f3d908101601f1916820190925261271791810190613245565b60015b612777573d808015612748576040519150601f19603f3d011682016040523d82523d6000602084013e61274d565b606091505b50805160000361276f5760405162461bcd60e51b8152600401610af3906131b6565b805181602001fd5b6001600160e01b031916630a85bd0160e11b149050611e84565b506001611e84565b8280548282559060005260206000209081019282156127ee579160200282015b828111156127ee57825182546001600160a01b0319166001600160a01b039091161782556020909201916001909101906127b9565b506127fa9291506127fe565b5090565b5b808211156127fa57600081556001016127ff565b6001600160e01b031981168114610ec257600080fd5b60006020828403121561283b57600080fd5b81356119c681612813565b80356001600160a01b038116811461285d57600080fd5b919050565b60006020828403121561287457600080fd5b6119c682612846565b60005b83811015612898578181015183820152602001612880565b50506000910152565b600081518084526128b981602086016020860161287d565b601f01601f19169290920160200192915050565b6020815260006119c660208301846128a1565b6000602082840312156128f257600080fd5b5035919050565b6000806040838503121561290c57600080fd5b61291583612846565b946020939093013593505050565b634e487b7160e01b600052604160045260246000fd5b604051601f8201601f1916810167ffffffffffffffff8111828210171561296257612962612923565b604052919050565b6000602080838503121561297d57600080fd5b823567ffffffffffffffff8082111561299557600080fd5b818501915085601f8301126129a957600080fd5b8135818111156129bb576129bb612923565b8060051b91506129cc848301612939565b81815291830184019184810190888411156129e657600080fd5b938501935b83851015612a0b576129fc85612846565b825293850193908501906129eb565b98975050505050505050565b600080600060608486031215612a2c57600080fd5b612a3584612846565b9250612a4360208501612846565b9150604084013590509250925092565b60008060408385031215612a6657600080fd5b612a6f83612846565b915060208301358015158114612a8457600080fd5b809150509250929050565b602080825282518282018190526000919060409081850190868401855b82811015612ada57815180516001600160a01b03168552860151868501529284019290850190600101612aac565b5091979650505050505050565b600067ffffffffffffffff821115612b0157612b01612923565b50601f01601f191660200190565b6000612b22612b1d84612ae7565b612939565b9050828152838383011115612b3657600080fd5b828260208301376000602084830101529392505050565b600082601f830112612b5e57600080fd5b6119c683833560208501612b0f565b60008060008060008060008060008060006101608c8e031215612b8f57600080fd5b612b988c612846565b9a5067ffffffffffffffff8060208e01351115612bb457600080fd5b612bc48e60208f01358f01612b4d565b9a508060408e01351115612bd757600080fd5b612be78e60408f01358f01612b4d565b99508060608e01351115612bfa57600080fd5b612c0a8e60608f01358f01612b4d565b98508060808e01351115612c1d57600080fd5b612c2d8e60808f01358f01612b4d565b97508060a08e01351115612c4057600080fd5b50612c518d60a08e01358e01612b4d565b9a9d999c50979a9699959895975050505060c08401359360e081013593610100820135935061012082013592506101409091013590565b6020808252825182820181905260009190848201906040850190845b81811015612cc95783516001600160a01b031683529284019291840191600101612ca4565b50909695505050505050565b6020808252825182820181905260009190848201906040850190845b81811015612cc957835183529284019291840191600101612cf1565b60008060008060808587031215612d2357600080fd5b612d2c85612846565b9350612d3a60208601612846565b925060408501359150606085013567ffffffffffffffff811115612d5d57600080fd5b8501601f81018713612d6e57600080fd5b612d7d87823560208401612b0f565b91505092959194509250565b60008060408385031215612d9c57600080fd5b612da583612846565b9150612db360208401612846565b90509250929050565b600181811c90821680612dd057607f821691505b602082108103610fb157634e487b7160e01b600052602260045260246000fd5b634e487b7160e01b600052601160045260246000fd5b808201808211156109c0576109c0612df0565b818103818111156109c0576109c0612df0565b6000816000190483118215151615612e4657612e46612df0565b500290565b634e487b7160e01b600052601260045260246000fd5b600082612e7057612e70612e4b565b500490565b6020808252602e908201527f4552433732313a2063616c6c6572206973206e6f7420746f6b656e206f776e6560408201526d1c881b9bdc88185c1c1c9bdd995960921b606082015260800190565b600060018201612ed557612ed5612df0565b5060010190565b634e487b7160e01b600052603260045260246000fd5b601f821115610b9457600081815260208120601f850160051c81016020861015612f195750805b601f850160051c820191505b81811015612f3857828155600101612f25565b505050505050565b815167ffffffffffffffff811115612f5a57612f5a612923565b612f6e81612f688454612dbc565b84612ef2565b602080601f831160018114612fa35760008415612f8b5750858301515b600019600386901b1c1916600185901b178555612f38565b600085815260208120601f198616915b82811015612fd257888601518255948401946001909101908401612fb3565b5085821015612ff05787850151600019600388901b60f8161c191681555b5050505050600190811b01905550565b60008261300f5761300f612e4b565b500690565b6000815461302181612dbc565b80855260206001838116801561303e576001811461305857613086565b60ff1985168884015283151560051b880183019550613086565b866000528260002060005b8581101561307e5781548a8201860152908301908401613063565b890184019650505b505050505092915050565b60c0815260006130a460c08301896128a1565b82810360208401526130b68189613014565b905082810360408401526130ca8188613014565b905082810360608401526130de8187613014565b6080840195909552505060a00152949350505050565b60006020828403121561310657600080fd5b815167ffffffffffffffff81111561311d57600080fd5b8201601f8101841361312e57600080fd5b805161313c612b1d82612ae7565b81815285602083850101111561315157600080fd5b61316282602083016020860161287d565b95945050505050565b6020808252602b908201527f496e697469616c697a61626c653a20636f6e7472616374206973206e6f74206960408201526a6e697469616c697a696e6760a81b606082015260800190565b60208082526032908201527f4552433732313a207472616e7366657220746f206e6f6e20455243373231526560408201527131b2b4bb32b91034b6b83632b6b2b73a32b960711b606082015260800190565b6001600160a01b038581168252841660208201526040810183905260806060820181905260009061323b908301846128a1565b9695505050505050565b60006020828403121561325757600080fd5b81516119c68161281356fea2646970667358221220802b0e92d0c19fcc6c751eedbf20deef5cb829eabaaa903f43e0da983441225864736f6c63430008100033",
  "devdoc": {
    "kind": "dev",
    "methods": {
      "approve(address,uint256)": {
        "details": "See {IERC721-approve}."
      },
      "balanceOf(address)": {
        "details": "See {IERC721-balanceOf}."
      },
      "burn(uint256)": {
        "params": {
          "tokenId": "Token ID to burn User burn function for token id "
        }
      },
      "getApproved(uint256)": {
        "details": "See {IERC721-getApproved}."
      },
      "isApprovedForAll(address,address)": {
        "details": "See {IERC721-isApprovedForAll}."
      },
      "name()": {
        "details": "See {IERC721Metadata-name}."
      },
      "ownerOf(uint256)": {
        "details": "See {IERC721-ownerOf}."
      },
      "renounceOwnership()": {
        "details": "Leaves the contract without owner. It will not be possible to call `onlyOwner` functions anymore. Can only be called by the current owner. NOTE: Renouncing ownership will leave the contract without an owner, thereby removing any functionality that is only available to the owner."
      },
      "safeTransferFrom(address,address,uint256)": {
        "details": "See {IERC721-safeTransferFrom}."
      },
      "safeTransferFrom(address,address,uint256,bytes)": {
        "details": "See {IERC721-safeTransferFrom}."
      },
      "setApprovalForAll(address,bool)": {
        "details": "See {IERC721-setApprovalForAll}."
      },
      "supportsInterface(bytes4)": {
        "details": "See {IERC165-supportsInterface}."
      },
      "symbol()": {
        "details": "See {IERC721Metadata-symbol}."
      },
      "tokenURI(uint256)": {
        "details": "See {IERC721Metadata-tokenURI}."
      },
      "totalSupply()": {
        "details": "returns the number of minted tokens within the edition"
      },
      "transferFrom(address,address,uint256)": {
        "details": "See {IERC721-transferFrom}."
      },
      "transferOwnership(address)": {
        "details": "Transfers ownership of the contract to a new account (`newOwner`). Can only be called by the current owner."
      }
    },
    "version": 1
  },
  "userdoc": {
    "kind": "user",
    "methods": {
      "numberCanMint()": {
        "notice": "Returns the number of editions allowed to mint (max_uint256 when open edition)"
      }
    },
    "version": 1
  },
  "storageLayout": {
    "storage": [
      {
        "astId": 820,
        "contract": "contracts/RaffleNft.sol:RaffleNft",
        "label": "_initialized",
        "offset": 0,
        "slot": "0",
        "type": "t_uint8"
      },
      {
        "astId": 823,
        "contract": "contracts/RaffleNft.sol:RaffleNft",
        "label": "_initializing",
        "offset": 1,
        "slot": "0",
        "type": "t_bool"
      },
      {
        "astId": 3165,
        "contract": "contracts/RaffleNft.sol:RaffleNft",
        "label": "__gap",
        "offset": 0,
        "slot": "1",
        "type": "t_array(t_uint256)50_storage"
      },
      {
        "astId": 3509,
        "contract": "contracts/RaffleNft.sol:RaffleNft",
        "label": "__gap",
        "offset": 0,
        "slot": "51",
        "type": "t_array(t_uint256)50_storage"
      },
      {
        "astId": 1120,
        "contract": "contracts/RaffleNft.sol:RaffleNft",
        "label": "_name",
        "offset": 0,
        "slot": "101",
        "type": "t_string_storage"
      },
      {
        "astId": 1122,
        "contract": "contracts/RaffleNft.sol:RaffleNft",
        "label": "_symbol",
        "offset": 0,
        "slot": "102",
        "type": "t_string_storage"
      },
      {
        "astId": 1126,
        "contract": "contracts/RaffleNft.sol:RaffleNft",
        "label": "_owners",
        "offset": 0,
        "slot": "103",
        "type": "t_mapping(t_uint256,t_address)"
      },
      {
        "astId": 1130,
        "contract": "contracts/RaffleNft.sol:RaffleNft",
        "label": "_balances",
        "offset": 0,
        "slot": "104",
        "type": "t_mapping(t_address,t_uint256)"
      },
      {
        "astId": 1134,
        "contract": "contracts/RaffleNft.sol:RaffleNft",
        "label": "_tokenApprovals",
        "offset": 0,
        "slot": "105",
        "type": "t_mapping(t_uint256,t_address)"
      },
      {
        "astId": 1140,
        "contract": "contracts/RaffleNft.sol:RaffleNft",
        "label": "_operatorApprovals",
        "offset": 0,
        "slot": "106",
        "type": "t_mapping(t_address,t_mapping(t_address,t_bool))"
      },
      {
        "astId": 1982,
        "contract": "contracts/RaffleNft.sol:RaffleNft",
        "label": "__gap",
        "offset": 0,
        "slot": "107",
        "type": "t_array(t_uint256)44_storage"
      },
      {
        "astId": 593,
        "contract": "contracts/RaffleNft.sol:RaffleNft",
        "label": "_owner",
        "offset": 0,
        "slot": "151",
        "type": "t_address"
      },
      {
        "astId": 713,
        "contract": "contracts/RaffleNft.sol:RaffleNft",
        "label": "__gap",
        "offset": 0,
        "slot": "152",
        "type": "t_array(t_uint256)49_storage"
      },
      {
        "astId": 4566,
        "contract": "contracts/RaffleNft.sol:RaffleNft",
        "label": "atEditionId",
        "offset": 0,
        "slot": "201",
        "type": "t_struct(Counter)3172_storage"
      },
      {
        "astId": 4596,
        "contract": "contracts/RaffleNft.sol:RaffleNft",
        "label": "description",
        "offset": 0,
        "slot": "202",
        "type": "t_string_storage"
      },
      {
        "astId": 4598,
        "contract": "contracts/RaffleNft.sol:RaffleNft",
        "label": "animationUrl",
        "offset": 0,
        "slot": "203",
        "type": "t_string_storage"
      },
      {
        "astId": 4600,
        "contract": "contracts/RaffleNft.sol:RaffleNft",
        "label": "imageUrl",
        "offset": 0,
        "slot": "204",
        "type": "t_string_storage"
      },
      {
        "astId": 4602,
        "contract": "contracts/RaffleNft.sol:RaffleNft",
        "label": "editionSize",
        "offset": 0,
        "slot": "205",
        "type": "t_uint256"
      },
      {
        "astId": 4606,
        "contract": "contracts/RaffleNft.sol:RaffleNft",
        "label": "allowedMinters",
        "offset": 0,
        "slot": "206",
        "type": "t_mapping(t_address,t_bool)"
      },
      {
        "astId": 4608,
        "contract": "contracts/RaffleNft.sol:RaffleNft",
        "label": "salePrice",
        "offset": 0,
        "slot": "207",
        "type": "t_uint256"
      },
      {
        "astId": 4610,
        "contract": "contracts/RaffleNft.sol:RaffleNft",
        "label": "minPlayers",
        "offset": 0,
        "slot": "208",
        "type": "t_uint256"
      },
      {
        "astId": 4613,
        "contract": "contracts/RaffleNft.sol:RaffleNft",
        "label": "active",
        "offset": 0,
        "slot": "209",
        "type": "t_bool"
      },
      {
        "astId": 4615,
        "contract": "contracts/RaffleNft.sol:RaffleNft",
        "label": "startTime",
        "offset": 0,
        "slot": "210",
        "type": "t_uint256"
      },
      {
        "astId": 4618,
        "contract": "contracts/RaffleNft.sol:RaffleNft",
        "label": "EntryCount",
        "offset": 0,
        "slot": "211",
        "type": "t_uint256"
      },
      {
        "astId": 4621,
        "contract": "contracts/RaffleNft.sol:RaffleNft",
        "label": "players",
        "offset": 0,
        "slot": "212",
        "type": "t_array(t_address_payable)dyn_storage"
      },
      {
        "astId": 4624,
        "contract": "contracts/RaffleNft.sol:RaffleNft",
        "label": "RaffleWinner",
        "offset": 0,
        "slot": "213",
        "type": "t_array(t_address_payable)dyn_storage"
      },
      {
        "astId": 4626,
        "contract": "contracts/RaffleNft.sol:RaffleNft",
        "label": "newSeed",
        "offset": 0,
        "slot": "214",
        "type": "t_uint256"
      },
      {
        "astId": 4629,
        "contract": "contracts/RaffleNft.sol:RaffleNft",
        "label": "prime",
        "offset": 0,
        "slot": "215",
        "type": "t_uint256"
      },
      {
        "astId": 4632,
        "contract": "contracts/RaffleNft.sol:RaffleNft",
        "label": "iterations",
        "offset": 0,
        "slot": "216",
        "type": "t_uint256"
      },
      {
        "astId": 4635,
        "contract": "contracts/RaffleNft.sol:RaffleNft",
        "label": "nonce",
        "offset": 0,
        "slot": "217",
        "type": "t_uint256"
      },
      {
        "astId": 4638,
        "contract": "contracts/RaffleNft.sol:RaffleNft",
        "label": "randomNumber",
        "offset": 0,
        "slot": "218",
        "type": "t_uint256"
      },
      {
        "astId": 4641,
        "contract": "contracts/RaffleNft.sol:RaffleNft",
        "label": "winningNumber",
        "offset": 0,
        "slot": "219",
        "type": "t_uint256"
      },
      {
        "astId": 4645,
        "contract": "contracts/RaffleNft.sol:RaffleNft",
        "label": "entry",
        "offset": 0,
        "slot": "220",
        "type": "t_array(t_struct(Entry)4662_storage)dyn_storage"
      },
      {
        "astId": 4649,
        "contract": "contracts/RaffleNft.sol:RaffleNft",
        "label": "addressToIndex",
        "offset": 0,
        "slot": "221",
        "type": "t_mapping(t_address,t_uint256)"
      },
      {
        "astId": 4653,
        "contract": "contracts/RaffleNft.sol:RaffleNft",
        "label": "playerToIndex",
        "offset": 0,
        "slot": "222",
        "type": "t_mapping(t_string_memory_ptr,t_uint256)"
      },
      {
        "astId": 4657,
        "contract": "contracts/RaffleNft.sol:RaffleNft",
        "label": "seed",
        "offset": 0,
        "slot": "223",
        "type": "t_mapping(t_address,t_uint256)"
      }
    ],
    "types": {
      "t_address": {
        "encoding": "inplace",
        "label": "address",
        "numberOfBytes": "20"
      },
      "t_address_payable": {
        "encoding": "inplace",
        "label": "address payable",
        "numberOfBytes": "20"
      },
      "t_array(t_address_payable)dyn_storage": {
        "base": "t_address_payable",
        "encoding": "dynamic_array",
        "label": "address payable[]",
        "numberOfBytes": "32"
      },
      "t_array(t_struct(Entry)4662_storage)dyn_storage": {
        "base": "t_struct(Entry)4662_storage",
        "encoding": "dynamic_array",
        "label": "struct RaffleNft.Entry[]",
        "numberOfBytes": "32"
      },
      "t_array(t_uint256)44_storage": {
        "base": "t_uint256",
        "encoding": "inplace",
        "label": "uint256[44]",
        "numberOfBytes": "1408"
      },
      "t_array(t_uint256)49_storage": {
        "base": "t_uint256",
        "encoding": "inplace",
        "label": "uint256[49]",
        "numberOfBytes": "1568"
      },
      "t_array(t_uint256)50_storage": {
        "base": "t_uint256",
        "encoding": "inplace",
        "label": "uint256[50]",
        "numberOfBytes": "1600"
      },
      "t_bool": {
        "encoding": "inplace",
        "label": "bool",
        "numberOfBytes": "1"
      },
      "t_mapping(t_address,t_bool)": {
        "encoding": "mapping",
        "key": "t_address",
        "label": "mapping(address => bool)",
        "numberOfBytes": "32",
        "value": "t_bool"
      },
      "t_mapping(t_address,t_mapping(t_address,t_bool))": {
        "encoding": "mapping",
        "key": "t_address",
        "label": "mapping(address => mapping(address => bool))",
        "numberOfBytes": "32",
        "value": "t_mapping(t_address,t_bool)"
      },
      "t_mapping(t_address,t_uint256)": {
        "encoding": "mapping",
        "key": "t_address",
        "label": "mapping(address => uint256)",
        "numberOfBytes": "32",
        "value": "t_uint256"
      },
      "t_mapping(t_string_memory_ptr,t_uint256)": {
        "encoding": "mapping",
        "key": "t_string_memory_ptr",
        "label": "mapping(string => uint256)",
        "numberOfBytes": "32",
        "value": "t_uint256"
      },
      "t_mapping(t_uint256,t_address)": {
        "encoding": "mapping",
        "key": "t_uint256",
        "label": "mapping(uint256 => address)",
        "numberOfBytes": "32",
        "value": "t_address"
      },
      "t_string_memory_ptr": {
        "encoding": "bytes",
        "label": "string",
        "numberOfBytes": "32"
      },
      "t_string_storage": {
        "encoding": "bytes",
        "label": "string",
        "numberOfBytes": "32"
      },
      "t_struct(Counter)3172_storage": {
        "encoding": "inplace",
        "label": "struct CountersUpgradeable.Counter",
        "members": [
          {
            "astId": 3171,
            "contract": "contracts/RaffleNft.sol:RaffleNft",
            "label": "_value",
            "offset": 0,
            "slot": "0",
            "type": "t_uint256"
          }
        ],
        "numberOfBytes": "32"
      },
      "t_struct(Entry)4662_storage": {
        "encoding": "inplace",
        "label": "struct RaffleNft.Entry",
        "members": [
          {
            "astId": 4659,
            "contract": "contracts/RaffleNft.sol:RaffleNft",
            "label": "player",
            "offset": 0,
            "slot": "0",
            "type": "t_address"
          },
          {
            "astId": 4661,
            "contract": "contracts/RaffleNft.sol:RaffleNft",
            "label": "EntryNumber",
            "offset": 0,
            "slot": "1",
            "type": "t_uint256"
          }
        ],
        "numberOfBytes": "64"
      },
      "t_uint256": {
        "encoding": "inplace",
        "label": "uint256",
        "numberOfBytes": "32"
      },
      "t_uint8": {
        "encoding": "inplace",
        "label": "uint8",
        "numberOfBytes": "1"
      }
    }
  }
}