{
  "address": "0xA117BCE6Af2682d418C1cF39d8Bf2e2F186d7D2C",
  "abi": [
    {
      "inputs": [],
      "name": "createSeed",
      "outputs": [],
      "stateMutability": "payable",
      "type": "function"
    },
    {
      "inputs": [],
      "name": "iterations",
      "outputs": [
        {
          "internalType": "uint256",
          "name": "",
          "type": "uint256"
        }
      ],
      "stateMutability": "view",
      "type": "function"
    },
    {
      "inputs": [],
      "name": "prime",
      "outputs": [
        {
          "internalType": "uint256",
          "name": "",
          "type": "uint256"
        }
      ],
      "stateMutability": "view",
      "type": "function"
    },
    {
      "inputs": [
        {
          "internalType": "uint256",
          "name": "proof",
          "type": "uint256"
        }
      ],
      "name": "prove",
      "outputs": [],
      "stateMutability": "nonpayable",
      "type": "function"
    },
    {
      "inputs": [
        {
          "internalType": "address",
          "name": "",
          "type": "address"
        }
      ],
      "name": "seeds",
      "outputs": [
        {
          "internalType": "uint256",
          "name": "",
          "type": "uint256"
        }
      ],
      "stateMutability": "view",
      "type": "function"
    }
  ],
  "transactionHash": "0x16a3c93d95684db4170d88b86616a38042a8ae1c9a394b03393df03b70e6e0e2",
  "args": [],
  "numDeployments": 1,
  "solcInputHash": "616533764cf68b625c78f9d489405d10",
  "bytecode": "0x60806040527104f627b3bbd341d240517fe3db99ad3b2c276000556103e860015534801561002c57600080fd5b506103338061003c6000396000f3fe60806040526004361061004a5760003560e01c80633eacd8a71461004f5780634358d2be1461005957806348d0528a146100815780635dfd7a57146100ae578063c7ee005e146100ce575b600080fd5b6100576100e4565b005b34801561006557600080fd5b5061006f60015481565b60405190815260200160405180910390f35b34801561008d57600080fd5b5061006f61009c366004610234565b60036020526000908152604090205481565b3480156100ba57600080fd5b506100576100c9366004610264565b610160565b3480156100da57600080fd5b5061006f60005481565b60028054339160006100f583610293565b90915550426101056001436102ac565b60405160609490941b6bffffffffffffffffffffffff191660208501526034840192909252605483015240607482015260940160408051601f1981840301815291815281516020928301203360009081526003909352912055565b33600090815260036020526040812054905460015461018292849290916101c5565b6101c25760405162461bcd60e51b815260206004820152600d60248201526c24b73b30b634b210383937b7b360991b604482015260640160405180910390fd5b50565b6000805b828110156101f45783806101df576101df6102c5565b86870995506101ed81610293565b90506101c9565b506101ff83856102db565b93508484036102105750600161022c565b8461021b85856102ac565b036102285750600161022c565b5060005b949350505050565b60006020828403121561024657600080fd5b81356001600160a01b038116811461025d57600080fd5b9392505050565b60006020828403121561027657600080fd5b5035919050565b634e487b7160e01b600052601160045260246000fd5b6000600182016102a5576102a561027d565b5060010190565b818103818111156102bf576102bf61027d565b92915050565b634e487b7160e01b600052601260045260246000fd5b6000826102f857634e487b7160e01b600052601260045260246000fd5b50069056fea26469706673582212200d2181e31ece02282dae49ec0480ed55d9697150162b9a05b8aa6336f83a9dbc64736f6c63430008100033",
  "devdoc": {
    "kind": "dev",
    "methods": {},
    "version": 1
  },
  "userdoc": {
    "kind": "user",
    "methods": {},
    "version": 1
  },
  "storageLayout": {
    "storage": [
      {
        "astId": 5,
        "contract": "contracts/RandomVDF.sol:RandomVDFv1",
        "label": "prime",
        "offset": 0,
        "slot": "0",
        "type": "t_uint256"
      },
      {
        "astId": 8,
        "contract": "contracts/RandomVDF.sol:RandomVDFv1",
        "label": "iterations",
        "offset": 0,
        "slot": "1",
        "type": "t_uint256"
      },
      {
        "astId": 10,
        "contract": "contracts/RandomVDF.sol:RandomVDFv1",
        "label": "nonce",
        "offset": 0,
        "slot": "2",
        "type": "t_uint256"
      },
      {
        "astId": 14,
        "contract": "contracts/RandomVDF.sol:RandomVDFv1",
        "label": "seeds",
        "offset": 0,
        "slot": "3",
        "type": "t_mapping(t_address,t_uint256)"
      }
    ],
    "types": {
      "t_address": {
        "encoding": "inplace",
        "label": "address",
        "numberOfBytes": "20"
      },
      "t_mapping(t_address,t_uint256)": {
        "encoding": "mapping",
        "key": "t_address",
        "label": "mapping(address => uint256)",
        "numberOfBytes": "32",
        "value": "t_uint256"
      },
      "t_uint256": {
        "encoding": "inplace",
        "label": "uint256",
        "numberOfBytes": "32"
      }
    }
  }
}