{
  "address": "0x59E9EBd4E60631d4b50eB7f60C3CdcB9F1012EEc",
  "abi": [
    {
      "inputs": [
        {
          "internalType": "address",
          "name": "_marketplaceAddress",
          "type": "address"
        }
      ],
      "stateMutability": "nonpayable",
      "type": "constructor"
    },
    {
      "anonymous": false,
      "inputs": [
        {
          "indexed": true,
          "internalType": "address",
          "name": "owner",
          "type": "address"
        },
        {
          "indexed": true,
          "internalType": "address",
          "name": "approved",
          "type": "address"
        },
        {
          "indexed": true,
          "internalType": "uint256",
          "name": "tokenId",
          "type": "uint256"
        }
      ],
      "name": "Approval",
      "type": "event"
    },
    {
      "anonymous": false,
      "inputs": [
        {
          "indexed": true,
          "internalType": "address",
          "name": "owner",
          "type": "address"
        },
        {
          "indexed": true,
          "internalType": "address",
          "name": "operator",
          "type": "address"
        },
        {
          "indexed": false,
          "internalType": "bool",
          "name": "approved",
          "type": "bool"
        }
      ],
      "name": "ApprovalForAll",
      "type": "event"
    },
    {
      "anonymous": false,
      "inputs": [
        {
          "indexed": true,
          "internalType": "address",
          "name": "from",
          "type": "address"
        },
        {
          "indexed": true,
          "internalType": "address",
          "name": "to",
          "type": "address"
        },
        {
          "indexed": true,
          "internalType": "uint256",
          "name": "tokenId",
          "type": "uint256"
        }
      ],
      "name": "Transfer",
      "type": "event"
    },
    {
      "anonymous": false,
      "inputs": [
        {
          "indexed": true,
          "internalType": "uint256",
          "name": "tokenId",
          "type": "uint256"
        }
      ],
      "name": "tokenMinted",
      "type": "event"
    },
    {
      "inputs": [
        {
          "internalType": "address",
          "name": "to",
          "type": "address"
        },
        {
          "internalType": "uint256",
          "name": "tokenId",
          "type": "uint256"
        }
      ],
      "name": "approve",
      "outputs": [],
      "stateMutability": "nonpayable",
      "type": "function"
    },
    {
      "inputs": [
        {
          "internalType": "address",
          "name": "owner",
          "type": "address"
        }
      ],
      "name": "balanceOf",
      "outputs": [
        {
          "internalType": "uint256",
          "name": "",
          "type": "uint256"
        }
      ],
      "stateMutability": "view",
      "type": "function"
    },
    {
      "inputs": [
        {
          "internalType": "uint256",
          "name": "tokenId",
          "type": "uint256"
        }
      ],
      "name": "getApproved",
      "outputs": [
        {
          "internalType": "address",
          "name": "",
          "type": "address"
        }
      ],
      "stateMutability": "view",
      "type": "function"
    },
    {
      "inputs": [
        {
          "internalType": "address",
          "name": "owner",
          "type": "address"
        },
        {
          "internalType": "address",
          "name": "operator",
          "type": "address"
        }
      ],
      "name": "isApprovedForAll",
      "outputs": [
        {
          "internalType": "bool",
          "name": "",
          "type": "bool"
        }
      ],
      "stateMutability": "view",
      "type": "function"
    },
    {
      "inputs": [
        {
          "internalType": "string",
          "name": "_tokenURI",
          "type": "string"
        }
      ],
      "name": "mintToken",
      "outputs": [
        {
          "internalType": "uint256",
          "name": "",
          "type": "uint256"
        }
      ],
      "stateMutability": "nonpayable",
      "type": "function"
    },
    {
      "inputs": [],
      "name": "name",
      "outputs": [
        {
          "internalType": "string",
          "name": "",
          "type": "string"
        }
      ],
      "stateMutability": "view",
      "type": "function"
    },
    {
      "inputs": [
        {
          "internalType": "uint256",
          "name": "tokenId",
          "type": "uint256"
        }
      ],
      "name": "ownerOf",
      "outputs": [
        {
          "internalType": "address",
          "name": "",
          "type": "address"
        }
      ],
      "stateMutability": "view",
      "type": "function"
    },
    {
      "inputs": [
        {
          "internalType": "address",
          "name": "from",
          "type": "address"
        },
        {
          "internalType": "address",
          "name": "to",
          "type": "address"
        },
        {
          "internalType": "uint256",
          "name": "tokenId",
          "type": "uint256"
        }
      ],
      "name": "safeTransferFrom",
      "outputs": [],
      "stateMutability": "nonpayable",
      "type": "function"
    },
    {
      "inputs": [
        {
          "internalType": "address",
          "name": "from",
          "type": "address"
        },
        {
          "internalType": "address",
          "name": "to",
          "type": "address"
        },
        {
          "internalType": "uint256",
          "name": "tokenId",
          "type": "uint256"
        },
        {
          "internalType": "bytes",
          "name": "data",
          "type": "bytes"
        }
      ],
      "name": "safeTransferFrom",
      "outputs": [],
      "stateMutability": "nonpayable",
      "type": "function"
    },
    {
      "inputs": [
        {
          "internalType": "address",
          "name": "operator",
          "type": "address"
        },
        {
          "internalType": "bool",
          "name": "approved",
          "type": "bool"
        }
      ],
      "name": "setApprovalForAll",
      "outputs": [],
      "stateMutability": "nonpayable",
      "type": "function"
    },
    {
      "inputs": [
        {
          "internalType": "bytes4",
          "name": "interfaceId",
          "type": "bytes4"
        }
      ],
      "name": "supportsInterface",
      "outputs": [
        {
          "internalType": "bool",
          "name": "",
          "type": "bool"
        }
      ],
      "stateMutability": "view",
      "type": "function"
    },
    {
      "inputs": [],
      "name": "symbol",
      "outputs": [
        {
          "internalType": "string",
          "name": "",
          "type": "string"
        }
      ],
      "stateMutability": "view",
      "type": "function"
    },
    {
      "inputs": [
        {
          "internalType": "uint256",
          "name": "tokenId",
          "type": "uint256"
        }
      ],
      "name": "tokenURI",
      "outputs": [
        {
          "internalType": "string",
          "name": "",
          "type": "string"
        }
      ],
      "stateMutability": "view",
      "type": "function"
    },
    {
      "inputs": [
        {
          "internalType": "address",
          "name": "from",
          "type": "address"
        },
        {
          "internalType": "address",
          "name": "to",
          "type": "address"
        },
        {
          "internalType": "uint256",
          "name": "tokenId",
          "type": "uint256"
        }
      ],
      "name": "transferFrom",
      "outputs": [],
      "stateMutability": "nonpayable",
      "type": "function"
    }
  ],
  "transactionHash": "0x9848f837503fc01e68536fb8d269526a2281b7f4631bbf49ca4c298d5deb2204",
  "args": [
    "0x509Ad9a8A893C93B75e876fea4e0b440AF8DcD4A"
  ],
  "numDeployments": 1,
  "solcInputHash": "b7b03db7d41919990761b5e719d9ce7c",
  "bytecode": "0x60806040523480156200001157600080fd5b5060405162001882380380620018828339810160408190526200003491620000d2565b6040518060400160405280601581526020017f5468652042756e792050726f6a65637420323032330000000000000000000000815250604051806040016040528060058152602001646d42554e5960d81b8152508160009081620000999190620001a9565b506001620000a88282620001a9565b5050600880546001600160a01b0319166001600160a01b0393909316929092179091555062000275565b600060208284031215620000e557600080fd5b81516001600160a01b0381168114620000fd57600080fd5b9392505050565b634e487b7160e01b600052604160045260246000fd5b600181811c908216806200012f57607f821691505b6020821081036200015057634e487b7160e01b600052602260045260246000fd5b50919050565b601f821115620001a457600081815260208120601f850160051c810160208610156200017f5750805b601f850160051c820191505b81811015620001a0578281556001016200018b565b5050505b505050565b81516001600160401b03811115620001c557620001c562000104565b620001dd81620001d684546200011a565b8462000156565b602080601f831160018114620002155760008415620001fc5750858301515b600019600386901b1c1916600185901b178555620001a0565b600085815260208120601f198616915b82811015620002465788860151825594840194600190910190840162000225565b5085821015620002655787850151600019600388901b60f8161c191681555b5050505050600190811b01905550565b6115fd80620002856000396000f3fe608060405234801561001057600080fd5b50600436106100ea5760003560e01c80636352211e1161008c578063a22cb46511610066578063a22cb465146101e1578063b88d4fde146101f4578063c87b56dd14610207578063e985e9c51461021a57600080fd5b80636352211e146101b357806370a08231146101c657806395d89b41146101d957600080fd5b8063095ea7b3116100c8578063095ea7b31461015757806323b872dd1461016c57806333eba49a1461017f57806342842e0e146101a057600080fd5b806301ffc9a7146100ef57806306fdde0314610117578063081812fc1461012c575b600080fd5b6101026100fd366004610fb7565b61022d565b60405190151581526020015b60405180910390f35b61011f61027f565b60405161010e9190611024565b61013f61013a366004611037565b610311565b6040516001600160a01b03909116815260200161010e565b61016a61016536600461106c565b610338565b005b61016a61017a366004611096565b610452565b61019261018d36600461115e565b610483565b60405190815260200161010e565b61016a6101ae366004611096565b6104f6565b61013f6101c1366004611037565b610511565b6101926101d43660046111a7565b610571565b61011f6105f7565b61016a6101ef3660046111c2565b610606565b61016a6102023660046111fe565b610615565b61011f610215366004611037565b61064d565b61010261022836600461127a565b61075d565b60006001600160e01b031982166380ac58cd60e01b148061025e57506001600160e01b03198216635b5e139f60e01b145b8061027957506301ffc9a760e01b6001600160e01b03198316145b92915050565b60606000805461028e906112ad565b80601f01602080910402602001604051908101604052809291908181526020018280546102ba906112ad565b80156103075780601f106102dc57610100808354040283529160200191610307565b820191906000526020600020905b8154815290600101906020018083116102ea57829003601f168201915b5050505050905090565b600061031c8261078b565b506000908152600460205260409020546001600160a01b031690565b600061034382610511565b9050806001600160a01b0316836001600160a01b0316036103b55760405162461bcd60e51b815260206004820152602160248201527f4552433732313a20617070726f76616c20746f2063757272656e74206f776e656044820152603960f91b60648201526084015b60405180910390fd5b336001600160a01b03821614806103d157506103d1813361075d565b6104435760405162461bcd60e51b815260206004820152603e60248201527f4552433732313a20617070726f76652063616c6c6572206973206e6f7420746f60448201527f6b656e206f776e6572206e6f7220617070726f76656420666f7220616c6c000060648201526084016103ac565b61044d83836107ed565b505050565b61045c338261085b565b6104785760405162461bcd60e51b81526004016103ac906112e7565b61044d8383836108b9565b6000610493600780546001019055565b600061049e60075490565b90506104aa3382610a55565b60405181907fff4078d3a7633c1bd56ae05b46cf944f917a32264ef635cbc026a7efe2e4736890600090a26104df8184610b97565b600854610279906001600160a01b03166001610606565b61044d83838360405180602001604052806000815250610615565b6000818152600260205260408120546001600160a01b0316806102795760405162461bcd60e51b8152602060048201526018602482015277115490cdcc8c4e881a5b9d985b1a59081d1bdad95b88125160421b60448201526064016103ac565b60006001600160a01b0382166105db5760405162461bcd60e51b815260206004820152602960248201527f4552433732313a2061646472657373207a65726f206973206e6f7420612076616044820152683634b21037bbb732b960b91b60648201526084016103ac565b506001600160a01b031660009081526003602052604090205490565b60606001805461028e906112ad565b610611338383610c2a565b5050565b61061f338361085b565b61063b5760405162461bcd60e51b81526004016103ac906112e7565b61064784848484610cf8565b50505050565b60606106588261078b565b60008281526006602052604081208054610671906112ad565b80601f016020809104026020016040519081016040528092919081815260200182805461069d906112ad565b80156106ea5780601f106106bf576101008083540402835291602001916106ea565b820191906000526020600020905b8154815290600101906020018083116106cd57829003601f168201915b50505050509050600061070860408051602081019091526000815290565b9050805160000361071a575092915050565b81511561074c578082604051602001610734929190611335565b60405160208183030381529060405292505050919050565b61075584610d2b565b949350505050565b6001600160a01b03918216600090815260056020908152604080832093909416825291909152205460ff1690565b6000818152600260205260409020546001600160a01b03166107ea5760405162461bcd60e51b8152602060048201526018602482015277115490cdcc8c4e881a5b9d985b1a59081d1bdad95b88125160421b60448201526064016103ac565b50565b600081815260046020526040902080546001600160a01b0319166001600160a01b038416908117909155819061082282610511565b6001600160a01b03167f8c5be1e5ebec7d5bd14f71427d1e84f3dd0314c0f7b2291e5b200ac8c7c3b92560405160405180910390a45050565b60008061086783610511565b9050806001600160a01b0316846001600160a01b0316148061088e575061088e818561075d565b806107555750836001600160a01b03166108a784610311565b6001600160a01b031614949350505050565b826001600160a01b03166108cc82610511565b6001600160a01b0316146109305760405162461bcd60e51b815260206004820152602560248201527f4552433732313a207472616e736665722066726f6d20696e636f72726563742060448201526437bbb732b960d91b60648201526084016103ac565b6001600160a01b0382166109925760405162461bcd60e51b8152602060048201526024808201527f4552433732313a207472616e7366657220746f20746865207a65726f206164646044820152637265737360e01b60648201526084016103ac565b61099d6000826107ed565b6001600160a01b03831660009081526003602052604081208054600192906109c690849061137a565b90915550506001600160a01b03821660009081526003602052604081208054600192906109f490849061138d565b909155505060008181526002602052604080822080546001600160a01b0319166001600160a01b0386811691821790925591518493918716917fddf252ad1be2c89b69c2b068fc378daa952ba7f163c4a11628f55a4df523b3ef91a4505050565b6001600160a01b038216610aab5760405162461bcd60e51b815260206004820181905260248201527f4552433732313a206d696e7420746f20746865207a65726f206164647265737360448201526064016103ac565b6000818152600260205260409020546001600160a01b031615610b105760405162461bcd60e51b815260206004820152601c60248201527f4552433732313a20746f6b656e20616c7265616479206d696e7465640000000060448201526064016103ac565b6001600160a01b0382166000908152600360205260408120805460019290610b3990849061138d565b909155505060008181526002602052604080822080546001600160a01b0319166001600160a01b03861690811790915590518392907fddf252ad1be2c89b69c2b068fc378daa952ba7f163c4a11628f55a4df523b3ef908290a45050565b6000828152600260205260409020546001600160a01b0316610c125760405162461bcd60e51b815260206004820152602e60248201527f45524337323155524953746f726167653a2055524920736574206f66206e6f6e60448201526d32bc34b9ba32b73a103a37b5b2b760911b60648201526084016103ac565b600082815260066020526040902061044d82826113ee565b816001600160a01b0316836001600160a01b031603610c8b5760405162461bcd60e51b815260206004820152601960248201527f4552433732313a20617070726f766520746f2063616c6c65720000000000000060448201526064016103ac565b6001600160a01b03838116600081815260056020908152604080832094871680845294825291829020805460ff191686151590811790915591519182527f17307eab39ab6107e8899845ad3d59bd9653f200f220920489ca2b5937696c31910160405180910390a3505050565b610d038484846108b9565b610d0f84848484610d9f565b6106475760405162461bcd60e51b81526004016103ac906114ae565b6060610d368261078b565b6000610d4d60408051602081019091526000815290565b90506000815111610d6d5760405180602001604052806000815250610d98565b80610d7784610ea0565b604051602001610d88929190611335565b6040516020818303038152906040525b9392505050565b60006001600160a01b0384163b15610e9557604051630a85bd0160e11b81526001600160a01b0385169063150b7a0290610de3903390899088908890600401611500565b6020604051808303816000875af1925050508015610e1e575060408051601f3d908101601f19168201909252610e1b9181019061153d565b60015b610e7b573d808015610e4c576040519150601f19603f3d011682016040523d82523d6000602084013e610e51565b606091505b508051600003610e735760405162461bcd60e51b81526004016103ac906114ae565b805181602001fd5b6001600160e01b031916630a85bd0160e11b149050610755565b506001949350505050565b606081600003610ec75750506040805180820190915260018152600360fc1b602082015290565b8160005b8115610ef15780610edb8161155a565b9150610eea9050600a83611589565b9150610ecb565b60008167ffffffffffffffff811115610f0c57610f0c6110d2565b6040519080825280601f01601f191660200182016040528015610f36576020820181803683370190505b5090505b841561075557610f4b60018361137a565b9150610f58600a8661159d565b610f6390603061138d565b60f81b818381518110610f7857610f786115b1565b60200101906001600160f81b031916908160001a905350610f9a600a86611589565b9450610f3a565b6001600160e01b0319811681146107ea57600080fd5b600060208284031215610fc957600080fd5b8135610d9881610fa1565b60005b83811015610fef578181015183820152602001610fd7565b50506000910152565b60008151808452611010816020860160208601610fd4565b601f01601f19169290920160200192915050565b602081526000610d986020830184610ff8565b60006020828403121561104957600080fd5b5035919050565b80356001600160a01b038116811461106757600080fd5b919050565b6000806040838503121561107f57600080fd5b61108883611050565b946020939093013593505050565b6000806000606084860312156110ab57600080fd5b6110b484611050565b92506110c260208501611050565b9150604084013590509250925092565b634e487b7160e01b600052604160045260246000fd5b600067ffffffffffffffff80841115611103576111036110d2565b604051601f8501601f19908116603f0116810190828211818310171561112b5761112b6110d2565b8160405280935085815286868601111561114457600080fd5b858560208301376000602087830101525050509392505050565b60006020828403121561117057600080fd5b813567ffffffffffffffff81111561118757600080fd5b8201601f8101841361119857600080fd5b610755848235602084016110e8565b6000602082840312156111b957600080fd5b610d9882611050565b600080604083850312156111d557600080fd5b6111de83611050565b9150602083013580151581146111f357600080fd5b809150509250929050565b6000806000806080858703121561121457600080fd5b61121d85611050565b935061122b60208601611050565b925060408501359150606085013567ffffffffffffffff81111561124e57600080fd5b8501601f8101871361125f57600080fd5b61126e878235602084016110e8565b91505092959194509250565b6000806040838503121561128d57600080fd5b61129683611050565b91506112a460208401611050565b90509250929050565b600181811c908216806112c157607f821691505b6020821081036112e157634e487b7160e01b600052602260045260246000fd5b50919050565b6020808252602e908201527f4552433732313a2063616c6c6572206973206e6f7420746f6b656e206f776e6560408201526d1c881b9bdc88185c1c1c9bdd995960921b606082015260800190565b60008351611347818460208801610fd4565b83519083019061135b818360208801610fd4565b01949350505050565b634e487b7160e01b600052601160045260246000fd5b8181038181111561027957610279611364565b8082018082111561027957610279611364565b601f82111561044d57600081815260208120601f850160051c810160208610156113c75750805b601f850160051c820191505b818110156113e6578281556001016113d3565b505050505050565b815167ffffffffffffffff811115611408576114086110d2565b61141c8161141684546112ad565b846113a0565b602080601f83116001811461145157600084156114395750858301515b600019600386901b1c1916600185901b1785556113e6565b600085815260208120601f198616915b8281101561148057888601518255948401946001909101908401611461565b508582101561149e5787850151600019600388901b60f8161c191681555b5050505050600190811b01905550565b60208082526032908201527f4552433732313a207472616e7366657220746f206e6f6e20455243373231526560408201527131b2b4bb32b91034b6b83632b6b2b73a32b960711b606082015260800190565b6001600160a01b038581168252841660208201526040810183905260806060820181905260009061153390830184610ff8565b9695505050505050565b60006020828403121561154f57600080fd5b8151610d9881610fa1565b60006001820161156c5761156c611364565b5060010190565b634e487b7160e01b600052601260045260246000fd5b60008261159857611598611573565b500490565b6000826115ac576115ac611573565b500690565b634e487b7160e01b600052603260045260246000fdfea264697066735822122049ddb97498302d281febef6246aa17f3071f87c3c6f3f0d051b9d11a951f415b64736f6c63430008100033",
  "devdoc": {
    "kind": "dev",
    "methods": {
      "approve(address,uint256)": {
        "details": "See {IERC721-approve}."
      },
      "balanceOf(address)": {
        "details": "See {IERC721-balanceOf}."
      },
      "getApproved(uint256)": {
        "details": "See {IERC721-getApproved}."
      },
      "isApprovedForAll(address,address)": {
        "details": "See {IERC721-isApprovedForAll}."
      },
      "name()": {
        "details": "See {IERC721Metadata-name}."
      },
      "ownerOf(uint256)": {
        "details": "See {IERC721-ownerOf}."
      },
      "safeTransferFrom(address,address,uint256)": {
        "details": "See {IERC721-safeTransferFrom}."
      },
      "safeTransferFrom(address,address,uint256,bytes)": {
        "details": "See {IERC721-safeTransferFrom}."
      },
      "setApprovalForAll(address,bool)": {
        "details": "See {IERC721-setApprovalForAll}."
      },
      "supportsInterface(bytes4)": {
        "details": "See {IERC165-supportsInterface}."
      },
      "symbol()": {
        "details": "See {IERC721Metadata-symbol}."
      },
      "tokenURI(uint256)": {
        "details": "See {IERC721Metadata-tokenURI}."
      },
      "transferFrom(address,address,uint256)": {
        "details": "See {IERC721-transferFrom}."
      }
    },
    "version": 1
  },
  "userdoc": {
    "kind": "user",
    "methods": {},
    "version": 1
  },
  "storageLayout": {
    "storage": [
      {
        "astId": 286,
        "contract": "contracts/TheBunyProjectNFT.sol:TheBunyProjectNFT",
        "label": "_name",
        "offset": 0,
        "slot": "0",
        "type": "t_string_storage"
      },
      {
        "astId": 288,
        "contract": "contracts/TheBunyProjectNFT.sol:TheBunyProjectNFT",
        "label": "_symbol",
        "offset": 0,
        "slot": "1",
        "type": "t_string_storage"
      },
      {
        "astId": 292,
        "contract": "contracts/TheBunyProjectNFT.sol:TheBunyProjectNFT",
        "label": "_owners",
        "offset": 0,
        "slot": "2",
        "type": "t_mapping(t_uint256,t_address)"
      },
      {
        "astId": 296,
        "contract": "contracts/TheBunyProjectNFT.sol:TheBunyProjectNFT",
        "label": "_balances",
        "offset": 0,
        "slot": "3",
        "type": "t_mapping(t_address,t_uint256)"
      },
      {
        "astId": 300,
        "contract": "contracts/TheBunyProjectNFT.sol:TheBunyProjectNFT",
        "label": "_tokenApprovals",
        "offset": 0,
        "slot": "4",
        "type": "t_mapping(t_uint256,t_address)"
      },
      {
        "astId": 306,
        "contract": "contracts/TheBunyProjectNFT.sol:TheBunyProjectNFT",
        "label": "_operatorApprovals",
        "offset": 0,
        "slot": "5",
        "type": "t_mapping(t_address,t_mapping(t_address,t_bool))"
      },
      {
        "astId": 1274,
        "contract": "contracts/TheBunyProjectNFT.sol:TheBunyProjectNFT",
        "label": "_tokenURIs",
        "offset": 0,
        "slot": "6",
        "type": "t_mapping(t_uint256,t_string_storage)"
      },
      {
        "astId": 7143,
        "contract": "contracts/TheBunyProjectNFT.sol:TheBunyProjectNFT",
        "label": "s_tokenIds",
        "offset": 0,
        "slot": "7",
        "type": "t_struct(Counter)1736_storage"
      },
      {
        "astId": 7145,
        "contract": "contracts/TheBunyProjectNFT.sol:TheBunyProjectNFT",
        "label": "s_marketplaceAddress",
        "offset": 0,
        "slot": "8",
        "type": "t_address"
      }
    ],
    "types": {
      "t_address": {
        "encoding": "inplace",
        "label": "address",
        "numberOfBytes": "20"
      },
      "t_bool": {
        "encoding": "inplace",
        "label": "bool",
        "numberOfBytes": "1"
      },
      "t_mapping(t_address,t_bool)": {
        "encoding": "mapping",
        "key": "t_address",
        "label": "mapping(address => bool)",
        "numberOfBytes": "32",
        "value": "t_bool"
      },
      "t_mapping(t_address,t_mapping(t_address,t_bool))": {
        "encoding": "mapping",
        "key": "t_address",
        "label": "mapping(address => mapping(address => bool))",
        "numberOfBytes": "32",
        "value": "t_mapping(t_address,t_bool)"
      },
      "t_mapping(t_address,t_uint256)": {
        "encoding": "mapping",
        "key": "t_address",
        "label": "mapping(address => uint256)",
        "numberOfBytes": "32",
        "value": "t_uint256"
      },
      "t_mapping(t_uint256,t_address)": {
        "encoding": "mapping",
        "key": "t_uint256",
        "label": "mapping(uint256 => address)",
        "numberOfBytes": "32",
        "value": "t_address"
      },
      "t_mapping(t_uint256,t_string_storage)": {
        "encoding": "mapping",
        "key": "t_uint256",
        "label": "mapping(uint256 => string)",
        "numberOfBytes": "32",
        "value": "t_string_storage"
      },
      "t_string_storage": {
        "encoding": "bytes",
        "label": "string",
        "numberOfBytes": "32"
      },
      "t_struct(Counter)1736_storage": {
        "encoding": "inplace",
        "label": "struct Counters.Counter",
        "members": [
          {
            "astId": 1735,
            "contract": "contracts/TheBunyProjectNFT.sol:TheBunyProjectNFT",
            "label": "_value",
            "offset": 0,
            "slot": "0",
            "type": "t_uint256"
          }
        ],
        "numberOfBytes": "32"
      },
      "t_uint256": {
        "encoding": "inplace",
        "label": "uint256",
        "numberOfBytes": "32"
      }
    }
  }
}