{
  "address": "0x41d3F7C28F91fDcd197a3b8c66C77D23946F1292",
  "abi": [
    {
      "inputs": [],
      "stateMutability": "nonpayable",
      "type": "constructor"
    },
    {
      "inputs": [],
      "name": "NFTMarketplace__ItemPriceIsLessThenZero",
      "type": "error"
    },
    {
      "inputs": [],
      "name": "NFTMarketplace__ItemPriceNotMet",
      "type": "error"
    },
    {
      "inputs": [],
      "name": "NFTMarketplace__YouAreNotOwnerOfThisItem",
      "type": "error"
    },
    {
      "anonymous": false,
      "inputs": [
        {
          "indexed": true,
          "internalType": "address",
          "name": "nftAddress",
          "type": "address"
        },
        {
          "indexed": true,
          "internalType": "uint256",
          "name": "tokenId",
          "type": "uint256"
        },
        {
          "indexed": false,
          "internalType": "address",
          "name": "seller",
          "type": "address"
        },
        {
          "indexed": false,
          "internalType": "address",
          "name": "owner",
          "type": "address"
        },
        {
          "indexed": false,
          "internalType": "uint256",
          "name": "price",
          "type": "uint256"
        },
        {
          "indexed": false,
          "internalType": "bool",
          "name": "sold",
          "type": "bool"
        }
      ],
      "name": "ItemBought",
      "type": "event"
    },
    {
      "anonymous": false,
      "inputs": [
        {
          "indexed": true,
          "internalType": "uint256",
          "name": "itemId",
          "type": "uint256"
        },
        {
          "indexed": true,
          "internalType": "address",
          "name": "nftAddress",
          "type": "address"
        },
        {
          "indexed": true,
          "internalType": "uint256",
          "name": "tokenId",
          "type": "uint256"
        },
        {
          "indexed": false,
          "internalType": "address",
          "name": "seller",
          "type": "address"
        },
        {
          "indexed": false,
          "internalType": "address",
          "name": "owner",
          "type": "address"
        },
        {
          "indexed": false,
          "internalType": "uint256",
          "name": "price",
          "type": "uint256"
        },
        {
          "indexed": false,
          "internalType": "bool",
          "name": "sold",
          "type": "bool"
        }
      ],
      "name": "ItemList",
      "type": "event"
    },
    {
      "anonymous": false,
      "inputs": [
        {
          "indexed": true,
          "internalType": "uint256",
          "name": "itemId",
          "type": "uint256"
        },
        {
          "indexed": false,
          "internalType": "uint256",
          "name": "price",
          "type": "uint256"
        }
      ],
      "name": "ItemPriceUpdate",
      "type": "event"
    },
    {
      "inputs": [
        {
          "internalType": "address",
          "name": "_nftAddress",
          "type": "address"
        },
        {
          "internalType": "uint256",
          "name": "_itemId",
          "type": "uint256"
        }
      ],
      "name": "buyItem",
      "outputs": [],
      "stateMutability": "payable",
      "type": "function"
    },
    {
      "inputs": [],
      "name": "checkBalance",
      "outputs": [
        {
          "internalType": "uint256",
          "name": "amount",
          "type": "uint256"
        }
      ],
      "stateMutability": "view",
      "type": "function"
    },
    {
      "inputs": [],
      "name": "getAllListedItems",
      "outputs": [
        {
          "components": [
            {
              "internalType": "uint256",
              "name": "itemId",
              "type": "uint256"
            },
            {
              "internalType": "address",
              "name": "nftContract",
              "type": "address"
            },
            {
              "internalType": "uint256",
              "name": "tokenId",
              "type": "uint256"
            },
            {
              "internalType": "address payable",
              "name": "seller",
              "type": "address"
            },
            {
              "internalType": "address payable",
              "name": "owner",
              "type": "address"
            },
            {
              "internalType": "uint256",
              "name": "price",
              "type": "uint256"
            },
            {
              "internalType": "bool",
              "name": "sold",
              "type": "bool"
            }
          ],
          "internalType": "struct TheBunyProjectMarketplace.Item[]",
          "name": "",
          "type": "tuple[]"
        }
      ],
      "stateMutability": "view",
      "type": "function"
    },
    {
      "inputs": [
        {
          "internalType": "address",
          "name": "ContractAddress",
          "type": "address"
        }
      ],
      "name": "getContractBalance",
      "outputs": [
        {
          "internalType": "uint256",
          "name": "",
          "type": "uint256"
        }
      ],
      "stateMutability": "view",
      "type": "function"
    },
    {
      "inputs": [],
      "name": "getListingPrice",
      "outputs": [
        {
          "internalType": "uint256",
          "name": "",
          "type": "uint256"
        }
      ],
      "stateMutability": "view",
      "type": "function"
    },
    {
      "inputs": [],
      "name": "getOwnerListedItems",
      "outputs": [
        {
          "components": [
            {
              "internalType": "uint256",
              "name": "itemId",
              "type": "uint256"
            },
            {
              "internalType": "address",
              "name": "nftContract",
              "type": "address"
            },
            {
              "internalType": "uint256",
              "name": "tokenId",
              "type": "uint256"
            },
            {
              "internalType": "address payable",
              "name": "seller",
              "type": "address"
            },
            {
              "internalType": "address payable",
              "name": "owner",
              "type": "address"
            },
            {
              "internalType": "uint256",
              "name": "price",
              "type": "uint256"
            },
            {
              "internalType": "bool",
              "name": "sold",
              "type": "bool"
            }
          ],
          "internalType": "struct TheBunyProjectMarketplace.Item[]",
          "name": "",
          "type": "tuple[]"
        }
      ],
      "stateMutability": "view",
      "type": "function"
    },
    {
      "inputs": [],
      "name": "getSellerListedItems",
      "outputs": [
        {
          "components": [
            {
              "internalType": "uint256",
              "name": "itemId",
              "type": "uint256"
            },
            {
              "internalType": "address",
              "name": "nftContract",
              "type": "address"
            },
            {
              "internalType": "uint256",
              "name": "tokenId",
              "type": "uint256"
            },
            {
              "internalType": "address payable",
              "name": "seller",
              "type": "address"
            },
            {
              "internalType": "address payable",
              "name": "owner",
              "type": "address"
            },
            {
              "internalType": "uint256",
              "name": "price",
              "type": "uint256"
            },
            {
              "internalType": "bool",
              "name": "sold",
              "type": "bool"
            }
          ],
          "internalType": "struct TheBunyProjectMarketplace.Item[]",
          "name": "",
          "type": "tuple[]"
        }
      ],
      "stateMutability": "view",
      "type": "function"
    },
    {
      "inputs": [
        {
          "internalType": "uint256",
          "name": "_itemId",
          "type": "uint256"
        }
      ],
      "name": "getSpecificItem",
      "outputs": [
        {
          "components": [
            {
              "internalType": "uint256",
              "name": "itemId",
              "type": "uint256"
            },
            {
              "internalType": "address",
              "name": "nftContract",
              "type": "address"
            },
            {
              "internalType": "uint256",
              "name": "tokenId",
              "type": "uint256"
            },
            {
              "internalType": "address payable",
              "name": "seller",
              "type": "address"
            },
            {
              "internalType": "address payable",
              "name": "owner",
              "type": "address"
            },
            {
              "internalType": "uint256",
              "name": "price",
              "type": "uint256"
            },
            {
              "internalType": "bool",
              "name": "sold",
              "type": "bool"
            }
          ],
          "internalType": "struct TheBunyProjectMarketplace.Item",
          "name": "",
          "type": "tuple"
        }
      ],
      "stateMutability": "view",
      "type": "function"
    },
    {
      "inputs": [
        {
          "internalType": "address",
          "name": "_nftAddress",
          "type": "address"
        },
        {
          "internalType": "uint256",
          "name": "_tokenId",
          "type": "uint256"
        },
        {
          "internalType": "uint256",
          "name": "_price",
          "type": "uint256"
        }
      ],
      "name": "listItem",
      "outputs": [],
      "stateMutability": "payable",
      "type": "function"
    },
    {
      "inputs": [
        {
          "internalType": "address",
          "name": "_nftAddress",
          "type": "address"
        },
        {
          "internalType": "uint256",
          "name": "_tokenId",
          "type": "uint256"
        },
        {
          "internalType": "uint256",
          "name": "_price",
          "type": "uint256"
        }
      ],
      "name": "resellItem",
      "outputs": [],
      "stateMutability": "payable",
      "type": "function"
    },
    {
      "inputs": [
        {
          "internalType": "uint256",
          "name": "_itemId",
          "type": "uint256"
        },
        {
          "internalType": "uint256",
          "name": "_price",
          "type": "uint256"
        }
      ],
      "name": "updateItemPrice",
      "outputs": [],
      "stateMutability": "nonpayable",
      "type": "function"
    },
    {
      "inputs": [],
      "name": "withdraw",
      "outputs": [],
      "stateMutability": "nonpayable",
      "type": "function"
    }
  ],
  "transactionHash": "0xc276edf54d2f5edd9e12ec36ae391bb596f0e20dff4ab6eab039d8703100449e",
  "args": [],
  "numDeployments": 1,
  "solcInputHash": "d2dd1c9258b824d352f465d59979adf0",
  "bytecode": "0x60806040526658d15e1762800060045534801561001b57600080fd5b506001600055600380546001600160a01b031916331790556111cc806100426000396000f3fe6080604052600436106100a75760003560e01c80634d757a1c116100645780634d757a1c1461017e57806389bfd38f146101935780638f0af0f9146101a65780639f37092a146101b9578063c71daccb146101cc578063f9319c53146101e157600080fd5b806312e85585146100ac57806313dcbe36146100d05780632769b96b146100fd5780633b1b1ad01461011f5780633ccfd60b1461014157806343ab265f14610156575b600080fd5b3480156100b857600080fd5b506004545b6040519081526020015b60405180910390f35b3480156100dc57600080fd5b506100f06100eb366004610f39565b6101f6565b6040516100c79190610fa8565b34801561010957600080fd5b5061011d610118366004610fbc565b610273565b005b34801561012b57600080fd5b50610134610322565b6040516100c79190610fde565b34801561014d57600080fd5b5061011d6104bf565b34801561016257600080fd5b506100bd610171366004611048565b6001600160a01b03163190565b34801561018a57600080fd5b506101346105a0565b61011d6101a136600461106a565b61077a565b61011d6101b436600461106a565b61096a565b61011d6101c736600461109d565b610a83565b3480156101d857600080fd5b506100bd610c9a565b3480156101ed57600080fd5b50610134610ccc565b6101fe610efd565b50600090815260056020818152604092839020835160e0810185528154815260018201546001600160a01b0390811693820193909352600282015494810194909452600381015482166060850152600481015490911660808401529081015460a08301526006015460ff16151560c082015290565b6000828152600560205260409020600301546001600160a01b031633146102ad576040516384bdb6f960e01b815260040160405180910390fd5b600081116102ce57604051630216017d60e31b815260040160405180910390fd5b600082815260056020819052604091829020018290555182907fb1ccfef93258bae154540d59cfe730a9098140ad2eb99a24b94552bdc3fa8114906103169084815260200190565b60405180910390a25050565b6060600061032f60015490565b9050600061033c60025490565b60015461034991906110dd565b90506000808267ffffffffffffffff811115610367576103676110f0565b6040519080825280602002602001820160405280156103a057816020015b61038d610efd565b8152602001906001900390816103855790505b50905060005b848110156104b65760006005816103be846001611106565b81526020810191909152604001600020600401546001600160a01b0316036104a45760006005816103f0846001611106565b81526020808201929092526040908101600090812054808252600580855291839020835160e0810185528154815260018201546001600160a01b0390811696820196909652600282015494810194909452600381015485166060850152600481015490941660808401529083015460a0830152600683015460ff16151560c0830152855190935085908790811061048957610489611119565b602090810291909101015261049f600186611106565b945050505b806104ae8161112f565b9150506103a6565b50949350505050565b6003546001600160a01b031633146104f25760405162461bcd60e51b81526004016104e990611148565b60405180910390fd5b6000336104fd610c9a565b604051600081818185875af1925050503d8060008114610539576040519150601f19603f3d011682016040523d82523d6000602084013e61053e565b606091505b505090508061059d5760405162461bcd60e51b815260206004820152602560248201527f54686572652077617320612070726f626c656d207768696c65207769746864726044820152646177696e6760d81b60648201526084016104e9565b50565b606060006105ad60015490565b905060008060005b8381101561060f5733600560006105cd846001611106565b81526020810191909152604001600020600401546001600160a01b0316036105fd576105fa600184611106565b92505b806106078161112f565b9150506105b5565b5060008267ffffffffffffffff81111561062b5761062b6110f0565b60405190808252806020026020018201604052801561066457816020015b610651610efd565b8152602001906001900390816106495790505b50905060005b848110156104b6573360056000610682846001611106565b81526020810191909152604001600020600401546001600160a01b0316036107685760006005816106b4846001611106565b81526020808201929092526040908101600090812054808252600580855291839020835160e0810185528154815260018201546001600160a01b0390811696820196909652600282015494810194909452600381015485166060850152600481015490941660808401529083015460a0830152600683015460ff16151560c0830152855190935085908790811061074d5761074d611119565b6020908102919091010152610763600186611106565b945050505b806107728161112f565b91505061066a565b6002600054036107cc5760405162461bcd60e51b815260206004820152601f60248201527f5265656e7472616e637947756172643a207265656e7472616e742063616c6c0060448201526064016104e9565b60026000556107df600180546001019055565b60006107ea60015490565b6040805160e0810182528281526001600160a01b0387811660208084018281528486018a8152336060870181815260006080890181815260a08a018e815260c08b018381528d8452600598899052928c90209a518b55955160018b018054918b166001600160a01b0319928316179055945160028b0155915160038a018054918a1691861691909117905590516004808a01805492909916919094161790965591519286019290925592516006909401805494151560ff199095169490941790935592516323b872dd60e01b81529182015230602482015260448101869052919250906323b872dd90606401600060405180830381600087803b1580156108f057600080fd5b505af1158015610904573d6000803e3d6000fd5b505060408051338152600060208201819052818301879052606082015290518693506001600160a01b038816925084917ff8551f8be25732324fcda411a126b3c851e038b0ff8d097a3951dded3772f43f919081900360800190a4505060016000555050565b6000828152600560205260409020600401546001600160a01b031633146109a4576040516384bdb6f960e01b815260040160405180910390fd5b60045434146109c65760405163972a58a160e01b815260040160405180910390fd5b600082815260056020819052604090912060068101805460ff191690559081018290556003810180546001600160a01b031990811633179091556004909101805490911630179055610a186002610ea6565b6040516323b872dd60e01b8152336004820152306024820152604481018390526001600160a01b038416906323b872dd90606401600060405180830381600087803b158015610a6657600080fd5b505af1158015610a7a573d6000803e3d6000fd5b50505050505050565b600260005403610ad55760405162461bcd60e51b815260206004820152601f60248201527f5265656e7472616e637947756172643a207265656e7472616e742063616c6c0060448201526064016104e9565b6002600081815582815260056020819052604090912090810154918101546003909101546001600160a01b0316348314610b225760405163972a58a160e01b815260040160405180910390fd5b6040516001600160a01b038216903480156108fc02916000818181858888f19350505050158015610b57573d6000803e3d6000fd5b506040516323b872dd60e01b8152306004820152336024820152604481018390526001600160a01b038616906323b872dd90606401600060405180830381600087803b158015610ba657600080fd5b505af1158015610bba573d6000803e3d6000fd5b50505060008581526005602052604090206004810180546001600160a01b03191633179055600601805460ff1916600117905550610bfc600280546001019055565b60408051600081523360208201529081018490526001606082015282906001600160a01b038716907f9a9f9faf9d964b2fb1888cdf05202baf5a1b99d45f7afd6a5e062ac544b3c1509060800160405180910390a36003546004546040516001600160a01b039092169181156108fc0291906000818181858888f19350505050158015610c8d573d6000803e3d6000fd5b5050600160005550505050565b6003546000906001600160a01b03163314610cc75760405162461bcd60e51b81526004016104e990611148565b504790565b60606000610cd960015490565b905060008060005b83811015610d3b573360056000610cf9846001611106565b81526020810191909152604001600020600301546001600160a01b031603610d2957610d26600184611106565b92505b80610d338161112f565b915050610ce1565b5060008267ffffffffffffffff811115610d5757610d576110f0565b604051908082528060200260200182016040528015610d9057816020015b610d7d610efd565b815260200190600190039081610d755790505b50905060005b848110156104b6573360056000610dae846001611106565b81526020810191909152604001600020600301546001600160a01b031603610e94576000600581610de0846001611106565b81526020808201929092526040908101600090812054808252600580855291839020835160e0810185528154815260018201546001600160a01b0390811696820196909652600282015494810194909452600381015485166060850152600481015490941660808401529083015460a0830152600683015460ff16151560c08301528551909350859087908110610e7957610e79611119565b6020908102919091010152610e8f600186611106565b945050505b80610e9e8161112f565b915050610d96565b805480610ef55760405162461bcd60e51b815260206004820152601b60248201527f436f756e7465723a2064656372656d656e74206f766572666c6f77000000000060448201526064016104e9565b600019019055565b6040805160e081018252600080825260208201819052918101829052606081018290526080810182905260a0810182905260c081019190915290565b600060208284031215610f4b57600080fd5b5035919050565b80518252602081015160018060a01b03808216602085015260408301516040850152806060840151166060850152806080840151166080850152505060a081015160a083015260c0810151151560c08301525050565b60e08101610fb68284610f52565b92915050565b60008060408385031215610fcf57600080fd5b50508035926020909101359150565b6020808252825182820181905260009190848201906040850190845b818110156110205761100d838551610f52565b9284019260e09290920191600101610ffa565b50909695505050505050565b80356001600160a01b038116811461104357600080fd5b919050565b60006020828403121561105a57600080fd5b6110638261102c565b9392505050565b60008060006060848603121561107f57600080fd5b6110888461102c565b95602085013595506040909401359392505050565b600080604083850312156110b057600080fd5b6110b98361102c565b946020939093013593505050565b634e487b7160e01b600052601160045260246000fd5b81810381811115610fb657610fb66110c7565b634e487b7160e01b600052604160045260246000fd5b80820180821115610fb657610fb66110c7565b634e487b7160e01b600052603260045260246000fd5b600060018201611141576111416110c7565b5060010190565b6020808252602e908201527f4f6e6c792074686520636f6e7472616374206f776e6572206d61792063616c6c60408201526d103a3434b990333ab731ba34b7b760911b60608201526080019056fea26469706673582212202cbdaff7cbe9b0506cc3c95f7e380b4fbf2396783ce4960f1ac86ca96d9af37264736f6c63430008100033",
  "devdoc": {
    "kind": "dev",
    "methods": {},
    "version": 1
  },
  "userdoc": {
    "kind": "user",
    "methods": {},
    "version": 1
  },
  "storageLayout": {
    "storage": [
      {
        "astId": 231,
        "contract": "contracts/TheBunyProjectMarketplace.sol:TheBunyProjectMarketplace",
        "label": "_status",
        "offset": 0,
        "slot": "0",
        "type": "t_uint256"
      },
      {
        "astId": 6338,
        "contract": "contracts/TheBunyProjectMarketplace.sol:TheBunyProjectMarketplace",
        "label": "s_nftIds",
        "offset": 0,
        "slot": "1",
        "type": "t_struct(Counter)1736_storage"
      },
      {
        "astId": 6341,
        "contract": "contracts/TheBunyProjectMarketplace.sol:TheBunyProjectMarketplace",
        "label": "s_nftSold",
        "offset": 0,
        "slot": "2",
        "type": "t_struct(Counter)1736_storage"
      },
      {
        "astId": 6343,
        "contract": "contracts/TheBunyProjectMarketplace.sol:TheBunyProjectMarketplace",
        "label": "owner",
        "offset": 0,
        "slot": "3",
        "type": "t_address_payable"
      },
      {
        "astId": 6346,
        "contract": "contracts/TheBunyProjectMarketplace.sol:TheBunyProjectMarketplace",
        "label": "listingPrice",
        "offset": 0,
        "slot": "4",
        "type": "t_uint256"
      },
      {
        "astId": 6378,
        "contract": "contracts/TheBunyProjectMarketplace.sol:TheBunyProjectMarketplace",
        "label": "Items",
        "offset": 0,
        "slot": "5",
        "type": "t_mapping(t_uint256,t_struct(Item)6373_storage)"
      }
    ],
    "types": {
      "t_address": {
        "encoding": "inplace",
        "label": "address",
        "numberOfBytes": "20"
      },
      "t_address_payable": {
        "encoding": "inplace",
        "label": "address payable",
        "numberOfBytes": "20"
      },
      "t_bool": {
        "encoding": "inplace",
        "label": "bool",
        "numberOfBytes": "1"
      },
      "t_mapping(t_uint256,t_struct(Item)6373_storage)": {
        "encoding": "mapping",
        "key": "t_uint256",
        "label": "mapping(uint256 => struct TheBunyProjectMarketplace.Item)",
        "numberOfBytes": "32",
        "value": "t_struct(Item)6373_storage"
      },
      "t_struct(Counter)1736_storage": {
        "encoding": "inplace",
        "label": "struct Counters.Counter",
        "members": [
          {
            "astId": 1735,
            "contract": "contracts/TheBunyProjectMarketplace.sol:TheBunyProjectMarketplace",
            "label": "_value",
            "offset": 0,
            "slot": "0",
            "type": "t_uint256"
          }
        ],
        "numberOfBytes": "32"
      },
      "t_struct(Item)6373_storage": {
        "encoding": "inplace",
        "label": "struct TheBunyProjectMarketplace.Item",
        "members": [
          {
            "astId": 6360,
            "contract": "contracts/TheBunyProjectMarketplace.sol:TheBunyProjectMarketplace",
            "label": "itemId",
            "offset": 0,
            "slot": "0",
            "type": "t_uint256"
          },
          {
            "astId": 6362,
            "contract": "contracts/TheBunyProjectMarketplace.sol:TheBunyProjectMarketplace",
            "label": "nftContract",
            "offset": 0,
            "slot": "1",
            "type": "t_address"
          },
          {
            "astId": 6364,
            "contract": "contracts/TheBunyProjectMarketplace.sol:TheBunyProjectMarketplace",
            "label": "tokenId",
            "offset": 0,
            "slot": "2",
            "type": "t_uint256"
          },
          {
            "astId": 6366,
            "contract": "contracts/TheBunyProjectMarketplace.sol:TheBunyProjectMarketplace",
            "label": "seller",
            "offset": 0,
            "slot": "3",
            "type": "t_address_payable"
          },
          {
            "astId": 6368,
            "contract": "contracts/TheBunyProjectMarketplace.sol:TheBunyProjectMarketplace",
            "label": "owner",
            "offset": 0,
            "slot": "4",
            "type": "t_address_payable"
          },
          {
            "astId": 6370,
            "contract": "contracts/TheBunyProjectMarketplace.sol:TheBunyProjectMarketplace",
            "label": "price",
            "offset": 0,
            "slot": "5",
            "type": "t_uint256"
          },
          {
            "astId": 6372,
            "contract": "contracts/TheBunyProjectMarketplace.sol:TheBunyProjectMarketplace",
            "label": "sold",
            "offset": 0,
            "slot": "6",
            "type": "t_bool"
          }
        ],
        "numberOfBytes": "224"
      },
      "t_uint256": {
        "encoding": "inplace",
        "label": "uint256",
        "numberOfBytes": "32"
      }
    }
  }
}