{
  "_format": "hh-sol-artifact-1",
  "contractName": "HashBox",
  "sourceName": "contracts/HashBox.sol",
  "abi": [
    {
      "inputs": [
        {
          "internalType": "address",
          "name": "_boxOwner",
          "type": "address"
        },
        {
          "internalType": "string",
          "name": "_boxName",
          "type": "string"
        }
      ],
      "stateMutability": "nonpayable",
      "type": "constructor"
    },
    {
      "anonymous": false,
      "inputs": [
        {
          "indexed": false,
          "internalType": "uint256",
          "name": "id",
          "type": "uint256"
        },
        {
          "indexed": false,
          "internalType": "string",
          "name": "hash",
          "type": "string"
        },
        {
          "indexed": false,
          "internalType": "string",
          "name": "title",
          "type": "string"
        },
        {
          "indexed": false,
          "internalType": "address",
          "name": "author",
          "type": "address"
        }
      ],
      "name": "IpfsPinned",
      "type": "event"
    },
    {
      "inputs": [
        {
          "internalType": "uint256",
          "name": "",
          "type": "uint256"
        }
      ],
      "name": "_ipfs",
      "outputs": [
        {
          "internalType": "uint256",
          "name": "id",
          "type": "uint256"
        },
        {
          "internalType": "string",
          "name": "hash",
          "type": "string"
        },
        {
          "internalType": "string",
          "name": "title",
          "type": "string"
        },
        {
          "internalType": "address",
          "name": "author",
          "type": "address"
        }
      ],
      "stateMutability": "view",
      "type": "function"
    },
    {
      "inputs": [
        {
          "internalType": "string",
          "name": "_name",
          "type": "string"
        },
        {
          "internalType": "address",
          "name": "_address",
          "type": "address"
        }
      ],
      "name": "addContact",
      "outputs": [],
      "stateMutability": "nonpayable",
      "type": "function"
    },
    {
      "inputs": [],
      "name": "boxName",
      "outputs": [
        {
          "internalType": "string",
          "name": "",
          "type": "string"
        }
      ],
      "stateMutability": "view",
      "type": "function"
    },
    {
      "inputs": [],
      "name": "checkBalance",
      "outputs": [
        {
          "internalType": "uint256",
          "name": "amount",
          "type": "uint256"
        }
      ],
      "stateMutability": "view",
      "type": "function"
    },
    {
      "inputs": [],
      "name": "checkTxCost",
      "outputs": [
        {
          "internalType": "uint256",
          "name": "_price",
          "type": "uint256"
        }
      ],
      "stateMutability": "view",
      "type": "function"
    },
    {
      "inputs": [],
      "name": "getMyCidList",
      "outputs": [
        {
          "components": [
            {
              "internalType": "string",
              "name": "_ipfsHash",
              "type": "string"
            },
            {
              "internalType": "string",
              "name": "_title",
              "type": "string"
            }
          ],
          "internalType": "struct HashBox.cid[]",
          "name": "",
          "type": "tuple[]"
        }
      ],
      "stateMutability": "view",
      "type": "function"
    },
    {
      "inputs": [],
      "name": "owner",
      "outputs": [
        {
          "internalType": "address",
          "name": "",
          "type": "address"
        }
      ],
      "stateMutability": "view",
      "type": "function"
    },
    {
      "inputs": [
        {
          "internalType": "string",
          "name": "name",
          "type": "string"
        },
        {
          "internalType": "uint256",
          "name": "sendValue",
          "type": "uint256"
        }
      ],
      "name": "payContactByName",
      "outputs": [],
      "stateMutability": "payable",
      "type": "function"
    },
    {
      "inputs": [
        {
          "internalType": "string",
          "name": "_ipfsHash",
          "type": "string"
        },
        {
          "internalType": "string",
          "name": "_title",
          "type": "string"
        }
      ],
      "name": "pinHash",
      "outputs": [],
      "stateMutability": "nonpayable",
      "type": "function"
    },
    {
      "inputs": [],
      "name": "readAllContacts",
      "outputs": [
        {
          "components": [
            {
              "internalType": "string",
              "name": "name",
              "type": "string"
            },
            {
              "internalType": "address",
              "name": "wallet",
              "type": "address"
            },
            {
              "internalType": "uint256",
              "name": "dateAdded",
              "type": "uint256"
            }
          ],
          "internalType": "struct HashBox.Contact[]",
          "name": "",
          "type": "tuple[]"
        }
      ],
      "stateMutability": "view",
      "type": "function"
    },
    {
      "inputs": [],
      "name": "readLastTimelockUpdate",
      "outputs": [
        {
          "internalType": "uint256",
          "name": "lastTimelockUpdate",
          "type": "uint256"
        }
      ],
      "stateMutability": "view",
      "type": "function"
    },
    {
      "inputs": [],
      "name": "readSecurityTimelock",
      "outputs": [
        {
          "internalType": "uint256",
          "name": "securityTimelock",
          "type": "uint256"
        }
      ],
      "stateMutability": "view",
      "type": "function"
    },
    {
      "inputs": [],
      "name": "readTotalContacts",
      "outputs": [
        {
          "internalType": "uint256",
          "name": "totalContacts",
          "type": "uint256"
        }
      ],
      "stateMutability": "view",
      "type": "function"
    },
    {
      "inputs": [
        {
          "internalType": "string",
          "name": "name",
          "type": "string"
        }
      ],
      "name": "removeContactByName",
      "outputs": [],
      "stateMutability": "nonpayable",
      "type": "function"
    },
    {
      "inputs": [
        {
          "internalType": "uint256",
          "name": "duration",
          "type": "uint256"
        }
      ],
      "name": "updateTimelock",
      "outputs": [],
      "stateMutability": "nonpayable",
      "type": "function"
    },
    {
      "inputs": [],
      "name": "withdraw",
      "outputs": [],
      "stateMutability": "nonpayable",
      "type": "function"
    }
  ],
  "bytecode": "0x6080604052600080553480156200001557600080fd5b5060405162001e5938038062001e598339810160408190526200003891620000a3565b600b80546001600160a01b0319166001600160a01b038416179055600562000061828262000228565b5050600080805560015550605a60025542600355600480546001600160a01b03191633179055620002f4565b634e487b7160e01b600052604160045260246000fd5b60008060408385031215620000b757600080fd5b82516001600160a01b0381168114620000cf57600080fd5b602084810151919350906001600160401b0380821115620000ef57600080fd5b818601915086601f8301126200010457600080fd5b8151818111156200011957620001196200008d565b604051601f8201601f19908116603f011681019083821181831017156200014457620001446200008d565b8160405282815289868487010111156200015d57600080fd5b600093505b8284101562000181578484018601518185018701529285019262000162565b60008684830101528096505050505050509250929050565b600181811c90821680620001ae57607f821691505b602082108103620001cf57634e487b7160e01b600052602260045260246000fd5b50919050565b601f8211156200022357600081815260208120601f850160051c81016020861015620001fe5750805b601f850160051c820191505b818110156200021f578281556001016200020a565b5050505b505050565b81516001600160401b038111156200024457620002446200008d565b6200025c8162000255845462000199565b84620001d5565b602080601f8311600181146200029457600084156200027b5750858301515b600019600386901b1c1916600185901b1785556200021f565b600085815260208120601f198616915b82811015620002c557888601518255948401946001909101908401620002a4565b5085821015620002e45787850151600019600388901b60f8161c191681555b5050505050600190811b01905550565b611b5580620003046000396000f3fe6080604052600436106100f35760003560e01c80638da5cb5b1161008a578063c71daccb11610059578063c71daccb14610291578063dede4a31146102a6578063f14c8af9146102bb578063fa1ccffd146102d057600080fd5b80638da5cb5b1461020f5780639a53041914610247578063b87cab8414610269578063c4d1cd681461027c57600080fd5b806342708a18116100c657806342708a181461018a5780634a5e0b8c146101ad578063708adcd5146101cd578063868ff192146101ed57600080fd5b8063014794f0146100f857806306c5bc16146101235780633b08f804146101455780633ccfd60b14610175575b600080fd5b34801561010457600080fd5b5061010d6102f0565b60405161011a91906113bc565b60405180910390f35b34801561012f57600080fd5b5061014361013e36600461148f565b6104c5565b005b34801561015157600080fd5b506101656101603660046114d1565b6106cf565b60405161011a94939291906114ea565b34801561018157600080fd5b50610143610811565b34801561019657600080fd5b5061019f6108f2565b60405190815260200161011a565b3480156101b957600080fd5b506101436101c83660046115d2565b610970565b3480156101d957600080fd5b506101436101e8366004611636565b610aa8565b3480156101f957600080fd5b50610202610bf9565b60405161011a9190611699565b34801561021b57600080fd5b50600b5461022f906001600160a01b031681565b6040516001600160a01b03909116815260200161011a565b34801561025357600080fd5b5061025c610d8a565b60405161011a9190611710565b61014361027736600461172a565b610e18565b34801561028857600080fd5b5061019f611115565b34801561029d57600080fd5b5061019f611149565b3480156102b257600080fd5b5061019f61117b565b3480156102c757600080fd5b5061019f6111af565b3480156102dc57600080fd5b506101436102eb3660046114d1565b6111e3565b600b546060906001600160a01b031633146103265760405162461bcd60e51b815260040161031d90611776565b60405180910390fd5b600060015467ffffffffffffffff8111156103435761034361152f565b6040519080825280602002602001820160405280156103a157816020015b61038e60405180606001604052806060815260200160006001600160a01b03168152602001600081525090565b8152602001906001900390816103615790505b50905060005b6001548110156104bf57600681815481106103c4576103c46117c4565b90600052602060002090600302016040518060600160405290816000820180546103ed906117da565b80601f0160208091040260200160405190810160405280929190818152602001828054610419906117da565b80156104665780601f1061043b57610100808354040283529160200191610466565b820191906000526020600020905b81548152906001019060200180831161044957829003601f168201915b505050918352505060018201546001600160a01b0316602082015260029091015460409091015282518390839081106104a1576104a16117c4565b602002602001018190525080806104b79061182a565b9150506103a7565b50905090565b600b546001600160a01b031633146104ef5760405162461bcd60e51b815260040161031d90611776565b600060088383604051610503929190611843565b9081526020016040518091039020549050600154811061055d5760405162461bcd60e51b8152602060048201526015602482015274496e646578206973206f7574206f662072616e676560581b604482015260640161031d565b6006805461056d90600190611853565b8154811061057d5761057d6117c4565b90600052602060002090600302016006828154811061059e5761059e6117c4565b60009182526020909120600390910201806105b983826118bb565b5060018281015482820180546001600160a01b0319166001600160a01b039092169190911790556002928301549290910191909155600680548392600892916106029190611853565b81548110610612576106126117c4565b90600052602060002090600302016000016040516106309190611998565b90815260200160405180910390208190555060088383604051610654929190611843565b908152602001604051809103902060009055600680548061067757610677611a0e565b600082815260208120600019909201916003830201906106978282611320565b50600181810180546001600160a01b031916905560006002909201829055919092558054916106c583611a24565b9190505550505050565b600960205260009081526040902080546001820180549192916106f1906117da565b80601f016020809104026020016040519081016040528092919081815260200182805461071d906117da565b801561076a5780601f1061073f5761010080835404028352916020019161076a565b820191906000526020600020905b81548152906001019060200180831161074d57829003601f168201915b50505050509080600201805461077f906117da565b80601f01602080910402602001604051908101604052809291908181526020018280546107ab906117da565b80156107f85780601f106107cd576101008083540402835291602001916107f8565b820191906000526020600020905b8154815290600101906020018083116107db57829003601f168201915b505050600390930154919250506001600160a01b031684565b600b546001600160a01b0316331461083b5760405162461bcd60e51b815260040161031d90611776565b6000610845611149565b604051909150600090339083908381818185875af1925050503d806000811461088a576040519150601f19603f3d011682016040523d82523d6000602084013e61088f565b606091505b50509050806108ee5760405162461bcd60e51b815260206004820152602560248201527f54686572652077617320612070726f626c656d207768696c65207769746864726044820152646177696e6760d81b606482015260840161031d565b5050565b6000600460009054906101000a90046001600160a01b03166001600160a01b031663b2a7e29d6040518163ffffffff1660e01b8152600401602060405180830381865afa158015610947573d6000803e3d6000fd5b505050506040513d601f19601f8201168201806040525081019061096b9190611a3b565b905090565b600b546001600160a01b0316331461099a5760405162461bcd60e51b815260040161031d90611776565b60008251116109a857600080fd5b60008151116109b657600080fd5b336109c057600080fd5b6000805490806109cf8361182a565b909155505060408051608081018252600080548083526020808401878152848601879052336060860152918352600990529290208151815591519091906001820190610a1b9082611a54565b5060408201516002820190610a309082611a54565b5060609190910151600390910180546001600160a01b0319166001600160a01b03909216919091179055610a653383836112ae565b7f77c1824c71db6a5fedccf43dcf2924f2ec43d260a6c2a8bac5d9bc28039dbd20600054838333604051610a9c94939291906114ea565b60405180910390a15050565b600b546001600160a01b03163314610ad25760405162461bcd60e51b815260040161031d90611776565b6040805160806020601f8601819004028201810190925260608101848152600092829190879087908190850183828082843760009201829052509385525050506001600160a01b0385166020830152426040909201919091526006805460018101825591528151919250829160039091027ff652222313e28459528d920b65115c16c04f3efc82aaedc97be59f3f377c0d3f01908190610b729082611a54565b50602082810151600183810180546001600160a01b0319166001600160a01b039384161790556040948501516002909401939093559154918516600090815260079091528290208190559051600890610bce9087908790611843565b9081526040519081900360200190205560018054906000610bee8361182a565b919050555050505050565b336000908152600a60209081526040808320600201805482518185028101850190935280835260609492939192909184015b82821015610d815783829060005260206000209060020201604051806040016040529081600082018054610c5e906117da565b80601f0160208091040260200160405190810160405280929190818152602001828054610c8a906117da565b8015610cd75780601f10610cac57610100808354040283529160200191610cd7565b820191906000526020600020905b815481529060010190602001808311610cba57829003601f168201915b50505050508152602001600182018054610cf0906117da565b80601f0160208091040260200160405190810160405280929190818152602001828054610d1c906117da565b8015610d695780601f10610d3e57610100808354040283529160200191610d69565b820191906000526020600020905b815481529060010190602001808311610d4c57829003601f168201915b50505050508152505081526020019060010190610c2b565b50505050905090565b60058054610d97906117da565b80601f0160208091040260200160405190810160405280929190818152602001828054610dc3906117da565b8015610e105780601f10610de557610100808354040283529160200191610e10565b820191906000526020600020905b815481529060010190602001808311610df357829003601f168201915b505050505081565b600b546001600160a01b03163314610e425760405162461bcd60e51b815260040161031d90611776565b6000600660088585604051610e58929190611843565b90815260200160405180910390205481548110610e7757610e776117c4565b9060005260206000209060030201604051806060016040529081600082018054610ea0906117da565b80601f0160208091040260200160405190810160405280929190818152602001828054610ecc906117da565b8015610f195780601f10610eee57610100808354040283529160200191610f19565b820191906000526020600020905b815481529060010190602001808311610efc57829003601f168201915b505050918352505060018201546001600160a01b03166020820152600291820154604091820152905490820151919250610f5291611b0c565b421015610fad5760405162461bcd60e51b815260206004820152602360248201527f5468697320636f6e746163742077617320616464656420746f6f20726563656e604482015262746c7960e81b606482015260840161031d565b81600460009054906101000a90046001600160a01b03166001600160a01b031663b2a7e29d6040518163ffffffff1660e01b8152600401602060405180830381865afa158015611001573d6000803e3d6000fd5b505050506040513d601f19601f820116820180604052508101906110259190611a3b565b61102f9190611b0c565b3410156110705760405162461bcd60e51b815260206004820152600f60248201526e4e6f7420656e6f756768204554482160881b604482015260640161031d565b600081602001516001600160a01b03168360405160006040518083038185875af1925050503d80600081146110c1576040519150601f19603f3d011682016040523d82523d6000602084013e6110c6565b606091505b505090508061110e5760405162461bcd60e51b81526020600482015260146024820152732330b4b632b2103a379039b2b7321022ba3432b960611b604482015260640161031d565b5050505050565b600b546000906001600160a01b031633146111425760405162461bcd60e51b815260040161031d90611776565b5060015490565b600b546000906001600160a01b031633146111765760405162461bcd60e51b815260040161031d90611776565b504790565b600b546000906001600160a01b031633146111a85760405162461bcd60e51b815260040161031d90611776565b5060035490565b600b546000906001600160a01b031633146111dc5760405162461bcd60e51b815260040161031d90611776565b5060025490565b600b546001600160a01b0316331461120d5760405162461bcd60e51b815260040161031d90611776565b60025460035461121d9190611b0c565b4210156112a55760405162461bcd60e51b815260206004820152604a60248201527f596f75206d757374207761697420666f7220746865207365637572697479207460448201527f696d656c6f636b20746f20656c61707365206265666f72652074686973206973606482015269081c195c9b5a5d1d195960b21b608482015260a40161031d565b60025542600355565b60408051808201825283815260208082018490526001600160a01b0386166000908152600a825292832060029081018054600181018255908552919093208251929384939202019081906113029082611a54565b50602082015160018201906113179082611a54565b50505050505050565b50805461132c906117da565b6000825580601f1061133c575050565b601f01602090049060005260206000209081019061135a919061135d565b50565b5b80821115611372576000815560010161135e565b5090565b6000815180845260005b8181101561139c57602081850181015186830182015201611380565b506000602082860101526020601f19601f83011685010191505092915050565b60006020808301818452808551808352604092508286019150828160051b87010184880160005b8381101561143857603f1989840301855281516060815181865261140982870182611376565b838b01516001600160a01b0316878c0152928901519589019590955250948701949250908601906001016113e3565b509098975050505050505050565b60008083601f84011261145857600080fd5b50813567ffffffffffffffff81111561147057600080fd5b60208301915083602082850101111561148857600080fd5b9250929050565b600080602083850312156114a257600080fd5b823567ffffffffffffffff8111156114b957600080fd5b6114c585828601611446565b90969095509350505050565b6000602082840312156114e357600080fd5b5035919050565b8481526080602082015260006115036080830186611376565b82810360408401526115158186611376565b91505060018060a01b038316606083015295945050505050565b634e487b7160e01b600052604160045260246000fd5b600082601f83011261155657600080fd5b813567ffffffffffffffff808211156115715761157161152f565b604051601f8301601f19908116603f011681019082821181831017156115995761159961152f565b816040528381528660208588010111156115b257600080fd5b836020870160208301376000602085830101528094505050505092915050565b600080604083850312156115e557600080fd5b823567ffffffffffffffff808211156115fd57600080fd5b61160986838701611545565b9350602085013591508082111561161f57600080fd5b5061162c85828601611545565b9150509250929050565b60008060006040848603121561164b57600080fd5b833567ffffffffffffffff81111561166257600080fd5b61166e86828701611446565b90945092505060208401356001600160a01b038116811461168e57600080fd5b809150509250925092565b60006020808301818452808551808352604092508286019150828160051b87010184880160005b8381101561143857888303603f19018552815180518785526116e488860182611376565b91890151858303868b01529190506116fc8183611376565b9689019694505050908601906001016116c0565b6020815260006117236020830184611376565b9392505050565b60008060006040848603121561173f57600080fd5b833567ffffffffffffffff81111561175657600080fd5b61176286828701611446565b909790965060209590950135949350505050565b6020808252602e908201527f4f6e6c792074686520636f6e7472616374206f776e6572206d61792063616c6c60408201526d103a3434b990333ab731ba34b7b760911b606082015260800190565b634e487b7160e01b600052603260045260246000fd5b600181811c908216806117ee57607f821691505b60208210810361180e57634e487b7160e01b600052602260045260246000fd5b50919050565b634e487b7160e01b600052601160045260246000fd5b60006001820161183c5761183c611814565b5060010190565b8183823760009101908152919050565b8181038181111561186657611866611814565b92915050565b601f8211156118b657600081815260208120601f850160051c810160208610156118935750805b601f850160051c820191505b818110156118b25782815560010161189f565b5050505b505050565b8181036118c6575050565b6118d082546117da565b67ffffffffffffffff8111156118e8576118e861152f565b6118fc816118f684546117da565b8461186c565b6000601f82116001811461193057600083156119185750848201545b600019600385901b1c1916600184901b17845561110e565b600085815260209020601f19841690600086815260209020845b8381101561196a578286015482556001958601959091019060200161194a565b50858310156119885781850154600019600388901b60f8161c191681555b5050505050600190811b01905550565b60008083546119a6816117da565b600182811680156119be57600181146119d357611a02565b60ff1984168752821515830287019450611a02565b8760005260208060002060005b858110156119f95781548a8201529084019082016119e0565b50505082870194505b50929695505050505050565b634e487b7160e01b600052603160045260246000fd5b600081611a3357611a33611814565b506000190190565b600060208284031215611a4d57600080fd5b5051919050565b815167ffffffffffffffff811115611a6e57611a6e61152f565b611a7c816118f684546117da565b602080601f831160018114611ab15760008415611a995750858301515b600019600386901b1c1916600185901b1785556118b2565b600085815260208120601f198616915b82811015611ae057888601518255948401946001909101908401611ac1565b508582101561198857939096015160001960f8600387901b161c19169092555050600190811b01905550565b808201808211156118665761186661181456fea2646970667358221220f66ee0a5bfb8bf35f1516a8481f011c458bfa434e257f10b93fd9591250826e864736f6c63430008100033",
  "linkReferences": {},
  "deployedLinkReferences": {}
}